:100000000C94FA000C9420010C9420010C94200113
:100010000C9420010C9420010C9420010C942001DC
:100020000C9420010C9420010C9420010C942001CC
:100030000C9420010C9420010C9420010C942001BC
:100040000C9420010C9420010C9420010C942001AC
:100050000C9420010C9420010C9420010C9420019C
:100060000C9420010C9420010C9420010C9420018C
:100070000C94430E0C94A00E0C94880E0C9420014A
:100080000C9420010C9420010C9420010C9420016C
:100090000C9420010C9420010C9420010C9420015C
:1000A0000C9420010C9420010C9420010C9420014C
:1000B0000C9420010C9420010C9420010C9420013C
:1000C0000C9420010C9420010C9420010C9420012C
:1000D0000C9420010C9420010C9420010C9420011C
:1000E0000C9420010C9420010C94BA0F0C9417105E
:1000F0000C94FF0F0C9420010C9420010C9420010F
:100100000C9420010C9420010C9420010C942001EB
:100110000C9420010C9420010C9420010C942001DB
:100120000C9420010C9420010C9420010C942001CB
:100130000C9420010C9420010C9420010C942001BB
:100140000C9420010C9420010C9420010C942001AB
:100150000C9420010C9420010C9420010C9420019B
:100160000C94CC0C0C94290D0C94110D0C942001C2
:100170000C9420010C9420010C9420010C9420017B
:100180000C9420010C9420010C9420010C9420016B
:100190000C9420010C9420010C9420010C9420015B
:1001A0000C9420010C9420010C9420010C94220149
:1001B0000C9420010C9420010C9420010C9420013B
:1001C0000C9420010C9420010C9420010C9420012B
:1001D0000C9420010C9420010C9420010C9420011B
:1001E0000C9420010C9420010C9420010C9420010B
:1001F0000C94200111241FBECFEFDFE3DEBFCDBF83
:1002000000E00CBF18BE19BE1ABE1BBE12E2A0E071
:10021000B0E2E4EDF6E200E00BBF02C007900D9201
:10022000AE30B107D9F71BBE18E2AEE0B2E201C0B2
:100230001D92A333B107E1F70E9454030C94681395
:100240000C9400001F920F920FB60F92009038008E
:100250000F92009039000F9200903B000F921124F2
:10026000109238001092390010923B002F933F9368
:100270004F935F936F937F938F939F93AF93BF93AE
:10028000EF93FF93DF93CF93CDB7DEB78AE198E288
:100290000E94E70ACF91DF91FF91EF91BF91AF915B
:1002A0009F918F917F916F915F914F913F912F918E
:1002B0000F9000923B000F90009239000F90009237
:1002C00038000F900FBE0F901F901895DF93CF93BB
:1002D000CDB7DEB780E090E20E949C0F8EE190E205
:1002E0000E949C0F84E390E20E949C0F85E490E2C0
:1002F0000E949C0F8CE590E20E949C0F83E790E2A5
:100300000E949C0F89E890E20E949C0F8DE990E288
:100310000E949C0FE0E2F6E08085882F90E08071DB
:100320009070009721F080E30E94710F03C081E379
:100330000E94710FE0E2F6E08085882F90E08072E5
:100340009070009721F080E30E94710F03C081E359
:100350000E94710FE0E2F6E08085882F90E08074C3
:100360009070009721F080E30E94710F03C081E339
:100370000E94710FE0E2F6E08085882324F480E398
:100380000E94710F03C081E30E94710F86EA90E220
:100390000E949C0F89EA90E20E949C0F80912B287A
:1003A00082958F70805D0E94710F80912B288F70D5
:1003B000805D0E94710F8DE20E94710F80912A284A
:1003C00082958F708170805D0E94710F80912A28C4
:1003D0008F70805D0E94710F8DE20E94710F80917D
:1003E000292882958F708370805D0E94710F8091A3
:1003F00029288F70805D0E94710F80E20E94710F2A
:100400008091272882958F708370805D0E94710F84
:10041000809127288F70805D0E94710F8AE30E946F
:10042000710F8091262882958F708770805D0E9461
:10043000710F809126288F70805D0E94710F8AE372
:100440000E94710F8091252882958F708770805D42
:100450000E94710F809125288F70805D0E94710F1E
:1004600086EA90E20E949C0FCF91DF910895DF937E
:10047000CF930F920F92CDB7DEB71A820E94390F39
:1004800089838981803380F089818A3368F48A8105
:100490008295807F8A8399818A81890F80538A839C
:1004A00089810E94710FEACF8A810F900F90CF91BE
:1004B000DF910895DF93CF93CDB7DEB7EA97CDBF35
:1004C000DEBF1F82188613C08F819885FC01E05023
:1004D000F04C8081882F90E089839A8389819A816A
:1004E000009749F48F81988501968F8398878F8133
:1004F000988599234CF78F81988520E88030920762
:10050000E1F000D000D0EDB7FEB73196CE010996EC
:100510008083918381EB90E2828393838F8198859E
:10052000848395830E949D108DB79EB706968DBFDC
:100530009EBFCE0109960E949C0F1D821E821B82C7
:100540001C821F8218861EC08F81988581709070D2
:10055000882339F08F819885892F992789839A83F9
:1005600005C08F819885907089839A838F81988543
:10057000FC01E050F04C898180838F819885019641
:100580008F8398878F8198859923F4F61F82188628
:1005900042C08F819885FC01E050F04C8081882F0B
:1005A00090E089839A838F819885817090708823E9
:1005B000B9F08F819885292F332789819A8128174F
:1005C000390721F18D819E8101968D839E838B81D8
:1005D0009C810097D9F48F8198858B839C8316C06A
:1005E0008F8198859C01307089819A8128173907FD
:1005F00069F08D819E8101968D839E838B819C8184
:10060000009721F48F8198858B839C838F819885B7
:1006100001968F8398878F81988599230CF0B9CFA5
:100620008D819E81009721F18DB79EB708978DBF70
:100630009EBFEDB7FEB73196CE01099680839183B8
:1006400089ED90E2828393838D819E81848395835B
:100650008B819C81868397830E949D108DB79EB766
:1006600008968DBF9EBFCE0109960E949C0F04C0C4
:1006700083E091E20E949C0F1F8218860BC08F813D
:100680009885FC01E050F04C10828F81988501968E
:100690008F8398878F81988599238CF7EA96CDBFB1
:1006A000DEBFCF91DF9108950F93DF93CF93CDB746
:1006B000DEB76397CDBFDEBF0E94660686E990E095
:1006C00061E00E94E60581E090E08C879D8705C08F
:1006D0008C859D8501968C879D878C859D8500974F
:1006E000B9F7E0EEF6E083E08583E0EEF6E087E040
:1006F0008183E0E0F7E01282E0E2F7E08FEF8183B0
:1007000080E460E04CE021E00E94870880E594E00E
:1007100060E220E030E440E050E000E00E94EA08BF
:10072000E0ECF7E081E08583E0ECF7E081E08183B5
:10073000E0E0F6E080EF8683E0E0F6E080EF8183A2
:10074000E0E2F6E080EF8283E0E6F6E082E0868396
:10075000E0E6F6E082E08183E0E4F6E080E2868392
:10076000E0E4F6E080E281830E947D0D0E94F40EB9
:100770000E946B108AE198E260EB74E040E42EE89E
:100780000E94CD097894A0EAB0E0E0EAF0E082812E
:10079000816012968C931297E0E6F6E08085882FB0
:1007A00090E082709070009729F0E0E6F6E082E039
:1007B000868304C0E0E6F6E082E085831E868AE157
:1007C00098E29E01225F3F4F6FE6A90121E000E021
:1007D0000E94630A809131288823E1F781E090E04C
:1007E0008A879B8705C08A859B8501968A879B8718
:1007F0008A859B850097B9F78AE198E26FE640E029
:1008000050E020E007E00E94630A809131288823AD
:10081000E1F70E9466010E94390F282F30E02A8BF1
:100820003B8B8A899B898533910509F4BCC02A8951
:100830003B8926333105F4F48A899B8982339105FB
:1008400009F452C02A893B892333310534F48A895B
:100850009B898133910539F19FCF2A893B892333C5
:10086000310509F462C08A899B898433910509F4B2
:100870007DC092CF2A893B892733310509F4C6C050
:100880008A899B89873391050CF4A0C02A893B890A
:100890002833310509F4DAC08A899B8989339105A7
:1008A00009F4D7C079CFE0E0F6E08085882F90E0AA
:1008B00080719070009729F0E0E0F6E080E1868397
:1008C00004C0E0E0F6E080E1858381E090E0888785
:1008D000998705C088859985019688879987888535
:1008E00099850097B9F758CFE0E0F6E08085882F2A
:1008F00090E080729070009729F0E0E0F6E080E2EE
:10090000868304C0E0E0F6E080E2858381E090E049
:100910008E839F8305C08E819F8101968E839F83E6
:100920008E819F810097B9F737CFE0E0F6E08085B0
:10093000882F90E080749070009729F0E0E0F6E056
:1009400080E4868304C0E0E0F6E080E4858381E013
:1009500090E08C839D8305C08C819D8101968C8362
:100960009D838C819D810097B9F716CFE0E0F6E07A
:10097000808588232CF4E0E0F6E080E8868304C0DC
:10098000E0E0F6E080E8858381E090E08A839B8365
:1009900005C08A819B8101968A839B838A819B8182
:1009A0000097B9F7F9CEE0E4F6E08085882F90E073
:1009B00080729070009729F0E0E4F6E080E2868390
:1009C000EBCEE0E4F6E080E28583E6CE87E191E2DB
:1009D0000E94250E88E291E20E949C0F82E591E23E
:1009E0000E949C0F0E94390F84E691E20E949C0FA6
:1009F00004C00E94C20D0E94710F0E94AF0D882397
:100A0000C1F786EA90E20E949C0FC6CE8CE791E285
:100A10000E94AE0C8DE891E20E949C0F82E591E26B
:100A20000E949C0F0E94390F87EB91E20E949C0F5D
:100A300004C00E94490C0E94710F0E94360C88234A
:100A4000C1F786EA90E20E949C0FA6CE0E945A024D
:100A5000A3CE8FEC91E20E949C0F0E943702898303
:100A600086E08F878981888B8AE198E29E01215FE9
:100A70003F4F6FE6A90122E000E00E94630A8091E7
:100A800031288823E1F78BED91E20E949C0F0E94B0
:100A90003702898385E08F8789818F71888B8AE10E
:100AA00098E29E01215F3F4F6FE6A90122E000E03E
:100AB0000E94630A809131288823E1F788EE91E251
:100AC0000E949C0F0E943702898384E08F8789816E
:100AD0008F73888B8AE198E29E01215F3F4F6FE61A
:100AE000A90122E000E00E94630A80913128882356
:100AF000E1F784EF91E20E949C0F0E943702898304
:100B000082E08F8789818F73888B88E0898B8AE167
:100B100098E29E01215F3F4F6FE6A90123E000E0CC
:100B20000E94630A809131288823E1F780E092E2F5
:100B30000E949C0F0E94370289831F8680E8888B61
:100B400089818F77898B8AE198E29E01215F3F4FEF
:100B50006FE6A90123E000E00E94630A809131283A
:100B60008823E1F719CEDF93CF930F920F92CDB781
:100B7000DEB789836A838A818F718A83E0E5F0E03A
:100B800099818A81892B85830F900F90CF91DF9176
:100B90000895DF93CF930F920F92CDB7DEB78A837C
:100BA000A0E5B0E0E0E5F0E08081982F8A818095B3
:100BB00089238C93E0E5F0E090818A818923898301
:100BC00089810F900F90CF91DF9108950F93DF935C
:100BD000CF9300D000D0CDB7DEB78C839D836E83DA
:100BE000EFE3F0E080818B83F8948C819D81898391
:100BF0009A83EBE3F0E0108289819A812E81FC01D7
:100C000008ED04BF2083EFE3F0E08B81808326961C
:100C1000CDBFDEBFCF91DF910F910895DF93CF93CA
:100C200000D0CDB7DEB78A836B838A819B81892B05
:100C3000898381E490E069810E94E6052396CDBF17
:100C4000DEBFCF91DF910895DF93CF930F920F9284
:100C5000CDB7DEB78A83E0E4F0E08081982F987FFB
:100C60008A81892B898380E490E069810E94E6056E
:100C7000E0E4F0E090818A818923898389810F9063
:100C80000F90CF91DF910895DF93CF9300D000D0E4
:100C9000CDB7DEB789836A834B8380E590E08D838F
:100CA0009E838A81882319F090E29C8301C01C8274
:100CB00089819C81982B8B81892BED81FE81828398
:100CC0002696CDBFDEBFCF91DF910895DF93CF93FE
:100CD000CDB7DEB780EC60E043E00E944406A0E5BB
:100CE000B0E0E0E5F0E0808188608C93E0E5F0E042
:100CF0008181882F90E0887090700097B9F380EC24
:100D000062E00E94B305A0E5B0E0E0E5F0E080819C
:100D100080618C93E0E5F0E08181882F90E0807124
:100D200090700097B9F384E00E94240681E00E944D
:100D3000C905CF91DF910895DF93CF93CDB7DEB78B
:100D40002597CDBFDEBF8B836C834D830E94410707
:100D5000E0ECF1E083E382878B81882F90E0880FBD
:100D6000991F82959295907F9827807F98279C0164
:100D70008C81882F90E08F719070822B932B8983C8
:100D80009A83E0ECF1E089818083E0ECF1E08981F5
:100D90009A81892F99278F718183E0ECF1E012828B
:100DA000E0ECF1E08D818483E0ECF1E085E3828783
:100DB000EF93FF930F932F93EBECF1E008ED21E01D
:100DC00004BF20832F910F91FF91EF912596CDBF06
:100DD000DEBFCF91DF910895DF93CF9300D00F92C4
:100DE000CDB7DEB78B836C830E9435078B81882F4C
:100DF00090E0880F991F82959295907F9827807F29
:100E000098279C018C81882F90E08F719070822BA5
:100E1000932B89839A83E0ECF1E089818083E0EC75
:100E2000F1E089819A81892F99278F718183E0EC84
:100E3000F1E01282E0ECF1E086E08287EF93FF932D
:100E40000F932F93EBECF1E008ED21E004BF20833A
:100E50002F910F91FF91EF91E0ECF1E084812496C6
:100E6000CDBFDEBFCF91DF910895DF93CF93CDB794
:100E7000DEB7E0ECF1E087858823DCF3CF91DF91EA
:100E80000895DF93CF93CDB7DEB70E943507E0EC2E
:100E9000F1E08785882F90E082709070009791F044
:100EA000E0ECF1E086E38287EF93FF930F932F93BB
:100EB000EBECF1E008ED21E004BF20832F910F91CE
:100EC000FF91EF91CF91DF910895DF93CF930F9230
:100ED0000F92CDB7DEB789836A830E943507E0ECB5
:100EE000F1E083E38287E0ECF1E089818083E0EC4C
:100EF000F1E01182E0ECF1E01282E0ECF1E08A81B5
:100F000084830F900F90CF91DF910895DF93CF935B
:100F100000D0CDB7DEB78A839B830E943507E0EC13
:100F2000F1E083E38287E0ECF1E01182E0ECF1E0B4
:100F30001282198214C0E0ECF1E089818083A0EC78
:100F4000B1E0EA81FB81808114968C9314978A81A9
:100F50009B8101968A839B8389818F5F89838981A5
:100F6000803248F32396CDBFDEBFCF91DF91089545
:100F7000DF93CF9300D0CDB7DEB78B830E943507C8
:100F80008B81882F90E0880F991F82959295907F92
:100F90009827807F982789839A83E0ECF1E0898104
:100FA0008083E0ECF1E089819A81892F99278F7104
:100FB0008183E0ECF1E01282E0ECF1E085E38287EE
:100FC000EF93FF930F932F93EBECF1E008ED21E00B
:100FD00004BF20832F910F91FF91EF912396CDBFF6
:100FE000DEBFCF91DF910895DF93CF9300D0CDB7CF
:100FF000DEB78B830E9435078B81882F90E0880FA6
:10100000991F82959295907F9827807F9827898352
:101010009A83E0ECF1E089818083E0ECF1E0898162
:101020009A81892F99278F718183E0ECF1E01282F8
:10103000E0ECF1E082E38287EF93FF930F932F932D
:10104000EBECF1E008ED21E004BF20832F910F913C
:10105000FF91EF912396CDBFDEBFCF91DF91089531
:10106000DF93CF9300D0CDB7DEB78B830E943507D7
:101070008B81882F90E0880F991F82959295907FA1
:101080009827807F982789839A83E0ECF1E0898113
:101090008083E0ECF1E089819A81892F99278F7113
:1010A0008183E0ECF1E01282E0ECF1E084E38287FE
:1010B000EF93FF930F932F93EBECF1E008ED21E01A
:1010C00004BF20832F910F91FF91EF912396CDBF05
:1010D000DEBFCF91DF910895DF93CF93CDB7DEB719
:1010E0000E943507E0ECF1E080E38287EF93FF9305
:1010F0000F932F93EBECF1E008ED21E004BF208388
:101100002F910F91FF91EF91CF91DF910895DF9390
:10111000CF9300D00F92CDB7DEB789836A834B831C
:101120002C83E0E4F4E099818A81982B8B81982BC1
:101130008C81892B80832496CDBFDEBFCF91DF9138
:1011400008950F93DF93CF93CDB7DEB72897CDBF28
:10115000DEBF89839A836B832C833D834E835F83B9
:101160000887E981FA818181982F987F8885877027
:10117000892BE981FA8181838C819D81AE81BF8138
:10118000892F9A2FAB2FBB27AC018B818695869533
:10119000282F30E08FEF9FEF022E02C0880F991F9B
:1011A0000A94E2F784239523E981FA818283938369
:1011B000E981FA818081982F90788B81892B8160D9
:1011C000E981FA8180832896CDBFDEBFCF91DF9180
:1011D0000F9108950F93DF93CF93CDB7DEB7289784
:1011E000CDBFDEBF89839A836B832C833D834E837F
:1011F0005F830887E981FA818181982F987F8885AC
:101200008770892BE981FA8181838C819D81AE81F0
:10121000BF81892F9A2FAB2FBB27AC018B8186957D
:101220008695282F30E08FEF9FEF022E02C0880FA7
:10123000991F0A94E2F784239523E981FA81828336
:101240009383E981FA818081982F90788B81892B13
:101250008260E981FA8180832896CDBFDEBFCF917D
:10126000DF910F9108958F92AF92CF92EF920F93EB
:10127000DF93CF93CDB7DEB76197CDBFDEBF898354
:101280004A835B836C837D832E830F83E886C986C4
:10129000AA868B8680E494E0888B998BE0E4F4E066
:1012A0008181982F907F9F878E81882319F0E8E0B5
:1012B000EE8701C01E86FF858E85F82BFD878F8106
:1012C000882319F094E09C8701C01C869D85EC85DD
:1012D0009E2B8885892BE889F9898183E0E4F4E0F5
:1012E00099858A85982B8B85892B8087E0E4F4E0AB
:1012F0009C8D8D8D982B8E8D892B8187E0E4F4E079
:101300008F8D98A1937084839583E0E4F4E089A1A4
:101310009AA19F7386839783A0E4B4E0E0E4F4E0AD
:10132000858D887F5D968C93E0E4F4E08A819B81D3
:10133000AC81BD81892F9A2FAB2FBB27AC0189814E
:1013400086958695282F30E08FEF9FEF022E02C002
:10135000880F991F0A94E2F784239523868F978F2D
:10136000A0E4B4E0E0E4F4E0848D982F90788981E3
:10137000892B83605C968C935C97E0E4F4E0858D28
:101380008823DCF76196CDBFDEBFCF91DF910F914F
:10139000EF90CF90AF908F900895DF93CF9300D0D0
:1013A00000D0CDB7DEB789839A836B837C834D836E
:1013B0002E83E981FA818B819C8180839183E981ED
:1013C000FA810190F081E02D8D8188638183E9812C
:1013D000FA810190F081E02D8E818583E981FA8187
:1013E0000190F081E02D81E084832696CDBFDEBFA1
:1013F000CF91DF910895DF93CF9300D0CDB7DEB7C3
:101400008A839B83EA81FB810190F081E02D8481B6
:101410008370898389812396CDBFDEBFCF91DF9111
:101420000895DF93CF9300D00F92CDB7DEB78A83B4
:101430009B83EA81FB818789198289812496CDBFAC
:10144000DEBFCF91DF9108950F93DF93CF93CDB798
:10145000DEB72797CDBFDEBF8A839B836C834D8326
:101460005E832F838A819B812D813E816C81A901BE
:101470002F8100E00E94630A898389812796CDBF6E
:10148000DEBFCF91DF910F9108950F93DF93CF933C
:10149000CDB7DEB72597CDBFDEBF8A839B836C8334
:1014A0004D838A819B816C8140E050E020E00D817A
:1014B0000E94630A898389812596CDBFDEBFCF91C3
:1014C000DF910F9108950F93DF93CF93CDB7DEB7E0
:1014D0002B97CDBFDEBF8C839D836E834F83588750
:1014E00029870A878985893010F01B8668C08A851C
:1014F000893010F01B8663C0EC81FD8187898823C9
:1015000009F05CC0EC81FD8181E0878BEC81FD817D
:10151000108E8E81880FEC81FD8182831B8216C024
:101520008B81482F50E08B81282F30E08F81988568
:10153000FC01E20FF31F20818C819D81840F951F98
:10154000FC01339620838B818F5F8B839B81898500
:10155000981730F3EC81FD818985838BEC81FD81C7
:101560008A85848BEC81FD81158AEC81FD81168A48
:10157000EC81FD818389882369F0EC81FD81828182
:101580008E7F8A83EC81FD810190F081E02D8A813C
:10159000868311C0EC81FD818489882361F0EC8110
:1015A000FD81828181608983EC81FD810190F081E0
:1015B000E02D8981868381E08B8701C01B868B8526
:1015C0002B96CDBFDEBFCF91DF910F910895DF93B2
:1015D000CF9300D0CDB7DEB78A839B83EA81FB81AE
:1015E0000190F081E02D848189838981882F90E0AA
:1015F00088709070009739F48981882F90E084700A
:101600009070009729F08A819B810E94270B19C056
:101610008981882F90E080749070009729F08A81EA
:101620009B810E94560B0DC0898188232CF48A81EE
:101630009B810E94C80B05C08A819B8166E00E9445
:10164000210C2396CDBFDEBFCF91DF910895DF93AC
:10165000CF9300D0CDB7DEB78A839B83EA81FB812D
:101660000190F081E02D848189838981882F90E029
:1016700084709070009729F0EA81FB8184E0808F6C
:1016800004C0EA81FB8183E0808FEA81FB810190C5
:10169000F081E02D898188608483EA81FB81178A4B
:1016A0002396CDBFDEBFCF91DF910895DF93CF9317
:1016B00000D000D0CDB7DEB78D839E83ED81FE8153
:1016C00083898C83ED81FE8184898B83ED81FE810A
:1016D0000190F081E02D8481882F90E080719070DE
:1016E000009779F0ED81FE810190F081E02D83E09B
:1016F0008383ED81FE8185E0808FED81FE81178AF5
:1017000041C0ED81FE8195898C819817E0F4ED81CF
:10171000FE818589282F30E08D819E81820F931F65
:10172000FC01339680818A83ED81FE810190F081F6
:10173000E02D8A818783ED81FE8185898F5FED8130
:10174000FE81858B1FC0ED81FE8196898B81981764
:1017500068F4ED81FE81828181608983ED81FE8163
:101760000190F081E02D898186830CC0ED81FE819E
:101770000190F081E02D83E083838D819E8161E083
:101780000E94210C2696CDBFDEBFCF91DF91089538
:10179000DF93CF9300D00F92CDB7DEB78B839C83BE
:1017A000EB81FC8186898830E0F4EB81FC8101903B
:1017B000F081E02D87818983EB81FC818689282F48
:1017C00030E08B819C81820F931FFC013B968981C5
:1017D0008083EB81FC8186898F5FEB81FC81868B26
:1017E0000CC0EB81FC810190F081E02D83E08383CC
:1017F0008B819C8162E00E94210CEB81FC818489B9
:101800008A83EB81FC8196898A81981740F4EB8169
:10181000FC810190F081E02D82E083830CC0EB819C
:10182000FC810190F081E02D87E083838B819C8196
:1018300061E00E94210C2496CDBFDEBFCF91DF91E5
:101840000895DF93CF9300D0CDB7DEB789839A8315
:101850006B83E981FA818B81808FE981FA81178A14
:101860002396CDBFDEBFCF91DF910895DF93CF9355
:101870000F92CDB7DEB790910E2480910F2419827C
:10188000981711F081E0898389810F90CF91DF91C2
:101890000895DF93CF930F92CDB7DEB790910E24CA
:1018A00080910F249817D1F380910F24882F90E016
:1018B000FC01E25FFD4D8081898380910F248F5F61
:1018C00080930F2489810F90CF91DF910895DF934A
:1018D000CF9300D0CDB7DEB7809110248F5F8A837D
:1018E0008091112489831B829A818981981711F034
:1018F00081E08B838B812396CDBFDEBFCF91DF91BB
:101900000895DF93CF930F920F92CDB7DEB78A83FE
:101910000E94670C91E089278823D1F780911024D9
:1019200089838981882F90E0FC01E25FFC4D8A81E8
:10193000808389818F5F80931024A0EAB9E0E0EA78
:10194000F9E083818C7F816013968C93139780E0FC
:1019500090E00F900F90CF91DF910895DF93CF9398
:101960000F920F92CDB7DEB789839A830BC0E981BE
:10197000FA81208189819A81019689839A83822FB5
:101980000E94810CE981FA818081882381F70F9080
:101990000F90CF91DF9108951F920F920FB60F9283
:1019A000009038000F9200903B000F92112410928B
:1019B000380010923B008F939F93EF93FF93DF9338
:1019C000CF930F920F92CDB7DEB780910E248F5F29
:1019D0008A83E0EAF9E08081898390910F248A81EB
:1019E000891761F080910E24882F90E0FC01E25F5E
:1019F000FD4D898180838A8180930E240F900F9002
:101A0000CF91DF91FF91EF919F918F910F90009275
:101A10003B000F90009238000F900FBE0F901F9068
:101A200018951F920F920FB60F92009038000F92E8
:101A3000112410923800DF93CF93CDB7DEB7CF914A
:101A4000DF910F90009238000F900FBE0F901F9003
:101A500018951F920F920FB60F92009038000F92B8
:101A6000009039000F9200903B000F9211241092C9
:101A700038001092390010923B008F939F93AF93E0
:101A8000BF93EF93FF93DF93CF93CDB7DEB79091E2
:101A9000102480911124981751F4A0EAB9E0E0EAEB
:101AA000F9E083818C7F13968C93139710C0A0EA82
:101AB000B9E080911124882F90E0FC01E25FFC4D99
:101AC00080818C93809111248F5F80931124CF911A
:101AD000DF91FF91EF91BF91AF919F918F910F9007
:101AE00000923B000F90009239000F900092380056
:101AF0000F900FBE0F901F901895DF93CF93CDB727
:101B0000DEB7E0E6F6E088E08183E0E6F6E084E038
:101B10008283E0EAF9E083E08583E0EAF9E08FE0A0
:101B20008683E0EAF9E01782E0EAF9E084E1838362
:101B3000E0EAF9E01482A0EAB9E0E0EAF9E08481A1
:101B4000806114968C93A0EAB9E0E0EAF9E0848120
:101B5000886014968C931497CF91DF910895DF934A
:101B6000CF930F92CDB7DEB79091122680911326B6
:101B70001982981711F081E0898389810F90CF91A4
:101B8000DF910895DF93CF930F92CDB7DEB7909199
:101B90001226809113269817D1F380911326882F4F
:101BA00090E0FC01EE5EFB4D8081898380911326DD
:101BB0008F5F8093132689810F90CF91DF910895D5
:101BC000DF93CF9300D0CDB7DEB7809114268F5F1F
:101BD0008A838091152689831B829A81898198172F
:101BE00011F081E08B838B812396CDBFDEBFCF9137
:101BF000DF910895DF93CF930F920F92CDB7DEB7A9
:101C00008A830E94E00D91E089278823D1F7809193
:101C1000142689838981882F90E0FC01EE5EFA4DBD
:101C20008A81808389818F5F80931426A0EBB8E03E
:101C3000E0EBF8E083818C7F816013968C9313979F
:101C40000F900F90CF91DF910895DF93CF930F9274
:101C50000F92CDB7DEB789839A830BC0E981FA81F1
:101C6000208189819A81019689839A83822F0E949B
:101C7000FA0DE981FA818081882381F70F900F9016
:101C8000CF91DF9108951F920F920FB60F9200909F
:101C900038000F9200903B000F92112410923800F0
:101CA00010923B008F939F93EF93FF93DF93CF931B
:101CB0000F920F92CDB7DEB7809112268F5F8A8385
:101CC000E0EBF8E080818983909113268A8189175F
:101CD00061F080911226882F90E0FC01EE5EFB4DB2
:101CE000898180838A81809312260F900F90CF91F3
:101CF000DF91FF91EF919F918F910F9000923B00A8
:101D00000F90009238000F900FBE0F901F90189503
:101D10001F920F920FB60F92009038000F9211246D
:101D200010923800DF93CF93CDB7DEB7CF91DF911C
:101D30000F90009238000F900FBE0F901F901895D3
:101D40001F920F920FB60F92009038000F920090E2
:101D500039000F9200903B000F921124109238002E
:101D60001092390010923B008F939F93AF93BF93D3
:101D7000EF93FF93DF93CF93CDB7DEB79091142607
:101D800080911526981751F4A0EBB8E0E0EBF8E04D
:101D900083818C7F13968C93139710C0A0EBB8E0CF
:101DA00080911526882F90E0FC01EE5EFA4D80812F
:101DB0008C93809115268F5F80931526CF91DF91AC
:101DC000FF91EF91BF91AF919F918F910F900092F2
:101DD0003B000F90009239000F90009238000F9056
:101DE0000FBE0F901F901895DF93CF93CDB7DEB73E
:101DF000E0E4F6E080E88183E0E4F6E080E48283DA
:101E0000E0EBF8E083E08583E0EBF8E08FE08683A9
:101E1000E0EBF8E01782E0EBF8E084E18383E0EBAD
:101E2000F8E01482A0EBB8E0E0EBF8E08481806198
:101E300014968C93A0EBB8E0E0EBF8E08481886026
:101E400014968C931497CF91DF910895DF93CF93DD
:101E50000F92CDB7DEB7909116288091172819827E
:101E6000981711F081E0898389810F90CF91DF91DC
:101E70000895DF93CF930F92CDB7DEB790911628D8
:101E8000809117289817D1F380911728882F90E018
:101E9000FC01EA5EF94D80818983809117288F5F6C
:101EA0008093172889810F90CF91DF910895DF9358
:101EB000CF9300D0CDB7DEB7809118288F5F8A838B
:101EC0008091192889831B829A818981981711F042
:101ED00081E08B838B812396CDBFDEBFCF91DF91D5
:101EE0000895DF93CF930F920F92CDB7DEB78A8319
:101EF0000E94570F91E089278823D1F780911828F5
:101F000089838981882F90E0FC01EA5EF84D8A81FF
:101F1000808389818F5F80931828A0EABAE0E0EA85
:101F2000FAE083818C7F816013968C9313970F90D6
:101F30000F90CF91DF910895DF93CF930F920F927F
:101F4000CDB7DEB789839A830BC0E981FA812081FE
:101F500089819A81019689839A83822F0E94710FC9
:101F6000E981FA818081882381F70F900F90CF91CA
:101F7000DF9108951F920F920FB60F9200903800D4
:101F80000F9200903B000F92112410923800109293
:101F90003B008F939F93EF93FF93DF93CF930F9229
:101FA0000F92CDB7DEB7809116288F5F8A83E0EA63
:101FB000FAE080818983909117288A81891761F0DE
:101FC00080911628882F90E0FC01EA5EF94D898106
:101FD00080838A81809316280F900F90CF91DF9194
:101FE000FF91EF919F918F910F9000923B000F9086
:101FF000009238000F900FBE0F901F9018951F92FF
:102000000F920FB60F92009038000F921124109289
:102010003800DF93CF93CDB7DEB7CF91DF910F902C
:10202000009238000F900FBE0F901F9018951F92CE
:102030000F920FB60F92009038000F920090390067
:102040000F9200903B000F921124109238001092D2
:10205000390010923B008F939F93AF93BF93EF9300
:10206000FF93DF93CF93CDB7DEB79091182880917F
:102070001928981751F4A0EABAE0E0EAFAE083815F
:102080008C7F13968C93139710C0A0EABAE08091CE
:102090001928882F90E0FC01EA5EF84D80818C932E
:1020A000809119288F5F80931928CF91DF91FF913C
:1020B000EF91BF91AF919F918F910F9000923B0054
:1020C0000F90009239000F90009238000F900FBED1
:1020D0000F901F901895DF93CF93CDB7DEB7E0E850
:1020E000F6E088E08183E0E8F6E084E08283E0EADD
:1020F000FAE083E08583E0EAFAE08FE08683E0EAB5
:10210000FAE01782E0EAFAE084E18383E0EAFAE0A9
:102110001482A0EABAE0E0EAFAE0848180611496D1
:102120008C93A0EABAE0E0EAFAE084818860149631
:102130008C931497CF91DF9108950F931F93DF93A2
:10214000CF93CDB7DEB72E97CDBFDEBF0E891F89E7
:1021500086E08C8309831A838FEF9FE78D839E83AC
:102160009E01265E3F4FCE010196688D798DA901B3
:102170000E94C8102F813885020F131FF8011082AA
:102180002E96CDBFDEBFCF91DF911F910F910895A5
:102190002F923F924F925F926F927F928F929F9277
:1021A000AF92BF92CF92DF92EF92FF920F931F9365
:1021B000DF93CF93CDB7DEB72B97CDBFDEBF3C010A
:1021C0002B015A01FC0116821782838181FD03C015
:1021D0006FEF7FEFC6C19AE0892E1E010894211C83
:1021E000311CF3012381F20123FD859123FF8191AD
:1021F0002F01882309F4B2C1853239F423FD85917A
:1022000023FF81912F01853229F490E0B3010E94D0
:10221000DE12E7CF982FFF24EE249924FFE1FF156B
:10222000D0F09B3269F09C3228F4903259F093320E
:1022300091F40EC09D3249F0903369F441E024C01E
:1022400052E0F52A84E0F82A28C098E0F92A25C04F
:10225000E0E1FE2A22C0F7FC29C0892F80538A3092
:1022600070F4F6FE05C0989C902C1124980E15C0B1
:10227000E89CE02C1124E80EF0E2FF2A0EC09E320A
:1022800029F4F6FC6BC140E4F42A07C09C3619F42B
:1022900050E8F52A02C0983649F4F20123FD9591E1
:1022A00023FF91912F01992309F0B8CF892F8554ED
:1022B000833018F08052833038F444E050E0A40EAC
:1022C000B51E5FE359830FC0933631F0933779F031
:1022D000933509F056C020C0F5018081898342E022
:1022E00050E0A40EB51E610101E010E012C0F5013E
:1022F000C080D180F6FC03C06FEF7FEF02C0692D74
:1023000070E042E050E0A40EB51EC6010E94D31258
:102310008C015FE7F52214C0F501C080D180F6FC86
:1023200003C06FEF7FEF02C0692D70E042E050E024
:10233000A40EB51EC6010E94C8128C0150E8F52AF1
:10234000F3FE07C01AC080E290E0B3010E94DE12E3
:10235000EA948E2D90E008171907A8F30EC0F60135
:10236000F7FC8591F7FE81916F0190E0B3010E9427
:10237000DE12E110EA94015010400115110579F7C1
:10238000EAC0943611F0993669F5F7FE08C0F501F8
:10239000208131814281538184E090E00AC0F501BF
:1023A000808191819C01442737FD4095542F82E024
:1023B00090E0A80EB91E9FE6F92257FF09C050957C
:1023C0004095309521953F4F4F4F5F4FE0E8FE2AF3
:1023D000CA01B901A1012AE030E00E940A13D82EF7
:1023E000D21840C0953729F41F2D1F7E2AE030E017
:1023F0001DC01F2D197F9F3661F0903720F498354E
:1024000009F0ACC00FC0903739F0983709F0A6C07A
:1024100004C028E030E00AC0106114FD146020E11F
:1024200030E004C014FD166020E132E017FF08C060
:10243000F501608171818281938144E050E008C0A0
:10244000F50180819181BC0180E090E042E050E0A4
:10245000A40EB51EA1010E940A13D82ED2188FE730
:10246000F82EF122F6FE0BC05EEFF522D91438F4F7
:10247000F4FE07C0F2FC05C08FEEF82202C01D2D4D
:1024800001C0192DF4FE0DC0FE01ED0DF11D80817E
:10249000803319F499EEF92208C01F5FF2FE05C0DF
:1024A00003C08F2D867809F01F5F0F2DF3FC14C039
:1024B000F0FE0FC01E1510F09D2C0BC09D2C9E0C25
:1024C000911A1E2D06C080E290E0B3010E94DE1238
:1024D0001F5F1E15C0F304C01E1510F4E11A01C0E1
:1024E000EE2404FF0FC080E390E0B3010E94DE12EF
:1024F00002FF1DC001FD03C088E790E00EC088E523
:1025000090E00BC0802F867891F001FF02C08BE233
:1025100001C080E2F7FC8DE290E0B3010E94DE1280
:1025200006C080E390E0B3010E94DE129A94D914B1
:10253000C0F3DA94F101ED0DF11D808190E0B3015B
:102540000E94DE12DD20A9F706C080E290E0B30110
:102550000E94DE12EA94EE20C1F743CEF3016681B9
:102560007781CB012B96CDBFDEBFCF91DF911F913D
:102570000F91FF90EF90DF90CF90BF90AF909F9022
:102580008F907F906F905F904F903F902F90089525
:10259000FC010590615070400110D8F7809590952E
:1025A0008E0F9F1F0895FC01615070400190011033
:1025B000D8F7809590958E0F9F1F08950F931F93C6
:1025C000CF93DF938C01EB018B8181FF1BC082FFD6
:1025D0000DC02E813F818C819D812817390764F4BD
:1025E000E881F9810193E883F98306C0E885F985DC
:1025F000802F1995892B31F48E819F8101968E83CE
:102600009F8302C00FEF1FEFC801DF91CF911F9191
:102610000F910895FA01AA27283051F1203181F154
:10262000E8946F936E7F6E5F7F4F8F4F9F4FAF4FDA
:10263000B1E03ED0B4E03CD0670F781F891F9A1FED
:10264000A11D680F791F8A1F911DA11D6A0F711DA1
:10265000811D911DA11D20D009F468943F912AE0AD
:10266000269F11243019305D3193DEF6CF01089595
:10267000462F4770405D4193B3E00FD0C9F7F6CFC6
:10268000462F4F70405D4A3318F0495D31FD40528E
:10269000419302D0A9F7EACFB4E0A6959795879524
:1026A00077956795BA95C9F7009761057105089503
:1026B0009B01AC010A2E06945795479537952795AF
:1026C000BA95C9F7620F731F841F951FA01D089547
:0426D000F894FFCFAC
:1026D4000A0D4A656E6E696320484F535420486161
:1026E40072647761726520746573740A0D00312C0D
:1026F400322C332C3420546573742052454C415988
:10270400530A0D00352047505253204A5036205268
:1027140053540A0D003620546573742047505253A5
:102724002055617274204A50360A0D0037205465D2
:10273400737420435244322055617274204A5034D9
:102744000A0D003820546573742045787465726EE0
:10275400616C2052414D0A0D003920536574207478
:10276400696D65202620646174610A0D00496E70EC
:102774007574733A20000A0D000A0D54696D6520C2
:10278400000A0D457865726E616C2052414D206ED1
:102794006F7420636C65617220617420416464729B
:1027A4006573733A30782558000A0D457865726E62
:1027B400616C2052414D204552524F52533A257577
:1027C40020617420416464726573733A30782558CB
:1027D4000A0D000A0D45787465726E616C205241D1
:1027E4004D204F4B0A0D00303132333435363738F3
:1027F4003941424344454600546F204750525320C8
:10280400556172742020202073656E6465743A30BB
:102814003132333435363738394142434445460A38
:102824000D00507265737320616E79206B65792099
:10283400210A0D0046726F6D204750525320756176
:10284400727420726563697665643A004645444350
:1028540042413938373635343332313000546F2001
:102864004352443220556172742020202073656ED7
:102874006465743A46454443424139383736353401
:10288400333231300A0D0046726F6D2043524432A8
:10289400207561727420726563697665643A000A12
:1028A4000D53657420596561723A000A0D536574BD
:1028B400204D6F6E74683A000A0D536574204461AC
:1028C40074653A000A0D53657420486F75723A00B6
:0E28D4000A0D536574204D696E7574653A00E7
:00000001FF
