:100000000C94C8090C94EE090C94EE090C94EE09BA
:100010000C94EE090C94EE090C94EE090C94EE0984
:100020000C94EE090C94EE090C94EE090C94EE0974
:100030000C94EE090C94EE090C94CE5A0C94EE0933
:100040000C94EE090C94EE090C94EE090C94EE0954
:100050000C94EE090C94EE090C94EE090C94EE0944
:100060000C94EE090C94EE090C94EE090C94EE0934
:100070000C9414580C9480580C9468580C94EE0905
:100080000C94EE090C94EE090C94EE090C94EE0914
:100090000C94EE090C94EE090C94EE090C94EE0904
:1000A0000C94EE090C94EE090C94EE090C94EE09F4
:1000B0000C94EE090C94EE090C94EE090C94EE09E4
:1000C0000C94EE090C94EE090C94EE090C94EE09D4
:1000D0000C94EE090C94EE090C94EE090C94EE09C4
:1000E0000C94EE090C94EE090C94CE590C943A5AE7
:1000F0000C94225A0C94EE090C94EE090C94EE091F
:100100000C94EE090C94EE090C94EE090C94EE0993
:100110000C94EE090C94EE090C94EE090C94EE0983
:100120000C94EE090C94EE090C94EE090C94EE0973
:100130000C94EE090C94EE090C94EE090C94EE0963
:100140000C94EE090C94EE090C94EE090C94EE0953
:100150000C94EE090C94EE090C94EE090C94EE0943
:100160000C94F5550C9461560C9449560C94EE0978
:100170000C94EE090C94EE090C94EE090C94EE0923
:100180000C94EE090C94EE090C94EE090C94EE0913
:100190000C94EE090C94EE090C94EE090C94EE0903
:1001A0000C94EE090C94EE090C94EE090C94545B3B
:1001B0000C94EE090C94EE090C94EE090C94EE09E3
:1001C0000C94EE090C94EE090C94EE090C94EE09D3
:1001D0000C94EE090C94EE090C94EE090C9440601A
:1001E0000C94AF600C9485600C94EE090C94EE09AD
:1001F0000C94EE094C616D7020252033642025306D
:100200003258253032582530325825303258253072
:1002100032582530325825303258253032580A00AD
:100220000A0D435243207473436F6E666967426FD1
:10023000726465725275746572203D2025642020B9
:100240002020707354696D657273203D2025640A07
:100250000D000A0D53657420766572626F736974C0
:10026000793A000A0D536574204F666632204D6955
:100270006E7574653A000A0D536574204F666632D8
:1002800020486F75723A000A0D536574204F6E3224
:10029000204D696E7574653A000A0D536574204FE0
:1002A0006E3220486F75723A000A0D536574204F04
:1002B000666631204D696E7574653A000A0D5365A6
:1002C00074204F66663120486F75723A000A0D53EC
:1002D0006574204F6E31204D696E7574653A000A61
:1002E0000D536574204F6E3120486F75723A000AC5
:1002F0000D536574204D696E7574653A000A0D538F
:10030000657420486F75723A000A0D536574204475
:100310006174653A000A0D536574204D6F6E746800
:100320003A000A0D53657420596561723A000A0D4E
:100330000046726F6D204352443220756172742002
:10034000726563697665643A005072657373206103
:100350006E79206B657920210A0D00546F2043527D
:10036000443220556172742020202073656E6465CC
:10037000743A46454443424139383736353433328E
:1003800031300A0D000A0D0046726F6D2047505241
:1003900053207561727420726563697665643A00F2
:1003A000507265737320616E79206B657920210A24
:1003B0000D00546F20475052532055617274202015
:1003C000202073656E6465743A30313233343536CB
:1003D0003738394142434445460A0D0042414420E2
:1003E000636C6561722052414D004241442063724A
:1003F0006320696E2052414D2C20707354696D65E5
:100400007273004241442063726320696E2052413E
:100410004D2C2070734D6F64756C65536574436F1C
:100420006E666967004572726F72207772697469CF
:100430006E67207061636B657420746F206D6F64EC
:10044000756C65004572726F722077726974696E9F
:100450006720746F2074756E20646576696365002B
:1004600053656E64206D65737361676500457272D4
:100470006F722077726974696E6720746F2074756B
:100480006E206465766963650053656E64206D65F2
:10049000737361676500546F20626F7264657220C8
:1004A000616E73776572004A656E4E65744E657451
:1004B000776F726B426C6F625461626C6520204E84
:1004C0004F52452025642056657273696F6E202552
:1004D00064206C656E67687420256400546F206228
:1004E0006F726465722066726F6D20726F757465CD
:1004F0007220616E73776572004C6F63616C206D62
:10050000657373616765004C6F63616C206D756C1A
:1005100074696361737420616E73776572004572EC
:10052000726F722077726974696E6720746F2074BD
:10053000756E206465766963650053656E64206D31
:10054000657373616765004D756C7469636173747D
:1005500020616E73776572004572726F72207772D8
:100560006974696E67207061636B657420746F20B5
:100570006D6F64756C6500416363736573205265CC
:100580006A656374004163637365732041636365E7
:10059000707400524144495553204163636573733D
:1005A00020526571756573742025303258253032BC
:1005B00058253032582530325825303258253032BF
:1005C000582530325825303258004241442043618A
:1005D0006C63756C6174656420636865636B7375C7
:1005E0006D20253034580050726F74636F6C202575
:1005F00064204C656E6768742025642043686563D9
:100600006B73756D2025303458004950763620665E
:10061000726F6D204A656E6E6963206C656E6768E7
:100620007420256C640043616E6E6F7420636F6E7E
:1006300066696775726520626F7264657220726F99
:1006400075746572206E6F64652076657273696F6C
:100650006E205625642E25642E256400436F6E6639
:10066000696720364C6F5750414E2050726566695D
:1006700078203A2030782530386C782530386C78FE
:1006800000436F6E666967204A656E4E6574204947
:10069000442020202020203A203078256C78004308
:1006A0006F6E6669672031352E342050414E2049E7
:1006B00044202020203A203078257800436F6E6651
:1006C00069672031352E34204368616E6E656C2079
:1006D00020203A20256400436F6E6669672031351B
:1006E0002E3420526567696F6E202020203A202525
:1006F000640057726974696E6720636F6E6669671C
:1007000075726174696F6E20746F204D6F64756CC3
:10071000652025640057726974696E67204D6F64A7
:10072000756C653A20536563757269747920436FFF
:100730006E66696720256400417574686F7269731D
:100740006174696F6E20536368656D652020455242
:10075000524F5200417574686F7269736174696FAA
:100760006E20536368656D6520203A2052414449EC
:10077000555320736572766572206174202573204D
:100780007573696E672050415000417574686F72CF
:1007900069736174696F6E20536368656D652020AD
:1007A0003A204E6F6E65004E6574776F726B204B0A
:1007B000657920202020202020202020203A20257C
:1007C0007300456E61626C696E67206E6574776F49
:1007D000726B2073656375726974793A0057726938
:1007E00074696E67204D6F64756C653A204163745F
:1007F0006976697479204C45443A20256400577223
:100800006974696E67204D6F64756C653A20536535
:1008100074204A656E4E65742050726F66696C650F
:1008200020282564290057726974696E67204D6F0E
:1008300064756C653A20456E61626C696E67204133
:100840006E74656E6E612044697665727369747941
:100850000057726974696E67204D6F64756C653AF4
:10086000205365742046726F6E74656E642028256F
:10087000642900556E6B6E6F776E206D6F64756CBA
:1008800065206D6F64653A2025640057726974694C
:100890006E67204D6F64756C653A2052756E20430B
:1008A0006F6D6D6973696F6E696E670057726974F9
:1008B000696E67204D6F64756C653A2052756E20C5
:1008C000526F757465720057726974696E67204D56
:1008D0006F64756C653A2052756E20436F6F726459
:1008E000696E61746F720057726974696E67204D2A
:1008F0006F64756C653A2052657365740057726950
:1009000074696E67204D6F64756C653A2047657435
:1009100020416464726573730057726974696E670D
:10092000204D6F64756C653A2050696E6700577290
:100930006974696E67204D6F64756C653A20476510
:10094000742056657273696F6E0057726974696EB0
:1009500067204D6F64756C653A2047657420436F5E
:100960006E6669670050696E6700506F6E67004E73
:100970006F6465206E6F7420726573706F6E64694A
:100980006E6720286C61737420636F6D6D73202512
:100990006C64207365636F6E64732061676F2900F8
:1009A00043616E6E6F742064657465726D696E6507
:1009B000206D6F64756C652061646472657373008B
:1009C00052657175657374696E67206D6F64756CBF
:1009D0006520616464726573730054696D656F7539
:1009E000742077616974696E6720666F7220616434
:1009F00064726573730052657175657374696E67AF
:100A000020636F6E66696775726174696F6E00420C
:100A1000414420636F6E6669670052657175657346
:100A200074696E672076657273696F6E0054696DC4
:100A3000656F75742077616974696E6720666F727F
:100A40002076657273696F6E005374617274696E9B
:100A500067206D6F64756C6500436F6E6E656374BF
:100A6000656420746F20426F7264657220726F75C6
:100A7000746572205625642E25642E256400436F0C
:100A80006E66696720364C6F5750414E2050726534
:100A9000666978203A2030782530386C78253038EF
:100AA0006C7800436F6E666967204A656E4E6574A8
:100AB0002049442020202020203A203078256C78BE
:100AC00000436F6E6669672031352E342050414EE9
:100AD000204944202020203A203078257800436F98
:100AE0006E6669672031352E34204368616E6E650D
:100AF0006C2020203A20256400436F6E66696720D1
:100B000031352E3420526567696F6E202020203ADF
:100B100020256400526563656976656420636F6EA5
:100B200066696775726174696F6E2066726F6D2099
:100B30004D6F64756C650052656365697665642008
:100B4000736563757269747920636F6E6669677522
:100B5000726174696F6E2066726F6D204D6F64757F
:100B60006C6500436F6E66696775726174696F6E5C
:100B700020726571756573742066726F6D206D6F7C
:100B800064756C65004D6F64756C6520616464729A
:100B90006573733A202573004D6F64756C653A2058
:100BA000257300546F2053494D3A2573004F6E2F23
:100BB0004F66662053494D00436C69656E7420256D
:100BC000206420746F2072656369766564205349E0
:100BD0004D3A25640046726F6D2053494D3A257396
:100BE00000546F20636C69656E7420256420736502
:100BF0006E646564202564202A2032206279746541
:100C0000730046726F6D20636C69656E7420534982
:100C10004D3A2573004572726F722053455420502F
:100C2000494E202573004572726F722050494E2044
:100C3000746573742025730046726F6D2053494D9F
:100C40003A2573004F70656E656420434F4D2069EF
:100C50006E2074756E2064657669636500457272F6
:100C60006F72204F70656E656420434F4D20696E32
:100C70002074756E20646576696365004572726FD5
:100C8000722077726974696E67207061636B657436
:100C900020746F206D6F64756C6500424144206C58
:100CA000656E6768742066726F6D20636C69656E2F
:100CB000743A2564202564004572726F7220756E47
:100CC0006B6E6F77207465436F6D6D616E647350EA
:100CD0004300204F6E31202532583A2530325820BB
:100CE000204F666631202532583A25303258202070
:100CF00020204F6E32202532583A2530325820209D
:100D00004F666632202532583A253032580A0D0097
:100D10000A0D54696D6520000A0D00496E707574E6
:100D2000733A2000712043757272656E74456E656A
:100D30007267792C207720546F74616C456E6572F0
:100D400067792C20652041727261794375727265F2
:100D50006E74456E657267790A0D006B205375627B
:100D6000547265654E6F6465732C206C204E6574FB
:100D7000776F726B5461626C650A0D007820746540
:100D80007374204352430A0D007620566572626FD9
:100D9000736974790A0D00722052414449555320F9
:100DA0007461626C650A0D00612C62207465737455
:100DB00020475052530A0D007420536574204F6E23
:100DC0002F4F66660A0D0070205365742050494EFF
:100DD0000A0D0030204A656E6E6963205245534506
:100DE000540A0D0039205365742074696D652026FE
:100DF00020646174610A0D003820546573742045C5
:100E0000787465726E616C2052414D0A0D00362077
:100E10005465737420475052532055617274204AB0
:100E200050362C202020202020202037205465738D
:100E30007420435244322055617274204A50340A5F
:100E40000D00352047505253204A5036205245530A
:100E500045540A0D0034204F6E2F4F6666205265B0
:100E60006C617920310A0D00312042726F61646338
:100E70006173743D312C202020202020202032203E
:100E800042726F6164636173743D3132372C20208C
:100E9000202020202020332042726F616463617320
:100EA000743D3235350A0D000A0D4A656E6E696370
:100EB00020484F5354205625642E25642E25642047
:100EC0002053697A65204E564D203D2025752062BD
:100ED000797465732046726565203D202564206223
:100EE000797465730A0D004F6E54696D6572004F19
:100EF000666654696D6572004F6E4C616D70004F8F
:100F000066664C616D700054657374206174206175
:100F100064647265737320256400446F75626C6548
:100F2000207265706F7274004F6B004D4143202535
:100F30003032582530325825303258253032582535
:100F4000303258253032582530325825303258004A
:100F5000436F6E6E6563746564202564206F662040
:100F60002564005465737420617420616464726543
:100F70007373202564002532583A253032582047B3
:100F8000726F7570202564204C6967687420256431
:100F900000546573742061742061646472657373B6
:100FA000202564004572726F722068616E646C69FE
:100FB0006E672074756E207061636B657400457296
:100FC000726F7220636F6D6D756E69636174696EA7
:100FD00067207769746820626F7264657220726F2F
:100FE00075746572206D6F64756C65000A0D4578C7
:100FF0007465726E616C2052414D204F4B0A0D009A
:101000000A0D457865726E616C2052414D20455243
:10101000524F52533A2575206174204164647265C1
:1010200073733A307825580A0D000A0D45786572B9
:101030006E616C2052414D206E6F7420636C65614F
:101040007220617420416464726573733A3078254C
:101050005800506F7765725F666163746F7209251F
:10106000660925660925660925660A0D0041707026
:101070006172656E745F706F776572092566092508
:10108000660925660925660A0D0052656163746963
:1010900076655F706F776572092566092566092593
:1010A000660925660A0D004163746976655F706F95
:1010B0007765720925660925660925660925660A88
:1010C0000D0043757272656E740909090925660978
:1010D00025660925660A0D00566F6C7461676509FF
:1010E00009090925660925660925660A0D00467263
:1010F000657175656E63790925660A0D000A0D0034
:101100004C61737420436F6E746163742000546F7C
:1011100074616C5F72656163746976655F656E6545
:10112000726779204C312C4C322C4C3309256609DE
:1011300025660925660A0D00546F74616C5F72653F
:101140006163746976655F656E657267792C543189
:101150002C54320925660925660925660A0D0054B6
:101160006F74616C5F6163746976655F656E6572EB
:101170006779204C312C4C322C4C330925660925DB
:10118000660925660A0D00546F74616C5F616374B3
:101190006976655F656E657267792C54312C5432BF
:1011A0000925660925660925660A0D000A0D004C09
:1011B00061737420436F6E74616374200009256647
:1011C00009256620202566202025660A0D00256455
:1011D00020005072696E74204172726179204163FF
:1011E000746976652043757272656E20456E65720E
:1011F0006779202E2E2E206B573A0A0D0045727209
:101200006F72207343757272656E74456E65726796
:1012100079536D616C6C2E4E657874496E417272B3
:101220006179202564203E3D2025640041646449A5
:101230006E43757272656E74456E65726779417240
:101240007261792025640A0D005365742050494E5F
:10125000203A2025730A0D005365742050494E2012
:101260003A2025730A0D00436C6F636B206973206D
:101270007265736574004572726F72207265616485
:1012800020454E45524759204D45544552006E6108
:101290006E00696E660000407A10F35A00A0724E2C
:1012A00018090010A5D4E80000E87648170000E40B
:1012B0000B54020000CA9A3B000000E1F505000053
:1012C00080969800000040420F000000A0860100B8
:1012D0000000102700000000E80300000000640088
:1012E000000000000A0000000000010000000000F3
:1012F0002C76D888DC674F0823DFC1DFAE59E1B117
:10130000B796E5E3E453C63AE651997696E8E6C225
:101310008426EB898C9B62ED407C6FFCEFBC9C9F2C
:1013200040F2BAA56FA5F490055A2AF75C936B6C4E
:10133000F9676DC11BFCE0E40D47FEF520E6B50042
:10134000D0ED902E0300943577050080841E0800B0
:1013500000204E0A000000C80C333333330F986E60
:1013600012831141EF8D2114893BE65516CFFEE61D
:10137000DB18D1844B381BF77C1D901DA4BBE424E3
:10138000203284725E228100C9F124ECA1E53D2760
:1013900011241FBECFEFDFE3DEBFCDBF00E00CBFE7
:1013A00018BE19BE1ABE1BBE12E2A0E0B0E2E8E20F
:1013B000FCED00E00BBF02C007900D92A439B1070D
:1013C000D9F71BBE17E3A4E9B2E201C01D92A63F04
:1013D000B107E1F70E94F0090C94126E0C94000022
:1013E0008F929F92AF92BF92CF92DF92EF92FF9235
:1013F0000F931F93DF93CF93CDB7DEB72A97CDBF5F
:10140000DEBF0E94985B0E94F55C0E94AD5C1D826D
:1014100080E090E46CE370E00E94D348882341F1BF
:10142000809105209091062083309105FCF0209159
:10143000F2373091F33783E390E0B9010E94B66C44
:1014400083E094E00F920F92EDB7FEB73196808360
:1014500091830E94F46C0F900F902091F23730919D
:10146000F3378AE090E0B9010E94B66C81E08D8389
:101470008DE390E46EE570E00E94D348882341F14B
:10148000809105209091062083309105FCF02091F9
:10149000F2373091F33783E390E0B9010E94B66CE4
:1014A0008AEE93E00F920F92EDB7FEB731968083EC
:1014B00091830E94F46C0F900F902091F23730913D
:1014C000F3378AE090E0B9010E94B66C81E08D8329
:1014D0008D81882341F180910520909106208330F1
:1014E0009105FCF02091F2373091F33783E390E0DF
:1014F000B9010E94B66C8CED93E00F920F92EDB79C
:10150000FEB73196808391830E94F46C0F900F9008
:101510002091F2373091F3378AE090E0B9010E94D0
:10152000B66C0E94B63C04E410E6E4E4F0E6828186
:1015300093810E94CE0F01960E94DF0FF8018283F3
:101540009383E4E4F0E61082118204E410E660E0A4
:1015500070E083E090E00E94EE0FDC01CB01F80127
:10156000868F978FA0A3B1A3E4E4F0E612A213A2A2
:1015700014A215A220EC37E38EE490E6B90146E010
:1015800050E00E94836C84E590E66AE570E646E0F0
:1015900050E00E94836C0E949C2780918D2B90913B
:1015A0008E2BA0918F2BB091902B8093C637909368
:1015B000C737A093C837B093C9370E94DB440E9455
:1015C00014598823D1F30E942D598C830E94FF3C2B
:1015D00080E090E22BEB37E3B9010E94936C009717
:1015E00009F43FC080919422909195228430910516
:1015F0005CF58C818033D8F08C818A33C0F42091E3
:10160000942230919522F901E050F04E8C81808334
:10161000C9010196809394229093952280919422FF
:1016200090919522FC01E050F04E1082C6CF1092AE
:101630009422109295228091942290919522FC01FF
:10164000E050F04E1082B9CF109294221092952261
:101650008091942290919522FC01E050F04E1082EE
:10166000ACCF8C81282F30E029873A8789859A85ED
:101670008135910509F489C4E985FA85E235F105DA
:101680000CF073C029853A852733310509F46EC102
:1016900089859A85883391055CF5E985FA85E33378
:1016A000F10509F4F9C029853A85243331059CF404
:1016B00089859A858133910509F4DCC0E985FA852D
:1016C000E233F1050CF0DFC029853A85203331057E
:1016D00009F44CC272CF89859A858533910509F446
:1016E000EEC0E985FA85E633F1050CF0FBC0DDC0FC
:1016F00029853A852234310509F443C489859A85C0
:10170000833491059CF4E985FA85E933F10509F400
:1017100074C129853A85293331050CF46BC189855B
:101720009A858134910509F428C447CFE985FA8563
:10173000EB34F10509F420C229853A852C343105B2
:101740003CF489859A858534910509F424C435CF04
:10175000E985FA85EC34F10509F40BC229853A854F
:101760002035310509F40BC228CF89859A858B363F
:10177000910509F401C2E985FA85EC36F105ECF52D
:1017800029853A852735310509F402C489859A856A
:10179000883591059CF4E985FA85E435F10509F46D
:1017A000F1C129853A852635310509F4BCC2898500
:1017B0009A858235910509F4F6C2FFCEE985FA854E
:1017C000E136F10509F4D9C329853A852236310578
:1017D0003CF489859A858835910509F4BAC2EDCE25
:1017E000E985FA85E236F10509F4CBC329853A8506
:1017F0002536310509F4CFC3E0CE89859A85823735
:10180000910509F4D0C2E985FA85E337F1059CF426
:1018100029853A852037310509F4B1C189859A8532
:10182000813791050CF0B1C3E985FA85EC36F105F5
:1018300009F49FC1C2CE29853A852637310509F4BE
:1018400072C289859A85873791053CF4E985FA85C6
:10185000E437F10509F496C1B0CE29853A852737DA
:10186000310509F495C389859A858837910509F46E
:1018700070C2A3CE64E07EEF8FEF9FEF42E021E0E5
:101880000E9466149ACE64E07EEF8FEF9FEF42E0F5
:101890002FE70E94661491CE64E07EEF8FEF9FEFFA
:1018A00042E02FEF0E94661488CE8091952B88230A
:1018B00019F00E948C4181CE0E945D417ECEE0E411
:1018C000F6E08085882F90E080729070009729F074
:1018D000E0E4F6E080E2868370CEE0E4F6E080E2C9
:1018E00085836BCE87E090E20E94F65782EB93E00F
:1018F0000F920F92EDB7FEB73196808391830E94CD
:10190000F46C0F900F9080EA93E00F920F92EDB776
:10191000FEB73196808391830E94F46C0F900F90F4
:101920000E942D5988E893E00F920F92EDB7FEB711
:101930003196808391830E94F46C0F900F9004C0C5
:101940000E940D570E947D590E94F5568823C1F7C9
:1019500085E893E00F920F92EDB7FEB73196808342
:1019600091830E94F46C0F900F9027CE88E190E253
:101970000E94D7558BE593E00F920F92EDB7FEB71B
:101980003196808391830E94F46C0F900F9089E4CC
:1019900093E00F920F92EDB7FEB73196808391835B
:1019A0000E94F46C0F900F900E942D5981E393E0F8
:1019B0000F920F92EDB7FEB73196808391830E940C
:1019C000F46C0F900F9004C00E9456550E947D59F0
:1019D0000E9407558823C1F78EE293E00F920F9281
:1019E000EDB7FEB73196808391830E94F46C0F901F
:1019F0000F90E3CD0E94C447E0CD82E293E00F92C6
:101A00000F92EDB7FEB73196808391830E94F46CFC
:101A10000F900F900E94DC3C8B8386E08E838B813D
:101A20008F8381ED97E39E012A5F3F4F6FE6A90107
:101A300022E000E00E9434538091E8378823E1F7E8
:101A400085E193E00F920F92EDB7FEB73196808358
:101A500091830E94F46C0F900F900E94DC3C8B836A
:101A600085E08E838B818F718F8381ED97E39E015B
:101A70002A5F3F4F6FE6A90122E000E00E94345345
:101A80008091E8378823E1F789E093E00F920F9285
:101A9000EDB7FEB73196808391830E94F46C0F906E
:101AA0000F900E94DC3C8B8384E08E838B818F734C
:101AB0008F8381ED97E39E012A5F3F4F6FE6A90177
:101AC00022E000E00E9434538091E8378823E1F758
:101AD0008DEF92E00F920F92EDB7FEB731968083B3
:101AE00091830E94F46C0F900F900E94DC3C8B83DA
:101AF00082E08E838B818F738F8388E0888781ED6E
:101B000097E39E012A5F3F4F6FE6A90123E000E0C3
:101B10000E9434538091E8378823E1F78FEE92E0FA
:101B20000F920F92EDB7FEB73196808391830E949A
:101B3000F46C0F900F900E94DC3C8B831E8280E837
:101B40008F838B818F77888781ED97E39E012A5F52
:101B50003F4F6FE6A90123E000E00E9434538091DB
:101B6000E8378823E1F71092CA3727CD0E949C27D7
:101B700024CD0E94924421CD0E94D2441ECD0E94C9
:101B80002F5C1BCD8FED92E00F920F92EDB7FEB759
:101B90003196808391830E94F46C0F900F900DE337
:101BA00010E40E94DC3CF80186838DE390E46EE54E
:101BB00070E00E94A3488DEC92E00F920F92EDB777
:101BC000FEB73196808391830E94F46C0F900F9042
:101BD0000DE310E40E94DC3CF80187838DE390E480
:101BE0006EE570E00E94A3488CEB92E00F920F929A
:101BF000EDB7FEB73196808391830E94F46C0F900D
:101C00000F900DE310E40E94DC3CF80180878DE327
:101C100090E46EE570E00E94A34889EA92E00F929A
:101C20000F92EDB7FEB73196808391830E94F46CDA
:101C30000F900F900DE310E40E94DC3CF8018187C7
:101C40008DE390E46EE570E00E94A34889E992E09C
:101C50000F920F92EDB7FEB73196808391830E9469
:101C6000F46C0F900F900DE310E40E94DC3CF8013F
:101C7000E65AFF4F80838DE390E46EE570E00E94AA
:101C8000A34887E892E00F920F92EDB7FEB7319626
:101C9000808391830E94F46C0F900F900DE310E409
:101CA0000E94DC3CF801E55AFF4F80838DE390E40D
:101CB0006EE570E00E94A34886E792E00F920F92D3
:101CC000EDB7FEB73196808391830E94F46C0F903C
:101CD0000F900DE310E40E94DC3CF801E45AFF4F42
:101CE00080838DE390E46EE570E00E94A34883E674
:101CF00092E00F920F92EDB7FEB7319680839183F9
:101D00000E94F46C0F900F900DE310E40E94DC3CF5
:101D1000F801E35AFF4F80838DE390E46EE570E0B5
:101D20000E94A3484ACC82E592E00F920F92EDB751
:101D3000FEB73196808391830E94F46C0F900F90D0
:101D40000E94DC3C882F90E0809305209093062031
:101D500034CC0F2EF0E2EF2EF2E0FF2EF02D80E0DB
:101D600090E46CE370E00E94D348082F10E08DE30C
:101D700090E46EE570E00E94D348882F90E000D098
:101D800000D0EDB7FEB73196E082F1820283138373
:101D9000848395830E94F46C2DB73EB72A5F3F4F32
:101DA0002DBF3EBF0ACC19821A82DCC044EF51E03D
:101DB00029813A81C901880F991F820F931F9C01C5
:101DC000220F331F220F331F220F331F820F931F47
:101DD000FC01E056FF4B8081682F70E029813A8139
:101DE000C901880F991F820F931F9C01220F331F77
:101DF000220F331F220F331F820F931FFC01E05667
:101E0000FF4B8181A82FB0E029813A81C901880F59
:101E1000991F820F931F9C01220F331F220F331F24
:101E2000220F331F820F931FFC01E056FF4B82816C
:101E3000082F10E029813A81C901880F991F820F6C
:101E4000931F9C01220F331F220F331F220F331FBA
:101E5000820F931FFC01E056FF4B8381E82EFF2485
:101E600029813A81C901880F991F820F931F9C0114
:101E7000220F331F220F331F220F331F820F931F96
:101E8000FC01E056FF4B8481C82EDD2429813A8174
:101E9000C901880F991F820F931F9C01220F331FC6
:101EA000220F331F220F331F820F931FFC01E056B6
:101EB000FF4B8581A82EBB2429813A81C901880F57
:101EC000991F820F931F9C01220F331F220F331F74
:101ED000220F331F820F931FFC01E056FF4B8681B8
:101EE000882E992429813A81C901880F991F820F70
:101EF000931F9C01220F331F220F331F220F331F0A
:101F0000820F931FFC01E056FF4B8781282F30E0A2
:101F10008DB79EB744978DBF9EBFEDB7FEB7319684
:101F20004083518389819A818283938364837583FB
:101F3000A683B78300871187E286F386C486D58699
:101F4000A686B786808A918A228B338B0E94F46C96
:101F5000EDB7FEB77496EDBFFEBF89819A810196F9
:101F600089839A8389819A81ECE9F0E42081318127
:101F70008217930708F41ACF20CB81E08093B737FC
:101F80001CCB81E08093BA3718CB0E94804915CBD7
:101F90000E94374B12CB0E94284C0FCBDF93CF937C
:101FA0000F920F92CDB7DEB789839A8389819A8188
:101FB0000E94DF0F0F900F90CF91DF910895DF9374
:101FC000CF930F920F92CDB7DEB789839A83998111
:101FD0008A810F900F90CF91DF910895DF93CF9377
:101FE00000D00F92CDB7DEB769837A838B839C8351
:101FF00029813A81922F832FCC01A0E0B0E0BC016F
:102000005527442789819A81AB81BC81CD01AA27BC
:10201000BB279C01922F832FCC01A0E0B0E0842B42
:10202000952BA62BB72BBC01CD012496CDBFDEBFCF
:10203000CF91DF910895DF93CF93CDB7DEB72E9781
:10204000CDBFDEBF8A839B836C837D834E835F839A
:1020500028873987DCC08981282F30E02D873E878B
:102060008D859E8582309105A1F02D853E8523309A
:10207000310599F08D859E858130910589F5109205
:102080009722109298221092962281E080939A22B1
:10209000BEC081E080939622BAC0EC81FD81208190
:1020A00031818E819F818217930718F410929A22B2
:1020B000AEC0EA81FB818081EC81FD81208131818C
:1020C00048855985B9010E947811982F80919922ED
:1020D000981709F09CC010929A2291E09C879FC0AB
:1020E00080919622882331F0898190E18927898324
:1020F0001092962280919A22282F30E02A873B87DF
:102100008A859B858230910561F12A853B85233044
:1021100031055CF48A859B85009709F478C02A858F
:102120003B852130310599F070C08A859B858430CC
:10213000910509F444C02A853B852430310504F11A
:102140008A859B858530910509F442C05EC08981EE
:10215000EA81FB81808380919A228F5F80939A220B
:1021600056C08981882F90E0982F8827EC81FD81C7
:102170008083918380919A228F5F80939A2247C0B7
:10218000EC81FD81208131818981882F90E0820F4F
:10219000931FEC81FD8180839183EC81FD812081FF
:1021A00031818E819F818217930718F410929A22B1
:1021B0002EC080919A228F5F80939A2228C08981B5
:1021C0008093992280919A228F5F80939A221FC0D8
:1021D000EC81FD812081318180919722909198221C
:1021E00082179307A0F42091972230919822888536
:1021F0009985FC01E20FF31F89818083C901019653
:10220000809397229093982202C010929A22CE0136
:1022100001960E94DF11882309F01DCF1C868C8552
:102220002E96CDBFDEBFCF91DF910895DF93CF9380
:10223000CDB7DEB72797CDBFDEBF8B836C837D83A1
:102240004E835F8381E061E00E94B61199230CF414
:1022500049C080E06B810E94B61199230CF442C002
:102260008C819D81892F9927982F80E0692F0E946A
:10227000B6119923BCF19C8180E0692F0E94B611B0
:10228000992384F12C813D814E815F818B81B9013D
:102290000E947811982F80E0692F0E94B61199232F
:1022A0000CF119821A8213C029813A818E819F8193
:1022B000FC01E20FF31F908180E0692F0E94B611AC
:1022C000992384F089819A81019689839A8329814F
:1022D0003A818C819D812817390730F381E063E0D2
:1022E0000E94B6112796CDBFDEBFCF91DF91089532
:1022F000DF93CF93CDB7DEB72897CDBFDEBF8C83FA
:102300006D837E834F835887198299818C818927B9
:1023100089838D819E81892F9927982F898189278B
:1023200089839D818981892789831A821B8210C0B4
:102330002A813B818F819885FC01E20FF31F9081F8
:102340008981892789838A819B8101968A839B83DE
:102350002A813B818D819E812817390748F3898125
:102360002896CDBFDEBFCF91DF910895DF93CF9345
:1023700000D00F92CDB7DEB789836A838981882325
:1023800089F48A81803170F49A8180E189278A8377
:1023900082E00E94A45599232CF48FEF9FEF8B834A
:1023A0009C8305C08A810E94A4558B839C838B816A
:1023B0009C812496CDBFDEBFCF91DF910895DF933E
:1023C000CF930F920F92CDB7DEB789839A8389811D
:1023D0009A810E941F550F900F90CF91DF91089521
:1023E000DF93CF9300D0CDB7DEB78A839B8319826A
:1023F000EA81FB8180818A3330F4EA81FB8180812C
:102400008053898305C0EA81FB818081875389835A
:1024100089818295807F89838A819B8101968A83C5
:102420009B83EA81FB8180818A3348F4EA81FB81C6
:1024300080818053982F8981892B898308C0EA8104
:10244000FB8180818753982F8981892B898389819A
:102450002396CDBFDEBFCF91DF910895DF93CF9359
:10246000CDB7DEB76497CDBFDEBF6F87788B898B22
:102470009A8B4B8B5C8B8F859889817090708823A9
:1024800099F02F8538898B899C89FC01E20FF31F15
:1024900010828F859889A989BA890196A11DB11DDD
:1024A0008F87988BA98BBA8B8B899C89FC01BE96F0
:1024B0008081882F90E0382F22278B899C89FC010E
:1024C000BF968081882F90E0822B932BCC01A0E0D7
:1024D000B0E08B879C87AD87BE878B899C89FC0188
:1024E00034968081882F90E0382F22278B899C8911
:1024F000FC0135968081882F90E0822B932BCC01B4
:10250000A0E0B0E08F839887A987BA878B899C89E0
:10251000FC0136968081882F90E0A0E0B0E08B83AC
:102520009C83AD83BE832F81388549855A858B81F5
:102530009C81AD81BE81820F931FA41FB51F8B8725
:102540009C87AD87BE878B899C89089689839A83EF
:102550004FC0E981FA818081882F90E0382F2227AF
:1025600089819A81FC0131968081882F90E0822BAD
:10257000932BCC01A0E0B0E08B839C83AD83BE8322
:102580002B853C854D855E858B819C81AD81BE818F
:10259000820F931FA41FB51F8B879C87AD87BE87B3
:1025A00017C08B859C85AD85BE859C01AD014070B3
:1025B00050708B859C85AD85BE85CD01AA27BB2734
:1025C000820F931FA41FB51F8B879C87AD87BE8783
:1025D0008B859C85AD85BE85CD01AA27BB2700973D
:1025E000A105B105F1F689819A81029689839A83C2
:1025F0002F8538898B899C89280F391F89819A8179
:102600008217930708F4A5CF8B859C8580959095BC
:10261000CC01A0E0B0E08B879C87AD87BE878B851F
:102620009C856496CDBFDEBFCF91DF9108950F9357
:102630001F93DF93CF93CDB7DEB7C95DD040CDBF39
:10264000DEBFFE01E153FF4F80839183FE01EF5215
:10265000FF4F60837183FE01ED52FF4F2083318372
:1026600042835383FE01E952FF4F0083118380E6CA
:102670008F83188619861A86FE01ED52FF4F8081DE
:102680009181A281B3810896A11DB11D892F9A2F36
:10269000AB2FBB278B87FE01ED52FF4F8081885FF8
:1026A0008C8781E18D8780E48E87CE01079608961E
:1026B000FE01E153FF4F20813181B90140E150E03B
:1026C0000E94836CCE0107964896FE01EF52FF4FA1
:1026D00020813181B90140E150E00E94836C83ED9B
:1026E0008FA78DEE88AB87E089AB81E58AABFE01D1
:1026F000ED52FF4F80819181A281B3810896A11D87
:10270000B11D892F9A2FAB2FBB278BABFE01ED524A
:10271000FF4F8081885F8CAB1DAA1EAAFE01ED527F
:10272000FF4F40815181CE010796C096FE01E952CC
:10273000FF4F20813181B9010E94836C9E012D528F
:102740003F4FFE01ED52FF4F80819181A281B38105
:10275000C096A11DB11DF90180839183A283B3832B
:10276000FE01ED52FF4F80819181A281B381FE0174
:10277000E952FF4F20813181BC01CD01A9010E94A6
:102780002E128D839E838D819E81892F99278DABFB
:102790008D818EAB80910520909106208730910528
:1027A0000CF443C019821A821B821C8225C08981C5
:1027B0009A81FE013796E80FF91F8081282F30E0BB
:1027C00000D00F92EDB7FEB731968DE290E2808394
:1027D0009183228333830E94E26C0F900F900F90BD
:1027E0000F9089819A81AB81BC810196A11DB11D99
:1027F00089839A83AB83BC83FE01ED52FF4F29810D
:102800003A814B815C8180819181A281B3812817BB
:1028100039074A075B0758F22091F2373091F337B6
:102820008AE090E0B9010E94B66CFE01ED52FF4FC4
:1028300080819181A281B3819E01295F3F4FBC01BC
:10284000CD01A9010E940E23882369F18091052002
:102850009091062083309105FCF02091F237309161
:10286000F33783E390E0B9010E94B66C85E294E00F
:102870000F920F92EDB7FEB73196808391830E943D
:10288000F46C0F900F902091F2373091F3378AE07B
:1028900090E0B9010E94B66CF1E0C752DF4FF883B7
:1028A000C95DD04005C0C752DF4F1882C95DD04016
:1028B000C752DF4F8881C95DD040C752DF4FCDBFBF
:1028C000DEBFCF91DF911F910F9108950F931F935A
:1028D000DF93CF93CDB7DEB76B97CDBFDEBF6D8BE8
:1028E0007E8B8F8B988F498F2A8F80911E378A30ED
:1028F00019F081E08B8F39C019828DE18A830E94A3
:10290000656B8F778B838D899E89AF89B88D8B2F6F
:102910009927AA27BB278C838D899E89AF89B88D7B
:10292000CD01AA27BB278D838D899E89AF89B88D5C
:10293000892F9A2FAB2FBB278E838D898F83898D0B
:102940008887198684E08A878A8D8B8782E390E264
:1029500022E530E2B9012BE030E040E050E0FE013A
:1029600031968F010E9417138B8F8B8D6B96CDBF85
:10297000DEBFCF91DF911F910F9108950F931F93A9
:10298000DF93CF93CDB7DEB76C97CDBFDEBF8D8B16
:102990004E8B5F8B688F798F2A8F0B8F80911E37BC
:1029A0008A3019F081E08C8F4FC08D89882F90E09C
:1029B000880F991FFC01EE58FF4D80818093702095
:1029C0008D89882F90E0880F991FFC01ED58FF4DED
:1029D00080818093712019828DE18A830E94656BCA
:1029E0008F778B838E899F89A88DB98D8B2F99279F
:1029F000AA27BB278C838E899F89A88DB98DCD018D
:102A0000AA27BB278D838E899F89A88DB98D892F91
:102A10009A2FAB2FBB278E838E898F838A8D8887D1
:102A2000198684E08A878B8D8B8782E390E222E689
:102A300030E2B9012BE030E040E050E0FE01319699
:102A40008F010E9417138C8F8C8D6C96CDBFDEBFCB
:102A5000CF91DF911F910F9108950F931F93DF93F3
:102A6000CF93CDB7DEB76797CDBFDEBF80911E375E
:102A70008A3019F081E08F8B20C081E08A8383E067
:102A800089831B8280E18C830E94656B8F778D83A5
:102A90008A818E8389818F8381E0888782E490E2B6
:102AA00027EA37E3FE013396B90126E030E040E043
:102AB00050E08F010E9417138F8B8F896796CDBFCF
:102AC000DEBFCF91DF911F910F9108950F931F9358
:102AD000DF93CF93CDB7DEB76A97CDBFDEBF8F8BC5
:102AE000988F698F80911E378A3019F081E08A8F24
:102AF00027C081E08A8384E089831B8280E18C8304
:102B00000E94656B8F778D838A818E8389818F8305
:102B10008F89988D892F992788878F898987898DB3
:102B20008A8782E490E227EA37E3FE013396B9010F
:102B300028E030E040E050E08F010E9417138A8FB8
:102B40008A8D6A96CDBFDEBFCF91DF911F910F9125
:102B50000895AF92BF92CF92DF92EF92FF920F93C0
:102B60001F93DF93CF93CDB7DEB7C054D040CDBF16
:102B7000DEBF6AAF7BAF8CAF9DAF4EAF5FAF8EADA8
:102B80009FADFC01BE968081882F90E0382F2227D0
:102B90008EAD9FADFC01BF968081882F90E0822B87
:102BA000932B8C8F9D8F8EAD9FADFC0134968081D1
:102BB000882F90E0382F22278EAD9FADFC013596EF
:102BC0008081882F90E0822B932B888F998F8EADF8
:102BD0009FADFC0136968081882F90E08E8B9F8B75
:102BE0008091052090910620873091050CF4ACC0AF
:102BF0008091052090910620873091055CF120910D
:102C0000F2373091F33787E390E0B9010E94B66C58
:102C10008AE096E000D000D0EDB7FEB73196808311
:102C200091838AAD9BADACADBDAD82839383A4830C
:102C3000B5830E94F46C0DB71EB70A5F1F4F0DBF1E
:102C40001EBF2091F2373091F3378AE090E0B9014E
:102C50000E94B66C809105209091062087309105E6
:102C600094F12091F2373091F33787E390E0B90186
:102C70000E94B66C87EE95E02DB73EB728503040E5
:102C80002DBF3EBFEDB7FEB73196808391838E890D
:102C90009F8982839383888D998D848395838C8D7E
:102CA0009D8D868397830E94F46C8DB79EB708969E
:102CB0008DBF9EBF2091F2373091F3378AE090E0CC
:102CC000B9010E94B66C1A8A1B8A1C8A1D8A26C00A
:102CD0002A893B898EAD9FADFC01E20FF31F8081F5
:102CE000282F30E000D00F92EDB7FEB731968DE27D
:102CF00090E280839183228333830E94E26C0F9061
:102D00000F900F900F908A899B89AC89BD8901969D
:102D1000A11DB11D8A8B9B8BAC8BBD8B2A893B89F6
:102D20004C895D898AAD9BADACADBDAD2817390727
:102D30004A075B0768F22091F2373091F3378AE057
:102D400090E0B9010E94B66C8AAD9BADACADBDAD53
:102D50002EAD3FADBC01CD01A9010E942E128A8F7C
:102D60009B8F8A8D9B8D009791F18C8D9D8D009707
:102D700071F18091052090910620873091050CF427
:102D800095C62091F2373091F33787E390E0B9018F
:102D90000E94B66C8AEC95E000D00F92EDB7FEB7BA
:102DA0003196808391838A8D9B8D828393830E9449
:102DB000F46C0F900F900F900F902091F23730919C
:102DC000F3378AE090E0B9010E94B66C6FC68EAD11
:102DD0009FADFC0136968081813109F001C68EAD30
:102DE0009FAD489664E270E440E150E00E94766C4A
:102DF000009709F086C38EAD9FAD8A5B9F4F0E94FE
:102E0000F01180931F378EAD9FAD885B9F4F0E945E
:102E1000F011809320378EAD9FAD865B9F4F0E944F
:102E2000F011809321378EAD9FAD845B9F4F0E9440
:102E3000F011809322378EAD9FAD825B9F4F0E9431
:102E4000F011809323378EAD9FAD805B9F4F0E9422
:102E5000F011809324378EAD9FAD8E5A9F4F0E9404
:102E6000F011809325378EAD9FAD8C5A9F4F0E94F5
:102E7000F0118093263780910520909106208730AD
:102E800091050CF456C02091F2373091F33787E367
:102E900090E0B9010E94B66C23E935E080911F37BC
:102EA000482F50E080912037682F70E080912137C3
:102EB000A82FB0E080912237082F10E080912337AF
:102EC000E82EFF2480912437C82EDD2480912537F9
:102ED000A82EBB2480912637882F90E0EDB7FEB74F
:102EE0007297EDBFFEBFEDB7FEB7319620833183F9
:102EF0004283538364837583A683B78300871187D6
:102F0000E286F386C486D586A686B786808B918BAB
:102F10000E94F46C0DB71EB70E5E1F4F0DBF1EBF93
:102F20002091F2373091F3378AE090E0B9010E94A6
:102F3000B66C8EAD9FAD9C01285F3F4FCE014E9683
:102F4000B90140E150E00E94836C8EAD9FADAC01B1
:102F5000485F5F4F8EAD9FAD9C01285E3F4FCA0119
:102F6000B90140E150E00E94836C8EAD9FAD489660
:102F70009E01225E3F4FB90140E150E00E94836C08
:102F80008EAD9FAD9C01285D3F4FCE014E96B9019D
:102F900042E050E00E94836C8EAD9FADAC01485D75
:102FA0005F4F8EAD9FAD9C01265D3F4FCA01B901B9
:102FB00042E050E00E94836C8EAD9FAD8A969E01E8
:102FC000225E3F4FB90142E050E00E94836C8EAD1B
:102FD0009FADFC01BE9610828EAD9FADFC01BF96E9
:102FE00010821D861E861F86188A198A29C02E8582
:102FF0003F85C901880F991F820F931F9C01220FE3
:10300000331F220F331F220F331F820F931F80564F
:103010009F4B2FE137E3B90148E050E00E94766C06
:10302000009719F481E08D871BC08E859F85A88944
:10303000B9890196A11DB11D8E879F87A88BB98B79
:10304000ECE9F0E4808191819C0140E050E08E85C4
:103050009F85A889B98982179307A407B50738F215
:103060008D85882331F4E0E0F0E487A9882309F412
:10307000B9C0809105209091062087309105FCF021
:103080002091F2373091F33787E390E0B9010E9445
:10309000B66C85E895E00F920F92EDB7FEB73196CA
:1030A000808391830E94F46C0F900F902091F237EF
:1030B0003091F3378AE090E0B9010E94B66C8EAD92
:1030C0009FADFC01F09682E080838EAD9FAD8C01B8
:1030D0000F5C1F4F0E94656BD8018C938EAD9FAD26
:1030E000FC01EC5BFF4F8AE180838EAD9FADFC015C
:1030F000EB5BFF4F88E180838EAD9FADFC01EA5B07
:10310000FF4F10828EAD9FADFC01E95BFF4F108237
:103110008EAD9FADFC01E85BFF4F8DE680838EADE9
:103120009FADFC01E75BFF4F89EE80838EAD9FADC5
:10313000FC01E65BFF4F84E680838EAD9FADFC0112
:10314000E55BFF4F82E180831E861F86188A198AFD
:103150003AC08E859F85880F991F9C01245B3F4F45
:103160008EAD9FADFC01E20FF31F10828E859F850F
:10317000880F991F9C01235B3F4F8EAD9FADBC0113
:10318000620F731F27E030E040E050E08E859F859E
:10319000A889B98979018A01E81AF90A0A0B1B0B77
:1031A000D801C701FC01E15EF84C8081DB018C9302
:1031B0008E859F85A889B9890196A11DB11D8E872D
:1031C0009F87A88BB98B8E859F85A889B989883000
:1031D0009105A105B10508F4BCCF8CE290E08A8F7F
:1031E0009B8F88C0809105209091062087309105A3
:1031F000FCF02091F2373091F33787E390E0B9018A
:103200000E94B66C87E795E00F920F92EDB7FEB77C
:103210003196808391830E94F46C0F900F902091DF
:10322000F2373091F3378AE090E0B9010E94B66C32
:1032300088E0FE01BE96DF01E82E1D92EA94E9F7D0
:103240001B861C863EC08B859C85880F991F880F26
:10325000991F880F991F895D984C9E01225D3F4FF1
:10326000B90148E050E00E94766C009791F48B859C
:103270009C85880F991F880F991F880F991F895D5A
:10328000984C2FE137E3B90148E050E00E94836C8D
:103290001EC08B859C85880F991F880F991F880FEA
:1032A000991F895D984C2FE137E3B90148E050E060
:1032B0000E94766C009759F08B859C8501968B87D0
:1032C0009C878B859C85803191050CF4BCCF8EAD9D
:1032D0009FADFC01F09683E080838EAD9FAD8C01A5
:1032E0000F5C1F4F0E94656BD8018C9384E190E0C6
:1032F0008A8F9B8F1E861F86188A198A19C08E8511
:103300009F859C012C5C3F4F8EAD9FAD8C01020FC1
:10331000131F0E94656BF80180838E859F85A889A5
:10332000B9890196A11DB11D8E879F87A88BB98B86
:103330008E859F85A889B98980319105A105B10540
:10334000F0F28EAD9FADFC01F2968A8D9B8D892F98
:10335000992780838EAD9FADFC01F3968A8D808383
:103360008A8D9B8D08968A8F9B8F8EAD9FADFC01B9
:1033700034968A8D9B8D892F992780838EAD9FAD42
:10338000FC0135968A8D80838EAD9FADFC0137960A
:1033900080E480838EAD9FADFC01BC968A8D9B8DB1
:1033A000892F992780838EAD9FADFC01BD968A8DB4
:1033B00080838A8D9B8D8896CC01A0E0B0E08AAF97
:1033C0009BAFACAFBDAF8AAD9BADACADBDAD2EADCF
:1033D0003FADBC01CD01A9010E942E128A8F9B8FA7
:1033E0008EAD9FADFC01BE968A8D9B8D892F99274E
:1033F00080838EAD9FADFC01BF968A8D80838091C6
:10340000052090910620873091050CF441C01F8261
:10341000188619861A8626C02F8138858EAD9FADF5
:10342000FC01E20FF31F8081282F30E000D00F92C3
:10343000EDB7FEB731968DE290E2808391832283CF
:1034400033830E94E26C0F900F900F900F908F814A
:103450009885A985BA850196A11DB11D8F8398878E
:10346000A987BA872F81388549855A858AAD9BAD52
:10347000ACADBDAD281739074A075B0768F220914C
:10348000F2373091F3378AE090E0B9010E94B66CD0
:103490008AAD9BADACADBDAD2EAD3FADBC01CD0198
:1034A000A9010E940E23882309F400C380910520FE
:1034B0009091062083309105FCF02091F2373091F5
:1034C000F33783E390E0B9010E94B66C88E595E09C
:1034D0000F920F92EDB7FEB73196808391830E94D1
:1034E000F46C0F900F902091F2373091F3378AE00F
:1034F00090E0B9010E94B66CF1E02196FFAF2197F0
:10350000D8C28EAD9FADFC01789680818F3F09F0C7
:10351000BCC08EAD9FAD9C01285F3F4F82E390E21F
:10352000B90140E150E00E94766C009709F485C033
:10353000809105209091062087309105FCF0209124
:10354000F2373091F33787E390E0B9010E94B66C0F
:1035500087E495E00F920F92EDB7FEB73196808326
:1035600091830E94F46C0F900F902091F23730916C
:10357000F3378AE090E0B9010E94B66C8091052093
:103580009091062087309105FCF02091F237309120
:10359000F33787E390E0B9010E94B66C8AE395E0C7
:1035A0000F920F92EDB7FEB73196808391830E9400
:1035B000F46C0F900F902091F2373091F3378AE03E
:1035C00090E0B9010E94B66C8AAD9BADACADBDADCB
:1035D0002EAD3FADBC01CD01A9010E947F3C8823E7
:1035E00009F464C2809105209091062083309105F2
:1035F000FCF02091F2373091F33783E390E0B9018A
:103600000E94B66C8EE195E00F920F92EDB7FEB777
:103610003196808391830E94F46C0F900F902091DB
:10362000F2373091F3378AE090E0B9010E94B66C2E
:1036300001E021960FAF21973CC280910520909127
:103640000620873091050CF431C22091F237309179
:10365000F33787E390E0B9010E94B66C87E095E00C
:103660000F920F92EDB7FEB73196808391830E943F
:10367000F46C0F900F902091F2373091F3378AE07D
:1036800090E0B9010E94B66C11C28EAD9FADFC01F5
:10369000389680818E3FA1F58EAD9FADFC013996A5
:1036A0008081882F90E0807C90708038910541F572
:1036B0008091052090910620873091050CF4F6C189
:1036C0002091F2373091F33787E390E0B9010E94FF
:1036D000B66C89EF94E00F920F92EDB7FEB731967A
:1036E000808391830E94F46C0F900F902091F237A9
:1036F0003091F3378AE090E0B9010E94B66CD6C1F0
:103700008EAD9FAD489622E430E2B90140E150E031
:103710000E94766C009709F004C18EAD9FAD0896AB
:1037200027EA37E3B90140E150E00E94766C009748
:1037300009F0CFC080910520909106208730910537
:10374000FCF02091F2373091F33787E390E0B90134
:103750000E94B66C8CED94E00F920F92EDB7FEB71D
:103760003196808391830E94F46C0F900F9020918A
:10377000F2373091F3378AE090E0B9010E94B66CDD
:10378000888D998D8A30910508F490C18EAD9FADDA
:10379000FC01F1968081882F90E08131910509F03C
:1037A00085C181E08EAB84E08FAB18AE8BE489AF2E
:1037B0008EAD9FADC3969E012A5C3F4FB90144E098
:1037C00050E00E94766C009709F070C18EAD9FADFD
:1037D000FC01F7968081882F90E08D839E838D81F8
:1037E0009E81982F88278D839E838EAD9FADFC018F
:1037F000F8968081282F30E08D819E81822B932B3B
:103800008D839E838EAD9FADFC01F9968081882FBC
:1038100090E08B839C838B819C81982F88278B835E
:103820009C838EAD9FADFC01FA968081282F30E0FD
:103830008B819C81822B932B8B839C83888D998D8C
:1038400089839A8389819A81439789839A83809116
:103850000520909106208730910594F12091F23750
:103860003091F33787E390E0B9010E94B66C87EAA4
:1038700094E02DB73EB7285030402DBF3EBFEDB786
:10388000FEB73196808391838D819E81828393835D
:103890008B819C818483958389819A818683978398
:1038A0000E94F46C8DB79EB708968DBF9EBF209185
:1038B000F2373091F3378AE090E0B9010E94B66C9C
:1038C0008EAD9FADCB9629813A81B9010E942742E6
:1038D000EDC08091052090910620873091050CF471
:1038E000E5C02091F2373091F33787E390E0B901DA
:1038F0000E94B66C86E994E00F920F92EDB7FEB786
:103900003196808391830E94F46C0F900F902091E8
:10391000F2373091F3378AE090E0B9010E94B66C3B
:10392000C5C0809105209091062087309105FCF05C
:103930002091F2373091F33787E390E0B9010E948C
:10394000B66C89E894E00F920F92EDB7FEB731960E
:10395000808391830E94F46C0F900F902091F23736
:103960003091F3378AE090E0B9010E94B66C8AADDD
:103970009BADACADBDAD2EAD3FADBC01CD01A90140
:103980000E947F3C882309F491C08091052090918A
:10399000062083309105FCF02091F2373091F33707
:1039A00083E390E0B9010E94B66C8DE694E00F923B
:1039B0000F92EDB7FEB73196808391830E94F46C2D
:1039C0000F900F902091F2373091F3378AE090E01A
:1039D000B9010E94B66C91E021969FAF219769C012
:1039E0008EAD9FADFC01369680818A3309F05EC0B2
:1039F000809105209091062087309105FCF0209160
:103A0000F2373091F33787E390E0B9010E94B66C4A
:103A100080E694E00F920F92EDB7FEB73196808367
:103A200091830E94F46C0F900F902091F2373091A7
:103A3000F3378AE090E0B9010E94B66C8AAD9BAD85
:103A4000ACADBDAD2EAD3FADBC01CD01A9010E9415
:103A50007F3C882359F18091052090910620833086
:103A60009105FCF02091F2373091F33783E390E039
:103A7000B9010E94B66C84E494E00F920F92EDB706
:103A8000FEB73196808391830E94F46C0F900F9063
:103A90002091F2373091F3378AE090E0B9010E942B
:103AA000B66CA1E02196AFAF219703C021961FAE5F
:103AB000219721968FAD2197C05CDF4FCDBFDEBF30
:103AC000CF91DF911F910F91FF90EF90DF90CF90FA
:103AD000BF90AF9008952F923F924F925F926F9256
:103AE0007F928F929F92AF92BF92CF92DF92EF928E
:103AF000FF920F931F93DF93CF93CDB7DEB72C9731
:103B0000CDBFDEBF89839A836B837C83E981FA8191
:103B10008081282F30E0E981FA818181482F50E0AF
:103B2000E981FA818281682F70E0E981FA818381DD
:103B3000A82FB0E0E981FA818481082F10E0E981A3
:103B4000FA818581E82EFF24E981FA818681C82ED9
:103B5000DD24E981FA818781A82EBB24E981FA81DD
:103B60008085882E9924E981FA818185682E7724C1
:103B7000E981FA818285482E5524E981FA8183857D
:103B8000282E3324E981FA818485E82FF0E0EB8741
:103B9000FC87E981FA818585E82FF0E0E987FA87DB
:103BA000E981FA818685E82FF0E0EF83F887E981E3
:103BB000FA818785E82FF0E0ED83FE838DB79EB70D
:103BC00086978DBF9EBFEDB7FEB731968B819C81E6
:103BD000808391838EE290E08283938382E990E2F6
:103BE00084839583268337834087518762877387D1
:103BF000A487B58706871787E08AF18AC28AD38AA5
:103C0000A48AB58A868A978A608E718E428E538E78
:103C1000248E358E8B859C85868F978F89859A8596
:103C200080A391A38F81988582A393A38D819E8188
:103C300084A395A30E94176DEDB7FEB7B696EDBFAE
:103C4000FEBF2C96CDBFDEBFCF91DF911F910F91AC
:103C5000FF90EF90DF90CF90BF90AF909F908F90AC
:103C60007F906F905F904F903F902F900895CF92EC
:103C7000DF92EF92FF920F931F93DF93CF930F92F8
:103C8000CDB7DEB78091AC228170882309F45FC183
:103C90008091A0229091A122A091A222B091A32272
:103CA000803021E0920721E0A20720E0B20708F46B
:103CB0004EC18091052090910620863091052CF10F
:103CC0002091F2373091F33786E390E0B9010E94FA
:103CD000B66C82EF96E000D00F92EDB7FEB731964A
:103CE0008083918380E190E0828393830E94F46CCF
:103CF0000F900F900F900F902091F2373091F33783
:103D00008AE090E0B9010E94B66C80910520909104
:103D100006208630910544F12091F2373091F33737
:103D200086E390E0B9010E94B66C27ED36E0E0E052
:103D3000F0E48081882F90E000D00F92EDB7FEB7BD
:103D4000319620833183828393830E94F46C0F9099
:103D50000F900F900F902091F2373091F3378AE057
:103D600090E0B9010E94B66C8091052090910620E8
:103D70008630910544F12091F2373091F33786E394
:103D800090E0B9010E94B66C2CEB36E0E0E0F0E484
:103D90008181882F90E000D00F92EDB7FEB7319669
:103DA00020833183828393830E94F46C0F900F9061
:103DB0000F900F902091F2373091F3378AE090E026
:103DC000B9010E94B66C8091052090910620863042
:103DD00091054CF12091F2373091F33786E390E072
:103DE000B9010E94B66C0FE916E0E0E0F0E48281D0
:103DF00093810E940F2000D00F92EDB7FEB731964D
:103E000000831183828393830E94F46C0F900F9040
:103E10000F900F902091F2373091F3378AE090E0C5
:103E2000B9010E94B66C80910520909106208630E1
:103E3000910594F12091F2373091F33786E390E0C9
:103E4000B9010E94B66C01E816E0E0E0F0E484817C
:103E50009581A681B781BC01CD010E941E20DC01A5
:103E6000CB0100D000D0EDB7FEB7319600831183AF
:103E700082839383A483B5830E94F46C8DB79EB72D
:103E800006968DBF9EBF2091F2373091F3378AE0BE
:103E900090E0B9010E94B66C8091052090910620B7
:103EA000863091050CF44AC02091F2373091F337F7
:103EB00086E390E0B9010E94B66C0F2EFCE5CF2E90
:103EC000F6E0DF2EF02DE0E0F0E480859185A2851C
:103ED000B385BC01CD010E941E207B018C01E0E076
:103EE000F0E484859585A685B785BC01CD010E9447
:103EF0001E20DC01CB01EDB7FEB73A97EDBFFEBF48
:103F0000EDB7FEB73196C082D182E282F38204839C
:103F1000158386839783A087B1870E94F46C2DB7A1
:103F20003EB7265F3F4F2DBF3EBF2091F237309105
:103F3000F3378AE090E0B9010E94B66C86E660E152
:103F400070E040E050E40E94161119825DC080913B
:103F5000052090910620833091050CF453C02091E8
:103F6000F2373091F33783E390E0B9010E94B66CE9
:103F700046E256E08091A0229091A122A091A22237
:103F8000B091A322CD01AA27BB27BC016F7070702E
:103F90008091A0229091A122A091A222B091A3226F
:103FA000892F9A2FAB2FBB279C012F7030708091E7
:103FB000A0229091A122A091A222B091A3228F7061
:103FC0009070EDB7FEB73897EDBFFEBFEDB7FEB707
:103FD0003196408351836283738324833583868340
:103FE00097830E94F46C2DB73EB7285F3F4F2DBFDB
:103FF0003EBF2091F2373091F3378AE090E0B9016B
:104000000E94B66C31E0398389810F90CF91DF91A6
:104010001F910F91FF90EF90DF90CF900895DF9365
:10402000CF930F920F92CDB7DEB789839A83998190
:104030008A810F900F90CF91DF910895DF93CF93F6
:1040400000D00F92CDB7DEB769837A838B839C83D0
:1040500089819A81AB81BC81BC01CD010E943A204B
:10406000DC01CB01BC01CD012496CDBFDEBFCF91D9
:10407000DF910895DF93CF9300D00F92CDB7DEB7D5
:1040800069837A838B839C8329813A81922F832F42
:10409000CC01A0E0B0E0BC015527442789819A817A
:1040A000AB81BC81CD01AA27BB279C01922F832F16
:1040B000CC01A0E0B0E0842B952BA62BB72BBC0144
:1040C000CD012496CDBFDEBFCF91DF910895DF9360
:1040D000CF93CDB7DEB7CC55D040CDBFDEBF8091FA
:1040E000052090910620873091052CF12091F23720
:1040F0003091F33787E390E0B9010E94B66C85E117
:1041000097E000D00F92EDB7FEB731968083918390
:1041100084E290E0828393830E94F46C0F900F906E
:104120000F900F902091F2373091F3378AE090E0B2
:10413000B9010E94B66C8BE664E270E040E150E4A5
:104140000E94161180E0C45ADF4FCDBFDEBFCF9171
:10415000DF910895DF93CF930F92CDB7DEB78091B3
:10416000292090912A20A0912B20B0912C208F3FC4
:104170002FEF92072FEFA2072FEFB20709F43FC0EE
:104180008091292090912A20A0912B20B0912C2061
:10419000898380910520909106208730910534F124
:1041A0002091F2373091F33787E390E0B9010E9414
:1041B000B66C2DED37E08981882F90E000D00F920A
:1041C000EDB7FEB7319620833183828393830E94BB
:1041D000F46C0F900F900F900F902091F237309168
:1041E000F3378AE090E0B9010E94B66C81E761E0A4
:1041F00070E09E012F5F3F4FA9010E94161180E0E1
:104200000F90CF91DF910895DF93CF93CDB7DEB7B5
:104210008091A0229091A122A091A222B091A322EC
:10422000803021E0920721E0A20720E0B207B0F140
:1042300080910520909106208730910544F12091CE
:10424000F2373091F33787E390E0B9010E94B66C02
:104250002EEF37E0E0E0F0E485A9882F90E000D071
:104260000F92EDB7FEB7319620833183828393831B
:104270000E94F46C0F900F900F900F902091F237E6
:104280003091F3378AE090E0B9010E94B66C8EE677
:1042900061E070E045E350E40E94161180E0CF91A8
:1042A000DF910895DF93CF93CDB7DEB78091A02241
:1042B0009091A122A091A222B091A322803024E06B
:1042C000920721E0A20720E0B20708F468C08091BD
:1042D0000520909106208730910544F12091F23716
:1042E0003091F33787E390E0B9010E94B66C21E585
:1042F00038E0E0E0F0E484A9882F90E000D00F924D
:10430000EDB7FEB7319620833183828393830E9479
:10431000F46C0F900F900F900F902091F237309126
:10432000F3378AE090E0B9010E94B66C82E761E061
:1043300070E044E350E40E941611E0E0F0E486A946
:10434000882369F18091052090910620873091059E
:10435000FCF02091F2373091F33787E390E0B90118
:104360000E94B66C86E298E00F920F92EDB7FEB70E
:104370003196808391830E94F46C0F900F9020916E
:10438000F2373091F3378AE090E0B9010E94B66CC1
:1043900083E760E070E040E050E00E94161180E0AA
:1043A000CF91DF910895DF93CF93CDB7DEB78091A2
:1043B0009B22882371F580910520909106208730FB
:1043C0009105FCF02091F2373091F33787E390E0CC
:1043D000B9010E94B66C87EC98E00F920F92EDB78E
:1043E000FEB73196808391830E94F46C0F900F90FA
:1043F0002091F2373091F3378AE090E0B9010E94C2
:10440000B66C87E660E070E040E050E00E94161174
:1044100092C080919B22813071F58091052090910E
:10442000062087309105FCF02091F2373091F33768
:1044300087E390E0B9010E94B66C8CEA98E00F9295
:104440000F92EDB7FEB73196808391830E94F46C92
:104450000F900F902091F2373091F3378AE090E07F
:10446000B9010E94B66C8FE660E070E040E050E079
:104470000E94161160C080919B22823071F580915C
:1044800005209091062087309105FCF02091F237AD
:104490003091F33787E390E0B9010E94B66C8BE866
:1044A00098E00F920F92EDB7FEB73196808391831B
:1044B0000E94F46C0F900F902091F2373091F337F7
:1044C0008AE090E0B9010E94B66C80E760E070E09D
:1044D00040E050E00E9416112EC08091052090917E
:1044E0000620833091053CF12091F2373091F3376B
:1044F00083E390E0B9010E94B66C23E738E0809135
:104500009B22882F90E000D00F92EDB7FEB7319636
:1045100020833183828393830E94F46C0F900F90E9
:104520000F900F902091F2373091F3378AE090E0AE
:10453000B9010E94B66C80E0CF91DF910895DF93BE
:10454000CF93CDB7DEB780910520909106208730BC
:104550009105FCF02091F2373091F33787E390E03A
:10456000B9010E94B66C87EE98E00F920F92EDB7FA
:10457000FEB73196808391830E94F46C0F900F9068
:104580002091F2373091F3378AE090E0B9010E9430
:10459000B66C88E660E070E040E050E00E941611E2
:1045A00080E0CF91DF910895DF93CF93CDB7DEB751
:1045B000809105209091062087309105FCF0209194
:1045C000F2373091F33787E390E0B9010E94B66C7F
:1045D0008DEF98E00F920F92EDB7FEB73196808382
:1045E00091830E94F46C0F900F902091F2373091DC
:1045F000F3378AE090E0B9010E94B66C8091AC225A
:104600008D7F8093AC2289E660E070E040E050E06E
:104610000E94161180E0CF91DF910895DF93CF9330
:1046200000D000D0CDB7DEB769837A838B839C83BB
:104630004D835E8329813A814D815E8185E6B90192
:104640000E94161180E02696CDBFDEBFCF91DF918C
:104650000895DF93CF93CDB7DEB780910520909179
:10466000062087309105FCF02091F2373091F33726
:1046700087E390E0B9010E94B66C89E199E00F925E
:104680000F92EDB7FEB73196808391830E94F46C50
:104690000F900F902091F2373091F3378AE090E03D
:1046A000B9010E94B66C8DE660E070E040E050E039
:1046B0000E94161180E0CF91DF910895DF93CF9390
:1046C000CDB7DEB780910520909106208730910507
:1046D000FCF02091F2373091F33787E390E0B90195
:1046E0000E94B66C8EE299E00F920F92EDB7FEB782
:1046F0003196808391830E94F46C0F900F902091EB
:10470000F2373091F3378AE090E0B9010E94B66C3D
:1047100080E060E070E040E050E00E94161180E030
:10472000CF91DF910895DF93CF93CDB7DEB780911E
:1047300005209091062087309105FCF02091F237FA
:104740003091F33787E390E0B9010E94B66C8AE4B8
:1047500099E00F920F92EDB7FEB731968083918367
:104760000E94F46C0F900F902091F2373091F33744
:104770008AE090E0B9010E94B66C8AE660E070E0E1
:1047800040E050E00E94161180E0CF91DF91089543
:10479000DF93CF9300D000D0CDB7DEB769837A83A3
:1047A0008B839C834D835E838091AC2288708823A9
:1047B00009F482C08D819E81009741F1809105208E
:1047C00090910620873091050CF476C02091F23745
:1047D0003091F33787E390E0B9010E94B66C8AE626
:1047E00099E00F920F92EDB7FEB7319680839183D7
:1047F0000E94F46C0F900F902091F2373091F337B4
:104800008AE090E0B9010E94B66C56C080918D2B71
:1048100090918E2BA0918F2BB091902B2091A42260
:104820003091A5224091A6225091A722821B930B82
:10483000A40BB50B8B309105A105B105E8F1809172
:1048400005209091062087309105FCF02091F237E9
:104850003091F33787E390E0B9010E94B66C85E6AA
:1048600099E00F920F92EDB7FEB731968083918356
:104870000E94F46C0F900F902091F2373091F33733
:104880008AE090E0B9010E94B66C8DE660E070E0CD
:1048900040E050E00E94161180918D2B90918E2B5C
:1048A000A0918F2BB091902B8093A4229093A5225E
:1048B000A093A622B093A72280E02696CDBFDEBFAC
:1048C000CF91DF910895EF92FF920F931F93DF93A3
:1048D000CF9300D00F92CDB7DEB7898380911E377A
:1048E000E82EFF24EB82FC820B811C810530110530
:1048F00009F450C12B813C8126303105F4F48B81C1
:104900009C818230910509F4D2C00B811C81033057
:10491000110534F42B813C812130310599F18CC291
:104920008B819C818330910509F401C10B811C812D
:104930000430110509F428C17FC22B813C81283045
:10494000310509F49AC18B819C81893091056CF401
:104950000B811C810630110509F44FC12B813C816C
:104960002730310509F44FC167C28B819C818930A2
:10497000910509F43EC20B811C810A30110509F42E
:104980004EC25AC28091AC228170882309F084C043
:104990008091A8229091A922A091AA22B091AB2245
:1049A0000097A105B10531F1809105209091062075
:1049B00087309105FCF02091F2373091F33787E38F
:1049C00090E0B9010E94B66C8DE29AE00F920F92CE
:1049D000EDB7FEB73196808391830E94F46C0F90FF
:1049E0000F902091F2373091F3378AE090E0B901CF
:1049F0000E94B66C8091A8229091A922A091AA222F
:104A0000B091AB220196A11DB11D8093A822909375
:104A1000A922A093AA22B093AB228091A8229091C0
:104A2000A922A091AA22B091AB2283309105A105C1
:104A3000B10548F5809105209091062087309105B9
:104A4000FCF02091F2373091F33787E390E0B90121
:104A50000E94B66C8AE19AE00F920F92EDB7FEB712
:104A60003196808391830E94F46C0F900F90209177
:104A7000F2373091F3378AE090E0B9010E94B66CCA
:104A80000E945E23D9C11092A8221092A9221092EE
:104A9000AA221092AB22D0C11092A8221092A92271
:104AA0001092AA221092AB2282E080931E37E0E09F
:104AB000F0E480859185A285B3850097A105B105B5
:104AC00051F510921E37809105209091062082307A
:104AD00091050CF4B1C12091F2373091F33782E3A4
:104AE00090E0B9010E94B66C8FE09AE00F920F92AD
:104AF000EDB7FEB73196808391830E94F46C0F90DE
:104B00000F902091F2373091F3378AE090E0B901AD
:104B10000E94B66C91C10E94371E882321F483E065
:104B200080931E3789C181E080931E3785C1E0E004
:104B3000F0E4E0A0F1A002A113A160E070E080E049
:104B400090E00E943A20DC01CB01E816F9060A0742
:104B50001B0711F00E9467208091A0229091A12252
:104B6000A091A222B091A322803011E0910711E020
:104B7000A10710E0B10720F084E080931E375CC1EC
:104B800085E080931E3758C10E94042185E0809300
:104B90001E3752C10E94D3218091A0229091A12260
:104BA000A091A222B091A322803024E0920721E0BC
:104BB000A20720E0B20720F086E080931E373CC1B8
:104BC0008091A0229091A122A091A222B091A32233
:104BD000803031E0930731E0A30730E0B30720F0E5
:104BE00087E080931E3728C18091AC228D7F80930F
:104BF000AC2288E080931E371FC10E94522187E0BB
:104C000080931E3719C18091AC228470882369F586
:104C10008981882309F410C1809105209091062094
:104C200087309105FCF02091F2373091F33787E31C
:104C300090E0B9010E94B66C86EF99E00F920F9256
:104C4000EDB7FEB73196808391830E94F46C0F908C
:104C50000F902091F2373091F3378AE090E0B9015C
:104C60000E94B66C0E949323E7C088E080931E37B1
:104C70008091AC228D7F8093AC228091AC22827097
:104C8000882309F0ABC08981882309F4D5C08091BD
:104C9000A8229091A922A091AA22B091AB220097BC
:104CA000A105B10531F18091052090910620873052
:104CB0009105FCF02091F2373091F33787E390E0D3
:104CC000B9010E94B66C8AED99E00F920F92EDB790
:104CD000FEB73196808391830E94F46C0F900F9001
:104CE0002091F2373091F3378AE090E0B9010E94C9
:104CF000B66C8091A8229091A922A091AA22B0918D
:104D0000AB220196A11DB11D8093A8229093A922E8
:104D1000A093AA22B093AB228091A8229091A922BD
:104D2000A091AA22B091AB228A309105A105B105CC
:104D300048F5809105209091062087309105FCF080
:104D40002091F2373091F33787E390E0B9010E9468
:104D5000B66C80EC99E00F920F92EDB7FEB73196EA
:104D6000808391830E94F46C0F900F902091F23712
:104D70003091F3378AE090E0B9010E94B66C0E944E
:104D8000D4225AC08091052090910620833091054D
:104D9000FCF02091F2373091F33783E390E0B901D2
:104DA0000E94B66C80EA99E00F920F92EDB7FEB7C1
:104DB0003196808391830E94F46C0F900F90209124
:104DC000F2373091F3378AE090E0B9010E94B66C77
:104DD00081E080931E370E949F222EC01092A8224D
:104DE0001092A9221092AA221092AB2289E08093FD
:104DF0001E378091A0229091A122A091A222B09171
:104E0000A322803003E0900701E0A00700E0B00794
:104E100010F00E94AA208AE080931E370DC060E047
:104E200070E080E090E040E050E00E94C8238823DA
:104E300019F011E01A8375C08091AC22817088232B
:104E400009F46EC08091AC228870882309F468C090
:104E500020918D2B30918E2B40918F2B5091902B48
:104E600080919C2290919D22A0919E22B0919F22A0
:104E700079018A01E81AF90A0A0B1B0BD801C7014C
:104E80008D339105A105B10508F44AC08091052034
:104E900090910620833091050CF43FC02091F237A9
:104EA0003091F33783E390E0B9010E94B66C6FE66E
:104EB00079E020918D2B30918E2B40918F2B50914A
:104EC000902B80919C2290919D22A0919E22B09146
:104ED0009F2279018A01E81AF90A0A0B1B0BD801F3
:104EE000C70100D000D0EDB7FEB731966083718363
:104EF00082839383A483B5830E94F46C0DB71EB79D
:104F00000A5F1F4F0DBF1EBF2091F2373091F3375C
:104F10008AE090E0B9010E94B66C12E01A8301C0E9
:104F20001A828A812496CDBFDEBFCF91DF911F9177
:104F30000F91FF90EF900895DF93CF93CDB7DEB739
:104F4000809105209091062087309105FCF02091FA
:104F5000F2373091F33787E390E0B9010E94B66CE5
:104F600089E49AE00F920F92EDB7FEB731968083F5
:104F700091830E94F46C0F900F902091F237309142
:104F8000F3378AE090E0B9010E94B66C0E949F223C
:104F9000E0E0F0E480859185A285B3850097A105C6
:104FA000B10519F410921E3703C081E080931E37BB
:104FB0008CEA92E260E070E041E050E00E948C6C8C
:104FC00080E00E946324CF91DF9108950F931F9397
:104FD000DF93CF9300D000D0CDB7DEB769837A835B
:104FE0008B839C834D835E831092A0221092A1221A
:104FF0001092A2221092A322ED81FE818081882F3F
:1050000090E0A0E0B0E0AC01332722278091A022FD
:105010009091A122A091A222B091A322822B932B46
:10502000A42BB52B8093A0229093A122A093A2221F
:10503000B093A3228D819E81FC0131968081882FBF
:1050400090E0982F88279C01442737FD4095542FE6
:105050008091A0229091A122A091A222B091A3229E
:10506000822B932BA42BB52B8093A0229093A1226B
:10507000A093A222B093A3228D819E81FC0132963F
:105080008081282F30E040E050E08091A022909174
:10509000A122A091A222B091A322822B932BA42B18
:1050A000B52B8093A0229093A122A093A222B0932B
:1050B000A32204E410E68091A0229091A122A09165
:1050C000A222B091A322BC01CD010E943A20DC01B2
:1050D000CB01F80182A393A3A4A3B5A380910520DB
:1050E0009091062086309105F4F12091F2373091AD
:1050F000F33786E390E0B9010E94B66C49E55AE0C7
:10510000ED81FE818081682F70E08D819E81FC01A0
:1051100031968081282F30E08D819E81FC0132966E
:105120008081882F90E0EDB7FEB73897EDBFFEBFC6
:10513000EDB7FEB731964083518362837383248336
:105140003583868397830E94F46C8DB79EB708964B
:105150008DBF9EBF2091F2373091F3378AE090E007
:10516000B9010E94B66C8091AC2281608093AC2220
:105170008091A0229091A122A091A222B091A3227D
:105180008030E1E09E07E1E0AE07E0E0BE0728F0F6
:105190008091AC2288608093AC2280E02696CDBFBF
:1051A000DEBFCF91DF911F910F9108952F923F9213
:1051B0004F925F926F927F928F929F92AF92BF9227
:1051C000CF92DF92EF92FF920F931F93DF93CF93D3
:1051D000CDB7DEB72F97CDBFDEBF69877A878B87C4
:1051E0009C874D875E8789859A85AB85BC85833092
:1051F0009105A105B10569F489859A85AB85BC85C2
:105200002D853E85BC01CD01A9010E94E6278F872F
:10521000BDC18091A0229091A122A091A222B09123
:10522000A322803021E0920721E0A20720E0B2070C
:1052300008F4ABC182EE96E32D853E85B90140E1CD
:1052400050E00E94836C809105209091062086306A
:105250009105FCF02091F2373091F33786E390E02E
:10526000B9010E94B66C84E19BE00F920F92EDB7FA
:10527000FEB73196808391830E94F46C0F900F905B
:105280002091F2373091F3378AE090E0B9010E9423
:10529000B66C8091EA369091EB36A091EC36B091E5
:1052A000ED36BC01CD010E943A20DC01CB015C014E
:1052B0006D01EE24FF2487012A2D3B2D4C2D5D2D01
:1052C0006E2D7F2D802F912F00E20E949E66A22ED0
:1052D000B32EC42ED52EE62EF72E082F192F2A2CEA
:1052E0003B2C4C2C5D2C6E2C7F2C802E912E809193
:1052F000EE369091EF36A091F036B091F136BC01C8
:10530000CD010E943A20DC01CB019C01AD0160E09F
:1053100070E080E090E0E22DE22BE983E32DE32BC7
:10532000EA83E42DE42BEB83E52DE52BEC83E62DDE
:10533000E62BED83E72DE72BEE83E82DE82BEF83BB
:10534000892D892B888780910520909106208630B1
:1053500091053CF12091F2373091F33786E390E0EC
:10536000B9010E94B66C29EF3AE08091E236882FAD
:1053700090E000D00F92EDB7FEB7319620833183D5
:10538000828393830E94F46C0F900F900F900F9084
:105390002091F2373091F3378AE090E0B9010E9412
:1053A000B66C8091052090910620863091053CF1E5
:1053B0002091F2373091F33786E390E0B9010E94F3
:1053C000B66C2EED3AE08091E336882F90E000D065
:1053D0000F92EDB7FEB7319620833183828393839A
:1053E0000E94F46C0F900F900F900F902091F23765
:1053F0003091F3378AE090E0B9010E94B66C809159
:10540000052090910620863091054CF12091F237CD
:105410003091F33786E390E0B9010E94B66C01EC5D
:105420001AE08091E4369091E5360E94DD2A00D0A2
:105430000F92EDB7FEB73196008311838283938379
:105440000E94F46C0F900F900F900F902091F23704
:105450003091F3378AE090E0B9010E94B66C8091F8
:1054600005209091062086309105A4F12091F23715
:105470003091F33786E390E0B9010E94B66C03EAFD
:105480001AE08091E6369091E736A091E836B09127
:10549000E936BC01CD010E941E20DC01CB0100D009
:1054A00000D0EDB7FEB731960083118382839383DA
:1054B000A483B5830E94F46C8DB79EB706968DBF0A
:1054C0009EBF2091F2373091F3378AE090E0B90126
:1054D0000E94B66C8091052090910620863091053F
:1054E0000CF44EC02091F2373091F33786E390E010
:1054F000B9010E94B66C0F2EFEE7CF2EFAE0DF2E28
:10550000F02D8091EA369091EB36A091EC36B09177
:10551000ED36BC01CD010E943A207B018C018091C7
:10552000EE369091EF36A091F036B091F136BC0195
:10553000CD010E943A20DC01CB012DB73EB72A50A5
:1055400030402DBF3EBFEDB7FEB73196C082D1824D
:10555000E282F3820483158386839783A087B187D1
:105560000E94F46C8DB79EB70A968DBF9EBF2091A6
:10557000F2373091F3378AE090E0B9010E94B66CBF
:105580008091AC2284608093AC221F868F852F96F9
:10559000CDBFDEBFCF91DF911F910F91FF90EF90B4
:1055A000DF90CF90BF90AF909F908F907F906F9043
:1055B0005F904F903F902F900895DF93CF930F927D
:1055C0000F92CDB7DEB789839A8389819A810E9431
:1055D0000F200F900F90CF91DF910895DF93CF931D
:1055E000CDB7DEB72897CDBFDEBF6B837C838D83BD
:1055F0009E834F8358878091A0229091A122A091F1
:10560000A222B091A322803021E0920721E0A207DC
:1056100020E0B20708F443C08F81988589839A837C
:1056200061E070E080E090E00E943A20DC01CB0174
:105630008093023790930337A0930437B0930537D4
:1056400082EF96E329813A81B90144E250E00E9459
:10565000836C809105209091062086309105FCF0A6
:105660002091F2373091F33786E390E0B9010E9440
:10567000B66C87E39BE00F920F92EDB7FEB73196C1
:10568000808391830E94F46C0F900F902091F237E9
:105690003091F3378AE090E0B9010E94B66C80E067
:1056A0002896CDBFDEBFCF91DF910895DF93CF93D2
:1056B00000D000D0CDB7DEB769837A838B839C831B
:1056C0004D835E8380910520909106208630910560
:1056D000FCF02091F2373091F33786E390E0B90186
:1056E0000E94B66C83E69BE00F920F92EDB7FEB777
:1056F0003196808391830E94F46C0F900F902091DB
:10570000F2373091F3378AE090E0B9010E94B66C2D
:1057100082E080931E3780E02696CDBFDEBFCF911A
:10572000DF910895DF93CF93CDB7DEB7E997CDBF73
:10573000DEBF6FA778AB89AB9AAB4BAB5CABCE014E
:1057400001968DAB9EABAAEDB0E2AFABB8AFBCE1BA
:10575000B9AFEFA9F8AD00808FA998AD01968FABD6
:1057600098AFADA9BEA90C92EDA9FEA93196EDABFB
:10577000FEABF9ADF150F9AF89AD882351F782E165
:10578000FE017D96DF01982F1D929A95E9F78BA96E
:105790009CA99E012F5F3F4FB9010E946B1D87EAB4
:1057A00097E32BA93CA9B90140E150E00E94836C2A
:1057B0008091052090910620863091052CF1209152
:1057C000F2373091F33786E390E0B9010E94B66C6E
:1057D00085E89BE000D00F92EDB7FEB7319680834D
:1057E0009183CE010196828393830E94F46C0F9083
:1057F0000F900F900F902091F2373091F3378AE09D
:1058000090E0B9010E94B66C8091AC2282608093D6
:10581000AC2280E0E996CDBFDEBFCF91DF91089545
:10582000DF93CF93CDB7DEB72797CDBFDEBF6A83B7
:105830007B838C839D834E835F83EE81FF81808198
:1058400089838981883010F087E089832A813B81B0
:105850008E819F81FC01E20FF31F10828981282F26
:1058600030E080910520909106208217930744F143
:105870008981882F90E0C0962091F2373091F337DC
:10588000B9010E94B66C28E93BE08E819F810196A8
:1058900000D00F92EDB7FEB731962083318382831B
:1058A00093830E94F46C0F900F900F900F902091B3
:1058B000F2373091F3378AE090E0B9010E94B66C7C
:1058C00080E02796CDBFDEBFCF91DF910895DF93B3
:1058D000CF93CDB7DEB72B97CDBFDEBF8A834B8387
:1058E0005C836D837E832F83388781E089838A81FF
:1058F000282F30E02A873B878A859B85893691054A
:1059000009F455C02A853B852A3631058CF48A85F1
:105910009B858536910521F12A853B852636310503
:1059200061F18A859B858130910509F467C080C04B
:105930002A853B852B36310569F18A859B858B3617
:1059400091050CF441C02A853B852C36310509F4BC
:1059500048C08A859B858D36910509F45CC068C076
:105960008B819C81AD81BE812F813885BC01CD01A9
:10597000A9010E94A91589835DC08B819C81AD819D
:10598000BE812F813885BC01CD01A9010E94D62896
:10599000898350C08B819C81AD81BE812F813885E8
:1059A000BC01CD01A9010E94EE2A898343C08B81ED
:1059B0009C81AD81BE812F813885BC01CD01A901BB
:1059C0000E94922B898336C08B819C81AD81BE81E0
:1059D0002F813885BC01CD01A9010E94562B8983F6
:1059E00029C08B819C81AD81BE812F813885BC010E
:1059F000CD01A9010E94102C89831CC08B819C8140
:105A0000AD81BE812F813885BC01CD01A9010E94E5
:105A1000E62789830FC08B819C81AD81BE812F8158
:105A20003885BC01CD01A9010E94C823898302C029
:105A3000198619C080918D2B90918E2BA0918F2B60
:105A4000B091902B80939C2290939D22A0939E22B4
:105A5000B0939F228981882321F480E00E946324EF
:105A600089839981998789852B96CDBFDEBFCF9198
:105A7000DF910895DF93CF9300D000D0CDB7DEB78C
:105A800089839A834B835C836D837E8380E090E07F
:105A90002696CDBFDEBFCF91DF910895DF93CF93E0
:105AA0000F920F92CDB7DEB789839A83F8948981DC
:105AB0009A818093082190930921789481E08093C2
:105AC000B42202C00E94DB448091082190910921F8
:105AD0000097C1F71092B4220F900F90CF91DF91F1
