:100000000C94D90A0C94FF0A0C94FF0A0C94FF0A72
:100010000C94FF0A0C94FF0A0C94FF0A0C94FF0A3C
:100020000C94FF0A0C94FF0A0C94FF0A0C94FF0A2C
:100030000C94FF0A0C94FF0A0C9445630C94FF0A7D
:100040000C94FF0A0C94FF0A0C94FF0A0C94FF0A0C
:100050000C94FF0A0C94FF0A0C94FF0A0C94FF0AFC
:100060000C94FF0A0C94FF0A0C94FF0A0C94FF0AEC
:100070000C948B600C94F7600C94DF600C94FF0A76
:100080000C94FF0A0C94FF0A0C94FF0A0C94FF0ACC
:100090000C94FF0A0C94FF0A0C94FF0A0C94FF0ABC
:1000A0000C94FF0A0C94FF0A0C94FF0A0C94FF0AAC
:1000B0000C94FF0A0C94FF0A0C94FF0A0C94FF0A9C
:1000C0000C94FF0A0C94FF0A0C94FF0A0C94FF0A8C
:1000D0000C94FF0A0C94FF0A0C94FF0A0C94FF0A7C
:1000E0000C94FF0A0C94FF0A0C9445620C94B162C4
:1000F0000C9499620C94FF0A0C94FF0A0C94FF0A6A
:100100000C94FF0A0C94FF0A0C94FF0A0C94FF0A4B
:100110000C94FF0A0C94FF0A0C94FF0A0C94FF0A3B
:100120000C94FF0A0C94FF0A0C94FF0A0C94FF0A2B
:100130000C94FF0A0C94FF0A0C94FF0A0C94FF0A1B
:100140000C94FF0A0C94FF0A0C94FF0A0C94FF0A0B
:100150000C94FF0A0C94FF0A0C94FF0A0C94FF0AFB
:100160000C946C5E0C94D85E0C94C05E0C94FF0AE8
:100170000C94FF0A0C94FF0A0C94FF0A0C94FF0ADB
:100180000C94FF0A0C94FF0A0C94FF0A0C94FF0ACB
:100190000C94FF0A0C94FF0A0C94FF0A0C94FF0ABB
:1001A0000C94FF0A0C94FF0A0C94FF0A0C94CB6386
:1001B0000C94FF0A0C94FF0A0C94FF0A0C94FF0A9B
:1001C0000C94FF0A0C94FF0A0C94FF0A0C94FF0A8B
:1001D0000C94FF0A0C94FF0A0C94FF0A0C94B76865
:1001E0000C9426690C94FC680C94FF0A0C94FF0A8A
:1001F0000C94FF0A0A0D0A0D002072656164204606
:10020000726F6D20636C69656E743A20000A0D4C44
:100210006173742053494D2052657365743A200010
:100220000A0D53656E644F6E6C79436F6D6D616E30
:100230006420302D313320616E6420456E74657208
:100240003A000A0D5365742053696D5374617465E7
:1002500020302D313320616E6420456E7465723A12
:10026000004C616D702025203364202530325825E4
:100270003032582530325825303258253032582502
:1002800030325825303258253032580A000A0D4392
:100290005243207473436F6E666967426F72646580
:1002A000725275746572203D2025642020202070D4
:1002B0007354696D657273203D2025640A0D000A30
:1002C0000D53657420766572626F736974793A00B4
:1002D0000A0D536574204F666632204D696E757441
:1002E000653A000A0D536574204F66663220486FE8
:1002F00075723A000A0D536574204F6E32204D69B5
:100300006E7574653A000A0D536574204F6E322085
:10031000486F75723A000A0D536574204F66663156
:10032000204D696E7574653A000A0D536574204F4F
:1003300066663120486F75723A000A0D5365742065
:100340004F6E31204D696E7574653A000A0D536524
:1003500074204F6E3120486F75723A000A0D536554
:1003600074204D696E7574653A000A0D53657420EA
:10037000486F75723A000A0D5365742044617465C4
:100380003A000A0D536574204D6F6E74683A000A86
:100390000D53657420596561723A000A0D0046726A
:1003A0006F6D204352443220756172742072656310
:1003B000697665643A00507265737320616E7920C6
:1003C0006B657920210A0D00546F2043524432207E
:1003D000556172742020202073656E6465743A46FE
:1003E0004544434241393837363534333231300AA7
:1003F0000D000A0D0046726F6D2047505253207554
:1004000061727420726563697665643A0050726542
:10041000737320616E79206B657920210A0D005479
:100420006F20475052532055617274202020207352
:10043000656E6465743A3031323334353637383965
:100440004142434445460A0D0047505253204A500A
:1004500036205245534554206F6E0A0D00475052C6
:1004600053204A5036205245534554206F66660A41
:100470000D0042414420636C6561722052414D0081
:100480004241442063726320696E2052414D2C200A
:10049000707354696D6572730042414420637263E6
:1004A00020696E2052414D2C2070734D6F64756C25
:1004B00065536574436F6E666967004572726F724B
:1004C0002077726974696E67207061636B65742050
:1004D000746F206D6F64756C65004572726F722069
:1004E00077726974696E6720746F2074756E20640A
:1004F00065766963650053656E64206D657373612D
:100500006765004572726F722077726974696E67F1
:1005100020746F2074756E2064657669636500537E
:10052000656E64206D65737361676500546F20624A
:100530006F7264657220616E73776572004A656ED2
:100540004E65744E6574776F726B426C6F62546166
:10055000626C6520204E4F4445202564205665720C
:1005600073696F6E202564206C656E676874202542
:100570006400546F20626F726465722066726F6DE2
:1005800020726F7574657220616E73776572004CAE
:100590006F63616C206D657373616765004C6F6399
:1005A000616C206D756C74696361737420616E7326
:1005B000776572004572726F722077726974696E26
:1005C0006720746F2074756E2064657669636500BA
:1005D00053656E64206D657373616765004D756C5E
:1005E00074696361737420616E737765720045721C
:1005F000726F722077726974696E67207061636BC5
:10060000657420746F206D6F64756C650041636361
:100610007365732052656A65637400416363736533
:1006200073204163636570740052414449555320FF
:10063000416363657373205265717565737420251A
:10064000303258253032582530325825303258252E
:100650003032582530325825303258253032580043
:100660004241442043616C63756C6174656420632E
:100670006865636B73756D20253034580050726F58
:1006800074636F6C202564204C656E676874202548
:100690006420436865636B73756D202530345800A2
:1006A000495076362066726F6D204A656E6E6963BA
:1006B000206C656E67687420256C640043616E6E03
:1006C0006F7420636F6E66696775726520626F7202
:1006D00064657220726F75746572206E6F64652038
:1006E00076657273696F6E205625642E25642E25FB
:1006F0006400436F6E66696720364C6F5750414EF9
:1007000020507265666978203A2030782530386C40
:10071000782530386C7800436F6E666967204A65CB
:100720006E4E65742049442020202020203A20303D
:1007300078256C7800436F6E6669672031352E34FA
:100740002050414E204944202020203A2030782556
:100750007800436F6E6669672031352E3420436818
:10076000616E6E656C2020203A20256400436F6E18
:100770006669672031352E3420526567696F6E20B7
:100780002020203A2025640057726974696E672022
:10079000636F6E66696775726174696F6E20746FDE
:1007A000204D6F64756C652025640057726974690B
:1007B0006E67204D6F64756C653A20536563757282
:1007C00069747920436F6E666967202564004175FE
:1007D00074686F7269736174696F6E2053636865C2
:1007E0006D6520204552524F5200417574686F72FA
:1007F00069736174696F6E20536368656D6520204D
:100800003A205241444955532073657276657220EF
:100810006174202573207573696E67205041500004
:10082000417574686F7269736174696F6E20536388
:1008300068656D6520203A204E6F6E65004E6574C8
:10084000776F726B204B657920202020202020209C
:100850002020203A20257300456E61626C696E6726
:10086000206E6574776F726B20736563757269743F
:10087000793A0057726974696E67204D6F64756CC0
:10088000653A204163746976697479204C45443A2D
:100890002025640057726974696E67204D6F647516
:1008A0006C653A20536574204A656E4E657420501D
:1008B000726F66696C652028256429005772697417
:1008C000696E67204D6F64756C653A20456E616294
:1008D0006C696E6720416E74656E6E612044697646
:1008E0006572736974790057726974696E67204D17
:1008F0006F64756C653A205365742046726F6E7430
:10090000656E64202825642900556E6B6E6F776EC6
:10091000206D6F64756C65206D6F64653A20256489
:100920000057726974696E67204D6F64756C653A23
:100930002052756E20436F6D6D6973696F6E696EBD
:10094000670057726974696E67204D6F64756C65D6
:100950003A2052756E20526F757465720057726935
:1009600074696E67204D6F64756C653A2052756EC0
:1009700020436F6F7264696E61746F7200577269A1
:1009800074696E67204D6F64756C653A20526573AB
:1009900065740057726974696E67204D6F64756C79
:1009A000653A20476574204164647265737300572B
:1009B000726974696E67204D6F64756C653A20507A
:1009C000696E670057726974696E67204D6F647550
:1009D0006C653A204765742056657273696F6E00C6
:1009E00057726974696E67204D6F64756C653A2043
:1009F00047657420436F6E6669670050696E6700D3
:100A0000506F6E67004E6F6465206E6F7420726564
:100A100073706F6E64696E6720286C6173742063F5
:100A20006F6D6D7320256C64207365636F6E6473E6
:100A30002061676F290043616E6E6F742064657476
:100A400065726D696E65206D6F64756C652061649B
:100A500064726573730052657175657374696E674E
:100A6000206D6F64756C65206164647265737300DA
:100A700054696D656F75742077616974696E67205C
:100A8000666F72206164647265737300526571757C
:100A9000657374696E6720636F6E666967757261EE
:100AA00074696F6E0042414420636F6E666967002F
:100AB00052657175657374696E67207665727369C6
:100AC0006F6E0054696D656F757420776169746924
:100AD0006E6720666F722076657273696F6E005361
:100AE00074617274696E67206D6F64756C65004324
:100AF0006F6E6E656374656420746F20426F7264FC
:100B0000657220726F75746572205625642E256497
:100B10002E256400436F6E66696720364C6F575010
:100B2000414E20507265666978203A203078253031
:100B3000386C782530386C7800436F6E66696720B2
:100B40004A656E4E65742049442020202020203ABA
:100B5000203078256C7800436F6E666967203135E8
:100B60002E342050414E204944202020203A20306D
:100B700078257800436F6E6669672031352E342002
:100B80004368616E6E656C2020203A202564004326
:100B90006F6E6669672031352E3420526567696F44
:100BA0006E202020203A2025640052656365697616
:100BB000656420636F6E66696775726174696F6ED4
:100BC0002066726F6D204D6F64756C6500526563B1
:100BD00065697665642073656375726974792063ED
:100BE0006F6E66696775726174696F6E2066726F89
:100BF0006D204D6F64756C6500436F6E6669677537
:100C0000726174696F6E20726571756573742066A8
:100C1000726F6D206D6F64756C65004D6F64756CDF
:100C20006520616464726573733A202573004D6FAB
:100C300064756C653A20257300546F2053494D3A12
:100C400025730046726F6D2053494D3A2573004F4E
:100C50006E2053494D0046726F6D2053494D3A2521
:100C600073004F66662053494D000A0D0052656AB5
:100C7000656374206C61737420636C69656E7420A5
:100C8000696E2054696D653A20000A0D000A0D5204
:100C9000657365742053494D20696E2054696D65F4
:100CA0003A20004F6E2F4F66662053494D00436C2B
:100CB00069656E742025206420746F2072656369F5
:100CC0007665642053494D3A25640046726F6D2065
:100CD00053494D3A257300546F20636C69656E74F7
:100CE0002025642073656E646564202564202A20B5
:100CF000322062797465730046726F6D20636C698F
:100D0000656E742053494D3A2573004572726F72B7
:100D1000205345542050494E202573004572726F70
:100D2000722050494E2074657374202573004672FA
:100D30006F6D2053494D3A2573000A0D53696D209C
:100D40007374617475733A20257320666C5F7265E5
:100D50006164203D20256420745F6D696E5F6E6F55
:100D60005F636F6E6E656374203D2025640A0D0A13
:100D70000D003133204F70656E65640031322054B0
:100D80004F5F4F70656E003131204241445F5049E2
:100D90004E003130204349494352003920435354D7
:100DA00054003820435351003720434741545400E6
:100DB0003620435245470035204349504D55580091
:100DC000342050494E5F73657400332050494E5FA4
:100DD0007465737400322043494653525F746573DF
:100DE000740031204154453000302041545F746517
:100DF0007374004F70656E656420434F4D20696EBB
:100E00002074756E20646576696365004572726F43
:100E100072204F70656E656420434F4D20696E20CF
:100E200074756E20646576696365004572726F72D1
:100E30002077726974696E67207061636B657420D6
:100E4000746F206D6F64756C6500424144206C6561
:100E50006E6768742066726F6D20636C69656E746E
:100E60003A2564202564004572726F7220756E6B9E
:100E70006E6F77207465436F6D6D616E6473504360
:100E800000204F6E31202532583A2530325820202C
:100E90004F666631202532583A25303258202020BE
:100EA000204F6E32202532583A2530325820204FBC
:100EB000666632202532583A253032580A0D000A2B
:100EC0000D54696D6520000A0D00496E70757473CC
:100ED0003A2000712043757272656E74456E6572BA
:100EE00067792C207720546F74616C456E6572674A
:100EF000792C206520417272617943757272656E3A
:100F000074456E657267790A0D006B2053756254E3
:100F10007265654E6F6465732C206C204E65747726
:100F20006F726B5461626C650A0D00782074657392
:100F300074204352430A0D007620566572626F7327
:100F40006974790A0D007220524144495553207446
:100F500061626C650A0D007374617475732047508B
:100F6000525320672D47657453696D5374617465DE
:100F70002C20732D53657453696D53746174652C03
:100F8000206A2D53656E644F6E6C79436F6D6D6191
:100F90006E640A0D0074657374202020475052530C
:100FA00020612D41542C20622D41542B4349505334
:100FB00045525645523F2C20632D41542B434950F6
:100FC0005354415455532C20642D4C617374446127
:100FD000746554696D650A0D007420536574204F63
:100FE0006E2F4F66660A0D007020536574205049BD
:100FF0004E0A0D0030204A656E6E696320524553DB
:1010000045540A0D0039205365742074696D6520BC
:101010002620646174610A0D0038205465737420C1
:1010200045787465726E616C2052414D0A0D003630
:1010300020546573742047505253205561727420B8
:101040004A50362C20202020202020203720546594
:10105000737420435244322055617274204A5034D4
:101060000A0D00352047505253204A503620524531
:101070005345540A0D0034204F6E2F4F66662052A0
:10108000656C617920310A0D00312042726F616414
:10109000636173743D312C202020202020202032D9
:1010A0002042726F6164636173743D3132372C206A
:1010B00020202020202020332042726F6164636151
:1010C00073743D3235350A0D000A0D4A656E6E693E
:1010D0006320484F5354205625642E25642E2564E2
:1010E000202053697A65204E564D203D20257520DD
:1010F00062797465732046726565203D2025642001
:1011000062797465730A0D004F6E54696D657200E3
:101110004F666654696D6572004F6E4C616D70006C
:101120004F66664C616D7000546573742061742065
:101130006164647265737320256400446F75626C2A
:1011400065207265706F7274004F6B004D414320D3
:101150002530325825303258253032582530325813
:101160002530325825303258253032582530325803
:1011700000436F6E6E6563746564202564206F663E
:101180002025640054657374206174206164647266
:10119000657373202564002532583A253032582073
:1011A00047726F7570202564204C6967687420252C
:1011B00064005465737420617420616464726573A3
:1011C00073202564004572726F722068616E646CD2
:1011D000696E672074756E207061636B657400457D
:1011E00072726F7220636F6D6D756E696361746981
:1011F0006E67207769746820626F7264657220720E
:101200006F75746572206D6F64756C65000A0D45AD
:10121000787465726E616C2052414D204F4B0A0DFF
:10122000000A0D457865726E616C2052414D204573
:1012300052524F52533A25752061742041646472B2
:101240006573733A307825580A0D000A0D457865A4
:10125000726E616C2052414D206E6F7420636C651C
:10126000617220617420416464726573733A3078EE
:10127000255800506F7765725F666163746F7209FD
:1012800025660925660925660925660A0D0041704F
:10129000706172656E745F706F776572092566099B
:1012A00025660925660925660A0D00526561637485
:1012B0006976655F706F776572092566092566092D
:1012C00025660925660A0D004163746976655F70BD
:1012D0006F77657209256609256609256609256601
:1012E0000A0D0043757272656E7409090909256655
:1012F0000925660925660A0D00566F6C74616765DD
:101300000909090925660925660925660A0D0046A9
:1013100072657175656E63790925660A0D000A0D9F
:10132000004C61737420436F6E74616374200054C9
:101330006F74616C5F72656163746976655F656E19
:1013400065726779204C312C4C322C4C3309256660
:101350000925660925660A0D00546F74616C5F7279
:10136000656163746976655F656E657267792C5433
:10137000312C54320925660925660925660A0D00B7
:10138000546F74616C5F6163746976655F656E65E7
:10139000726779204C312C4C322C4C33092566096C
:1013A00025660925660A0D00546F74616C5F6163E0
:1013B000746976655F656E657267792C54312C545B
:1013C000320925660925660925660A0D000A0D0001
:1013D0004C61737420436F6E74616374200009253F
:1013E0006609256620202566202025660A0D002531
:1013F0006420005072696E742041727261792041DC
:1014000063746976652043757272656E20456E65FA
:10141000726779202E2E2E206B573A0A0D004572E6
:10142000726F72207343757272656E74456E657269
:101430006779536D616C6C2E4E657874496E41729C
:10144000726179202564203E3D202564004164645A
:10145000496E43757272656E74456E657267794147
:10146000727261792025640A0D0053657420504919
:101470004E203A2025730A0D005365742050494EC2
:10148000203A2025730A0D00436C6F636B2069734B
:10149000207265736574004572726F7220726561A7
:1014A0006420454E45524759204D45544552006EE3
:1014B000616E00696E660000407A10F35A00A072F7
:1014C0004E18090010A5D4E80000E876481700007F
:1014D000E40B54020000CA9A3B000000E1F505004D
:1014E0000080969800000040420F000000A0860196
:1014F000000000102700000000E803000000006466
:1015000000000000000A00000000000100000000D0
:10151000002C76D888DC674F0823DFC1DFAE59E1A5
:10152000B1B796E5E3E453C63AE651997696E8E614
:10153000C28426EB898C9B62ED407C6FFCEFBC9CE7
:101540009F40F2BAA56FA5F490055A2AF75C936BF9
:101550006CF9676DC11BFCE0E40D47FEF520E6B5B4
:1015600000D0ED902E0300943577050080841E088E
:101570000000204E0A000000C80C333333330F98AC
:101580006E12831141EF8D2114893BE65516CFFE73
:10159000E6DB18D1844B381BF77C1D901DA4BBE4FF
:1015A00024203284725E228100C9F124ECA1E53D41
:1015B000270011241FBECFEFDFE3DEBFCDBF00E069
:1015C0000CBF18BE19BE1ABE1BBE12E2A0E0B0E2EC
:1015D000EEE3FDEE00E00BBF02C007900D92AE3DC2
:1015E000B107D9F71BBE18E3AEEDB2E201C01D9200
:1015F000A534B107E1F70E94010B0C949D760C9481
:1016000000008F929F92AF92BF92CF92DF92EF92A3
:10161000FF920F931F93DF93CF93CDB7DEB72C9735
:10162000CDBFDEBF0E940F640E946C650E942465DE
:101630001F8280E090E46FE370E00E9436518823BF
:1016400041F1809105209091062083309105FCF0B6
:10165000209141383091423883E390E0B9010E94F3
:10166000417589E994E00F920F92EDB7FEB731967C
:10167000808391830E947F750F900F902091413855
:10168000309142388AE090E0B9010E94417581E0D2
:101690008F8380E490E46EE570E00E9436518823E9
:1016A00041F1809105209091062083309105FCF056
:1016B000209141383091423883E390E0B9010E9493
:1016C000417580E894E00F920F92EDB7FEB7319626
:1016D000808391830E947F750F900F9020914138F5
:1016E000309142388AE090E0B9010E94417581E072
:1016F0008F838F81882341F180910520909106206E
:1017000083309105FCF0209141383091423883E3D9
:1017100090E0B9010E94417582E794E00F920F9228
:10172000EDB7FEB73196808391830E947F750F904D
:101730000F9020914138309142388AE090E0B90111
:101740000E9441750E94F54407E410E6E7E4F0E6E4
:10175000828193810E94D21101960E94E311F801C7
:1017600082839383E7E4F0E61082118207E410E6B7
:1017700060E070E085E090E00E94F211DC01CB01B6
:10178000F801868F978FA0A3B1A3E7E4F0E612A239
:1017900013A214A215A22FE038E381E590E6B90167
:1017A00046E050E00E940E7587E590E66DE570E634
:1017B00046E050E00E940E750E94A0298091D82B2F
:1017C0009091D92BA091DA2BB091DB2B8093153817
:1017D00090931638A0931738B09318380E94CE4CC7
:1017E0000E948B618823D1F30E94A4618E830E94A2
:1017F0003E4580E090E22AE038E3B9010E941E7580
:10180000009709F43FC08091DE229091DF2284305E
:1018100091055CF58E818033D8F08E818A33C0F4D7
:101820002091DE223091DF22F901E050F04E8E81CE
:101830008083C90101968093DE229093DF228091FC
:10184000DE229091DF22FC01E050F04E1082C6CFE4
:101850001092DE221092DF228091DE229091DF2210
:10186000FC01E050F04E1082B9CF1092DE221092AF
:10187000DF228091DE229091DF22FC01E050F04EC9
:101880001082ACCF8E81282F30E02B873C878B8550
:101890009C858235910509F404C4EB85FC85E3350C
:1018A000F1050CF0A4C02B853C852134310509F4E9
:1018B000E5C48B859C85823491050CF04FC0EB8587
:1018C000FC85E433F10509F457C12B853C852533AC
:1018D0003105FCF48B859C858133910509F431C178
:1018E000EB85FC85E233F1053CF42B853C85203308
:1018F000310509F4BCC272CF8B859C85823391057A
:1019000009F428C1EB85FC85E333F10509F42BC10B
:1019100065CF2B853C852733310509F4A8C18B851C
:101920009C85883391056CF4EB85FC85E533F105E6
:1019300009F42CC12B853C852633310509F453C1AC
:101940004DCF8B859C858833910509F4D4C1EB85F7
:10195000FC85E933F10509F4D1C140CF2B853C85E5
:101960002734310509F4DEC48B859C8588349105C4
:10197000CCF4EB85FC85E334F10509F4D6C42B8562
:101980003C85233431050CF47DC48B859C858434DF
:10199000910509F4CEC4EB85FC85E534F10509F425
:1019A000FEC41CCF2B853C852C34310509F462C262
:1019B0008B859C858D3491056CF4EB85FC85EA3430
:1019C000F10509F489C42B853C852B34310509F4D4
:1019D00054C204CF8B859C858035910509F44BC496
:1019E000EB85FC85E135F10509F4D3C4F7CE2B85F1
:1019F0003C852736310509F495C48B859C8588364E
:101A000091050CF049C0EB85FC85E835F10509F43A
:101A10001EC32B853C8529353105CCF48B859C85EF
:101A20008435910509F42CC2EB85FC85E435F1057C
:101A30000CF42CC42B853C852635310509F4F1C204
:101A40008B859C858735910509F4A6C4C7CEEB85A7
:101A5000FC85E336F10509F468C42B853C85243602
:101A600031056CF48B859C858136910509F406C49B
:101A7000EB85FC85E236F10509F404C4AFCE2B8575
:101A80003C852436310509F454C48B859C85853604
:101A9000910509F484C4A2CEEB85FC85E237F105FB
:101AA00009F4FFC22B853C85233731052CF58B8546
:101AB0009C858C36910509F4DDC1EB85FC85ED36FE
:101AC000F1056CF42B853C852A36310509F404C4F4
:101AD0008B859C858B36910509F4CFC17FCEEB8534
:101AE000FC85E037F10509F4C6C32B853C85213719
:101AF000310509F44EC472CE8B859C8586379105DD
:101B000009F48FC2EB85FC85E737F1056CF42B8572
:101B10003C852337310509F4B9C38B859C8584370F
:101B2000910509F4ADC15ACEEB85FC85E737F10587
:101B300009F432C42B853C852837310509F487C266
:101B40004DCE64E07EEF8FEF9FEF42E021E00E94F8
:101B50006A1644CE64E07EEF8FEF9FEF42E02FE7FE
:101B60000E946A163BCE64E07EEF8FEF9FEF42E06B
:101B70002FEF0E946A1632CE8091E02B882319F055
:101B80000E947F492BCE0E94504928CEE0E4F6E027
:101B90008085882F90E080729070009791F08DE59D
:101BA00094E00F920F92EDB7FEB731968083918348
:101BB0000E947F750F900F90E0E4F6E080E286834C
:101BC0000DCE89E494E00F920F92EDB7FEB73196F7
:101BD000808391830E947F750F900F90E0E4F6E080
:101BE00080E28583FBCD87E090E20E946D608FE10B
:101BF00094E00F920F92EDB7FEB7319680839183F8
:101C00000E947F750F900F908DE094E00F920F92DD
:101C1000EDB7FEB73196808391830E947F750F9058
:101C20000F900E94A46185EF93E00F920F92EDB7A1
:101C3000FEB73196808391830E947F750F900F903D
:101C400004C00E94845F0E94F4610E946C5F88233C
:101C5000C1F782EF93E00F920F92EDB7FEB7319686
:101C6000808391830E947F750F900F90B7CD88E19C
:101C700090E20E944E5E88EC93E00F920F92EDB7D7
:101C8000FEB73196808391830E947F750F900F90ED
:101C900086EB93E00F920F92EDB7FEB731968083FB
:101CA00091830E947F750F900F900E94A4618EE92E
:101CB00093E00F920F92EDB7FEB731968083918338
:101CC0000E947F750F900F9004C00E94CD5D0E940E
:101CD000F4610E947E5D8823C1F78BE993E00F9247
:101CE0000F92EDB7FEB73196808391830E947F7586
:101CF0000F900F9073CD0E94275070CD8FE893E026
:101D00000F920F92EDB7FEB73196808391830E94B8
:101D10007F750F900F900E941B458D8386E088870A
:101D20008D81898780E298E39E01285F3F4F6FE6AF
:101D3000A90122E000E00E94AB5B80913738882344
:101D4000E1F782E893E00F920F92EDB7FEB731967C
:101D5000808391830E947F750F900F900E941B4596
:101D60008D8385E088878D818F71898780E298E3F4
:101D70009E01285F3F4F6FE6A90122E000E00E942C
:101D8000AB5B809137388823E1F786E793E00F92C9
:101D90000F92EDB7FEB73196808391830E947F75D5
:101DA0000F900F900E941B458D8384E088878D8162
:101DB0008F73898780E298E39E01285F3F4F6FE62B
:101DC000A90122E000E00E94AB5B809137388823B4
:101DD000E1F78AE693E00F920F92EDB7FEB73196E6
:101DE000808391830E947F750F900F900E941B4506
:101DF0008D8382E088878D818F73898788E08A87C9
:101E000080E298E39E01285F3F4F6FE6A90123E03F
:101E100000E00E94AB5B809137388823E1F78CE5C6
:101E200093E00F920F92EDB7FEB7319680839183C6
:101E30000E947F750F900F900E941B458D8318861E
:101E400080E889878D818F778A8780E298E39E0179
:101E5000285F3F4F6FE6A90123E000E00E94AB5BE3
:101E6000809137388823E1F710921938B7CC0E9457
:101E7000A029B4CC0E94854CB1CC0E94C54CAECCFC
:101E80008CE493E00F920F92EDB7FEB7319680830A
:101E900091830E947F750F900F9000E410E40E94E0
:101EA0001B45F801868380E490E46EE570E00E94B3
:101EB00006518AE393E00F920F92EDB7FEB7319689
:101EC000808391830E947F750F900F9000E410E44F
:101ED0000E941B45F801878380E490E46EE570E082
:101EE0000E94065189E293E00F920F92EDB7FEB780
:101EF0003196808391830E947F750F900F9000E44C
:101F000010E40E941B45F801808780E490E46EE5B0
:101F100070E00E94065186E193E00F920F92EDB7B8
:101F2000FEB73196808391830E947F750F900F904A
:101F300000E410E40E941B45F801818780E490E4EE
:101F40006EE570E00E94065186E093E00F920F92DA
:101F5000EDB7FEB73196808391830E947F750F9015
:101F60000F9000E410E40E941B45F801E65AFF4F71
:101F7000808380E490E46EE570E00E94065184EF77
:101F800092E00F920F92EDB7FEB731968083918366
:101F90000E947F750F900F9000E410E40E941B4593
:101FA000F801E55AFF4F808380E490E46EE570E02D
:101FB0000E94065183EE92E00F920F92EDB7FEB7AA
:101FC0003196808391830E947F750F900F9000E47B
:101FD00010E40E941B45F801E45AFF4F808380E41F
:101FE00090E46EE570E00E94065180ED92E00F9261
:101FF0000F92EDB7FEB73196808391830E947F7573
:102000000F900F9000E410E40E941B45F801E35A82
:10201000FF4F808380E490E46EE570E00E940651FB
:10202000DDCB8FEB92E00F920F92EDB7FEB73196BA
:10203000808391830E947F750F900F900E941B45B3
:10204000882F90E08093052090930620C7CB0F2E19
:10205000FDE8EF2EF2E0FF2EF02D80E090E46FE33C
:1020600070E00E943651082F10E080E490E46EE5A5
:1020700070E00E943651882F90E000D000D0EDB77C
:10208000FEB73196E082F1820283138384839583C5
:102090000E947F752DB73EB72A5F3F4F2DBF3EBFD1
:1020A0009DCB1B821C82DCC041E652E02B813C812F
:1020B000C901880F991F820F931F9C01220F331FA4
:1020C000220F331F220F331F820F931FFC01ED5588
:1020D000FF4B8081682F70E02B813C81C901880F04
:1020E000991F820F931F9C01220F331F220F331F52
:1020F000220F331F820F931FFC01ED55FF4B81818F
:10210000A82FB0E02B813C81C901880F991F820F55
:10211000931F9C01220F331F220F331F220F331FE7
:10212000820F931FFC01ED55FF4B8281082F10E0B9
:102130002B813C81C901880F991F820F931F9C013D
:10214000220F331F220F331F220F331F820F931FC3
:10215000FC01ED55FF4B8381E82EFF242B813C8150
:10216000C901880F991F820F931F9C01220F331FF3
:10217000220F331F220F331F820F931FFC01ED55D7
:10218000FF4B8481C82EDD242B813C81C901880F3F
:10219000991F820F931F9C01220F331F220F331FA1
:1021A000220F331F820F931FFC01ED55FF4B8581DA
:1021B000A82EBB242B813C81C901880F991F820F57
:1021C000931F9C01220F331F220F331F220F331F37
:1021D000820F931FFC01ED55FF4B8681882E9924B9
:1021E0002B813C81C901880F991F820F931F9C018D
:1021F000220F331F220F331F220F331F820F931F13
:10220000FC01ED55FF4B8781282F30E08DB79EB73D
:1022100044978DBF9EBFEDB7FEB731964083518383
:102220008B819C818283938364837583A683B78328
:1022300000871187E286F386C486D586A686B78690
:10224000808A918A228B338B0E947F75EDB7FEB70F
:102250007496EDBFFEBF8B819C8101968B839C831E
:102260008B819C81EFE9F0E4208131818217930713
:1022700008F41ACFB3CA0E94A664B0CA81E0809362
:102280000538ACCA81E080930838A8CA82E492E09D
:102290000F920F92EDB7FEB73196808391830E9423
:1022A0007F750F900F900E941B458A838A818295CB
:1022B0008F70882F90E09C01220F331FC901880F77
:1022C000991F880F991F820F931F982F8A818F70F3
:1022D000890F0E94413882CA80E292E00F920F92E9
:1022E000EDB7FEB73196808391830E947F750F9082
:1022F0000F900E941B458983898182958F70882F5A
:1023000090E09C01220F331FC901880F991F880F8D
:10231000991F820F931F982F89818F70890F0E94B8
:10232000E6365CCA0E94A03959CA81E08093093818
:1023300055CA8DE092E00F920F92EDB7FEB731963D
:10234000808391830E947F750F900F908FE690E6B7
:102350000E946D5189EF91E00F920F92EDB7FEB799
:102360003196808391830E947F750F900F9085E74F
:1023700090E60E946D5184EF91E00F920F92EDB7BD
:10238000FEB73196808391830E947F750F900F90E6
:1023900025CA0E94F75122CA0E94AE531FCA0E944A
:1023A0009F541CCADF93CF930F920F92CDB7DEB725
:1023B00089839A8389819A810E94E3110F900F90FB
:1023C000CF91DF910895DF93CF930F920F92CDB706
:1023D000DEB789839A8399818A810F900F90CF917C
:1023E000DF910895DF93CF9300D00F92CDB7DEB782
:1023F00069837A838B839C8329813A81922F832FEF
:10240000CC01A0E0B0E0BC015527442789819A8126
:10241000AB81BC81CD01AA27BB279C01922F832FC2
:10242000CC01A0E0B0E0842B952BA62BB72BBC01F0
:10243000CD012496CDBFDEBFCF91DF910895DF930C
:10244000CF93CDB7DEB72E97CDBFDEBF8A839B83F8
:102450006C837D834E835F8328873987DCC08981C5
:10246000282F30E02D873E878D859E85823091050F
:10247000A1F02D853E852330310599F08D859E850F
:102480008130910589F51092E1221092E22210929A
:10249000E02281E08093E422BEC081E08093E022CC
:1024A000BAC0EC81FD81208131818E819F818217AC
:1024B000930718F41092E422AEC0EA81FB81808178
:1024C000EC81FD812081318148855985B9010E94C7
:1024D0007C13982F8091E322981709F09CC01092EA
:1024E000E42291E09C879FC08091E022882331F014
:1024F000898190E1892789831092E0228091E422EA
:10250000282F30E02A873B878A859B85823091057A
:1025100061F12A853B85233031055CF48A859B85F2
:10252000009709F478C02A853B852130310599F060
:1025300070C08A859B858430910509F444C02A8542
:102540003B852430310504F18A859B8585309105D2
:1025500009F442C05EC08981EA81FB818083809159
:10256000E4228F5F8093E42256C08981882F90E017
:10257000982F8827EC81FD81808391838091E422CC
:102580008F5F8093E42247C0EC81FD8120813181FF
:102590008981882F90E0820F931FEC81FD818083D9
:1025A0009183EC81FD81208131818E819F81821711
:1025B000930718F41092E4222EC08091E4228F5FDA
:1025C0008093E42228C089818093E3228091E422D1
:1025D0008F5F8093E4221FC0EC81FD8120813181D7
:1025E0008091E1229091E22282179307A0F420913A
:1025F000E1223091E22288859985FC01E20FF31FE8
:1026000089818083C90101968093E1229093E2221F
:1026100002C01092E422CE0101960E94E3138823A7
:1026200009F01DCF1C868C852E96CDBFDEBFCF91C5
:10263000DF910895DF93CF93CDB7DEB72797CDBF56
:10264000DEBF8B836C837D834E835F8381E061E09B
:102650000E94BA1399230CF449C080E06B810E9458
:10266000BA1399230CF442C08C819D81892F99273C
:10267000982F80E0692F0E94BA139923BCF19C81A6
:1026800080E0692F0E94BA13992384F12C813D8147
:102690004E815F818B81B9010E947C13982F80E06D
:1026A000692F0E94BA1399230CF119821A8213C060
:1026B00029813A818E819F81FC01E20FF31F908175
:1026C00080E0692F0E94BA13992384F089819A814E
:1026D000019689839A8329813A818C819D8128176B
:1026E000390730F381E063E00E94BA132796CDBF2B
:1026F000DEBFCF91DF910895DF93CF93CDB7DEB7E3
:102700002897CDBFDEBF8C836D837E834F83588730
:10271000198299818C81892789838D819E81892F56
:102720009927982F8981892789839D818981892784
:1027300089831A821B8210C02A813B818F819885F0
:10274000FC01E20FF31F90818981892789838A81A7
:102750009B8101968A839B832A813B818D819E8107
:102760002817390748F389812896CDBFDEBFCF915E
:10277000DF910895DF93CF9300D00F92CDB7DEB7EE
:1027800089836A838981882389F48A81803170F4FE
:102790009A8180E189278A8382E00E941B5E9923C7
:1027A0002CF48FEF9FEF8B839C8305C08A810E945E
:1027B0001B5E8B839C838B819C812496CDBFDEBF67
:1027C000CF91DF910895DF93CF930F920F92CDB702
:1027D000DEB789839A8389819A810E94965D0F90E2
:1027E0000F90CF91DF910895DF93CF9300D0CDB7B5
:1027F000DEB78A839B831982EA81FB8180818A33D9
:1028000030F4EA81FB8180818053898305C0EA81AD
:10281000FB8180818753898389818295807F898329
:102820008A819B8101968A839B83EA81FB818081D7
:102830008A3348F4EA81FB8180818053982F898113
:10284000892B898308C0EA81FB8180818753982F77
:102850008981892B898389812396CDBFDEBFCF9162
:10286000DF910895DF93CF93CDB7DEB76497CDBFE7
:10287000DEBF6F87788B898B9A8B4B8B5C8B8F85B8
:10288000988981709070882399F02F8538898B8979
:102890009C89FC01E20FF31F10828F859889A9891A
:1028A000BA890196A11DB11D8F87988BA98BBA8B10
:1028B0008B899C89FC01BE968081882F90E0382FFF
:1028C00022278B899C89FC01BF968081882F90E00C
:1028D000822B932BCC01A0E0B0E08B879C87AD8747
:1028E000BE878B899C89FC0134968081882F90E07B
:1028F000382F22278B899C89FC0135968081882F6F
:1029000090E0822B932BCC01A0E0B0E08F839887DE
:10291000A987BA878B899C89FC0136968081882F8C
:1029200090E0A0E0B0E08B839C83AD83BE832F81D9
:10293000388549855A858B819C81AD81BE81820F06
:10294000931FA41FB51F8B879C87AD87BE878B897C
:102950009C89089689839A834FC0E981FA81808196
:10296000882F90E0382F222789819A81FC013196A7
:102970008081882F90E0822B932BCC01A0E0B0E0E7
:102980008B839C83AD83BE832B853C854D855E8583
:102990008B819C81AD81BE81820F931FA41FB51FC7
:1029A0008B879C87AD87BE8717C08B859C85AD853F
:1029B000BE859C01AD01407050708B859C85AD85B6
:1029C000BE85CD01AA27BB27820F931FA41FB51F69
:1029D0008B879C87AD87BE878B859C85AD85BE85A3
:1029E000CD01AA27BB270097A105B105F1F6898182
:1029F0009A81029689839A832F8538898B899C894D
:102A0000280F391F89819A818217930708F4A5CF6F
:102A10008B859C8580959095CC01A0E0B0E08B875C
:102A20009C87AD87BE878B859C856496CDBFDEBFB6
:102A3000CF91DF9108950F931F93DF93CF93CDB77D
:102A4000DEB7C95DD040CDBFDEBFFE01E153FF4F11
:102A500080839183FE01EF52FF4F60837183FE01FB
:102A6000ED52FF4F2083318342835383FE01E952AD
:102A7000FF4F0083118380E68F83188619861A869C
:102A8000FE01ED52FF4F80819181A281B3810896B2
:102A9000A11DB11D892F9A2FAB2FBB278B87FE015C
:102AA000ED52FF4F8081885F8C8781E18D8780E4C4
:102AB0008E87CE0107960896FE01E153FF4F2081D5
:102AC0003181B90140E150E00E940E75CE010796B8
:102AD0004896FE01EF52FF4F20813181B90140E15C
:102AE00050E00E940E7583ED8FA78DEE88AB87E0D6
:102AF00089AB81E58AABFE01ED52FF4F8081918168
:102B0000A281B3810896A11DB11D892F9A2FAB2FE9
:102B1000BB278BABFE01ED52FF4F8081885F8CABF2
:102B20001DAA1EAAFE01ED52FF4F40815181CE0128
:102B30000796C096FE01E952FF4F20813181B9010D
:102B40000E940E759E012D523F4FFE01ED52FF4F28
:102B500080819181A281B381C096A11DB11DF9012F
:102B600080839183A283B383FE01ED52FF4F808166
:102B70009181A281B381FE01E952FF4F2081318111
:102B8000BC01CD01A9010E9432148D839E838D81E9
:102B90009E81892F99278DAB8D818EAB80910520E9
:102BA00090910620873091050CF443C019821A8257
:102BB0001B821C8225C089819A81FE013796E80F0D
:102BC000F91F8081282F30E000D00F92EDB7FEB7BB
:102BD00031968DE290E280839183228333830E9439
:102BE0006D750F900F900F900F9089819A81AB8136
:102BF000BC810196A11DB11D89839A83AB83BC83DF
:102C0000FE01ED52FF4F29813A814B815C81808129
:102C10009181A281B381281739074A075B0758F2CF
:102C200020914138309142388AE090E0B9010E9409
:102C30004175FE01ED52FF4F80819181A281B381E8
:102C40009E01295F3F4FBC01CD01A9010E941225C1
:102C5000882369F1809105209091062083309105A9
:102C6000FCF0209141383091423883E390E0B90183
:102C70000E9441758BEB94E00F920F92EDB7FEB777
:102C80003196808391830E947F750F900F902091E1
:102C90004138309142388AE090E0B9010E94417594
:102CA000F1E0C752DF4FF883C95DD04005C0C7527D
:102CB000DF4F1882C95DD040C752DF4F8881C95DA0
:102CC000D040C752DF4FCDBFDEBFCF91DF911F9104
:102CD0000F9108950F931F93DF93CF93CDB7DEB776
:102CE0006B97CDBFDEBF6D8B7E8B8F8B988F498F9F
:102CF0002A8F80916C378A3019F081E08B8F39C030
:102D000019828DE18A830E94E9738F778B838D8985
:102D10009E89AF89B88D8B2F9927AA27BB278C83D3
:102D20008D899E89AF89B88DCD01AA27BB278D8358
:102D30008D899E89AF89B88D892F9A2FAB2FBB279C
:102D40008E838D898F83898D8887198684E08A8711
:102D50008A8D8B8782E390E222E530E2B9012BE095
:102D600030E040E050E0FE0131968F010E941B15DB
:102D70008B8F8B8D6B96CDBFDEBFCF91DF911F9177
:102D80000F9108950F931F93DF93CF93CDB7DEB7C5
:102D90006C97CDBFDEBF8D8B4E8B5F8B688F798F2D
:102DA0002A8F0B8F80916C378A3019F081E08C8FDD
:102DB0004FC08D89882F90E0880F991FFC01EE5835
:102DC000FF4D8081809370208D89882F90E0880F3F
:102DD000991FFC01ED58FF4D80818093712019826D
:102DE0008DE18A830E94E9738F778B838E899F8917
:102DF000A88DB98D8B2F9927AA27BB278C838E8905
:102E00009F89A88DB98DCD01AA27BB278D838E8977
:102E10009F89A88DB98D892F9A2FAB2FBB278E83C1
:102E20008E898F838A8D8887198684E08A878B8D27
:102E30008B8782E390E222E630E2B9012BE030E0BA
:102E400040E050E0FE0131968F010E941B158C8FEF
:102E50008C8D6C96CDBFDEBFCF91DF911F910F910E
:102E600008950F931F93DF93CF93CDB7DEB7679786
:102E7000CDBFDEBF80916C378A3019F081E08F8B37
:102E800020C081E08A8383E089831B8280E18C8378
:102E90000E94E9738F778D838A818E8389818F83E6
:102EA00081E0888782E490E225EF37E3FE013396E4
:102EB000B90126E030E040E050E08F010E941B1590
:102EC0008F8B8F896796CDBFDEBFCF91DF911F912A
:102ED0000F9108950F931F93DF93CF93CDB7DEB774
:102EE0006A97CDBFDEBF8F8B988F698F80916C37CB
:102EF0008A3019F081E08A8F27C081E08A8384E0DC
:102F000089831B8280E18C830E94E9738F778D8394
:102F10008A818E8389818F838F89988D892F9927C4
:102F200088878F898987898D8A8782E490E225EF57
:102F300037E3FE013396B90128E030E040E050E08D
:102F40008F010E941B158A8F8A8D6A96CDBFDEBFC6
:102F5000CF91DF911F910F910895AF92BF92CF92C1
:102F6000DF92EF92FF920F931F93DF93CF93CDB732
:102F7000DEB7C054D040CDBFDEBF6AAF7BAF8CAFF1
:102F80009DAF4EAF5FAF8EAD9FADFC01BE96808111
:102F9000882F90E0382F22278EAD9FADFC01BF9681
:102FA0008081882F90E0822B932B8C8F9D8F8EAD0C
:102FB0009FADFC0134968081882F90E0382F222726
:102FC0008EAD9FADFC0135968081882F90E0822BDD
:102FD000932B888F998F8EAD9FADFC0136968081A3
:102FE000882F90E08E8B9F8B8091052090910620FA
:102FF000873091050CF4ACC080910520909106209B
:10300000873091055CF1209141383091423887E357
:1030100090E0B9010E94417580EA96E000D000D0AE
:10302000EDB7FEB73196808391838AAD9BADACAD91
:10303000BDAD82839383A483B5830E947F750DB752
:103040001EB70A5F1F4F0DBF1EBF20914138309140
:1030500042388AE090E0B9010E94417580910520D4
:10306000909106208730910594F12091413830915C
:10307000423887E390E0B9010E9441758DE796E000
:103080002DB73EB7285030402DBF3EBFEDB7FEB73D
:103090003196808391838E899F8982839383888DE3
:1030A000998D848395838C8D9D8D868397830E94D3
:1030B0007F758DB79EB708968DBF9EBF2091413812
:1030C000309142388AE090E0B9010E9441751A8A35
:1030D0001B8A1C8A1D8A26C02A893B898EAD9FAD1A
:1030E000FC01E20FF31F8081282F30E000D00F9207
:1030F000EDB7FEB731968DE290E280839183228313
:1031000033830E946D750F900F900F900F908A89F6
:103110009B89AC89BD890196A11DB11D8A8B9B8BB2
:10312000AC8BBD8B2A893B894C895D898AAD9BAD6F
:10313000ACADBDAD281739074A075B0768F220918F
:103140004138309142388AE090E0B9010E944175DF
:103150008AAD9BADACADBDAD2EAD3FADBC01CD01DB
:10316000A9010E9432148A8F9B8F8A8D9B8D0097B4
:1031700091F18C8D9D8D009771F18091052090913A
:103180000620873091050CF495C620914138309186
:10319000423887E390E0B9010E94417580E696E0ED
:1031A00000D00F92EDB7FEB73196808391838A8D60
:1031B0009B8D828393830E947F750F900F900F9059
:1031C0000F9020914138309142388AE090E0B90167
:1031D0000E9441756FC68EAD9FADFC013696808111
:1031E000813109F001C68EAD9FAD489664E270E46E
:1031F00040E150E00E940175009709F086C38EAD52
:103200009FAD8A5B9F4F0E94F41380936D378EAD04
:103210009FAD885B9F4F0E94F41380936E378EADF5
:103220009FAD865B9F4F0E94F41380936F378EADE6
:103230009FAD845B9F4F0E94F413809370378EADD7
:103240009FAD825B9F4F0E94F413809371378EADC8
:103250009FAD805B9F4F0E94F413809372378EADB9
:103260009FAD8E5A9F4F0E94F413809373378EAD9B
:103270009FAD8C5A9F4F0E94F413809374378091B6
:10328000052090910620873091050CF456C02091BE
:1032900041383091423887E390E0B9010E9441758E
:1032A00029E236E080916D37482F50E080916E37EB
:1032B000682F70E080916F37A82FB0E08091703751
:1032C000082F10E080917137E82EFF24809172372B
:1032D000C82EDD2480917337A82EBB2480917437CB
:1032E000882F90E0EDB7FEB77297EDBFFEBFEDB748
:1032F000FEB7319620833183428353836483758381
:10330000A683B78300871187E286F386C486D586B5
:10331000A686B786808B918B0E947F750DB71EB7EE
:103320000E5E1F4F0DBF1EBF2091413830914238B5
:103330008AE090E0B9010E9441758EAD9FAD9C017D
:10334000285F3F4FCE014E96B90140E150E00E9408
:103350000E758EAD9FADAC01485F5F4F8EAD9FADDA
:103360009C01285E3F4FCA01B90140E150E00E9434
:103370000E758EAD9FAD48969E01225E3F4FB901FE
:1033800040E150E00E940E758EAD9FAD9C01285D1E
:103390003F4FCE014E96B90142E050E00E940E75BB
:1033A0008EAD9FADAC01485D5F4F8EAD9FAD9C0172
:1033B000265D3F4FCA01B90142E050E00E940E7500
:1033C0008EAD9FAD8A969E01225E3F4FB90142E0CD
:1033D00050E00E940E758EAD9FADFC01BE9610822E
:1033E0008EAD9FADFC01BF9610821D861E861F8686
:1033F000188A198A29C02E853F85C901880F991F0F
:10340000820F931F9C01220F331F220F331F220FA5
:10341000331F820F931F8D559F4B2DE637E3B90164
:1034200048E050E00E940175009719F481E08D8713
:103430001BC08E859F85A889B9890196A11DB11DE4
:103440008E879F87A88BB98BEFE9F0E4808191810B
:103450009C0140E050E08E859F85A889B98982173C
:103460009307A407B50738F28D85882331F4E0E08F
:10347000F0E487A9882309F4B9C0809105209091D0
:10348000062087309105FCF0209141383091423878
:1034900087E390E0B9010E9441758BE196E00F92BD
:1034A0000F92EDB7FEB73196808391830E947F75AE
:1034B0000F900F9020914138309142388AE090E08F
:1034C000B9010E9441758EAD9FADFC01F09682E07E
:1034D00080838EAD9FAD8C010F5C1F4F0E94E973FE
:1034E000D8018C938EAD9FADFC01EC5BFF4F8AE160
:1034F00080838EAD9FADFC01EB5BFF4F88E1808345
:103500008EAD9FADFC01EA5BFF4F10828EAD9FAD8B
:10351000FC01E95BFF4F10828EAD9FADFC01E85BC3
:10352000FF4F8DE680838EAD9FADFC01E75BFF4FC3
:1035300089EE80838EAD9FADFC01E65BFF4F84E694
:1035400080838EAD9FADFC01E55BFF4F82E1808300
:103550001E861F86188A198A3AC08E859F85880F15
:10356000991F9C01245B3F4F8EAD9FADFC01E20F84
:10357000F31F10828E859F85880F991F9C01235B06
:103580003F4F8EAD9FADBC01620F731F27E030E04F
:1035900040E050E08E859F85A889B98979018A012C
:1035A000E81AF90A0A0B1B0BD801C701FC01E35901
:1035B000F84C8081DB018C938E859F85A889B98921
:1035C0000196A11DB11D8E879F87A88BB98B8E8513
:1035D0009F85A889B98988309105A105B10508F4AE
:1035E000BCCF8CE290E08A8F9B8F88C080910520B1
:1035F0009091062087309105FCF020914138309160
:10360000423887E390E0B9010E9441758DE096E071
:103610000F920F92EDB7FEB73196808391830E948F
:103620007F750F900F9020914138309142388AE099
:1036300090E0B9010E94417588E0FE01BE96DF016D
:10364000E82E1D92EA94E9F71B861C863EC08B8506
:103650009C85880F991F880F991F880F991F8B5879
:10366000984C9E01225D3F4FB90148E050E00E9416
:103670000175009791F48B859C85880F991F880FA1
:10368000991F880F991F8B58984C2DE637E3B90185
:1036900048E050E00E940E751EC08B859C85880F07
:1036A000991F880F991F880F991F8B58984C2DE6EA
:1036B00037E3B90148E050E00E940175009759F0E6
:1036C0008B859C8501968B879C878B859C8580311B
:1036D00091050CF4BCCF8EAD9FADFC01F09683E05C
:1036E00080838EAD9FAD8C010F5C1F4F0E94E973EC
:1036F000D8018C9384E190E08A8F9B8F1E861F8671
:10370000188A198A19C08E859F859C012C5C3F4FB1
:103710008EAD9FAD8C01020F131F0E94E973F8015B
:1037200080838E859F85A889B9890196A11DB11DC9
:103730008E879F87A88BB98B8E859F85A889B9892D
:1037400080319105A105B105F0F28EAD9FADFC0170
:10375000F2968A8D9B8D892F992780838EAD9FADA0
:10376000FC01F3968A8D80838A8D9B8D08968A8FC3
:103770009B8F8EAD9FADFC0134968A8D9B8D892FDA
:10378000992780838EAD9FADFC0135968A8D80830D
:103790008EAD9FADFC01379680E480838EAD9FADEA
:1037A000FC01BC968A8D9B8D892F992780838EADD5
:1037B0009FADFC01BD968A8D80838A8D9B8D8896F6
:1037C000CC01A0E0B0E08AAF9BAFACAFBDAF8AAD9B
:1037D0009BADACADBDAD2EAD3FADBC01CD01A901E2
:1037E0000E9432148A8F9B8F8EAD9FADFC01BE96D6
:1037F0008A8D9B8D892F992780838EAD9FADFC018B
:10380000BF968A8D80838091052090910620873015
:1038100091050CF441C01F82188619861A8626C0AD
:103820002F8138858EAD9FADFC01E20FF31F8081A3
:10383000282F30E000D00F92EDB7FEB731968DE221
:1038400090E280839183228333830E946D750F9071
:103850000F900F900F908F819885A985BA8501965A
:10386000A11DB11D8F839887A987BA872F813885BD
:1038700049855A858AAD9BADACADBDAD28173907DA
:103880004A075B0768F220914138309142388AE05C
:1038900090E0B9010E9441758AAD9BADACADBDAD64
:1038A0002EAD3FADBC01CD01A9010E941225882398
:1038B00009F400C380910520909106208330910582
:1038C000FCF0209141383091423883E390E0B90117
:1038D0000E9441758EEE95E00F920F92EDB7FEB704
:1038E0003196808391830E947F750F900F90209175
:1038F0004138309142388AE090E0B9010E94417528
:10390000F1E02196FFAF2197D8C28EAD9FADFC01AB
:10391000789680818F3F09F0BCC08EAD9FAD9C0131
:10392000285F3F4F82E390E2B90140E150E00E94FE
:103930000175009709F485C08091052090910620BB
:1039400087309105FCF0209141383091423887E36F
:1039500090E0B9010E9441758DED95E00F920F92B4
:10396000EDB7FEB73196808391830E947F750F90EB
:103970000F9020914138309142388AE090E0B901AF
:103980000E94417580910520909106208730910515
:10399000FCF0209141383091423887E390E0B90142
:1039A0000E94417580ED95E00F920F92EDB7FEB742
:1039B0003196808391830E947F750F900F902091A4
:1039C0004138309142388AE090E0B9010E94417557
:1039D0008AAD9BADACADBDAD2EAD3FADBC01CD0153
:1039E000A9010E94BE44882309F464C28091052085
:1039F0009091062083309105FCF020914138309160
:103A0000423883E390E0B9010E94417584EB95E070
:103A10000F920F92EDB7FEB73196808391830E948B
:103A20007F750F900F9020914138309142388AE095
:103A300090E0B9010E94417501E021960FAF2197F6
:103A40003CC28091052090910620873091050CF4AE
:103A500031C2209141383091423887E390E0B9017A
:103A60000E9441758DE995E00F920F92EDB7FEB778
:103A70003196808391830E947F750F900F902091E3
:103A80004138309142388AE090E0B9010E94417596
:103A900011C28EAD9FADFC01389680818E3FA1F59D
:103AA0008EAD9FADFC0139968081882F90E0807C9F
:103AB00090708038910541F5809105209091062005
:103AC000873091050CF4F6C120914138309142388D
:103AD00087E390E0B9010E9441758FE895E00F926D
:103AE0000F92EDB7FEB73196808391830E947F7568
:103AF0000F900F9020914138309142388AE090E049
:103B0000B9010E944175D6C18EAD9FAD489622E4A1
:103B100030E2B90140E150E00E940175009709F0E0
:103B200004C18EAD9FAD089625EF37E3B90140E1A2
:103B300050E00E940175009709F0CFC080910520E8
:103B40009091062087309105FCF02091413830910A
:103B5000423887E390E0B9010E94417582E795E021
:103B60000F920F92EDB7FEB73196808391830E943A
:103B70007F750F900F9020914138309142388AE044
:103B800090E0B9010E944175888D998D8A30910528
:103B900008F490C18EAD9FADFC01F1968081882F15
:103BA00090E08131910509F085C181E08EAB84E020
:103BB0008FAB18AE8BE489AF8EAD9FADC3969E01DF
:103BC0002A5C3F4FB90144E050E00E940175009724
:103BD00009F070C18EAD9FADFC01F7968081882FF2
:103BE00090E08D839E838D819E81982F88278D8381
:103BF0009E838EAD9FADFC01F8968081282F30E02A
:103C00008D819E81822B932B8D839E838EAD9FAD64
:103C1000FC01F9968081882F90E08B839C838B81B7
:103C20009C81982F88278B839C838EAD9FADFC0150
:103C3000FA968081282F30E08B819C81822B932BF8
:103C40008B839C83888D998D89839A8389819A81BE
:103C5000439789839A83809105209091062087302D
:103C6000910594F1209141383091423887E390E0FA
:103C7000B9010E9441758DE395E02DB73EB72850FC
:103C800030402DBF3EBFEDB7FEB7319680839183A4
:103C90008D819E81828393838B819C818483958394
:103CA00089819A81868397830E947F758DB79EB79D
:103CB00008968DBF9EBF20914138309142388AE0EE
:103CC00090E0B9010E9441758EAD9FADCB962981E0
:103CD0003A81B9010E941A4AEDC080910520909165
:103CE0000620873091050CF4E5C0209141383091D1
:103CF000423887E390E0B9010E9441758CE295E07B
:103D00000F920F92EDB7FEB73196808391830E9498
:103D10007F750F900F9020914138309142388AE0A2
:103D200090E0B9010E944175C5C080910520909135
:103D3000062087309105FCF02091413830914238BF
:103D400087E390E0B9010E9441758FE195E00F9201
:103D50000F92EDB7FEB73196808391830E947F75F5
:103D60000F900F9020914138309142388AE090E0D6
:103D7000B9010E9441758AAD9BADACADBDAD2EAD14
:103D80003FADBC01CD01A9010E94BE44882309F4C6
:103D900091C0809105209091062083309105FCF020
:103DA000209141383091423883E390E0B9010E947C
:103DB000417583E095E00F920F92EDB7FEB7319613
:103DC000808391830E947F750F900F9020914138DE
:103DD000309142388AE090E0B9010E94417591E04B
:103DE00021969FAF219769C08EAD9FADFC0136969D
:103DF00080818A3309F05EC0809105209091062071
:103E000087309105FCF0209141383091423887E3AA
:103E100090E0B9010E94417586EF94E00F920F92F5
:103E2000EDB7FEB73196808391830E947F750F9026
:103E30000F9020914138309142388AE090E0B901EA
:103E40000E9441758AAD9BADACADBDAD2EAD3FAD11
:103E5000BC01CD01A9010E94BE44882359F1809183
:103E600005209091062083309105FCF02091413887
:103E70003091423883E390E0B9010E9441758AEDA8
:103E800094E00F920F92EDB7FEB731968083918345
:103E90000E947F750F900F902091413830914238E9
:103EA0008AE090E0B9010E944175A1E02196AFAF90
:103EB000219703C021961FAE219721968FAD2197A0
:103EC000C05CDF4FCDBFDEBFCF91DF911F910F915F
:103ED000FF90EF90DF90CF90BF90AF9008952F921A
:103EE0003F924F925F926F927F928F929F92AF928A
:103EF000BF92CF92DF92EF92FF920F931F93DF93C7
:103F0000CF93CDB7DEB72C97CDBFDEBF89839A8321
:103F10006B837C83E981FA818081282F30E0E981FD
:103F2000FA818181482F50E0E981FA818281682FEE
:103F300070E0E981FA818381A82FB0E0E981FA81FC
:103F40008481082F10E0E981FA818581E82EFF2421
:103F5000E981FA818681C82EDD24E981FA81878191
:103F6000A82EBB24E981FA818085882E9924E981D5
:103F7000FA818185682E7724E981FA818285482E2D
:103F80005524E981FA818385282E3324E981FA8139
:103F90008485E82FF0E0EB87FC87E981FA8185854D
:103FA000E82FF0E0E987FA87E981FA818685E82F32
:103FB000F0E0EF83F887E981FA818785E82FF0E068
:103FC000ED83FE838DB79EB786978DBF9EBFEDB7FD
:103FD000FEB731968B819C81808391838EE290E045
:103FE0008283938382E990E2848395832683378357
:103FF0004087518762877387A487B58706871787AD
:10400000E08AF18AC28AD38AA48AB58A868A978A84
:10401000608E718E428E538E248E358E8B859C855C
:10402000868F978F89859A8580A391A38F819885A4
:1040300082A393A38D819E8184A395A30E94A275E0
:10404000EDB7FEB7B696EDBFFEBF2C96CDBFDEBF77
:10405000CF91DF911F910F91FF90EF90DF90CF9064
:10406000BF90AF909F908F907F906F905F904F9098
:104070003F902F900895CF92DF92EF92FF920F938F
:104080001F93DF93CF930F92CDB7DEB78091F622C7
:104090008170882309F45FC18091EA229091EB221C
:1040A000A091EC22B091ED22803021E0920721E036
:1040B000A20720E0B20708F44EC18091052090913C
:1040C0000620863091052CF12091413830914238FC
:1040D00086E390E0B9010E94417588E897E000D03E
:1040E0000F92EDB7FEB731968083918380E190E027
:1040F000828393830E947F750F900F900F900F9093
:1041000020914138309142388AE090E0B9010E9414
:10411000417580910520909106208630910544F1EB
:10412000209141383091423886E390E0B9010E94F5
:1041300041752DE637E0E0E0F0E48081882F90E0E3
:1041400000D00F92EDB7FEB7319620833183828382
:1041500093830E947F750F900F900F900F90209186
:104160004138309142388AE090E0B9010E944175AF
:1041700080910520909106208630910544F1209190
:1041800041383091423886E390E0B9010E94417590
:1041900022E537E0E0E0F0E48181882F90E000D074
:1041A0000F92EDB7FEB731962083318382839383DC
:1041B0000E947F750F900F900F900F9020914138C3
:1041C000309142388AE090E0B9010E9441758091B7
:1041D000052090910620863091054CF120914138C0
:1041E0003091423886E390E0B9010E94417505E3C1
:1041F00017E0E0E0F0E4828193810E94132200D076
:104200000F92EDB7FEB731960083118382839383BB
:104210000E947F750F900F900F900F902091413862
:10422000309142388AE090E0B9010E944175809156
:104230000520909106208630910594F12091413817
:104240003091423886E390E0B9010E94417507E160
:1042500017E0E0E0F0E484819581A681B781BC019C
:10426000CD010E942222DC01CB0100D000D0EDB7AD
:10427000FEB731960083118382839383A483B58331
:104280000E947F758DB79EB706968DBF9EBF209109
:104290004138309142388AE090E0B9010E9441757E
:1042A0008091052090910620863091050CF44AC03B
:1042B000209141383091423886E390E0B9010E9464
:1042C00041750F2EF2EFCF2EF6E0DF2EF02DE0E05D
:1042D000F0E480859185A285B385BC01CD010E9463
:1042E00022227B018C01E0E0F0E484859585A6859F
:1042F000B785BC01CD010E942222DC01CB01EDB7C4
:10430000FEB73A97EDBFFEBFEDB7FEB73196C0825C
:10431000D182E282F3820483158386839783A08708
:10432000B1870E947F752DB73EB7265F3F4F2DBFE7
:104330003EBF20914138309142388AE090E0B90187
:104340000E94417586E660E170E040E050E40E9422
:104350001A1319825DC08091052090910620833048
:1043600091050CF453C0209141383091423883E3D9
:1043700090E0B9010E9441754CEB56E08091EA2231
:104380009091EB22A091EC22B091ED22CD01AA27D1
:10439000BB27BC016F7070708091EA229091EB2274
:1043A000A091EC22B091ED22892F9A2FAB2FBB2741
:1043B0009C012F7030708091EA229091EB22A091A5
:1043C000EC22B091ED228F709070EDB7FEB7389768
:1043D000EDBFFEBFEDB7FEB73196408351836283D8
:1043E000738324833583868397830E947F752DB7DB
:1043F0003EB7285F3F4F2DBF3EBF209141383091DF
:1044000042388AE090E0B9010E94417531E0398379
:1044100089810F90CF91DF911F910F91FF90EF90C5
:10442000DF90CF900895DF93CF930F920F92CDB787
:10443000DEB789839A8399818A810F900F90CF91FB
:10444000DF910895DF93CF9300D00F92CDB7DEB701
:1044500069837A838B839C8389819A81AB81BC81B8
:10446000BC01CD010E943E22DC01CB01BC01CD018B
:104470002496CDBFDEBFCF91DF910895DF93CF9318
:1044800000D00F92CDB7DEB769837A838B839C838C
:1044900029813A81922F832FCC01A0E0B0E0BC01AA
:1044A0005527442789819A81AB81BC81CD01AA27F8
:1044B000BB279C01922F832FCC01A0E0B0E0842B7E
:1044C000952BA62BB72BBC01CD012496CDBFDEBF0B
:1044D000CF91DF910895DF93CF93CDB7DEB7CC5561
:1044E000D040CDBFDEBF809105209091062087305F
:1044F00091052CF1209141383091423887E390E0CA
:10450000B9010E9441758BEA97E000D00F92EDB798
:10451000FEB731968083918384E290E08283938317
:104520000E947F750F900F900F900F90209141384F
:10453000309142388AE090E0B9010E9441758BE6E3
:1045400064E270E040E150E40E941A1380E0C45A33
:10455000DF4FCDBFDEBFCF91DF910895DF93CF93C3
:104560000F92CDB7DEB78091292090912A20A0919B
:104570002B20B0912C208F3F2FEF92072FEFA20717
:104580002FEFB20709F43FC08091292090912A2093
:10459000A0912B20B0912C208983809105209091AF
:1045A00006208730910534F120914138309142380E
:1045B00087E390E0B9010E94417523E738E08981E3
:1045C000882F90E000D00F92EDB7FEB73196208390
:1045D0003183828393830E947F750F900F900F9099
:1045E0000F9020914138309142388AE090E0B90133
:1045F0000E94417581E761E070E09E012F5F3F4FAF
:10460000A9010E941A1380E00F90CF91DF910895C5
:10461000DF93CF93CDB7DEB78091EA229091EB2262
:10462000A091EC22B091ED22803021E0920721E0B0
:10463000A20720E0B207B0F18091052090910620FA
:104640008730910544F1209141383091423887E319
:1046500090E0B9010E94417524E938E0E0E0F0E41F
:1046600085A9882F90E000D00F92EDB7FEB7319664
:1046700020833183828393830E947F750F900F90F4
:104680000F900F9020914138309142388AE090E0AD
:10469000B9010E9441758EE661E070E045E350E4A7
:1046A0000E941A1380E0CF91DF910895DF93CF939A
:1046B000CDB7DEB78091EA229091EB22A091EC2257
:1046C000B091ED22803024E0920721E0A20720E0A3
:1046D000B20708F468C080910520909106208730C9
:1046E000910544F1209141383091423887E390E0C0
:1046F000B9010E94417527EE38E0E0E0F0E484A9BA
:10470000882F90E000D00F92EDB7FEB7319620834E
:104710003183828393830E947F750F900F900F9057
:104720000F9020914138309142388AE090E0B901F1
:104730000E94417582E761E070E044E350E40E942A
:104740001A13E0E0F0E486A9882369F1809105203E
:104750009091062087309105FCF0209141383091EE
:10476000423887E390E0B9010E9441758CEB98E0F4
:104770000F920F92EDB7FEB73196808391830E941E
:104780007F750F900F9020914138309142388AE028
:1047900090E0B9010E94417583E760E070E040E07D
:1047A00050E00E941A1380E0CF91DF910895DF93CB
:1047B000CF93CDB7DEB78091E522882371F5809144
:1047C00005209091062087309105FCF0209141381A
:1047D0003091423887E390E0B9010E9441758DE540
:1047E00099E00F920F92EDB7FEB7319680839183D7
:1047F0000E947F750F900F90209141383091423880
:104800008AE090E0B9010E94417587E660E070E0BF
:1048100040E050E00E941A1392C08091E52281305E
:1048200071F5809105209091062087309105FCF06C
:10483000209141383091423887E390E0B9010E94DD
:10484000417582E499E00F920F92EDB7FEB7319671
:10485000808391830E947F750F900F902091413843
:10486000309142388AE090E0B9010E9441758FE6AC
:1048700060E070E040E050E00E941A1360C0809158
:10488000E522823071F580910520909106208730D5
:104890009105FCF0209141383091423887E390E057
:1048A000B9010E94417581E299E00F920F92EDB734
:1048B000FEB73196808391830E947F750F900F9091
:1048C00020914138309142388AE090E0B9010E944D
:1048D000417580E760E070E040E050E00E941A130C
:1048E0002EC08091052090910620833091053CF1E7
:1048F000209141383091423883E390E0B9010E9421
:10490000417529E039E08091E522882F90E000D0C0
:104910000F92EDB7FEB73196208331838283938364
:104920000E947F750F900F900F900F90209141384B
:10493000309142388AE090E0B9010E94417580E0F0
:10494000CF91DF910895DF93CF93CDB7DEB78091FC
:1049500005209091062087309105FCF02091413888
:104960003091423887E390E0B9010E9441758DE7AC
:1049700099E00F920F92EDB7FEB731968083918345
:104980000E947F750F900F902091413830914238EE
:104990008AE090E0B9010E94417588E660E070E02D
:1049A00040E050E00E941A1380E0CF91DF9108951B
:1049B000DF93CF93CDB7DEB780910520909106208D
:1049C00087309105FCF0209141383091423887E3DF
:1049D00090E0B9010E94417583E999E00F920F922E
:1049E000EDB7FEB73196808391830E947F750F905B
:1049F0000F9020914138309142388AE090E0B9011F
:104A00000E9441758091F6228D7F8093F62289E67F
:104A100060E070E040E050E00E941A1380E0CF9127
:104A2000DF910895DF93CF9300D000D0CDB7DEB7EC
:104A300069837A838B839C834D835E8329813A814A
:104A40004D815E8185E6B9010E941A1380E02696A9
:104A5000CDBFDEBFCF91DF910895DF93CF93CDB768
:104A6000DEB7809105209091062087309105FCF0FB
:104A7000209141383091423887E390E0B9010E949B
:104A800041758FEA99E00F920F92EDB7FEB731961C
:104A9000808391830E947F750F900F902091413801
:104AA000309142388AE090E0B9010E9441758DE66C
:104AB00060E070E040E050E00E941A1380E0CF9187
:104AC000DF910895DF93CF93CDB7DEB780910520B6
:104AD0009091062087309105FCF02091413830916B
:104AE000423887E390E0B9010E94417584EC99E077
:104AF0000F920F92EDB7FEB73196808391830E949B
:104B00007F750F900F9020914138309142388AE0A4
:104B100090E0B9010E94417580E060E070E040E003
:104B200050E00E941A1380E0CF91DF910895DF9347
:104B3000CF93CDB7DEB780910520909106208730C6
:104B40009105FCF0209141383091423887E390E0A4
:104B5000B9010E94417580EE99E00F920F92EDB776
:104B6000FEB73196808391830E947F750F900F90DE
:104B700020914138309142388AE090E0B9010E949A
:104B800041758AE660E070E040E050E00E941A1350
:104B900080E0CF91DF910895DF93CF9300D000D0D4
:104BA000CDB7DEB769837A838B839C834D835E8325
:104BB0008091F6228870882309F482C08D819E81BD
:104BC000009741F180910520909106208730910552
:104BD0000CF476C0209141383091423887E390E060
:104BE000B9010E94417580E09AE00F920F92EDB7F3
:104BF000FEB73196808391830E947F750F900F904E
:104C000020914138309142388AE090E0B9010E9409
:104C1000417556C08091D82B9091D92BA091DA2B59
:104C2000B091DB2B2091EE223091EF224091F022C7
:104C30005091F122821B930BA40BB50B8B30910585
:104C4000A105B105E8F180910520909106208730FB
:104C50009105FCF0209141383091423887E390E093
:104C6000B9010E9441758BEF99E00F920F92EDB759
:104C7000FEB73196808391830E947F750F900F90CD
:104C800020914138309142388AE090E0B9010E9489
:104C900041758DE660E070E040E050E00E941A133C
:104CA0008091D82B9091D92BA091DA2BB091DB2B4E
:104CB0008093EE229093EF22A093F022B093F12202
:104CC00080E02696CDBFDEBFCF91DF910895EF92B1
:104CD000FF920F931F93DF93CF9300D00F92CDB726
:104CE000DEB7898380916C37E82EFF24EB82FC824B
:104CF0000B811C810530110509F450C12B813C81C9
:104D000026303105F4F48B819C818230910509F4C1
:104D1000D2C00B811C810330110534F42B813C81FE
:104D20002130310599F18CC28B819C8183309105B2
:104D300009F401C10B811C810430110509F428C15B
:104D40007FC22B813C812830310509F49AC18B81C7
:104D50009C81893091056CF40B811C810630110512
:104D600009F44FC12B813C812730310509F44FC133
:104D700067C28B819C818930910509F43EC20B8109
:104D80001C810A30110509F44EC25AC28091F622E4
:104D90008170882309F084C08091F2229091F322DF
:104DA000A091F422B091F5220097A105B10531F14F
:104DB000809105209091062087309105FCF020918C
:104DC00041383091423887E390E0B9010E94417543
:104DD00083EC9AE00F920F92EDB7FEB73196808385
:104DE00091830E947F750F900F90209141383091F0
:104DF00042388AE090E0B9010E9441758091F22228
:104E00009091F322A091F422B091F5220196A11D78
:104E1000B11D8093F2229093F322A093F422B093D9
:104E2000F5228091F2229091F322A091F422B09188
:104E3000F52283309105A105B10548F58091052043
:104E40009091062087309105FCF0209141383091F7
:104E5000423887E390E0B9010E94417580EB9AE007
:104E60000F920F92EDB7FEB73196808391830E9427
:104E70007F750F900F9020914138309142388AE031
:104E800090E0B9010E9441750E946225D9C110923B
:104E9000F2221092F3221092F4221092F522D0C145
:104EA0001092F2221092F3221092F4221092F52224
:104EB00082E080936C37E0E0F0E480859185A28504
:104EC000B3850097A105B10551F510926C3780911B
:104ED000052090910620823091050CF4B1C12091FB
:104EE00041383091423882E390E0B9010E94417527
:104EF00085EA9AE00F920F92EDB7FEB73196808364
:104F000091830E947F750F900F90209141383091CE
:104F100042388AE090E0B9010E94417591C10E9437
:104F20003B20882321F483E080936C3789C181E0A2
:104F300080936C3785C1E0E0F0E4E0A0F1A002A12D
:104F400013A160E070E080E090E00E943E22DC016E
:104F5000CB01E816F9060A071B0711F00E946B2225
:104F60008091EA229091EB22A091EC22B091ED2267
:104F7000803011E0910711E0A10710E0B10720F0A7
:104F800084E080936C375CC185E080936C3758C1B6
:104F90000E94082385E080936C3752C10E94D7237A
:104FA0008091EA229091EB22A091EC22B091ED2227
:104FB000803024E0920721E0A20720E0B20720F031
:104FC00086E080936C373CC18091EA229091EB227D
:104FD000A091EC22B091ED22803031E0930731E0D6
:104FE000A30730E0B30720F087E080936C3728C137
:104FF0008091F6228D7F8093F62288E080936C3733
:105000001FC10E94562387E080936C3719C180919D
:10501000F6228470882369F58981882309F410C1F8
:10502000809105209091062087309105FCF0209119
:1050300041383091423887E390E0B9010E944175D0
:105040008CE89AE00F920F92EDB7FEB7319680830D
:1050500091830E947F750F900F902091413830917D
:1050600042388AE090E0B9010E9441750E9497257C
:10507000E7C088E080936C378091F6228D7F809323
:10508000F6228091F6228270882309F0ABC08981D4
:10509000882309F4D5C08091F2229091F322A09147
:1050A000F422B091F5220097A105B10531F180916C
:1050B00005209091062087309105FCF02091413821
:1050C0003091423887E390E0B9010E94417580E752
:1050D0009AE00F920F92EDB7FEB7319680839183DD
:1050E0000E947F750F900F90209141383091423887
:1050F0008AE090E0B9010E9441758091F22290917E
:10510000F322A091F422B091F5220196A11DB11DC8
:105110008093F2229093F322A093F422B093F5228D
:105120008091F2229091F322A091F422B091F52285
:105130008A309105A105B10548F58091052090912F
:10514000062087309105FCF020914138309142389B
:1051500087E390E0B9010E94417586E59AE00F92DD
:105160000F92EDB7FEB73196808391830E947F75D1
:105170000F900F9020914138309142388AE090E0B2
:10518000B9010E9441750E94D8245AC0809105201F
:105190009091062083309105FCF0209141383091A8
:1051A000423883E390E0B9010E94417586E39AE0BA
:1051B0000F920F92EDB7FEB73196808391830E94D4
:1051C0007F750F900F9020914138309142388AE0DE
:1051D00090E0B9010E94417581E080936C370E9494
:1051E000A3242EC01092F2221092F3221092F422E5
:1051F0001092F52289E080936C378091EA22909199
:10520000EB22A091EC22B091ED22803003E09007D8
:1052100001E0A00700E0B00710F00E94AE228AE093
:1052200080936C370DC060E070E080E090E040E07B
:1052300050E00E94CC25882319F011E01A8375C034
:105240008091F6228170882309F46EC08091F62245
:105250008870882309F468C02091D82B3091D92B0D
:105260004091DA2B5091DB2B8091E6229091E7223E
:10527000A091E822B091E92279018A01E81AF90A9D
:105280000A0B1B0BD801C7018D339105A105B10590
:1052900008F44AC080910520909106208330910542
:1052A0000CF43FC0209141383091423883E390E0C4
:1052B000B9010E94417565E07AE02091D82B3091C8
:1052C000D92B4091DA2B5091DB2B8091E6229091E3
:1052D000E722A091E822B091E92279018A01E81A37
:1052E000F90A0A0B1B0BD801C70100D000D0EDB79B
:1052F000FEB731966083718382839383A483B583E1
:105300000E947F750DB71EB70A5F1F4F0DBF1EBFEE
:1053100020914138309142388AE090E0B9010E94F2
:10532000417512E01A8301C01A828A812496CDBF8A
:10533000DEBFCF91DF911F910F91FF90EF90089505
:10534000DF93CF93CDB7DEB78091052090910620F3
:1053500087309105FCF0209141383091423887E345
:1053600090E0B9010E9441758FED9AE00F920F9283
:10537000EDB7FEB73196808391830E947F750F90C1
:105380000F9020914138309142388AE090E0B90185
:105390000E9441750E94A324E0E0F0E4808591859D
:1053A000A285B3850097A105B10519F410926C3759
:1053B00003C081E080936C3786EF92E260E070E09A
:1053C00041E050E00E94177580E00E946726CF916F
:1053D000DF9108950F931F93DF93CF9300D000D0F8
:1053E000CDB7DEB769837A838B839C834D835E83DD
:1053F0001092EA221092EB221092EC221092ED22EF
:10540000ED81FE818081882F90E0A0E0B0E0AC01CA
:10541000332722278091EA229091EB22A091EC225F
:10542000B091ED22822B932BA42BB52B8093EA22F3
:105430009093EB22A093EC22B093ED228D819E817C
:10544000FC0131968081882F90E0982F88279C015D
:10545000442737FD4095542F8091EA229091EB220A
:10546000A091EC22B091ED22822B932BA42BB52B93
:105470008093EA229093EB22A093EC22B093ED224A
:105480008D819E81FC0132968081282F30E040E0A2
:1054900050E08091EA229091EB22A091EC22B09111
:1054A000ED22822B932BA42BB52B8093EA22909391
:1054B000EB22A093EC22B093ED2207E410E680915A
:1054C000EA229091EB22A091EC22B091ED22BC0156
:1054D000CD010E943E22DC01CB01F80182A393A3FF
:1054E000A4A3B5A380910520909106208630910554
:1054F000F4F1209141383091423886E390E0B901CF
:105500000E9441754FEE5AE0ED81FE818081682F47
:1055100070E08D819E81FC0131968081282F30E0E2
:105520008D819E81FC0132968081882F90E0EDB7BD
:10553000FEB73897EDBFFEBFEDB7FEB7319640839B
:1055400051836283738324833583868397830E9488
:105550007F758DB79EB708968DBF9EBF209141384D
:10556000309142388AE090E0B9010E944175809103
:10557000F62281608093F6228091EA229091EB22BC
:10558000A091EC22B091ED228030E1E09E07E1E0B5
:10559000AE07E0E0BE0728F08091F6228860809395
:1055A000F62280E02696CDBFDEBFCF91DF911F911E
:1055B0000F9108952F923F924F925F926F927F9238
:1055C0008F929F92AF92BF92CF92DF92EF92FF9213
:1055D0000F931F93DF93CF93CDB7DEB72F97CDBF38
:1055E000DEBF69877A878B879C874D875E87898531
:1055F0009A85AB85BC8583309105A105B10569F419
:1056000089859A85AB85BC852D853E85BC01CD01FC
:10561000A9010E94EA298F87BDC18091EA22909159
:10562000EB22A091EC22B091ED22803021E0920794
:1056300021E0A20720E0B20708F4ABC18DE297E3B6
:105640002D853E85B90140E150E00E940E758091A4
:1056500005209091062086309105FCF0209141387C
:105660003091423886E390E0B9010E9441758AEAA0
:105670009BE00F920F92EDB7FEB731968083918336
:105680000E947F750F900F902091413830914238E1
:105690008AE090E0B9010E94417580913537909180
:1056A0003637A0913737B0913837BC01CD010E9411
:1056B0003E22DC01CB015C016D01EE24FF24870159
:1056C0002A2D3B2D4C2D5D2D6E2D7F2D802F912F62
:1056D00000E20E94166FA22EB32EC42ED52EE62E07
:1056E000F72E082F192F2A2C3B2C4C2C5D2C6E2CBE
:1056F0007F2C802E912E8091393790913A37A0914E
:105700003B37B0913C37BC01CD010E943E22DC0109
:10571000CB019C01AD0160E070E080E090E0E22D03
:10572000E22BE983E32DE32BEA83E42DE42BEB83E7
:10573000E52DE52BEC83E62DE62BED83E72DE72B1E
:10574000EE83E82DE82BEF83892D892B88878091C4
:10575000052090910620863091053CF1209141383A
:105760003091423886E390E0B9010E9441752FE8FC
:105770003BE080912D37882F90E000D00F92EDB75D
:10578000FEB7319620833183828393830E947F7595
:105790000F900F900F900F90209141383091423828
:1057A0008AE090E0B9010E944175809105209091B6
:1057B0000620863091053CF12091413830914238E5
:1057C00086E390E0B9010E94417524E73BE08091B7
:1057D0002E37882F90E000D00F92EDB7FEB73196AC
:1057E00020833183828393830E947F750F900F9073
:1057F0000F900F9020914138309142388AE090E02C
:10580000B9010E9441758091052090910620863053
:1058100091054CF1209141383091423886E390E077
:10582000B9010E94417507E51BE080912F379091E7
:1058300030370E94E12C00D00F92EDB7FEB73196C1
:1058400000831183828393830E947F750F900F9052
:105850000F900F9020914138309142388AE090E0CB
:10586000B9010E94417580910520909106208630F3
:105870009105A4F1209141383091423886E390E0BF
:10588000B9010E94417509E31BE080913137909185
:105890003237A0913337B0913437BC01CD010E942B
:1058A0002222DC01CB0100D000D0EDB7FEB731964B
:1058B0000083118382839383A483B5830E947F75C1
:1058C0008DB79EB706968DBF9EBF2091413830910F
:1058D00042388AE090E0B9010E944175809105202C
:1058E00090910620863091050CF44EC020914138ED
:1058F0003091423886E390E0B9010E9441750F2E45
:10590000F4E1CF2EFBE0DF2EF02D80913537909122
:105910003637A0913737B0913837BC01CD010E949E
:105920003E227B018C018091393790913A37A091CA
:105930003B37B0913C37BC01CD010E943E22DC01D7
:10594000CB012DB73EB72A5030402DBF3EBFEDB73B
:10595000FEB73196C082D182E282F382048315833E
:1059600086839783A087B1870E947F758DB79EB786
:105970000A968DBF9EBF20914138309142388AE00F
:1059800090E0B9010E9441758091F6228460809375
:10599000F6221F868F852F96CDBFDEBFCF91DF9178
:1059A0001F910F91FF90EF90DF90CF90BF90AF903D
:1059B0009F908F907F906F905F904F903F902F902F
:1059C0000895DF93CF930F920F92CDB7DEB78983FF
:1059D0009A8389819A810E9413220F900F90CF9110
:1059E000DF910895DF93CF93CDB7DEB72897CDBF72
:1059F000DEBF6B837C838D839E834F83588780912A
:105A0000EA229091EB22A091EC22B091ED2280301D
:105A100021E0920721E0A20720E0B20708F443C08A
:105A20008F81988589839A8361E070E080E090E0BF
:105A30000E943E22DC01CB0180934D3790934E377C
:105A4000A0934F37B09350378DE397E329813A8184
:105A5000B90144E250E00E940E75809105209091BA
:105A6000062086309105FCF0209141383091423873
:105A700086E390E0B9010E9441758DEC9BE00F92A6
:105A80000F92EDB7FEB73196808391830E947F75A8
:105A90000F900F9020914138309142388AE090E089
:105AA000B9010E94417580E02896CDBFDEBFCF913D
:105AB000DF910895DF93CF9300D000D0CDB7DEB74C
:105AC00069837A838B839C834D835E8380910520D9
:105AD0009091062086309105FCF02091413830915C
