:100000000C94110B0C94370B0C94370B0C94370B8E
:100010000C94370B0C94370B0C94370B0C94370B58
:100020000C94370B0C94370B0C94370B0C94370B48
:100030000C94370B0C94370B0C94F1650C94370B24
:100040000C94370B0C94370B0C94370B0C94370B28
:100050000C94370B0C94370B0C94370B0C94370B18
:100060000C94370B0C94370B0C94370B0C94370B08
:100070000C9437630C94A3630C948B630C94370B30
:100080000C94370B0C94370B0C94370B0C94370BE8
:100090000C94370B0C94370B0C94370B0C94370BD8
:1000A0000C94370B0C94370B0C94370B0C94370BC8
:1000B0000C94370B0C94370B0C94370B0C94370BB8
:1000C0000C94370B0C94370B0C94370B0C94370BA8
:1000D0000C94370B0C94370B0C94370B0C94370B98
:1000E0000C94370B0C94370B0C94F1640C945D65F5
:1000F0000C9445650C94370B0C94370B0C94370B10
:100100000C94370B0C94370B0C94370B0C94370B67
:100110000C94370B0C94370B0C94370B0C94370B57
:100120000C94370B0C94370B0C94370B0C94370B47
:100130000C94370B0C94370B0C94370B0C94370B37
:100140000C94370B0C94370B0C94370B0C94370B27
:100150000C94370B0C94370B0C94370B0C94370B17
:100160000C9418610C9484610C946C610C94370BA2
:100170000C94370B0C94370B0C94370B0C94370BF7
:100180000C94370B0C94370B0C94370B0C94370BE7
:100190000C94370B0C94370B0C94370B0C94370BD7
:1001A0000C94370B0C94370B0C94370B0C9477662C
:1001B0000C94370B0C94370B0C94370B0C94370BB7
:1001C0000C94370B0C94370B0C94370B0C94370BA7
:1001D0000C94370B0C94370B0C94370B0C94636B0B
:1001E0000C94D26B0C94A86B0C94370B0C94370BBB
:1001F0000C94370B0A0D0A0D0020726561642046CD
:10020000726F6D20636C69656E743A20000A0D4C44
:100210006173742053494D2052657365743A200010
:100220000A0D000A0D5772697465207468652041D3
:100230005420636F6D6D616E6420286567204154A2
:10024000202B204349505354415455532920616E6B
:100250006420456E7465723A0A0D000A0D53656E8E
:10026000644F6E6C79436F6D6D616E6420302D321A
:100270003420616E6420456E7465723A000A0D5335
:1002800065742053696D537461746520302D31336A
:1002900020616E6420456E7465723A004C616D7029
:1002A000202520336420253032582530325825301F
:1002B00032582530325825303258253032582530C2
:1002C0003258253032580A000A0D435243207473C5
:1002D000436F6E666967426F7264657252757465CA
:1002E00072203D20256420202020707354696D65A4
:1002F0007273203D2025640A0D000A0D5365742099
:10030000766572626F736974793A000A0D53657489
:10031000204F666632204D696E7574653A000A0D8D
:10032000536574204F66663220486F75723A000A32
:100330000D536574204F6E32204D696E7574653AA9
:10034000000A0D536574204F6E3220486F75723A63
:10035000000A0D536574204F666631204D696E7535
:1003600074653A000A0D536574204F666631204863
:100370006F75723A000A0D536574204F6E31204D2F
:10038000696E7574653A000A0D536574204F6E31BD
:1003900020486F75723A000A0D536574204D696EDE
:1003A0007574653A000A0D53657420486F75723A8A
:1003B000000A0D53657420446174653A000A0D53B8
:1003C0006574204D6F6E74683A000A0D5365742091
:1003D000596561723A000A0D0046726F6D204352F2
:1003E0004432207561727420726563697665643A7F
:1003F00000507265737320616E79206B65792021DE
:100400000A0D00546F20435244322055617274200B
:1004100020202073656E6465743A4645444342412A
:10042000393837363534333231300A0D000A0D0091
:1004300046726F6D2047505253207561727420725E
:100440006563697665643A00507265737320616E06
:1004500079206B657920210A0D00546F2047505296
:100460005320556172742020202073656E6465747A
:100470003A303132333435363738394142434445E6
:10048000460A0D0047505253204A503620524553D9
:100490004554206F6E0A0D0047505253204A503683
:1004A000205245534554206F66660A0D0042414470
:1004B00020636C6561722052414D004241442063CB
:1004C000726320696E2052414D2C20707354696D07
:1004D000657273004241442063726320696E20524A
:1004E000414D2C2070734D6F64756C65536574437A
:1004F0006F6E666967004572726F722077726974F9
:10050000696E67207061636B657420746F206D6F16
:1005100064756C65004572726F72207772697469D8
:100520006E6720746F2074756E20646576696365EC
:100530000053656E64206D65737361676500457275
:10054000726F722077726974696E6720746F20749D
:10055000756E206465766963650053656E64206D11
:1005600065737361676500546F20626F72646572B2
:1005700020616E73776572004A656E4E65744E65D4
:1005800074776F726B426C6F625461626C6520208D
:100590004E4F44452025642056657273696F6E2066
:1005A0002564206C656E67687420256400546F2094
:1005B000626F726465722066726F6D20726F7574FF
:1005C000657220616E73776572004C6F63616C2099
:1005D0006D657373616765004C6F63616C206D7549
:1005E0006C74696361737420616E73776572004522
:1005F00072726F722077726974696E6720746F20EF
:1006000074756E206465766963650053656E642059
:100610006D657373616765004D756C7469636173B3
:100620007420616E73776572004572726F72207705
:10063000726974696E67207061636B657420746F92
:10064000206D6F64756C6500416363736573205240
:10065000656A656374004163637365732041636316
:10066000657074005241444955532041636365737A
:1006700073205265717565737420253032582530AA
:1006800032582530325825303258253032582530EE
:1006900032582530325825303258004241442043E8
:1006A000616C63756C6174656420636865636B730A
:1006B000756D20253034580050726F74636F6C2054
:1006C0002564204C656E6768742025642043686546
:1006D000636B73756D202530345800495076362091
:1006E00066726F6D204A656E6E6963206C656E6719
:1006F000687420256C640043616E6E6F7420636FB4
:100700006E66696775726520626F726465722072C9
:100710006F75746572206E6F64652076657273699B
:100720006F6E205625642E25642E256400436F6E5F
:1007300066696720364C6F5750414E20507265668F
:100740006978203A2030782530386C782530386C3C
:100750007800436F6E666967204A656E4E65742047
:1007600049442020202020203A203078256C780031
:10077000436F6E6669672031352E342050414E201C
:100780004944202020203A203078257800436F6E9D
:100790006669672031352E34204368616E6E656C62
:1007A0002020203A20256400436F6E66696720315F
:1007B000352E3420526567696F6E202020203A2044
:1007C00025640057726974696E6720636F6E66698D
:1007D0006775726174696F6E20746F204D6F6475F8
:1007E0006C652025640057726974696E67204D6FCF
:1007F00064756C653A20536563757269747920433A
:100800006F6E66696720256400417574686F726950
:10081000736174696F6E20536368656D6520204550
:1008200052524F5200417574686F726973617469F6
:100830006F6E20536368656D6520203A20524144F5
:100840004955532073657276657220617420257353
:10085000207573696E672050415000417574686F50
:100860007269736174696F6E20536368656D65208A
:10087000203A204E6F6E65004E6574776F726B2064
:100880004B657920202020202020202020203A2085
:10089000257300456E61626C696E67206E657477C2
:1008A0006F726B2073656375726974793A00577261
:1008B0006974696E67204D6F64756C653A20416399
:1008C000746976697479204C45443A202564005750
:1008D000726974696E67204D6F64756C653A205358
:1008E0006574204A656E4E65742050726F66696C3F
:1008F0006520282564290057726974696E67204D48
:100900006F64756C653A20456E61626C696E672034
:10091000416E74656E6E61204469766572736974A8
:10092000790057726974696E67204D6F64756C65E4
:100930003A205365742046726F6E74656E64202889
:1009400025642900556E6B6E6F776E206D6F647530
:100950006C65206D6F64653A202564005772697478
:10096000696E67204D6F64756C653A2052756E2014
:10097000436F6D6D6973696F6E696E670057726959
:1009800074696E67204D6F64756C653A2052756EA0
:1009900020526F757465720057726974696E6720B2
:1009A0004D6F64756C653A2052756E20436F6F729F
:1009B00064696E61746F720057726974696E672042
:1009C0004D6F64756C653A2052657365740057729B
:1009D0006974696E67204D6F64756C653A20476570
:1009E0007420416464726573730057726974696E30
:1009F00067204D6F64756C653A2050696E670057CB
:100A0000726974696E67204D6F64756C653A204732
:100A100065742056657273696F6E005772697469E8
:100A20006E67204D6F64756C653A2047657420438E
:100A30006F6E6669670050696E6700506F6E670081
:100A40004E6F6465206E6F7420726573706F6E6494
:100A5000696E6720286C61737420636F6D6D7320FD
:100A6000256C64207365636F6E64732061676F2902
:100A70000043616E6E6F742064657465726D696E9B
:100A800065206D6F64756C65206164647265737355
:100A90000052657175657374696E67206D6F64755A
:100AA0006C6520616464726573730054696D656F71
:100AB00075742077616974696E6720666F72206152
:100AC0006464726573730052657175657374696EE1
:100AD0006720636F6E66696775726174696F6E0017
:100AE00042414420636F6E666967005265717565A7
:100AF0007374696E672076657273696F6E005469EE
:100B00006D656F75742077616974696E6720666FB3
:100B1000722076657273696F6E00537461727469C6
:100B20006E67206D6F64756C6500436F6E6E6563F4
:100B300074656420746F20426F7264657220726FF6
:100B400075746572205625642E25642E2564004335
:100B50006F6E66696720364C6F5750414E20507259
:100B600065666978203A2030782530386C782530F1
:100B7000386C7800436F6E666967204A656E4E6513
:100B8000742049442020202020203A203078256CF1
:100B90007800436F6E6669672031352E34205041EE
:100BA0004E204944202020203A20307825780043E8
:100BB0006F6E6669672031352E34204368616E6E32
:100BC000656C2020203A20256400436F6E666967BB
:100BD0002031352E3420526567696F6E2020202029
:100BE0003A20256400526563656976656420636F09
:100BF0006E66696775726174696F6E2066726F6D7B
:100C0000204D6F64756C6500526563656976656437
:100C100020736563757269747920636F6E666967A6
:100C200075726174696F6E2066726F6D204D6F64AE
:100C3000756C6500436F6E66696775726174696F84
:100C40006E20726571756573742066726F6D206DAC
:100C50006F64756C65004D6F64756C6520616464CC
:100C6000726573733A202573004D6F64756C653A35
:100C700020257300546F2053494D3A257300467266
:100C80006F6D2053494D20696E2072657365743A0B
:100C90002573004F6E2053494D0046726F6D2053EF
:100CA000494D20696E2072657365743A2573004F53
:100CB00066662053494D0046726F6D2053494D20A2
:100CC000696E2072657365743A2573000A0D0052CF
:100CD000656A656374206C61737420636C69656E0A
:100CE0007420696E2054696D653A20000A0D000A6F
:100CF0000D52657365742053494D20696E20546907
:100D00006D653A20004F6E2F4F66662053494D00A7
:100D1000436C69656E742025206420746F207265B1
:100D200063697665642053494D3A25640046726FC5
:100D30006D2053494D3A257300546F20636C6965EB
:100D40006E742025642073656E64656420256420BC
:100D50002A20322062797465730046726F6D2063B9
:100D60006C69656E742053494D3A25730045727263
:100D70006F72205345542050494E20257300457210
:100D8000726F722050494E20746573742025730071
:100D900046726F6D2053494D3A2573000A0D536911
:100DA0006D207374617475733A20257320666C5FCF
:100DB00072656164203D20256420745F6D696E5FFB
:100DC0006E6F5F636F6E6E656374203D2025640AED
:100DD0000D0A0D003133204F70656E6564003132AD
:100DE00020544F5F4F70656E003131204241445FA7
:100DF00050494E0031302043494943520039204385
:100E00005354540038204353510037204347415432
:100E100054003620435245470035204349504D5534
:100E20005800342050494E5F736574003320504998
:100E30004E5F7465737400322043494653525F74A9
:100E40006573740031204154453000302041545FB7
:100E500074657374004F70656E656420434F4D2058
:100E6000696E2074756E20646576696365004572ED
:100E7000726F72204F70656E656420434F4D20691C
:100E80006E2074756E2064657669636500457272C4
:100E90006F722077726974696E67207061636B6529
:100EA0007420746F206D6F64756C6500424144203E
:100EB0006C656E6768742066726F6D20636C69651F
:100EC0006E743A2564202564004572726F72207535
:100ED0006E6B6E6F77207465436F6D6D616E6473BA
:100EE000504300204F6E31202532583A2530325879
:100EF00020204F666631202532583A25303258205E
:100F00002020204F6E32202532583A25303258208A
:100F1000204F666632202532583A253032580A0D65
:100F2000000A0D54696D6520000A0D00496E707548
:100F300074733A2000712043757272656E74456E49
:100F4000657267792C207720546F74616C456E65EB
:100F50007267792C206520417272617943757272D3
:100F6000656E74456E657267790A0D006B20537566
:100F700062547265654E6F6465732C206C204E65FB
:100F800074776F726B5461626C650A0D007820741F
:100F9000657374204352430A0D00762056657262D1
:100FA0006F736974790A0D00722052414449555398
:100FB000207461626C650A0D00737461747573202E
:100FC0004750525320672D47657453696D537461C0
:100FD00074652C20732D53657453696D537461745B
:100FE000652C206A2D53656E644F6E6C79436F6D6E
:100FF0006D616E642C206D2D4D616E75616C536555
:101000006E640A0D0074657374202020475052539B
:1010100020612D41542C20622D41542B43495053C3
:1010200045525645523F2C20632D41542B43495085
:101030005354415455532C20642D4C6173744461B6
:10104000746554696D650A0D007420536574204FF2
:101050006E2F4F66660A0D0070205365742050494C
:101060004E0A0D0030204A656E6E6963205245536A
:1010700045540A0D0039205365742074696D65204C
:101080002620646174610A0D003820546573742051
:1010900045787465726E616C2052414D0A0D0036C0
:1010A0002054657374204750525320556172742048
:1010B0004A50362C20202020202020203720546524
:1010C000737420435244322055617274204A503464
:1010D0000A0D00352047505253204A5036205245C1
:1010E0005345540A0D0034204F6E2F4F6666205230
:1010F000656C617920310A0D00312042726F6164A4
:10110000636173743D312C20202020202020203268
:101110002042726F6164636173743D3132372C20F9
:1011200020202020202020332042726F61646361E0
:1011300073743D3235350A0D000A0D4A656E6E69CD
:101140006320484F5354205625642E25642E256471
:10115000202053697A65204E564D203D202575206C
:1011600062797465732046726565203D2025642090
:1011700062797465730A0D004F6E54696D65720073
:101180004F666654696D6572004F6E4C616D7000FC
:101190004F66664C616D70005465737420617420F5
:1011A0006164647265737320256400446F75626CBA
:1011B00065207265706F7274004F6B004D41432063
:1011C00025303258253032582530325825303258A3
:1011D0002530325825303258253032582530325893
:1011E00000436F6E6E6563746564202564206F66CE
:1011F00020256400546573742061742061646472F6
:10120000657373202564002532583A253032582002
:1012100047726F7570202564204C696768742025BB
:101220006400546573742061742061646472657332
:1012300073202564004572726F722068616E646C61
:10124000696E672074756E207061636B657400450C
:1012500072726F7220636F6D6D756E696361746910
:101260006E67207769746820626F7264657220729D
:101270006F75746572206D6F64756C65000A0D453D
:10128000787465726E616C2052414D204F4B0A0D8F
:10129000000A0D457865726E616C2052414D204503
:1012A00052524F52533A2575206174204164647242
:1012B0006573733A307825580A0D000A0D45786534
:1012C000726E616C2052414D206E6F7420636C65AC
:1012D000617220617420416464726573733A30787E
:1012E000255800506F7765725F666163746F72098D
:1012F00025660925660925660925660A0D004170DF
:10130000706172656E745F706F776572092566092A
:1013100025660925660925660A0D00526561637414
:101320006976655F706F77657209256609256609BC
:1013300025660925660A0D004163746976655F704C
:101340006F77657209256609256609256609256690
:101350000A0D0043757272656E74090909092566E4
:101360000925660925660A0D00566F6C746167656C
:101370000909090925660925660925660A0D004639
:1013800072657175656E63790925660A0D000A0D2F
:10139000004C61737420436F6E7461637420005459
:1013A0006F74616C5F72656163746976655F656EA9
:1013B00065726779204C312C4C322C4C33092566F0
:1013C0000925660925660A0D00546F74616C5F7209
:1013D000656163746976655F656E657267792C54C3
:1013E000312C54320925660925660925660A0D0047
:1013F000546F74616C5F6163746976655F656E6577
:10140000726779204C312C4C322C4C3309256609FB
:1014100025660925660A0D00546F74616C5F61636F
:10142000746976655F656E657267792C54312C54EA
:10143000320925660925660925660A0D000A0D0090
:101440004C61737420436F6E7461637420000925CE
:101450006609256620202566202025660A0D0025C0
:101460006420005072696E7420417272617920416B
:1014700063746976652043757272656E20456E658A
:10148000726779202E2E2E206B573A0A0D00457276
:10149000726F72207343757272656E74456E6572F9
:1014A0006779536D616C6C2E4E657874496E41722C
:1014B000726179202564203E3D20256400416464EA
:1014C000496E43757272656E74456E6572677941D7
:1014D000727261792025640A0D00536574205049A9
:1014E0004E203A2025730A0D005365742050494E52
:1014F000203A2025730A0D00436C6F636B206973DB
:10150000207265736574004572726F722072656136
:101510006420454E45524759204D45544552006E72
:10152000616E00696E660000407A10F35A00A07286
:101530004E18090010A5D4E80000E876481700000E
:10154000E40B54020000CA9A3B000000E1F50500DC
:101550000080969800000040420F000000A0860125
:10156000000000102700000000E8030000000064F5
:1015700000000000000A0000000000010000000060
:10158000002C76D888DC674F0823DFC1DFAE59E135
:10159000B1B796E5E3E453C63AE651997696E8E6A4
:1015A000C28426EB898C9B62ED407C6FFCEFBC9C77
:1015B0009F40F2BAA56FA5F490055A2AF75C936B89
:1015C0006CF9676DC11BFCE0E40D47FEF520E6B544
:1015D00000D0ED902E0300943577050080841E081E
:1015E0000000204E0A000000C80C333333330F983C
:1015F0006E12831141EF8D2114893BE65516CFFE03
:10160000E6DB18D1844B381BF77C1D901DA4BBE48E
:1016100024203284725E228100C9F124ECA1E53DD0
:10162000270011241FBECFEFDFE3DEBFCDBF00E0F8
:101630000CBF18BE19BE1ABE1BBE13E2A0E0B0E27A
:10164000E6E9F2EF00E00BBF02C007900D92A4356F
:10165000B107D9F71BBE18E3A4E5B3E201C01D92A0
:10166000AB3BB107E1F70E94390B0C9449790C941C
:1016700000008F929F92AF92BF92CF92DF92EF9233
:10168000FF920F931F93DF93CF93CDB7DEB7C05474
:10169000D040CDBFDEBF0E94BB660E9418680E948A
:1016A000D067198680E090E46FE370E00E94E25317
:1016B000882341F180910520909106208330910587
:1016C000FCF02091B7383091B83883E390E0B9014D
:1016D0000E94ED7784ED94E00F920F92EDB7FEB784
:1016E0003196808391830E942B780F900F902091E8
:1016F000B7383091B8388AE090E0B9010E94ED77B0
:1017000081E0898780E490E46EE570E00E94E25316
:10171000882341F180910520909106208330910526
:10172000FCF02091B7383091B83883E390E0B901EC
:101730000E94ED778BEB94E00F920F92EDB7FEB71E
:101740003196808391830E942B780F900F90209187
:10175000B7383091B8388AE090E0B9010E94ED774F
:1017600081E089878985882341F1809105209091C6
:10177000062083309105FCF02091B7383091B838BD
:1017800083E390E0B9010E94ED778DEA94E00F9237
:101790000F92EDB7FEB73196808391830E942B782C
:1017A0000F900F902091B7383091B8388AE090E0D0
:1017B000B9010E94ED770E94A14707E410E6E7E433
:1017C000F0E6828193810E94151301960E942613F0
:1017D000F80182839383E7E4F0E61082118207E444
:1017E00010E660E070E086E090E00E943513DC01D6
:1017F000CB01F801868F978FA0A3B1A3E7E4F0E6B1
:1018000012A213A214A215A225E838E381E590E6FE
:10181000B90146E050E00E94BA7787E590E66DE5B1
:1018200070E646E050E00E94BA770E94E32A809179
:101830004E2C90914F2CA091502CB091512C809314
:101840008B3890938C38A0938D38B0938E380E944B
:101850007A4F0E9437648823D1F30E9450648887AE
:101860000E94EA4780E090E220E838E3B9010E9454
:10187000CA77009709F43FC0809154239091552373
:10188000843091055CF588858033D8F088858A336B
:10189000C0F42091542330915523F901E050F04ECB
:1018A00088858083C90101968093542390935523A2
:1018B0008091542390915523FC01E050F04E10820A
:1018C000C6CF1092542310925523809154239091A7
:1018D0005523FC01E050F04E1082B9CF10925423F2
:1018E000109255238091542390915523FC01E05090
:1018F000F04E1082ACCF8885282F30E021962EAF95
:101900003FAF219721968EAD9FAD219782359105EE
:1019100009F494C42196EEADFFAD2197E335F105AE
:101920000CF0EAC021962EAD3FAD21972134310550
:1019300009F471C521968EAD9FAD21978234910532
:101940000CF069C02196EEADFFAD2197E433F105AF
:1019500009F4DFC121962EAD3FAD21972533310526
:101960004CF521968EAD9FAD21978133910509F4F9
:10197000B5C12196EEADFFAD2197E233F1054CF4F0
:1019800021962EAD3FAD21972033310509F43CC39C
:101990005ECF21968EAD9FAD21978233910509F4DC
:1019A000A6C12196EEADFFAD2197E333F10509F411
:1019B000A7C14DCF21962EAD3FAD219727333105DD
:1019C00009F422C221968EAD9FAD219788339105EF
:1019D0008CF42196EEADFFAD2197E533F10509F4C6
:1019E000A2C121962EAD3FAD21972633310509F4D2
:1019F000C7C12DCF21968EAD9FAD2197883391051C
:101A000009F446C22196EEADFFAD2197E933F10509
:101A100009F441C21CCF21962EAD3FAD21972A3447
:101A2000310509F426C521968EAD9FAD21978B34E3
:101A300091058CF52196EEADFFAD2197E434F105CB
:101A400009F4BAC521962EAD3FAD21972534310555
:101A50008CF421968EAD9FAD21978234910509F4C7
:101A6000DEC42196EEADFFAD2197E334F10509F414
:101A70009FC5EDCE21962EAD3FAD21972534310582
:101A800009F4D0C521968EAD9FAD2197873491057D
:101A900009F48BC5DCCE2196EEADFFAD2197ED3478
:101AA000F10509F40CC521962EAD3FAD21972E34DA
:101AB00031058CF421968EAD9FAD21978B34910525
:101AC00009F4A8C22196EEADFFAD2197EC34F105E3
:101AD00009F49DC2BCCE21962EAD3FAD2197203595
:101AE000310509F495C421968EAD9FAD21978135BE
:101AF000910509F491C5ABCE2196EEADFFAD2197CE
:101B0000EA36F10509F4B5C421962EAD3FAD219713
:101B10002B3631050CF071C021968EAD9FAD21970B
:101B20008136910509F477C42196EEADFFAD21977A
:101B3000E236F1058CF521962EAD3FAD2197263585
:101B4000310509F43BC321968EAD9FAD21978735B2
:101B500091058CF42196EEADFFAD2197E335F105AB
:101B600009F461C421962EAD3FAD2197243531058E
:101B700009F453C26CCE21968EAD9FAD2197873567
:101B8000910509F44CC52196EEADFFAD2197E835DE
:101B9000F10509F429C35BCE21962EAD3FAD219707
:101BA0002436310509F408C521968EAD9FAD2197E5
:101BB000853691058CF42196EEADFFAD2197E23686
:101BC000F10509F42CC421962EAD3FAD21972336A3
:101BD000310509F4EDC43BCE21968EAD9FAD219722
:101BE0008536910509F41EC52196EEADFFAD21970E
:101BF000E736F10509F4D9C42ACE21962EAD3FADC2
:101C000021972237310509F419C321968EAD9FAD76
:101C10002197833791058CF52196EEADFFAD219785
:101C2000ED36F10509F44BC421962EAD3FAD219759
:101C30002E3631058CF421968EAD9FAD21978B36D3
:101C4000910509F4E7C12196EEADFFAD2197EC3681
:101C5000F10509F4DCC1FBCD21962EAD3FAD2197F6
:101C60002037310509F4D4C321968EAD9FAD21975D
:101C70008137910509F4D0C4EACD2196EEADFFADD0
:101C80002197E637F10509F499C221962EAD3FADB3
:101C90002197273731058CF421968EAD9FAD219782
:101CA0008337910509F4BFC32196EEADFFAD2197AF
:101CB000E437F10509F4B1C1CACD21962EAD3FAD8F
:101CC00021972737310509F4AAC421968EAD9FAD1F
:101CD00021978837910509F487C2B9CD64E07EEF7A
:101CE0008FEF9FEF42E021E00E94AD17B0CD64E09E
:101CF0007EEF8FEF9FEF42E02FE70E94AD17A7CD59
:101D000064E07EEF8FEF9FEF42E02FEF0E94AD1770
:101D10009ECD8091562C882319F00E942B4C97CD94
:101D20000E94FC4B94CDE0E4F6E08085882F90E0A3
:101D300080729070009791F088E994E00F920F9272
:101D4000EDB7FEB73196808391830E942B780F9078
:101D50000F90E0E4F6E080E2868379CD84E894E0B9
:101D60000F920F92EDB7FEB73196808391830E9458
:101D70002B780F900F90E0E4F6E080E2858367CD4A
:101D800087E090E20E9419638AE594E00F920F9237
:101D9000EDB7FEB73196808391830E942B780F9028
:101DA0000F9088E494E00F920F92EDB7FEB7319652
:101DB000808391830E942B780F900F900E94506433
:101DC00080E394E00F920F92EDB7FEB731968083D7
:101DD00091830E942B780F900F9004C00E94306274
:101DE0000E94A0640E9418628823C1F78DE294E0EB
:101DF0000F920F92EDB7FEB73196808391830E94C8
:101E00002B780F900F9023CD88E190E20E94FA602A
:101E100083E094E00F920F92EDB7FEB73196808386
:101E200091830E942B780F900F9081EF93E00F9297
:101E30000F92EDB7FEB73196808391830E942B7885
:101E40000F900F900E94506489ED93E00F920F92D3
:101E5000EDB7FEB73196808391830E942B780F9067
:101E60000F9004C00E9479600E94A0640E942A60C2
:101E70008823C1F786ED93E00F920F92EDB7FEB77E
:101E80003196808391830E942B780F900F90DFCC46
:101E90000E94D352DCCC8AEC93E00F920F92EDB704
:101EA000FEB73196808391830E942B780F900F901C
:101EB0000E94C7478F8386E08A878F818B8786E958
:101EC00098E39E01265F3F4F6FE6A90122E000E004
:101ED0000E94575E8091AD388823E1F78DEB93E047
:101EE0000F920F92EDB7FEB73196808391830E94D7
:101EF0002B780F900F900E94C7478F8385E08A87C9
:101F00008F818F718B8786E998E39E01265F3F4F13
:101F10006FE6A90122E000E00E94575E8091AD3893
:101F20008823E1F781EB93E00F920F92EDB7FEB7B4
:101F30003196808391830E942B780F900F900E949E
:101F4000C7478F8384E08A878F818F738B8786E969
:101F500098E39E01265F3F4F6FE6A90122E000E073
:101F60000E94575E8091AD388823E1F785EA93E0BF
:101F70000F920F92EDB7FEB73196808391830E9446
:101F80002B780F900F900E94C7478F8382E08A873B
:101F90008F818F738B8788E08C8786E998E39E0119
:101FA000265F3F4F6FE6A90123E000E00E94575EE5
:101FB0008091AD388823E1F787E993E00F920F9283
:101FC000EDB7FEB73196808391830E942B780F90F6
:101FD0000F900E94C7478F831A8680E88B878F8176
:101FE0008F778C8786E998E39E01265F3F4F6FE6E7
:101FF000A90123E000E00E94575E8091AD3888235C
:10200000E1F710928F3823CC0E94E32A20CC0E9463
:10201000314F1DCC0E94714F1ACC87E893E00F928C
:102020000F92EDB7FEB73196808391830E942B7893
:102030000F900F9000E410E40E94C747F8018683D8
:1020400080E490E46EE570E00E94B25385E793E08F
:102050000F920F92EDB7FEB73196808391830E9465
:102060002B780F900F9000E410E40E94C747F8010E
:10207000878380E490E46EE570E00E94B25384E6CA
:1020800093E00F920F92EDB7FEB731968083918364
:102090000E942B780F900F9000E410E40E94C74735
:1020A000F801808780E490E46EE570E00E94B2530E
:1020B00081E593E00F920F92EDB7FEB731968083E2
:1020C00091830E942B780F900F9000E410E40E94FF
:1020D000C747F801818780E490E46EE570E00E94D4
:1020E000B25381E493E00F920F92EDB7FEB73196B1
:1020F000808391830E942B780F900F9000E410E46E
:102100000E94C747F801E65AFF4F808380E490E4BD
:102110006EE570E00E94B2538FE293E00F920F924F
:10212000EDB7FEB73196808391830E942B780F9094
:102130000F9000E410E40E94C747F801E55AFF4FF2
:10214000808380E490E46EE570E00E94B2538EE1FB
:1021500093E00F920F92EDB7FEB731968083918393
:102160000E942B780F900F9000E410E40E94C74764
:10217000F801E45AFF4F808380E490E46EE570E05C
:102180000E94B2538BE093E00F920F92EDB7FEB72F
:102190003196808391830E942B780F900F9000E4FA
:1021A00010E40E94C747F801E35AFF4F808380E4A0
:1021B00090E46EE570E00E94B25349CB8AEF92E062
:1021C0000F920F92EDB7FEB73196808391830E94F4
:1021D0002B780F900F900E94C747882F90E0809334
:1021E00005209093062033CB0F2EF8ECEF2EF2E073
:1021F000FF2EF02D80E090E46FE370E00E94E25348
:10220000082F10E080E490E46EE570E00E94E25355
:10221000882F90E000D000D0EDB7FEB73196E08275
:10222000F18202831383848395830E942B782DB7D8
:102230003EB72A5F3F4F2DBF3EBF09CB1D821E8296
:10224000DCC04CE952E02D813E81C901880F991F05
:10225000820F931F9C01220F331F220F331F220F67
:10226000331F820F931FFC01ED55FF4B8081682FB8
:1022700070E02D813E81C901880F991F820F931F45
:102280009C01220F331F220F331F220F331F820F97
:10229000931FFC01ED55FF4B8181A82FB0E02D81EC
:1022A0003E81C901880F991F820F931F9C01220F45
:1022B000331F220F331F220F331F820F931FFC0186
:1022C000ED55FF4B8281082F10E02D813E81C90121
:1022D000880F991F820F931F9C01220F331F220F1B
:1022E000331F220F331F820F931FFC01ED55FF4B4D
:1022F0008381E82EFF242D813E81C901880F991F1B
:10230000820F931F9C01220F331F220F331F220FB6
:10231000331F820F931FFC01ED55FF4B8481C82EA4
:10232000DD242D813E81C901880F991F820F931FE3
:102330009C01220F331F220F331F220F331F820FE6
:10234000931FFC01ED55FF4B8581A82EBB242D81E9
:102350003E81C901880F991F820F931F9C01220F94
:10236000331F220F331F220F331F820F931FFC01D5
:10237000ED55FF4B8681882E99242D813E81C90120
:10238000880F991F820F931F9C01220F331F220F6A
:10239000331F220F331F820F931FFC01ED55FF4B9C
:1023A0008781282F30E08DB79EB744978DBF9EBFA1
:1023B000EDB7FEB73196408351838D819E81828334
:1023C000938364837583A683B78300871187E2862E
:1023D000F386C486D586A686B786808A918A228BA4
:1023E000338B0E942B78EDB7FEB77496EDBFFEBF1E
:1023F0008D819E8101968D839E838D819E81EFE9E3
:10240000F0E4208131818217930708F41ACF1FCAA4
:102410000E9452671CCA81E080937B3818CA81E011
:1024200080937E3814CA8DE792E00F920F92EDB739
:10243000FEB73196808391830E942B780F900F9086
:102440000E94C7478C838C8182958F70882F90E083
:102450009C01220F331FC901880F991F880F991FF4
:10246000820F931F982F8C818F70890F0E940D3BD4
:10247000EEC98BE592E00F920F92EDB7FEB7319661
:10248000808391830E942B780F900F900E94C74702
:102490008B838B8182958F70882F90E09C01220F17
:1024A000331FC901880F991F880F991F820F931F2F
:1024B000982F8B818F70890F0E94DE38C8C91A82CD
:1024C00020E030E0CE010D96FC01E20FF31F1082F8
:1024D00083E292E00F920F92EDB7FEB731968083C0
:1024E00091830E942B780F900F900E9450648983F3
:1024F00089818032D0F08A81282F30E0CE010D967C
:10250000FC01E20FF31F898180838A818F5F8A83B8
:102510008A81282F30E0CE010D96FC01E20FF31FD7
:10252000108289810E94A064E0CF89818D3009F0FA
:102530008EC920E232E08981882F90E000D00F928E
:10254000EDB7FEB7319620833183828393830E9457
:102550002B780F900F900F900F908A81282F30E0EA
:10256000CE010D96FC01E20FF31F8DE080838A817E
:102570008F5F8A838A81282F30E0CE010D96FC017F
:10258000E20FF31F8AE080838A818F5F8A838A81CA
:10259000282F30E0CE010D96FC01E20FF31F1082D0
:1025A000CE010D960E94C73852C90E946C3C4FC99B
:1025B00081E080937F384BC98DE092E00F920F92BB
:1025C000EDB7FEB73196808391830E942B780F90F0
:1025D0000F908FE690E60E94195489EF91E00F92D8
:1025E0000F92EDB7FEB73196808391830E942B78CE
:1025F0000F900F9085E790E60E94195484EF91E0C8
:102600000F920F92EDB7FEB73196808391830E94AF
:102610002B780F900F901BC90E94A35418C90E94D9
:102620005A5615C90E944B5712C9DF93CF930F9288
:102630000F92CDB7DEB789839A8389819A810E94F0
:1026400026130F900F90CF91DF910895DF93CF93D2
:102650000F920F92CDB7DEB789839A8399818A81D1
:102660000F900F90CF91DF910895DF93CF9300D01B
:102670000F92CDB7DEB769837A838B839C832981E0
:102680003A81922F832FCC01A0E0B0E0BC01552706
:10269000442789819A81AB81BC81CD01AA27BB27C0
:1026A0009C01922F832FCC01A0E0B0E0842B952BCE
:1026B000A62BB72BBC01CD012496CDBFDEBFCF9199
:1026C000DF910895DF93CF93CDB7DEB72E97CDBFBF
:1026D000DEBF8A839B836C837D834E835F832887E1
:1026E0003987DCC08981282F30E02D873E878D8592
:1026F0009E8582309105A1F02D853E8523303105E0
:1027000099F08D859E858130910589F5109257232A
:10271000109258231092562381E080935A23BEC012
:1027200081E080935623BAC0EC81FD812081318104
:102730008E819F818217930718F410925A23AEC09E
:10274000EA81FB818081EC81FD8120813181488596
:102750005985B9010E94BF14982F80915923981769
:1027600009F09CC010925A2391E09C879FC08091F1
:102770005623882331F0898190E18927898310923B
:10278000562380915A23282F30E02A873B878A8559
:102790009B858230910561F12A853B852330310587
:1027A0005CF48A859B85009709F478C02A853B856F
:1027B0002130310599F070C08A859B858430910560
:1027C00009F444C02A853B852430310504F18A850B
:1027D0009B858530910509F442C05EC08981EA81FC
:1027E000FB81808380915A238F5F80935A2356C048
:1027F0008981882F90E0982F8827EC81FD81808344
:10280000918380915A238F5F80935A2347C0EC8134
:10281000FD81208131818981882F90E0820F931F73
:10282000EC81FD8180839183EC81FD812081318168
:102830008E819F818217930718F410925A232EC01D
:1028400080915A238F5F80935A2328C08981809377
:10285000592380915A238F5F80935A231FC0EC81A4
:10286000FD812081318180915723909158238217D7
:102870009307A0F420915723309158238885998598
:10288000FC01E20FF31F89818083C90101968093C7
:1028900057239093582302C010925A23CE010196D9
:1028A0000E942615882309F01DCF1C868C852E9644
:1028B000CDBFDEBFCF91DF910895DF93CF93CDB72A
:1028C000DEB72797CDBFDEBF8B836C837D834E83BE
:1028D0005F8381E061E00E94FD1499230CF449C0FC
:1028E00080E06B810E94FD1499230CF442C08C811E
:1028F0009D81892F9927982F80E0692F0E94FD14D0
:102900009923BCF19C8180E0692F0E94FD149923DA
:1029100084F12C813D814E815F818B81B9010E94C0
:10292000BF14982F80E0692F0E94FD1499230CF1A9
:1029300019821A8213C029813A818E819F81FC01FC
:10294000E20FF31F908180E0692F0E94FD1499230C
:1029500084F089819A81019689839A8329813A81B9
:102960008C819D812817390730F381E063E00E9454
:10297000FD142796CDBFDEBFCF91DF910895DF9381
:10298000CF93CDB7DEB72897CDBFDEBF8C836D83E5
:102990007E834F835887198299818C818927898307
:1029A0008D819E81892F9927982F898189278983F5
:1029B0009D818981892789831A821B8210C02A817F
:1029C0003B818F819885FC01E20FF31F9081898103
:1029D000892789838A819B8101968A839B832A81A7
:1029E0003B818D819E812817390748F3898128967C
:1029F000CDBFDEBFCF91DF910895DF93CF9300D09D
:102A00000F92CDB7DEB789836A838981882389F4E1
:102A10008A81803170F49A8180E189278A8382E0FB
:102A20000E94C76099232CF48FEF9FEF8B839C83C8
:102A300005C08A810E94C7608B839C838B819C81A7
:102A40002496CDBFDEBFCF91DF910895DF93CF9362
:102A50000F920F92CDB7DEB789839A8389819A81CD
:102A60000E9442600F900F90CF91DF910895DF9305
:102A7000CF9300D0CDB7DEB78A839B831982EA81DA
:102A8000FB8180818A3330F4EA81FB81808180532D
:102A9000898305C0EA81FB8180818753898389818D
:102AA0008295807F89838A819B8101968A839B831B
:102AB000EA81FB8180818A3348F4EA81FB8180814D
:102AC0008053982F8981892B898308C0EA81FB81F3
:102AD00080818753982F8981892B898389812396C7
:102AE000CDBFDEBFCF91DF910895DF93CF93CDB7F8
:102AF000DEB76497CDBFDEBF6F87788B898B9A8BEB
:102B00004B8B5C8B8F85988981709070882399F0AE
:102B10002F8538898B899C89FC01E20FF31F108275
:102B20008F859889A989BA890196A11DB11D8F87C2
:102B3000988BA98BBA8B8B899C89FC01BE9680816E
:102B4000882F90E0382F22278B899C89FC01BF9623
:102B50008081882F90E0822B932BCC01A0E0B0E005
:102B60008B879C87AD87BE878B899C89FC013496B7
:102B70008081882F90E0382F22278B899C89FC0147
:102B800035968081882F90E0822B932BCC01A0E09A
:102B9000B0E08F839887A987BA878B899C89FC01CD
:102BA00036968081882F90E0A0E0B0E08B839C83F4
:102BB000AD83BE832F81388549855A858B819C8161
:102BC000AD81BE81820F931FA41FB51F8B879C8789
:102BD000AD87BE878B899C89089689839A834FC06D
:102BE000E981FA818081882F90E0382F222789811E
:102BF0009A81FC0131968081882F90E0822B932B63
:102C0000CC01A0E0B0E08B839C83AD83BE832B8599
:102C10003C854D855E858B819C81AD81BE81820F17
:102C2000931FA41FB51F8B879C87AD87BE8717C0D6
:102C30008B859C85AD85BE859C01AD014070507033
:102C40008B859C85AD85BE85CD01AA27BB27820FCC
:102C5000931FA41FB51F8B879C87AD87BE878B856D
:102C60009C85AD85BE85CD01AA27BB270097A10510
:102C7000B105F1F689819A81029689839A832F851D
:102C800038898B899C89280F391F89819A818217FD
:102C9000930708F4A5CF8B859C8580959095CC01F2
:102CA000A0E0B0E08B879C87AD87BE878B859C8535
:102CB0006496CDBFDEBFCF91DF9108950F931F9330
:102CC000DF93CF93CDB7DEB7C95DD040CDBFDEBFB8
:102CD000FE01E153FF4F80839183FE01EF52FF4FCE
:102CE00060837183FE01ED52FF4F20833183428365
:102CF0005383FE01E952FF4F0083118380E68F83E7
:102D0000188619861A86FE01ED52FF4F8081918147
:102D1000A281B3810896A11DB11D892F9A2FAB2FD7
:102D2000BB278B87FE01ED52FF4F8081885F8C8728
:102D300081E18D8780E48E87CE0107960896FE019B
:102D4000E153FF4F20813181B90140E150E00E9401
:102D5000BA77CE0107964896FE01EF52FF4F2081C9
:102D60003181B90140E150E00E94BA7783ED8FA72D
:102D70008DEE88AB87E089AB81E58AABFE01ED5231
:102D8000FF4F80819181A281B3810896A11DB11D61
:102D9000892F9A2FAB2FBB278BABFE01ED52FF4F34
:102DA0008081885F8CAB1DAA1EAAFE01ED52FF4FE9
:102DB00040815181CE010796C096FE01E952FF4F36
:102DC00020813181B9010E94BA779E012D523F4F77
:102DD000FE01ED52FF4F80819181A281B381C096A7
:102DE000A11DB11DF90180839183A283B383FE01EC
:102DF000ED52FF4F80819181A281B381FE01E952A2
:102E0000FF4F20813181BC01CD01A9010E947515C0
:102E10008D839E838D819E81892F99278DAB8D8196
:102E20008EAB8091052090910620873091050CF49F
:102E300043C019821A821B821C8225C089819A8113
:102E4000FE013796E80FF91F8081282F30E000D06F
:102E50000F92EDB7FEB731968DE290E280839183B9
:102E6000228333830E9419780F900F900F900F9058
:102E700089819A81AB81BC810196A11DB11D898395
:102E80009A83AB83BC83FE01ED52FF4F29813A81C7
:102E90004B815C8180819181A281B38128173907A0
:102EA0004A075B0758F22091B7383091B8388AE06A
:102EB00090E0B9010E94ED77FE01ED52FF4F808155
:102EC0009181A281B3819E01295F3F4FBC01CD0159
:102ED000A9010E945526882369F1809105209091CF
:102EE000062083309105FCF02091B7383091B83836
:102EF00083E390E0B9010E94ED7786EF94E00F92B2
:102F00000F92EDB7FEB73196808391830E942B78A4
:102F10000F900F902091B7383091B8388AE090E048
:102F2000B9010E94ED77F1E0C752DF4FF883C95D28
:102F3000D04005C0C752DF4F1882C95DD040C7528C
:102F4000DF4F8881C95DD040C752DF4FCDBFDEBFA4
:102F5000CF91DF911F910F9108950F931F93DF93EE
:102F6000CF93CDB7DEB76B97CDBFDEBF6D8B7E8BBA
:102F70008F8B988F498F2A8F8091E2378A3019F092
:102F800081E08B8F39C019828DE18A830E9495760A
:102F90008F778B838D899E89AF89B88D8B2F9927E9
:102FA000AA27BB278C838D899E89AF89B88DCD01D7
:102FB000AA27BB278D838D899E89AF89B88D892FDC
:102FC0009A2FAB2FBB278E838D898F83898D88871E
:102FD000198684E08A878A8D8B8782E390E222E5D6
:102FE00030E2B9012BE030E040E050E0FE013196E4
:102FF0008F010E945E168B8F8B8D6B96CDBFDEBFCF
:10300000CF91DF911F910F9108950F931F93DF933D
:10301000CF93CDB7DEB76C97CDBFDEBF8D8B4E8B18
:103020005F8B688F798F2A8F0B8F8091E2378A3080
:1030300019F081E08C8F4FC08D89882F90E0880F28
:10304000991FFC01EE58FF4D8081809370208D897F
:10305000882F90E0880F991FFC01ED58FF4D80816B
:103060008093712019828DE18A830E9495768F77F3
:103070008B838E899F89A88DB98D8B2F9927AA273D
:10308000BB278C838E899F89A88DB98DCD01AA27F6
:10309000BB278D838E899F89A88DB98D892F9A2F03
:1030A000AB2FBB278E838E898F838A8D8887198665
:1030B00084E08A878B8D8B8782E390E222E630E280
:1030C000B9012BE030E040E050E0FE0131968F0185
:1030D0000E945E168C8F8C8D6C96CDBFDEBFCF911B
:1030E000DF911F910F9108950F931F93DF93CF935B
:1030F000CDB7DEB76797CDBFDEBF8091E2378A30AC
:1031000019F081E08F8B20C081E08A8383E089837E
:103110001B8280E18C830E9495768F778D838A81D4
:103120008E8389818F8381E0888782E490E22BE619
:1031300038E3FE013396B90126E030E040E050E08C
:103140008F010E945E168F8B8F896796CDBFDEBF81
:10315000CF91DF911F910F9108950F931F93DF93EC
:10316000CF93CDB7DEB76A97CDBFDEBF8F8B988F79
:10317000698F8091E2378A3019F081E08A8F27C009
:1031800081E08A8384E089831B8280E18C830E94B2
:1031900095768F778D838A818E8389818F838F89BE
:1031A000988D892F992788878F898987898D8A8724
:1031B00082E490E22BE638E3FE013396B90128E081
:1031C00030E040E050E08F010E945E168A8F8A8DC9
:1031D0006A96CDBFDEBFCF91DF911F910F91089509
:1031E000AF92BF92CF92DF92EF92FF920F931F9315
:1031F000DF93CF93CDB7DEB7C054D040CDBFDEBF95
:103200006AAF7BAF8CAF9DAF4EAF5FAF8EAD9FAD62
:10321000FC01BE968081882F90E0382F22278EAD4A
:103220009FADFC01BF968081882F90E0822B932B6D
:103230008C8F9D8F8EAD9FADFC0134968081882F41
:1032400090E0382F22278EAD9FADFC01359680810E
:10325000882F90E0822B932B888F998F8EAD9FAD16
:10326000FC0136968081882F90E08E8B9F8B809119
:10327000052090910620873091050CF4ACC0809118
:10328000052090910620873091055CF12091B73898
:103290003091B83887E390E0B9010E94ED778BED6B
:1032A00096E000D000D0EDB7FEB7319680839183D1
:1032B0008AAD9BADACADBDAD82839383A483B58352
:1032C0000E942B780DB71EB70A5F1F4F0DBF1EBFA0
:1032D0002091B7383091B8388AE090E0B9010E9467
:1032E000ED7780910520909106208730910594F12B
:1032F0002091B7383091B83887E390E0B9010E9447
:10330000ED7788EB96E02DB73EB7285030402DBFC3
:103310003EBFEDB7FEB73196808391838E899F893A
:1033200082839383888D998D848395838C8D9D8DE5
:10333000868397830E942B788DB79EB708968DBFA2
:103340009EBF2091B7383091B8388AE090E0B9013B
:103350000E94ED771A8A1B8A1C8A1D8A26C02A8938
:103360003B898EAD9FADFC01E20FF31F8081282FBA
:1033700030E000D00F92EDB7FEB731968DE290E2CB
:1033800080839183228333830E9419780F900F905A
:103390000F900F908A899B89AC89BD890196A11DE8
:1033A000B11D8A8B9B8BAC8BBD8B2A893B894C8949
:1033B0005D898AAD9BADACADBDAD281739074A0715
:1033C0005B0768F22091B7383091B8388AE090E016
:1033D000B9010E94ED778AAD9BADACADBDAD2EAD10
:1033E0003FADBC01CD01A9010E9475158A8F9B8F4D
:1033F0008A8D9B8D009791F18C8D9D8D009771F139
:103400008091052090910620873091050CF495C697
:103410002091B7383091B83887E390E0B9010E9425
:10342000ED778BE996E000D00F92EDB7FEB73196BD
:10343000808391838A8D9B8D828393830E942B78D6
:103440000F900F900F900F902091B7383091B838AF
:103450008AE090E0B9010E94ED776FC68EAD9FAD16
:10346000FC0136968081813109F001C68EAD9FAD99
:10347000489664E270E440E150E00E94AD77009726
:1034800009F086C38EAD9FAD8A5B9F4F0E943715B2
:103490008093E3378EAD9FAD885B9F4F0E943715B9
:1034A0008093E4378EAD9FAD865B9F4F0E943715AA
:1034B0008093E5378EAD9FAD845B9F4F0E9437159B
:1034C0008093E6378EAD9FAD825B9F4F0E9437158C
:1034D0008093E7378EAD9FAD805B9F4F0E9437157D
:1034E0008093E8378EAD9FAD8E5A9F4F0E9437155F
:1034F0008093E9378EAD9FAD8C5A9F4F0E94371550
:103500008093EA37809105209091062087309105BD
:103510000CF456C02091B7383091B83887E390E06A
:10352000B9010E94ED7724E636E08091E337482F19
:1035300050E08091E437682F70E08091E537A82F44
:10354000B0E08091E637082F10E08091E737E82E51
:10355000FF248091E837C82EDD248091E937A82E1A
:10356000BB248091EA37882F90E0EDB7FEB77297C1
:10357000EDBFFEBFEDB7FEB73196208331834283A6
:10358000538364837583A683B78300871187E2869C
:10359000F386C486D586A686B786808B918B0E94DB
:1035A0002B780DB71EB70E5E1F4F0DBF1EBF2091AB
:1035B000B7383091B8388AE090E0B9010E94ED77D1
:1035C0008EAD9FAD9C01285F3F4FCE014E96B90155
:1035D00040E150E00E94BA778EAD9FADAC01485FEC
:1035E0005F4F8EAD9FAD9C01285E3F4FCA01B90170
:1035F00040E150E00E94BA778EAD9FAD48969E01A3
:10360000225E3F4FB90140E150E00E94BA778EAD93
:103610009FAD9C01285D3F4FCE014E96B90142E01F
:1036200050E00E94BA778EAD9FADAC01485D5F4F10
:103630008EAD9FAD9C01265D3F4FCA01B90142E0AE
:1036400050E00E94BA778EAD9FAD8A969E01225EB1
:103650003F4FB90142E050E00E94BA778EAD9FAD76
:10366000FC01BE9610828EAD9FADFC01BF9610820C
:103670001D861E861F86188A198A29C02E853F85B9
:10368000C901880F991F820F931F9C01220F331FBE
:10369000220F331F220F331F820F931F8D559F4B15
:1036A00023EE37E3B90148E050E00E94AD77009780
:1036B00019F481E08D871BC08E859F85A889B98903
:1036C0000196A11DB11D8E879F87A88BB98BEFE94D
:1036D000F0E4808191819C0140E050E08E859F85DF
:1036E000A889B98982179307A407B50738F28D8591
:1036F000882331F4E0E0F0E487A9882309F4B9C015
:10370000809105209091062087309105FCF0209152
:10371000B7383091B83887E390E0B9010E94ED776F
:1037200086E596E00F920F92EDB7FEB73196808353
:1037300091830E942B780F900F902091B738309191
:10374000B8388AE090E0B9010E94ED778EAD9FAD68
:10375000FC01F09682E080838EAD9FAD8C010F5C02
:103760001F4F0E949576D8018C938EAD9FADFC01C2
:10377000EC5BFF4F8AE180838EAD9FADFC01EB5B7C
:10378000FF4F88E180838EAD9FADFC01EA5BFF4F68
:1037900010828EAD9FADFC01E95BFF4F10828EADB4
:1037A0009FADFC01E85BFF4F8DE680838EAD9FAD42
:1037B000FC01E75BFF4F89EE80838EAD9FADFC017E
:1037C000E65BFF4F84E680838EAD9FADFC01E55B39
:1037D000FF4F82E180831E861F86188A198A3AC0AD
:1037E0008E859F85880F991F9C01245B3F4F8EAD6E
:1037F0009FADFC01E20FF31F10828E859F85880F1D
:10380000991F9C01235B3F4F8EAD9FADBC01620FA2
:10381000731F27E030E040E050E08E859F85A88947
:10382000B98979018A01E81AF90A0A0B1B0BD80138
:10383000C701FC01ED51F84C8081DB018C938E8532
:103840009F85A889B9890196A11DB11D8E879F8783
:10385000A88BB98B8E859F85A889B98988309105F9
:10386000A105B10508F4BCCF8CE290E08A8F9B8F54
:1038700088C0809105209091062087309105FCF04A
:103880002091B7383091B83887E390E0B9010E94B1
:10389000ED7788E496E00F920F92EDB7FEB7319680
:1038A000808391830E942B780F900F902091B738DE
:1038B0003091B8388AE090E0B9010E94ED7788E055
:1038C000FE01BE96DF01E82E1D92EA94E9F71B8601
:1038D0001C863EC08B859C85880F991F880F991F79
:1038E000880F991F8551984C9E01225D3F4FB90169
:1038F00048E050E00E94AD77009791F48B859C855D
:10390000880F991F880F991F880F991F8551984C10
:1039100023EE37E3B90148E050E00E94BA771EC0B9
:103920008B859C85880F991F880F991F880F991F79
:103930008551984C23EE37E3B90148E050E00E94EE
:10394000AD77009759F08B859C8501968B879C8776
:103950008B859C85803191050CF4BCCF8EAD9FADDD
:10396000FC01F09683E080838EAD9FAD8C010F5CEF
:103970001F4F0E949576D8018C9384E190E08A8F46
:103980009B8F1E861F86188A198A19C08E859F856F
:103990009C012C5C3F4F8EAD9FAD8C01020F131F1D
:1039A0000E949576F80180838E859F85A889B989C4
:1039B0000196A11DB11D8E879F87A88BB98B8E851F
:1039C0009F85A889B98980319105A105B105F0F2DB
:1039D0008EAD9FADFC01F2968A8D9B8D892F992724
:1039E00080838EAD9FADFC01F3968A8D80838A8D96
:1039F0009B8D08968A8F9B8F8EAD9FADFC01349670
:103A00008A8D9B8D892F992780838EAD9FADFC0178
:103A100035968A8D80838EAD9FADFC01379680E40C
:103A200080838EAD9FADFC01BC968A8D9B8D892FC6
:103A3000992780838EAD9FADFC01BD968A8D8083D2
:103A40008A8D9B8D8896CC01A0E0B0E08AAF9BAFB9
:103A5000ACAFBDAF8AAD9BADACADBDAD2EAD3FAD96
:103A6000BC01CD01A9010E9475158A8F9B8F8EAD77
:103A70009FADFC01BE968A8D9B8D892F99278083EF
:103A80008EAD9FADFC01BF968A8D8083809105200D
:103A900090910620873091050CF441C01F82188652
:103AA00019861A8626C02F8138858EAD9FADFC0100
:103AB000E20FF31F8081282F30E000D00F92EDB786
:103AC000FEB731968DE290E2808391832283338327
:103AD0000E9419780F900F900F900F908F8198850A
:103AE000A985BA850196A11DB11D8F839887A987E5
:103AF000BA872F81388549855A858AAD9BADACAD93
:103B0000BDAD281739074A075B0768F22091B7381F
:103B10003091B8388AE090E0B9010E94ED778AAD23
:103B20009BADACADBDAD2EAD3FADBC01CD01A9018E
:103B30000E945526882309F400C3809105209091A6
:103B4000062083309105FCF02091B7383091B838C9
:103B500083E390E0B9010E94ED7789E296E00F924D
:103B60000F92EDB7FEB73196808391830E942B7838
:103B70000F900F902091B7383091B8388AE090E0DC
:103B8000B9010E94ED77F1E02196FFAF2197D8C2ED
:103B90008EAD9FADFC01789680818F3F09F0BCC04F
:103BA0008EAD9FAD9C01285F3F4F82E390E2B9014B
:103BB00040E150E00E94AD77009709F485C0809104
:103BC00005209091062087309105FCF02091B738B0
:103BD0003091B83887E390E0B9010E94ED7788E131
:103BE00096E00F920F92EDB7FEB7319680839183E6
:103BF0000E942B780F900F902091B7383091B838F1
:103C00008AE090E0B9010E94ED77809105209091C3
:103C1000062087309105FCF02091B7383091B838F4
:103C200087E390E0B9010E94ED778BE096E00F9278
:103C30000F92EDB7FEB73196808391830E942B7867
:103C40000F900F902091B7383091B8388AE090E00B
:103C5000B9010E94ED778AAD9BADACADBDAD2EAD87
:103C60003FADBC01CD01A9010E946A47882309F438
:103C700064C2809105209091062083309105FCF06C
:103C80002091B7383091B83883E390E0B9010E94B1
:103C9000ED778FEE95E00F920F92EDB7FEB731966C
:103CA000808391830E942B780F900F902091B738DA
:103CB0003091B8388AE090E0B9010E94ED7701E0D8
:103CC00021960FAF21973CC280910520909106204C
:103CD000873091050CF431C22091B7383091B83853
:103CE00087E390E0B9010E94ED7788ED95E00F92AF
:103CF0000F92EDB7FEB73196808391830E942B78A7
:103D00000F900F902091B7383091B8388AE090E04A
:103D1000B9010E94ED7711C28EAD9FADFC013896BE
:103D200080818E3FA1F58EAD9FADFC0139968081DB
:103D3000882F90E0807C90708038910541F58091CB
:103D4000052090910620873091050CF4F6C1209152
:103D5000B7383091B83887E390E0B9010E94ED7729
:103D60008AEC95E00F920F92EDB7FEB73196808303
:103D700091830E942B780F900F902091B73830914B
:103D8000B8388AE090E0B9010E94ED77D6C18EADD7
:103D90009FAD489622E430E2B90140E150E00E9434
:103DA000AD77009709F004C18EAD9FAD08962BE664
:103DB00038E3B90140E150E00E94AD77009709F087
:103DC000CFC0809105209091062087309105FCF0AE
:103DD0002091B7383091B83887E390E0B9010E945C
:103DE000ED778DEA95E00F920F92EDB7FEB7319621
:103DF000808391830E942B780F900F902091B73889
:103E00003091B8388AE090E0B9010E94ED77888D52
:103E1000998D8A30910508F490C18EAD9FADFC015B
:103E2000F1968081882F90E08131910509F085C15C
:103E300081E08EAB84E08FAB18AE8BE489AF8EADA2
:103E40009FADC3969E012A5C3F4FB90144E050E00C
:103E50000E94AD77009709F070C18EAD9FADFC0157
:103E6000F7968081882F90E08D839E838D819E813F
:103E7000982F88278D839E838EAD9FADFC01F89689
:103E80008081282F30E08D819E81822B932B8D8322
:103E90009E838EAD9FADFC01F9968081882F90E0C6
:103EA0008B839C838B819C81982F88278B839C8319
:103EB0008EAD9FADFC01FA968081282F30E08B817A
:103EC0009C81822B932B8B839C83888D998D8983F6
:103ED0009A8389819A81439789839A838091052067
:103EE000909106208730910594F12091B738309158
:103EF000B83887E390E0B9010E94ED7788E795E054
:103F00002DB73EB7285030402DBF3EBFEDB7FEB7AE
:103F10003196808391838D819E81828393838B816F
:103F20009C818483958389819A81868397830E946B
:103F30002B788DB79EB708968DBF9EBF2091B7385E
:103F40003091B8388AE090E0B9010E94ED778EADEB
:103F50009FADCB9629813A81B9010E94C64CEDC034
:103F60008091052090910620873091050CF4E5C0E2
:103F70002091B7383091B83887E390E0B9010E94BA
:103F8000ED7787E695E00F920F92EDB7FEB7319689
:103F9000808391830E942B780F900F902091B738E7
:103FA0003091B8388AE090E0B9010E94ED77C5C041
:103FB000809105209091062087309105FCF020919A
:103FC000B7383091B83887E390E0B9010E94ED77B7
:103FD0008AE595E00F920F92EDB7FEB73196808398
:103FE00091830E942B780F900F902091B7383091D9
:103FF000B8388AE090E0B9010E94ED778AAD9BADB8
:10400000ACADBDAD2EAD3FADBC01CD01A9010E944F
:104010006A47882309F491C0809105209091062079
:1040200083309105FCF02091B7383091B83883E3A4
:1040300090E0B9010E94ED778EE395E00F920F9228
:10404000EDB7FEB73196808391830E942B780F9055
:104050000F902091B7383091B8388AE090E0B901DC
:104060000E94ED7791E021969FAF219769C08EADB8
:104070009FADFC01369680818A3309F05EC0809145
:1040800005209091062087309105FCF02091B738EB
:104090003091B83887E390E0B9010E94ED7781E371
:1040A00095E00F920F92EDB7FEB731968083918322
:1040B0000E942B780F900F902091B7383091B8382C
:1040C0008AE090E0B9010E94ED778AAD9BADACAD7E
:1040D000BDAD2EAD3FADBC01CD01A9010E946A4727
:1040E000882359F180910520909106208330910515
:1040F000FCF02091B7383091B83883E390E0B901F3
:104100000E94ED7785E195E00F920F92EDB7FEB733
:104110003196808391830E942B780F900F9020918D
:10412000B7383091B8388AE090E0B9010E94ED7755
:10413000A1E02196AFAF219703C021961FAE219732
:1041400021968FAD2197C05CDF4FCDBFDEBFCF91F1
:10415000DF911F910F91FF90EF90DF90CF90BF9074
:10416000AF9008952F923F924F925F926F927F92FD
:104170008F929F92AF92BF92CF92DF92EF92FF9277
:104180000F931F93DF93CF93CDB7DEB72C97CDBF9F
:10419000DEBF89839A836B837C83E981FA81808186
:1041A000282F30E0E981FA818181482F50E0E981B0
:1041B000FA818281682F70E0E981FA818381A82FDA
:1041C000B0E0E981FA818481082F10E0E981FA8169
:1041D0008581E82EFF24E981FA818681C82EDD24BD
:1041E000E981FA818781A82EBB24E981FA81808543
:1041F000882E9924E981FA818185682E7724E981C6
:10420000FA818285482E5524E981FA818385282EFA
:104210003324E981FA818485E82FF0E0EB87FC877D
:10422000E981FA818585E82FF0E0E987FA87E9815D
:10423000FA818685E82FF0E0EF83F887E981FA813B
:104240008785E82FF0E0ED83FE838DB79EB78697D4
:104250008DBF9EBFEDB7FEB731968B819C81808369
:1042600091838EE290E08283938382E990E284835B
:104270009583268337834087518762877387A48716
:10428000B58706871787E08AF18AC28AD38AA48A0B
:10429000B58A868A978A608E718E428E538E248E5E
:1042A000358E8B859C85868F978F89859A8580A38F
:1042B00091A38F81988582A393A38D819E8184A3EE
:1042C00095A30E944E78EDB7FEB7B696EDBFFEBF40
:1042D0002C96CDBFDEBFCF91DF911F910F91FF9044
:1042E000EF90DF90CF90BF90AF909F908F907F9096
:1042F0006F905F904F903F902F900895CF92DF92F4
:10430000EF92FF920F931F93DF93CF930F92CDB74E
:10431000DEB780916C238170882309F45FC180919E
:10432000602390916123A0916223B0916323803038
:1043300021E0920721E0A20720E0B20708F44EC175
:104340008091052090910620863091052CF12091D6
:10435000B7383091B83886E390E0B9010E94ED7724
:1043600083EC97E000D00F92EDB7FEB731968083D3
:10437000918380E190E0828393830E942B780F9059
:104380000F900F900F902091B7383091B8388AE095
:1043900090E0B9010E94ED77809105209091062070
:1043A0008630910544F12091B7383091B83886E3D2
:1043B00090E0B9010E94ED7728EA37E0E0E0F0E410
:1043C0008081882F90E000D00F92EDB7FEB7319634
:1043D00020833183828393830E942B780F900F90E8
:1043E0000F900F902091B7383091B8388AE090E064
:1043F000B9010E94ED7780910520909106208630CA
:10440000910544F12091B7383091B83886E390E0B7
:10441000B9010E94ED772DE837E0E0E0F0E481811A
:10442000882F90E000D00F92EDB7FEB73196208331
:104430003183828393830E942B780F900F900F908B
:104440000F902091B7383091B8388AE090E0B901E8
:104450000E94ED778091052090910620863091058D
:104460004CF12091B7383091B83886E390E0B9012B
:104470000E94ED7700E717E0E0E0F0E482819381AD
:104480000E94562300D00F92EDB7FEB731960083FD
:104490001183828393830E942B780F900F900F904B
:1044A0000F902091B7383091B8388AE090E0B90188
:1044B0000E94ED778091052090910620863091052D
:1044C00094F12091B7383091B83886E390E0B90183
:1044D0000E94ED7702E517E0E0E0F0E48481958149
:1044E000A681B781BC01CD010E946523DC01CB010F
:1044F00000D000D0EDB7FEB73196008311838283E0
:104500009383A483B5830E942B788DB79EB70696BC
:104510008DBF9EBF2091B7383091B8388AE090E0C7
:10452000B9010E94ED778091052090910620863098
:1045300091050CF44AC02091B7383091B83886E321
:1045400090E0B9010E94ED770F2EFDE2CF2EF7E04B
:10455000DF2EF02DE0E0F0E480859185A285B38523
:10456000BC01CD010E9465237B018C01E0E0F0E4F9
:1045700084859585A685B785BC01CD010E946523FC
:10458000DC01CB01EDB7FEB73A97EDBFFEBFEDB74B
:10459000FEB73196C082D182E282F3820483158312
:1045A00086839783A087B1870E942B782DB73EB76B
:1045B000265F3F4F2DBF3EBF2091B7383091B838AE
:1045C0008AE090E0B9010E94ED7786E660E170E054
:1045D00040E050E40E945D1419825DC08091052086
:1045E00090910620833091050CF453C02091B73888
:1045F0003091B83883E390E0B9010E94ED7747EF3E
:1046000056E08091602390916123A0916223B09144
:104610006323CD01AA27BB27BC016F707070809106
:10462000602390916123A0916223B0916323892F2D
:104630009A2FAB2FBB279C012F7030708091602385
:1046400090916123A0916223B09163238F70907049
:10465000EDB7FEB73897EDBFFEBFEDB7FEB73196A9
:104660004083518362837383248335838683978356
:104670000E942B782DB73EB7285F3F4F2DBF3EBF1E
:104680002091B7383091B8388AE090E0B9010E94A3
:10469000ED7731E0398389810F90CF91DF911F91C0
:1046A0000F91FF90EF90DF90CF900895DF93CF931D
:1046B0000F920F92CDB7DEB789839A8399818A8151
:1046C0000F900F90CF91DF910895DF93CF9300D09B
:1046D0000F92CDB7DEB769837A838B839C83898100
:1046E0009A81AB81BC81BC01CD010E948123DC0198
:1046F000CB01BC01CD012496CDBFDEBFCF91DF91B0
:104700000895DF93CF9300D00F92CDB7DEB76983C2
:104710007A838B839C8329813A81922F832FCC01CA
:10472000A0E0B0E0BC015527442789819A81AB8184
:10473000BC81CD01AA27BB279C01922F832FCC01DE
:10474000A0E0B0E0842B952BA62BB72BBC01CD01AC
:104750002496CDBFDEBFCF91DF910895DF93CF9335
:10476000CDB7DEB7CC55D040CDBFDEBF80910520A0
:1047700090910620873091052CF12091B738309127
:10478000B83887E390E0B9010E94ED7786EE97E0B4
:1047900000D00F92EDB7FEB731968083918384E20B
:1047A00090E0828393830E942B780F900F900F905C
:1047B0000F902091B7383091B8388AE090E0B90175
:1047C0000E94ED778BE664E270E040E150E40E94E5
:1047D0005D1480E0C45ADF4FCDBFDEBFCF91DF91C3
:1047E0000895DF93CF930F92CDB7DEB78091292044
:1047F00090912A20A0912B20B0912C208F3F2FEF59
:1048000092072FEFA2072FEFB20709F43FC0809164
:10481000292090912A20A0912B20B0912C208983CF
:1048200080910520909106208730910534F12091E8
:10483000B7383091B83887E390E0B9010E94ED773E
:104840002EEA38E08981882F90E000D00F92EDB7F2
:10485000FEB7319620833183828393830E942B7825
:104860000F900F900F900F902091B7383091B8387B
:104870008AE090E0B9010E94ED7781E761E070E0A5
:104880009E012F5F3F4FA9010E945D1480E00F90B1
:10489000CF91DF910895DF93CF93CDB7DEB78091AD
:1048A000602390916123A0916223B09163238030B3
:1048B00021E0920721E0A20720E0B207B0F1809149
:1048C0000520909106208730910544F12091B7385A
:1048D0003091B83887E390E0B9010E94ED772FEC72
:1048E00038E0E0E0F0E485A9882F90E000D00F9256
:1048F000EDB7FEB7319620833183828393830E9484
:104900002B780F900F900F900F902091B738309127
:10491000B8388AE090E0B9010E94ED778EE661E058
:1049200070E045E350E40E945D1480E0CF91DF9198
:104930000895DF93CF93CDB7DEB780916023909138
:104940006123A0916223B0916323803024E0920719
:1049500021E0A20720E0B20708F468C0809105209A
:10496000909106208730910544F12091B73830911D
:10497000B83887E390E0B9010E94ED7722E239E090
:10498000E0E0F0E484A9882F90E000D00F92EDB72A
:10499000FEB7319620833183828393830E942B78E4
:1049A0000F900F900F900F902091B7383091B8383A
:1049B0008AE090E0B9010E94ED7782E761E070E063
:1049C00044E350E40E945D14E0E0F0E486A988230B
:1049D00069F1809105209091062087309105FCF0C7
:1049E0002091B7383091B83887E390E0B9010E9440
:1049F000ED7787EF98E00F920F92EDB7FEB7319603
:104A0000808391830E942B780F900F902091B7386C
:104A10003091B8388AE090E0B9010E94ED7783E7E1
:104A200060E070E040E050E00E945D1480E0CF91D3
:104A3000DF910895DF93CF93CDB7DEB780915B23ED
:104A4000882371F58091052090910620873091058B
:104A5000FCF02091B7383091B83887E390E0B90185
:104A60000E94ED7788E999E00F920F92EDB7FEB7BB
:104A70003196808391830E942B780F900F90209124
:104A8000B7383091B8388AE090E0B9010E94ED77EC
:104A900087E660E070E040E050E00E945D1492C064
:104AA00080915B23813071F58091052090910620E3
:104AB00087309105FCF02091B7383091B83887E302
:104AC00090E0B9010E94ED778DE799E00F920F9287
:104AD000EDB7FEB73196808391830E942B780F90BB
:104AE0000F902091B7383091B8388AE090E0B90142
:104AF0000E94ED778FE660E070E040E050E00E94B9
:104B00005D1460C080915B23823071F58091052037
:104B10009091062087309105FCF02091B7383091B4
:104B2000B83887E390E0B9010E94ED778CE599E011
:104B30000F920F92EDB7FEB73196808391830E945A
:104B40002B780F900F902091B7383091B8388AE0C9
:104B500090E0B9010E94ED7780E760E070E040E00E
:104B600050E00E945D142EC0809105209091062097
:104B7000833091053CF12091B7383091B83883E308
:104B800090E0B9010E94ED7724E439E080915B2345
:104B9000882F90E000D00F92EDB7FEB731962083BA
:104BA0003183828393830E942B780F900F900F9014
:104BB0000F902091B7383091B8388AE090E0B90171
:104BC0000E94ED7780E0CF91DF910895DF93CF933E
:104BD000CDB7DEB7809105209091062087309105F2
:104BE000FCF02091B7383091B83887E390E0B901F4
:104BF0000E94ED7788EB99E00F920F92EDB7FEB728
:104C00003196808391830E942B780F900F90209192
:104C1000B7383091B8388AE090E0B9010E94ED775A
:104C200088E660E070E040E050E00E945D1480E0C3
:104C3000CF91DF910895DF93CF93CDB7DEB7809109
:104C400005209091062087309105FCF02091B7381F
:104C50003091B83887E390E0B9010E94ED778EEC8F
:104C600099E00F920F92EDB7FEB731968083918352
:104C70000E942B780F900F902091B7383091B83860
:104C80008AE090E0B9010E94ED7780916C238D7FDE
:104C900080936C2389E660E070E040E050E00E9481
:104CA0005D1480E0CF91DF910895DF93CF9300D022
:104CB00000D0CDB7DEB769837A838B839C834D8325
:104CC0005E8329813A814D815E8185E6B9010E942A
:104CD0005D1480E02696CDBFDEBFCF91DF910895B1
:104CE000DF93CF93CDB7DEB780910520909106205A
:104CF00087309105FCF02091B7383091B83887E3C0
:104D000090E0B9010E94ED778AEE99E00F920F9240
:104D1000EDB7FEB73196808391830E942B780F9078
:104D20000F902091B7383091B8388AE090E0B901FF
:104D30000E94ED778DE660E070E040E050E00E9478
:104D40005D1480E0CF91DF910895DF93CF93CDB7CD
:104D5000DEB7809105209091062087309105FCF008
:104D60002091B7383091B83887E390E0B9010E94BC
:104D7000ED778FEF99E00F920F92EDB7FEB7319676
:104D8000808391830E942B780F900F902091B738E9
:104D90003091B8388AE090E0B9010E94ED7780E068
:104DA00060E070E040E050E00E945D1480E0CF9150
:104DB000DF910895DF93CF93CDB7DEB780910520C3
:104DC0009091062087309105FCF02091B738309102
:104DD000B83887E390E0B9010E94ED778BE19AE063
:104DE0000F920F92EDB7FEB73196808391830E94A8
:104DF0002B780F900F902091B7383091B8388AE017
:104E000090E0B9010E94ED778AE660E070E040E052
:104E100050E00E945D1480E0CF91DF910895DF9310
:104E2000CF9300D000D0CDB7DEB769837A838B8370
:104E30009C834D835E8380916C238870882309F462
:104E400082C08D819E81009741F1809105209091D3
:104E50000620873091050CF476C02091B738309148
:104E6000B83887E390E0B9010E94ED778BE39AE0D0
:104E70000F920F92EDB7FEB73196808391830E9417
:104E80002B780F900F902091B7383091B8388AE086
:104E900090E0B9010E94ED7756C080914E2C909120
:104EA0004F2CA091502CB091512C20916423309123
:104EB00065234091662350916723821B930BA40BBB
:104EC000B50B8B309105A105B105E8F18091052066
:104ED0009091062087309105FCF02091B7383091F1
:104EE000B83887E390E0B9010E94ED7786E39AE055
:104EF0000F920F92EDB7FEB73196808391830E9497
:104F00002B780F900F902091B7383091B8388AE005
:104F100090E0B9010E94ED778DE660E070E040E03E
:104F200050E00E945D1480914E2C90914F2CA091E6
:104F3000502CB091512C8093642390936523A093BF
:104F40006623B093672380E02696CDBFDEBFCF9166
:104F5000DF910895EF92FF920F931F93DF93CF930A
:104F600000D00F92CDB7DEB789838091E237E82E6B
:104F7000FF24EB82FC820B811C810530110509F4B2
:104F800050C12B813C8126303105F4F48B819C810A
:104F90008230910509F4D2C00B811C8103301105C8
:104FA00034F42B813C812130310599F18CC28B8105
:104FB0009C818330910509F401C10B811C8104306F
:104FC000110509F428C17FC22B813C8128303105AD
:104FD00009F49AC18B819C81893091056CF40B8115
:104FE0001C810630110509F44FC12B813C8127300B
:104FF000310509F44FC167C28B819C8189309105CD
:1050000009F43EC20B811C810A30110509F44EC21D
:105010005AC280916C238170882309F084C08091EA
:10502000682390916923A0916A23B0916B23009724
:10503000A105B10531F180910520909106208730BE
:105040009105FCF02091B7383091B83887E390E0B3
:10505000B9010E94ED778EEF9AE00F920F92EDB7B3
:10506000FEB73196808391830E942B780F900F902A
:105070002091B7383091B8388AE090E0B9010E94A9
:10508000ED778091682390916923A0916A23B09174
:105090006B230196A11DB11D809368239093692312
:1050A000A0936A23B0936B23809168239091692326
:1050B000A0916A23B0916B2383309105A105B105BE
:1050C00048F5809105209091062087309105FCF0ED
:1050D0002091B7383091B83887E390E0B9010E9449
:1050E000ED778BEE9AE00F920F92EDB7FEB7319607
:1050F000808391830E942B780F900F902091B73876
:105100003091B8388AE090E0B9010E94ED770E94B2
:10511000A526D9C1109268231092692310926A23A0
:1051200010926B23D0C110926823109269231092C1
:105130006A2310926B2382E08093E237E0E0F0E490
:1051400080859185A285B3850097A105B10551F5AC
:105150001092E237809105209091062082309105CF
:105160000CF4B1C12091B7383091B83882E390E0A7
:10517000B9010E94ED7780EE9AE00F920F92EDB7A1
:10518000FEB73196808391830E942B780F900F9009
:105190002091B7383091B8388AE090E0B9010E9488
:1051A000ED7791C10E947E21882321F483E08093D2
:1051B000E23789C181E08093E23785C1E0E0F0E425
:1051C000E0A0F1A002A113A160E070E080E090E017
:1051D0000E948123DC01CB01E816F9060A071B07B0
:1051E00011F00E94AE238091602390916123A091E1
:1051F0006223B0916323803011E0910711E0A10791
:1052000010E0B10720F084E08093E2375CC185E0D4
:105210008093E23758C10E944B2485E08093E237A7
:1052200052C10E941A258091602390916123A09120
:105230006223B0916323803024E0920721E0A2072B
:1052400020E0B20720F086E08093E2373CC18091F5
:10525000602390916123A0916223B09163238030F9
:1052600031E0930731E0A30730E0B30720F087E097
:105270008093E23728C180916C238D7F80936C23CB
:1052800088E08093E2371FC10E94992487E08093D1
:10529000E23719C180916C238470882369F5898174
:1052A000882309F410C18091052090910620873051
:1052B0009105FCF02091B7383091B83887E390E041
:1052C000B9010E94ED7787EC9AE00F920F92EDB74B
:1052D000FEB73196808391830E942B780F900F90B8
:1052E0002091B7383091B8388AE090E0B9010E9437
:1052F000ED770E94DA26E7C088E08093E23780915C
:105300006C238D7F80936C2380916C238270882323
:1053100009F0ABC08981882309F4D5C08091682346
:1053200090916923A0916A23B0916B230097A10506
:10533000B10531F1809105209091062087309105CB
:10534000FCF02091B7383091B83887E390E0B9018C
:105350000E94ED778BEA9AE00F920F92EDB7FEB7BD
:105360003196808391830E942B780F900F9020912B
:10537000B7383091B8388AE090E0B9010E94ED77F3
:105380008091682390916923A0916A23B0916B2347
:105390000196A11DB11D8093682390936923A0936A
:1053A0006A23B0936B238091682390916923A09125
:1053B0006A23B0916B238A309105A105B10548F5A8
:1053C000809105209091062087309105FCF0209176
:1053D000B7383091B83887E390E0B9010E94ED7793
:1053E00081E99AE00F920F92EDB7FEB73196808374
:1053F00091830E942B780F900F902091B7383091B5
:10540000B8388AE090E0B9010E94ED770E941B262F
:105410005AC0809105209091062083309105FCF0C0
:105420002091B7383091B83883E390E0B9010E94F9
:10543000ED7781E79AE00F920F92EDB7FEB73196C4
:10544000808391830E942B780F900F902091B73822
:105450003091B8388AE090E0B9010E94ED7781E0A0
:105460008093E2370E94E6252EC0109268231092A6
:10547000692310926A2310926B2389E08093E237AC
:105480008091602390916123A0916223B091632366
:10549000803003E0900701E0A00700E0B00710F0C3
:1054A0000E94F1238AE08093E2370DC060E070E053
:1054B00080E090E040E050E00E940F27882319F040
:1054C00011E01A8375C080916C238170882309F4E0
:1054D0006EC080916C238870882309F468C0209185
:1054E0004E2C30914F2C4091502C5091512C80914A
:1054F0005C2390915D23A0915E23B0915F2379019D
:105500008A01E81AF90A0A0B1B0BD801C7018D336F
:105510009105A105B10508F44AC08091052090913C
:105520000620833091050CF43FC02091B7383091AC
:10553000B83883E390E0B9010E94ED7760E47AE047
:1055400020914E2C30914F2C4091502C5091512C49
:1055500080915C2390915D23A0915E23B0915F23A5
:1055600079018A01E81AF90A0A0B1B0BD801C70155
:1055700000D000D0EDB7FEB731966083718382838F
:105580009383A483B5830E942B780DB71EB70A5F5F
:105590001F4F0DBF1EBF2091B7383091B8388AE039
:1055A00090E0B9010E94ED7712E01A8301C01A82DF
:1055B0008A812496CDBFDEBFCF91DF911F910F91DD
:1055C000FF90EF900895DF93CF93CDB7DEB7809132
:1055D00005209091062087309105FCF02091B73886
:1055E0003091B83887E390E0B9010E94ED778AE105
:1055F0009BE00F920F92EDB7FEB7319680839183B7
:105600000E942B780F900F902091B7383091B838C6
:105610008AE090E0B9010E94ED770E94E625E0E083
:10562000F0E480859185A285B3850097A105B10539
:1056300019F41092E23703C081E08093E2378CE6E0
:1056400093E260E070E041E050E00E94C37780E0C8
:105650000E94AA27CF91DF9108950F931F93DF93A4
:10566000CF9300D000D0CDB7DEB769837A838B8328
:105670009C834D835E83109260231092612310926D
:10568000622310926323ED81FE818081882F90E058
:10569000A0E0B0E0AC0133272227809160239091F5
:1056A0006123A0916223B0916323822B932BA42BBF
:1056B000B52B8093602390936123A0936223B093D2
:1056C00063238D819E81FC0131968081882F90E03B
:1056D000982F88279C01442737FD4095542F8091AF
:1056E000602390916123A0916223B0916323822B68
:1056F000932BA42BB52B8093602390936123A093CD
:105700006223B09363238D819E81FC013296808158
:10571000282F30E040E050E0809160239091612399
:10572000A0916223B0916323822B932BA42BB52BE2
:105730008093602390936123A0936223B0936323AB
:1057400007E410E68091602390916123A091622389
:10575000B0916323BC01CD010E948123DC01CB0108
:10576000F80182A393A3A4A3B5A3809105209091EF
:10577000062086309105F4F12091B7383091B83881
:1057800086E390E0B9010E94ED774AE25BE0ED81AB
:10579000FE818081682F70E08D819E81FC013196B1
:1057A0008081282F30E08D819E81FC01329680819E
:1057B000882F90E0EDB7FEB73897EDBFFEBFEDB78D
:1057C000FEB731964083518362837383248335838C
:1057D000868397830E942B788DB79EB708968DBFDE
:1057E0009EBF2091B7383091B8388AE090E0B90177
:1057F0000E94ED7780916C23816080936C2380916F
:10580000602390916123A0916223B0916323803043
:10581000E1E09E07E1E0AE07E0E0BE0728F08091FE
:105820006C23886080936C2380E02696CDBFDEBF1A
:10583000CF91DF911F910F9108952F923F924F9238
:105840005F926F927F928F929F92AF92BF92CF9210
:10585000DF92EF92FF920F931F93DF93CF93CDB719
:10586000DEB72F97CDBFDEBF69877A878B879C878E
:105870004D875E8789859A85AB85BC858330910588
:10588000A105B10569F489859A85AB85BC852D850F
:105890003E85BC01CD01A9010E942D2B8F87BDC182
:1058A0008091602390916123A0916223B091632342
:1058B000803021E0920721E0A20720E0B20708F43F
:1058C000ABC183EA97E32D853E85B90140E150E005
:1058D0000E94BA778091052090910620863091052C
:1058E000FCF02091B7383091B83886E390E0B901E8
:1058F0000E94ED7785EE9BE00F920F92EDB7FEB719
:105900003196808391830E942B780F900F90209185
:10591000B7383091B8388AE090E0B9010E94ED774D
:105920008091AB379091AC37A091AD37B091AE3745
:10593000BC01CD010E948123DC01CB015C016D0122
:10594000EE24FF2487012A2D3B2D4C2D5D2D6E2D3D
:105950007F2D802F912F00E20E94C271A22EB32EC4
:10596000C42ED52EE62EF72E082F192F2A2C3B2CCD
:105970004C2C5D2C6E2C7F2C802E912E8091AF377D
:105980009091B037A091B137B091B237BC01CD0141
:105990000E948123DC01CB019C01AD0160E070E03D
:1059A00080E090E0E22DE22BE983E32DE32BEA8314
:1059B000E42DE42BEB83E52DE52BEC83E62DE62BA4
:1059C000ED83E72DE72BEE83E82DE82BEF83892D80
:1059D000892B88878091052090910620863091053B
:1059E0003CF12091B7383091B83886E390E0B901A6
:1059F0000E94ED772AEC3BE08091A337882F90E05E
:105A000000D00F92EDB7FEB73196208331838283A9
:105A100093830E942B780F900F900F900F902091FE
:105A2000B7383091B8388AE090E0B9010E94ED773C
:105A30008091052090910620863091053CF12091BF
:105A4000B7383091B83886E390E0B9010E94ED771D
:105A50002FEA3BE08091A437882F90E000D00F928E
:105A6000EDB7FEB7319620833183828393830E9402
:105A70002B780F900F900F900F902091B7383091A6
:105A8000B8388AE090E0B9010E94ED778091052056
:105A900090910620863091054CF12091B7383091D5
:105AA000B83886E390E0B9010E94ED7702E91BE087
:105AB0008091A5379091A6370E94242E00D00F9296
:105AC000EDB7FEB7319600831183828393830E94E2
:105AD0002B780F900F900F900F902091B738309146
