:100000000C9488070C94AE070C94AE070C94AE07C2
:100010000C94AE070C94AE070C94AE070C94AE078C
:100020000C94AE070C94AE070C94AE070C94AE077C
:100030000C94AE070C94AE070C94AE070C94AE076C
:100040000C94AE070C94AE070C94AE070C94AE075C
:100050000C94AE070C94AE070C94AE070C94AE074C
:100060000C94AE070C94AE070C94AE070C94AE073C
:100070000C94A14B0C940D4C0C94F54B0C94AE07C6
:100080000C94AE070C94AE070C94AE070C94AE071C
:100090000C94AE070C94AE070C94AE070C94AE070C
:1000A0000C94AE070C94AE070C94AE070C94AE07FC
:1000B0000C94AE070C94AE070C94AE070C94AE07EC
:1000C0000C94AE070C94AE070C94AE070C94AE07DC
:1000D0000C94AE070C94AE070C94AE070C94AE07CC
:1000E0000C94AE070C94AE070C945B4D0C94C74D6A
:1000F0000C94AF4D0C94AE070C94AE070C94AE0765
:100100000C94AE070C94AE070C94AE070C94AE079B
:100110000C94AE070C94AE070C94AE070C94AE078B
:100120000C94AE070C94AE070C94AE070C94AE077B
:100130000C94AE070C94AE070C94AE070C94AE076B
:100140000C94AE070C94AE070C94AE070C94AE075B
:100150000C94AE070C94AE070C94AE070C94AE074B
:100160000C9482490C94EE490C94D6490C94AE0739
:100170000C94AE070C94AE070C94AE070C94AE072B
:100180000C94AE070C94AE070C94AE070C94AE071B
:100190000C94AE070C94AE070C94AE070C94AE070B
:1001A0000C94AE070C94AE070C94AE070C94774EEB
:1001B0000C94AE070C94AE070C94AE070C94AE07EB
:1001C0000C94AE070C94AE070C94AE070C94AE07DB
:1001D0000C94AE070C94AE070C94AE070C94AE07CB
:1001E0000C94AE070C94AE070C94AE070C94AE07BB
:1001F0000C94AE074C616D702025203364202530AF
:100200003258253032582530325825303258253072
:1002100032582530325825303258253032580A00AD
:100220000A0D435243207473436F6E666967426FD1
:10023000726465725275746572203D2025642020B9
:100240002020707354696D657273203D2025640A07
:100250000D000A0D53657420766572626F736974C0
:10026000793A000A0D536574204F6666204D696E19
:100270007574653A000A0D536574204F6666204810
:100280006F75723A000A0D536574204F6E204D69E8
:100290006E7574653A000A0D536574204F6E2048E0
:1002A0006F75723A000A0D536574204D696E75744E
:1002B000653A000A0D53657420486F75723A000A5A
:1002C0000D53657420446174653A000A0D536574DA
:1002D000204D6F6E74683A000A0D5365742059659D
:1002E00061723A000A0D0046726F6D20435244322B
:1002F000207561727420726563697665643A005096
:100300007265737320616E79206B657920210A0D07
:1003100000546F20435244322055617274202020D3
:100320002073656E6465743A4645444342413938EA
:1003300037363534333231300A0D000A0D0046723B
:100340006F6D20475052532075617274207265633F
:10035000697665643A00507265737320616E792026
:100360006B657920210A0D00546F204750525320AD
:10037000556172742020202073656E6465743A3074
:100380003132333435363738394142434445460AF1
:100390000D004572726F722068616E646C696E67E1
:1003A0002074756E207061636B6574004572726FA6
:1003B0007220636F6D6D756E69636174696E67201D
:1003C0007769746820626F7264657220726F7574E9
:1003D0006572206D6F64756C650042414420636CEA
:1003E0006561722052414D00424144206372632096
:1003F000696E2052414D2C20707354696D65727383
:10040000004241442063726320696E2052414D2CAA
:100410002070734D6F64756C65536574436F6E66C1
:100420006967004572726F722077726974696E67CE
:10043000207061636B657420746F206D6F64756CE0
:1004400065004572726F722077726974696E6720F9
:10045000746F2074756E20646576696365005365FA
:100460006E64206D657373616765004572726F72AB
:100470002077726974696E6720746F2074756E20BE
:100480006465766963650053656E64206D6573739A
:1004900061676500546F20626F7264657220616EDF
:1004A00073776572004A656E4E65744E6574776F3A
:1004B000726B426C6F625461626C6520204E4F52C9
:1004C000452025642056657273696F6E202564206F
:1004D0006C656E67687420256400546F20626F72CB
:1004E0006465722066726F6D20726F75746572201C
:1004F000616E73776572004C6F63616C206D65731C
:1005000073616765004C6F63616C206D756C746915
:100510006361737420616E73776572004572726FE8
:10052000722077726974696E6720746F2074756EBB
:10053000206465766963650053656E64206D65733C
:1005400073616765004D756C7469636173742061D4
:100550006E73776572004572726F7220777269747C
:10056000696E67207061636B657420746F206D6FB6
:1005700064756C65004163637365732052656A65D9
:1005800063740041636373657320416363657074D2
:1005900000524144495553204163636573732052AF
:1005A00065717565737420253032582530325825B1
:1005B00030325825303258253032582530325825BF
:1005C00030325825303258004241442043616C6338
:1005D000756C6174656420636865636B73756D2009
:1005E000253034580050726F74636F6C202564207E
:1005F0004C656E67687420256420436865636B737F
:10060000756D202530345800495076362066726F5B
:100610006D204A656E6E6963206C656E6768742034
:10062000256C640043616E6E6F7420636F6E666943
:100630006775726520626F7264657220726F75747F
:100640006572206E6F64652076657273696F6E20C7
:100650005625642E25642E256400436F6E666967F7
:1006600020364C6F5750414E205072656669782095
:100670003A2030782530386C782530386C78004353
:100680006F6E666967204A656E4E65742049442026
:1006900020202020203A203078256C7800436F6E8F
:1006A0006669672031352E342050414E2049442060
:1006B0002020203A203078257800436F6E666967E5
:1006C0002031352E34204368616E6E656C20202009
:1006D0003A20256400436F6E6669672031352E34F9
:1006E00020526567696F6E202020203A2025640023
:1006F00057726974696E6720636F6E666967757299
:100700006174696F6E20746F204D6F64756C652025
:1007100025640057726974696E67204D6F64756C4B
:10072000653A20536563757269747920436F6E660C
:10073000696720256400417574686F72697361741C
:10074000696F6E20536368656D6520204552524F76
:100750005200417574686F7269736174696F6E20BD
:10076000536368656D6520203A20524144495553D2
:10077000207365727665722061742025732075730D
:10078000696E672050415000417574686F726973DB
:100790006174696F6E20536368656D6520203A202F
:1007A0004E6F6E65004E6574776F726B204B657986
:1007B00020202020202020202020203A20257300E7
:1007C000456E61626C696E67206E6574776F726BDF
:1007D0002073656375726974793A00577269746938
:1007E0006E67204D6F64756C653A2041637469765D
:1007F000697479204C45443A202564005772697425
:10080000696E67204D6F64756C653A20536574207E
:100810004A656E4E65742050726F66696C6520285B
:100820002564290057726974696E67204D6F64757D
:100830006C653A20456E61626C696E6720416E742A
:10084000656E6E61204469766572736974790057CC
:10085000726974696E67204D6F64756C653A2053D8
:1008600065742046726F6E74656E64202825642955
:1008700000556E6B6E6F776E206D6F64756C6520C2
:100880006D6F64653A2025640057726974696E67FC
:10089000204D6F64756C653A2052756E20436F6D04
:1008A0006D6973696F6E696E670057726974696EFE
:1008B00067204D6F64756C653A2052756E20526FDB
:1008C000757465720057726974696E67204D6F6444
:1008D000756C653A2052756E20436F6F7264696E55
:1008E00061746F720057726974696E67204D6F642E
:1008F000756C653A20526573657400577269746946
:100900006E67204D6F64756C653A204765742041B1
:100910006464726573730057726974696E67204D01
:100920006F64756C653A2050696E67005772697420
:10093000696E67204D6F64756C653A204765742059
:1009400056657273696F6E0057726974696E6720BD
:100950004D6F64756C653A2047657420436F6E6611
:1009600069670050696E6700506F6E67004E6F6474
:1009700065206E6F7420726573706F6E64696E6748
:1009800020286C61737420636F6D6D7320256C6417
:10099000207365636F6E64732061676F2900436124
:1009A0006E6E6F742064657465726D696E65206D1E
:1009B0006F64756C65206164647265737300526561
:1009C0007175657374696E67206D6F64756C6520F1
:1009D000616464726573730054696D656F7574202A
:1009E00077616974696E6720666F722061646472F2
:1009F0006573730052657175657374696E67206302
:100A00006F6E66696775726174696F6E004241440A
:100A100020636F6E666967005265717565737469EE
:100A20006E672076657273696F6E0054696D656FCD
:100A300075742077616974696E6720666F722076BD
:100A4000657273696F6E005374617274696E6720AA
:100A50006D6F64756C6500436F6E6E65637465647D
:100A600020746F20426F7264657220726F757465B6
:100A700072205625642E25642E256400436F6E6611
:100A8000696720364C6F5750414E20507265666939
:100A900078203A2030782530386C782530386C78DA
:100AA00000436F6E666967204A656E4E6574204923
:100AB000442020202020203A203078256C780043E4
:100AC0006F6E6669672031352E342050414E2049C3
:100AD00044202020203A203078257800436F6E662D
:100AE00069672031352E34204368616E6E656C2055
:100AF00020203A20256400436F6E666967203135F7
:100B00002E3420526567696F6E202020203A202500
:100B10006400526563656976656420636F6E66691B
:100B20006775726174696F6E2066726F6D204D6FAC
:100B300064756C65005265636569766564207365EC
:100B400063757269747920636F6E66696775726127
:100B500074696F6E2066726F6D204D6F64756C6581
:100B600000436F6E66696775726174696F6E20729B
:100B70006571756573742066726F6D206D6F647535
:100B80006C65004D6F64756C65206164647265739B
:100B9000733A202573004D6F64756C653A20257398
:100BA00000546F2053494D3A2573004F6E2F4F6606
:100BB000662053494D00436C69656E74202520649E
:100BC00020746F20726563697665642053494D3ADD
:100BD00025640046726F6D2053494D3A25730054C9
:100BE0006F20636C69656E742025642073656E6484
:100BF0006564202564202A203220627974657300A0
:100C000046726F6D20636C69656E742053494D3A6E
:100C10002573004572726F72205345542050494E1F
:100C2000202573004572726F722050494E20746502
:100C300073742025730046726F6D2053494D3A2519
:100C400073004F70656E656420434F4D20696E20C0
:100C500074756E20646576696365004572726F72A3
:100C6000204F70656E656420434F4D20696E20747F
:100C7000756E20646576696365004572726F7220D7
:100C800077726974696E67207061636B6574207434
:100C90006F206D6F64756C6500424144206C656E19
:100CA0006768742066726F6D20636C69656E743A54
:100CB000256420256400204F6E202532583A2530C7
:100CC000325820204F6666202532583A2530325857
:100CD0000A0D000A0D54696D6520000A0D00496E69
:100CE000707574733A2000782074657374204352D1
:100CF000430A0D007620566572626F736974790A33
:100D00000D007220524144495553207461626C6554
:100D10000A0D00612C622074657374204750525391
:100D20000A0D007420536574204F6E2F4F66660ABB
:100D30000D0070205365742050494E0A0D0030207C
:100D40004A656E6E69632072657365740A0D0039B9
:100D5000205365742074696D652026206461746178
:100D60000A0D003820546573742045787465726EDE
:100D7000616C2052414D0A0D003720546573742078
:100D8000435244322055617274204A50340A0D0097
:100D90003620546573742047505253205561727445
:100DA000204A50360A0D00352047505253204A50F1
:100DB00036205253540A0D0034204F6E2F4F666672
:100DC0002052656C617920310A0D00332042726F28
:100DD000616463617374203235350A0D003220423C
:100DE000726F616463617374203132370A0D0031B0
:100DF0002042726F61646361737420310A0D000ACE
:100E00000D4A656E6E696320484F53542056256421
:100E10002E25642E25640A0D004F6E54696D65728F
:100E2000004F666654696D6572004F6E4C616D705F
:100E3000004F66664C616D70004F6B004D41432062
:100E40002530325825303258253032582530325826
:100E50002530325825303258253032582530325816
:100E6000002532583A253032582047726F7570206D
:100E70002564204C69676874202564000A0D457854
:100E80007465726E616C2052414D204F4B0A0D000B
:100E90000A0D457865726E616C2052414D204552B5
:100EA000524F52533A257520617420416464726533
:100EB00073733A307825580A0D000A0D457865722B
:100EC0006E616C2052414D206E6F7420636C6561C1
:100ED0007220617420416464726573733A307825BE
:100EE00058005365742050494E203A2025730A0D4E
:100EF000005365742050494E203A2025730A0D0096
:100F0000436C6F636B2069732072657365740000B6
:100F100011241FBECFEFDFE3DEBFCDBF00E00CBF6B
:100F200018BE19BE1ABE1BBE12E2A0E0B0E2ECE48D
:100F3000FFEA00E00BBF02C007900D92AE38B10788
:100F4000D9F71BBE1CE3AEE8B2E201C01D92A23C81
:100F5000B107E1F70E94B0070C94A4570C9400006D
:100F60008F929F92AF92BF92CF92DF92EF92FF92B9
:100F70000F931F93DF93CF93CDB7DEB72A97CDBFE3
:100F8000DEBF0E94BB4E0E9404500E94BC4F1D82D7
:100F900080E090E46CE370E00E94DA41882341F144
:100FA000809105209091062083309105FCF02091DE
:100FB000BE3C3091BF3C83E390E0B9010E943254C3
:100FC00081E094E00F920F92EDB7FEB731968083E7
:100FD00091830E9470540F900F902091BE3C3091ED
:100FE000BF3C8AE090E0B9010E94325481E08D83D9
:100FF0008DE390E46AE570E00E94DA41882341F1D4
:10100000809105209091062083309105FCF020917D
:10101000BE3C3091BF3C83E390E0B9010E94325462
:1010200088EE93E00F920F92EDB7FEB73196808372
:1010300091830E9470540F900F902091BE3C30918C
:10104000BF3C8AE090E0B9010E94325481E08D8378
:101050008D81882341F18091052090910620833075
:101060009105FCF02091BE3C3091BF3C83E390E0C1
:10107000B9010E9432548AED93E00F920F92EDB7BE
:10108000FEB73196808391830E9470540F900F9029
:101090002091BE3C3091BF3C8AE090E0B9010E94B3
:1010A00032540E94DD3700E410E6E0E4F0E682818D
:1010B00093810E94690D01960E947A0DF801828346
:1010C0009383E0E4F0E61082118200E410E660E031
:1010D00070E081E090E00E94890DDC01CB01F80115
:1010E000868F978FA0A3B1A3E0E4F0E612A213A22B
:1010F00014A215A22CE93CE38AE490E6B90146E08B
:1011000050E00E940A5480E590E666E570E646E00D
:1011100050E00E940A540E941E2580918C339091C9
:101120008D33A0918E33B0918F338093932A909317
:10113000942AA093952AB093962A0E94F83E0E9482
:101140004F3280E992E221E932E2E3E9F2E2B901C9
:1011500040E058E09F010E94B60D8823D9F16091CC
:10116000902280919122909192229C0140E050E047
:10117000E3E9F2E2862FBA01A9019F010E94E92961
:10118000882341F1809105209091062083309105BC
:10119000FCF02091BE3C3091BF3C83E390E0B9016C
:1011A0000E9432548CEA93E00F920F92EDB7FEB793
:1011B0003196808391830E9470540F900F902091FC
:1011C000BE3C3091BF3C8AE090E0B9010E943254AD
:1011D0000E941E250E94F932882331F1809105205A
:1011E0009091062083309105FCF02091BE3C309117
:1011F000BF3C83E390E0B9010E94325482E993E05E
:101200000F920F92EDB7FEB73196808391830E94C3
:1012100070540F900F902091BE3C3091BF3C8AE0FB
:1012200090E0B9010E94325420918C3330918D337B
:1012300040918E3350918F338091932A9091942ACC
:10124000A091952AB091962A79018A01E81AF90AA3
:101250000A0B1B0BD801C70183309105A105B1050D
:10126000B8F080918C3390918D33A0918E33B091F2
:101270008F338093932A9093942AA093952AB093C6
:10128000962A81E00E94E521882311F00E941E2504
:101290000E94A14C882309F450CF0E94BA4C8C8341
:1012A0000E94263880E090E227E93CE3B9010E94E1
:1012B0001A54009709F43FC080918E2290918F229A
:1012C000843091055CF58C818033D8F08C818A3331
:1012D000C0F420918E2230918F22F901E050F04E1F
:1012E0008C818083C901019680938E2290938F22F6
:1012F00080918E2290918F22FC01E050F04E10825E
:101300001CCF10928E2210928F2280918E2290916B
:101310008F22FC01E050F04E10820FCF10928E22EF
:1013200010928F2280918E2290918F22FC01E050AA
:10133000F04E108202CF8C81082F10E009871A87A7
:1013400029853A852035310509F429C289859A8590
:10135000813591050CF04FC0E985FA85E433F1053C
:1013600009F4B9C009851A8505331105FCF42985EE
:101370003A852133310509F493C089859A858233F2
:1013800091053CF4E985FA85E033F10509F404C2DE
:10139000D4CE09851A850233110509F48AC029853E
:1013A0003A852333310509F48DC0C7CE89859A85E6
:1013B0008733910509F4F0C0E985FA85E833F10532
:1013C0006CF409851A850533110509F48EC0298549
:1013D0003A852633310509F49BC0AFCE89859A85BD
:1013E0008833910509F41CC1E985FA85E933F105D3
:1013F00009F419C1A2CE09851A850236110509F42E
:1014000064C329853A85233631052CF589859A856B
:101410008635910509F42BC2E985FA85E735F10592
:101420006CF409851A850235110509F460C2298515
:101430003A852435310509F4B5C17FCE89859A8571
:101440008835910509F429C2E985FA85E136F10567
:1014500009F437C372CE09851A850437110509F4DA
:10146000A1C129853A85253731056CF489859A858E
:101470008037910509F493C1E985FA85E237F105D2
:1014800009F435C25ACE09851A850637110509F4C3
:10149000EEC129853A852837310509F4FEC14DCEC4
:1014A00064E07EEF8FEF9FEF42E021E00E940112A7
:1014B00044CE64E07EEF8FEF9FEF42E02FE70E9483
:1014C00001123BCE64E07EEF8FEF9FEF42E02FEF03
:1014D0000E94011232CE80919433882319F00E9429
:1014E0008C3C2BCE0E945D3C28CEE0E4F6E080856B
:1014F000882F90E080729070009729F0E0E4F6E089
:1015000080E286831ACEE0E4F6E080E2858315CEA1
:1015100087E090E20E94834B88E693E00F920F925F
:10152000EDB7FEB73196808391830E9470540F907F
:101530000F9086E593E00F920F92EDB7FEB73196CC
:10154000808391830E9470540F900F900E94BA4C38
:101550008EE393E00F920F92EDB7FEB73196808342
:1015600091830E9470540F900F9004C00E949A4A79
:101570000E940A4D0E94824A8823C1F78BE393E0C0
:101580000F920F92EDB7FEB73196808391830E9440
:1015900070540F900F90D1CD88E190E20E94644981
:1015A00081E193E00F920F92EDB7FEB73196808301
:1015B00091830E9470540F900F908FEF92E00F92E2
:1015C0000F92EDB7FEB73196808391830E947054DD
:1015D0000F900F900E94BA4C87EE92E00F920F92FC
:1015E000EDB7FEB73196808391830E9470540F90BF
:1015F0000F9004C00E94E3480E940A4D0E94944844
:101600008823C1F784EE92E00F920F92EDB7FEB7F8
:101610003196808391830E9470540F900F908DCDEE
:101620000E94CB408ACD88ED92E00F920F92EDB7E9
:10163000FEB73196808391830E9470540F900F9073
:101640000E9403388B8386E08E838B818F8383EAAD
:101650009CE39E012A5F3F4F6FE6A90122E000E074
:101660000E94C1468091BA3C8823E1F78BEC92E05E
:101670000F920F92EDB7FEB73196808391830E944F
:1016800070540F900F900E9403388B8385E08E83F7
:101690008B818F718F8383EA9CE39E012A5F3F4F8A
:1016A0006FE6A90122E000E00E94C1468091BA3CA9
:1016B0008823E1F78FEB92E00F920F92EDB7FEB720
:1016C0003196808391830E9470540F900F900E94F6
:1016D00003388B8384E08E838B818F738F8383EABF
:1016E0009CE39E012A5F3F4F6FE6A90122E000E0E4
:1016F0000E94C1468091BA3C8823E1F783EB92E0D7
:101700000F920F92EDB7FEB73196808391830E94BE
:1017100070540F900F900E9403388B8382E08E8369
:101720008B818F738F8388E0888783EA9CE39E0197
:101730002A5F3F4F6FE6A90123E000E00E94C14607
:101740008091BA3C8823E1F785EA92E00F920F92EC
:10175000EDB7FEB73196808391830E9470540F904D
:101760000F900E9403388B831E8280E88F838B81C9
:101770008F77888783EA9CE39E012A5F3F4F6FE65D
:10178000A90123E000E00E94C1468091BA3C882371
:10179000E1F71092A23CD1CC0E941E25CECC0E9433
:1017A0003E4FCBCC86E992E00F920F92EDB7FEB799
:1017B0003196808391830E9470540F900F900DE3B7
:1017C00010E40E940338F80186838DE390E46AE513
:1017D00070E00E94AA4185E892E00F920F92EDB767
:1017E000FEB73196808391830E9470540F900F90C2
:1017F0000DE310E40E940338F80187838DE390E441
:101800006AE570E00E94AA4185E792E00F920F928C
:10181000EDB7FEB73196808391830E9470540F908C
:101820000F900DE310E40E940338F80180878DE3E8
:1018300090E46AE570E00E94AA4183E692E00F928C
:101840000F92EDB7FEB73196808391830E9470545A
:101850000F900F900DE310E40E940338F801818788
:101860008DE390E46AE570E00E94AA4166CC82E5CF
:1018700092E00F920F92EDB7FEB73196808391837D
:101880000E9470540F900F900E940338882F90E0B0
:10189000809305209093062050CC0F2EF0E2EF2E7F
:1018A000F2E0FF2EF02D80E090E46CE370E00E9407
:1018B000DA41082F10E08DE390E46AE570E00E94C1
:1018C000DA41882F90E000D000D0EDB7FEB7319616
:1018D000E082F18202831383848395830E94705493
:1018E0000DB71EB70A5F1F4F0DBF1EBF26CC198252
:1018F0001A82DCC044EF51E029813A81C901880F86
:10190000991F820F931F9C01220F331F220F331F39
:10191000220F331F820F931FFC01E456FF4B80817F
:10192000682F70E029813A81C901880F991F820FC1
:10193000931F9C01220F331F220F331F220F331FCF
:10194000820F931FFC01E456FF4B8181A82FB0E06A
:1019500029813A81C901880F991F820F931F9C0129
:10196000220F331F220F331F220F331F820F931FAB
:10197000FC01E456FF4B8281082F10E029813A8157
:10198000C901880F991F820F931F9C01220F331FDB
:10199000220F331F220F331F820F931FFC01E456C7
:1019A000FF4B8381E82EFF2429813A81C901880FEA
:1019B000991F820F931F9C01220F331F220F331F89
:1019C000220F331F820F931FFC01E456FF4B8481CB
:1019D000C82EDD2429813A81C901880F991F820F01
:1019E000931F9C01220F331F220F331F220F331F1F
:1019F000820F931FFC01E456FF4B8581A82EBB2468
:101A000029813A81C901880F991F820F931F9C0178
:101A1000220F331F220F331F220F331F820F931FFA
:101A2000FC01E456FF4B8681882E992429813A8156
:101A3000C901880F991F820F931F9C01220F331F2A
:101A4000220F331F220F331F820F931FFC01E45616
:101A5000FF4B8781282F30E08DB79EB744978DBF0D
:101A60009EBFEDB7FEB731964083518389819A813D
:101A70008283938364837583A683B78300871187EA
:101A8000E286F386C486D586A686B786808A918A42
:101A9000228B338B0E947054EDB7FEB77496EDBF66
:101AA000FEBF89819A81019689839A8389819A816F
:101AB000E8E9F0E4208131818217930708F41ACF16
:101AC0003CCB81E08093933C38CB81E08093963C83
:101AD00034CBDF93CF930F920F92CDB7DEB78983CC
:101AE0009A8389819A810E947A0D0F900F90CF91ED
:101AF000DF910895DF93CF930F920F92CDB7DEB7AA
:101B000089839A8399818A810F900F90CF91DF9179
:101B10000895DF93CF9300D00F92CDB7DEB76983DE
:101B20007A838B839C8329813A81922F832FCC01E6
:101B3000A0E0B0E0BC015527442789819A81AB81A0
:101B4000BC81CD01AA27BB279C01922F832FCC01FA
:101B5000A0E0B0E0842B952BA62BB72BBC01CD01C8
:101B60002496CDBFDEBFCF91DF910895DF93CF9351
:101B7000CDB7DEB72E97CDBFDEBF8A839B836C8344
:101B80007D834E835F8328873987DCC08981282F36
:101B900030E02D873E878D859E8582309105A1F0AE
:101BA0002D853E852330310599F08D859E858130C8
:101BB000910589F51092982A1092992A1092972AE5
:101BC00081E080939B2ABEC081E08093972ABAC0AF
:101BD000EC81FD81208131818E819F818217930765
:101BE00018F410929B2AAEC0EA81FB818081EC81BF
:101BF000FD812081318148855985B9010E94130FEB
:101C0000982F80919A2A981709F09CC010929B2ACD
:101C100091E09C879FC08091972A882331F0898129
:101C200090E1892789831092972A80919B2A282FF7
:101C300030E02A873B878A859B858230910561F158
:101C40002A853B85233031055CF48A859B85009786
:101C500009F478C02A853B852130310599F070C0A0
:101C60008A859B858430910509F444C02A853B858B
:101C70002430310504F18A859B858530910509F46E
:101C800042C05EC08981EA81FB81808380919B2A6A
:101C90008F5F80939B2A56C08981882F90E0982F70
:101CA0008827EC81FD818083918380919B2A8F5FBF
:101CB00080939B2A47C0EC81FD81208131818981FD
:101CC000882F90E0820F931FEC81FD8180839183A8
:101CD000EC81FD81208131818E819F818217930764
:101CE00018F410929B2A2EC080919B2A8F5F8093BC
:101CF0009B2A28C0898180939A2A80919B2A8F5F92
:101D000080939B2A1FC0EC81FD81208131818091CD
:101D1000982A9091992A82179307A0F42091982AE3
:101D20003091992A88859985FC01E20FF31F8981FA
:101D30008083C90101968093982A9093992A02C0C2
:101D400010929B2ACE0101960E947A0F882309F0F7
:101D50001DCF1C868C852E96CDBFDEBFCF91DF9127
:101D60000895DF93CF93CDB7DEB72797CDBFDEBF02
:101D70008B836C837D834E835F8381E061E00E946F
:101D8000510F99230CF449C080E06B810E94510FE0
:101D900099230CF442C08C819D81892F9927982F1B
:101DA00080E0692F0E94510F9923BCF19C8180E053
:101DB000692F0E94510F992384F12C813D814E811E
:101DC0005F818B81B9010E94130F982F80E0692FEA
:101DD0000E94510F99230CF119821A8213C0298194
:101DE0003A818E819F81FC01E20FF31F908180E098
:101DF000692F0E94510F992384F089819A8101965D
:101E000089839A8329813A818C819D81281739079A
:101E100030F381E063E00E94510F2796CDBFDEBF13
:101E2000CF91DF910895DF93CF93CDB7DEB7289799
:101E3000CDBFDEBF8C836D837E834F83588719822D
:101E400099818C81892789838D819E81892F99270A
:101E5000982F8981892789839D8189818927898311
:101E60001A821B8210C02A813B818F819885FC01D8
:101E7000E20FF31F90818981892789838A819B8161
:101E800001968A839B832A813B818D819E812817BD
:101E9000390748F389812896CDBFDEBFCF91DF9106
:101EA0000895DF93CF9300D00F92CDB7DEB789832B
:101EB0006A838981882389F48A81803170F49A81C8
:101EC00080E189278A8382E00E94314999232CF49A
:101ED0008FEF9FEF8B839C8305C08A810E943149DD
:101EE0008B839C838B819C812496CDBFDEBFCF9159
:101EF000DF910895DF93CF930F920F92CDB7DEB7A6
:101F000089839A8389819A810E94AC480F900F90AF
:101F1000CF91DF910895DF93CF9300D0CDB7DEB797
:101F20008A839B831982EA81FB8180818A3330F422
:101F3000EA81FB8180818053898305C0EA81FB812E
:101F400080818753898389818295807F89838A8173
:101F50009B8101968A839B83EA81FB8180818A33FE
:101F600048F4EA81FB8180818053982F8981892BF5
:101F7000898308C0EA81FB8180818753982F8981FA
:101F8000892B898389812396CDBFDEBFCF91DF91D5
:101F90000895DF93CF93CDB7DEB76497CDBFDEBF93
:101FA0006F87788B898B9A8B4B8B5C8B8F8598890D
:101FB00081709070882399F02F8538898B899C894E
:101FC000FC01E20FF31F10828F859889A989BA89D5
:101FD0000196A11DB11D8F87988BA98BBA8B8B8918
:101FE0009C89FC01BE968081882F90E0382F2227A3
:101FF0008B899C89FC01BF968081882F90E0822B81
:10200000932BCC01A0E0B0E08B879C87AD87BE8787
:102010008B899C89FC0134968081882F90E0382F31
:1020200022278B899C89FC0135968081882F90E03E
:10203000822B932BCC01A0E0B0E08F839887A987F7
:10204000BA878B899C89FC0136968081882F90E025
:10205000A0E0B0E08B839C83AD83BE832F81388565
:1020600049855A858B819C81AD81BE81820F931FEA
:10207000A41FB51F8B879C87AD87BE878B899C89E2
:10208000089689839A834FC0E981FA818081882FDD
:1020900090E0382F222789819A81FC013196808136
:1020A000882F90E0822B932BCC01A0E0B0E08B83B3
:1020B0009C83AD83BE832B853C854D855E858B815E
:1020C0009C81AD81BE81820F931FA41FB51F8B879A
:1020D0009C87AD87BE8717C08B859C85AD85BE85E7
:1020E0009C01AD01407050708B859C85AD85BE858F
:1020F000CD01AA27BB27820F931FA41FB51F8B8773
:102100009C87AD87BE878B859C85AD85BE85CD01BF
:10211000AA27BB270097A105B105F1F689819A810D
:10212000029689839A832F8538898B899C89280F09
:10213000391F89819A818217930708F4A5CF8B856F
:102140009C8580959095CC01A0E0B0E08B879C8722
:10215000AD87BE878B859C856496CDBFDEBFCF9152
:10216000DF9108950F931F93DF93CF93CDB7DEB721
:10217000C95DD040CDBFDEBFFE01E153FF4F80837C
:102180009183FE01EF52FF4F60837183FE01ED5298
:10219000FF4F2083318342835383FE01E952FF4F77
:1021A0000083118380E68F83188619861A86FE01C4
:1021B000ED52FF4F80819181A281B3810896A11DCC
:1021C000B11D892F9A2FAB2FBB278B87FE01ED52B4
:1021D000FF4F8081885F8C8781E18D8780E48E87C7
:1021E000CE0107960896FE01E153FF4F2081318111
:1021F000B90140E150E00E940A54CE01079648968A
:10220000FE01EF52FF4F20813181B90140E150E0E2
:102210000E940A5483ED8FA78DEE88AB87E089ABCF
:1022200081E58AABFE01ED52FF4F80819181A28151
:10223000B3810896A11DB11D892F9A2FAB2FBB2703
:102240008BABFE01ED52FF4F8081885F8CAB1DAAE6
:102250001EAAFE01ED52FF4F40815181CE0107962B
:10226000C096FE01E952FF4F20813181B9010E94E1
:102270000A549E012D523F4FFE01ED52FF4F8081C7
:102280009181A281B381C096A11DB11DF901808306
:102290009183A283B383FE01ED52FF4F8081918130
:1022A000A281B381FE01E952FF4F20813181BC013F
:1022B000CD01A9010E94C90F8D839E838D819E81CE
:1022C000892F99278DAB8D818EAB809105209091C0
:1022D0000620873091050CF443C019821A821B82B4
:1022E0001C8225C089819A81FE013796E80FF91F6B
:1022F0008081282F30E000D00F92EDB7FEB73196E5
:102300008DE290E280839183228333830E945E5426
:102310000F900F900F900F9089819A81AB81BC81B3
:102320000196A11DB11D89839A83AB83BC83FE01F5
:10233000ED52FF4F29813A814B815C8180819181EF
:10234000A281B381281739074A075B0758F2209109
:10235000BE3C3091BF3C8AE090E0B9010E9432540B
:10236000FE01ED52FF4F80819181A281B3819E01D8
:10237000295F3F4FBC01CD01A9010E949020882315
:1023800069F1809105209091062083309105FCF041
:102390002091BE3C3091BF3C83E390E0B9010E94A4
:1023A000325483E294E00F920F92EDB7FEB731966C
:1023B000808391830E9470540F900F902091BE3CB7
:1023C0003091BF3C8AE090E0B9010E943254F1E0C4
:1023D000C752DF4FF883C95DD04005C0C752DF4FF9
:1023E0001882C95DD040C752DF4F8881C95DD04097
:1023F000C752DF4FCDBFDEBFCF91DF911F910F914D
:1024000008950F931F93DF93CF93CDB7DEB76B97EC
:10241000CDBFDEBF6D8B7E8B8F8B988F498F2A8FC0
:102420008091FA3B8A3019F081E08B8F39C0198294
:102430008DE18A830E94CF538F778B838D899E890C
:10244000AF89B88D8B2F9927AA27BB278C838D89BD
:102450009E89AF89B88DCD01AA27BB278D838D8931
:102460009E89AF89B88D892F9A2FAB2FBB278E837A
:102470008D898F83898D8887198684E08A878A8DE4
:102480008B8782E390E222E530E2B9012BE030E075
:1024900040E050E0FE0131968F010E94B2108B8F18
:1024A0008B8D6B96CDBFDEBFCF91DF911F910F91CA
:1024B00008950F931F93DF93CF93CDB7DEB76C973B
:1024C000CDBFDEBF8D8B4E8B5F8B688F798F2A8F50
:1024D0000B8F8091FA3B8A3019F081E08C8F4FC0CE
:1024E0008D89882F90E0880F991FFC01EE58FF4DD1
:1024F0008081809370208D89882F90E0880F991FAC
:10250000FC01ED58FF4D80818093712019828DE18F
:102510008A830E94CF538F778B838E899F89A88D62
:10252000B98D8B2F9927AA27BB278C838E899F89EA
:10253000A88DB98DCD01AA27BB278D838E899F8950
:10254000A88DB98D892F9A2FAB2FBB278E838E89AB
:102550008F838A8D8887198684E08A878B8D8B8705
:1025600082E390E222E630E2B9012BE030E040E085
:1025700050E0FE0131968F010E94B2108C8F8C8D3D
:102580006C96CDBFDEBFCF91DF911F910F91089563
:102590000F931F93DF93CF93CDB7DEB76D97CDBF6A
:1025A000DEBF8A8F9B8F6C8F8091FA3B8A3019F047
:1025B00081E08D8F47C081E09FEFAFEFBFEF8A834F
:1025C0009B83AC83BD8384E089831E828CE18F83EF
:1025D0000E94CF538F7788878A819B81AC81BD8190
:1025E0008B2F9927AA27BB2789878A819B81AC815A
:1025F000BD81CD01AA27BB278A878A819B81AC81B7
:10260000BD81892F9A2FAB2FBB278B878A818C871F
:1026100089818D878A8D9B8D892F99278E878A8DB9
:102620008F878C8D888B82E490E223E83CE3FE0167
:102630003696B9012BE030E040E050E08F010E9477
:10264000B2108D8F8D8D6D96CDBFDEBFCF91DF9196
:102650001F910F910895AF92BF92CF92DF92EF92A8
:10266000FF920F931F93DF93CF93CDB7DEB7C05484
:10267000D040CDBFDEBF6AAF7BAF8CAF9DAF4EAF5A
:102680005FAF8EAD9FADFC01BE968081882F90E03C
:10269000382F22278EAD9FADFC01BF968081882FF9
:1026A00090E0822B932B8C8F9D8F8EAD9FADFC0184
:1026B00034968081882F90E0382F22278EAD9FADF1
:1026C000FC0135968081882F90E0822B932B888F98
:1026D000998F8EAD9FADFC0136968081882F90E05A
:1026E0008E8B9F8B809105209091062087309105DD
:1026F0000CF4ACC0809105209091062087309105A4
:102700005CF12091BE3C3091BF3C87E390E0B90181
:102710000E94325488E096E000D000D0EDB7FEB7BA
:102720003196808391838AAD9BADACADBDAD828384
:102730009383A483B5830E9470540DB71EB70A5FBC
:102740001F4F0DBF1EBF2091BE3C3091BF3C8AE0A1
:1027500090E0B9010E9432548091052090910620AA
:102760008730910594F12091BE3C3091BF3C87E3C6
:1027700090E0B9010E94325485EE95E02DB73EB746
:10278000285030402DBF3EBFEDB7FEB73196808355
:1027900091838E899F8982839383888D998D848389
:1027A00095838C8D9D8D868397830E9470548DB701
:1027B0009EB708968DBF9EBF2091BE3C3091BF3C16
:1027C0008AE090E0B9010E9432541A8A1B8A1C8A5E
:1027D0001D8A26C02A893B898EAD9FADFC01E20F80
:1027E000F31F8081282F30E000D00F92EDB7FEB7A5
:1027F00031968DE290E280839183228333830E941D
:102800005E540F900F900F900F908A899B89AC892E
:10281000BD890196A11DB11D8A8B9B8BAC8BBD8B95
:102820002A893B894C895D898AAD9BADACADBDAD34
:10283000281739074A075B0768F22091BE3C3091A0
:10284000BF3C8AE090E0B9010E9432548AAD9BAD52
:10285000ACADBDAD2EAD3FADBC01CD01A9010E9417
:10286000C90F8A8F9B8F8A8D9B8D009791F18C8DDC
:102870009D8D009771F18091052090910620873001
:1028800091050CF495C62091BE3C3091BF3C87E386
:1028900090E0B9010E94325488EC95E000D00F928C
:1028A000EDB7FEB73196808391838A8D9B8D8283AD
:1028B00093830E9470540F900F900F900F9020916F
:1028C000BE3C3091BF3C8AE090E0B9010E94325496
:1028D0006FC68EAD9FADFC0136968081813109F0C7
:1028E00001C68EAD9FAD489664E270E440E150E0D1
:1028F0000E94FD53009709F086C38EAD9FAD8A5BA1
:102900009F4F0E948B0F8093FB3B8EAD9FAD885BEA
:102910009F4F0E948B0F8093FC3B8EAD9FAD865BDB
:102920009F4F0E948B0F8093FD3B8EAD9FAD845BCC
:102930009F4F0E948B0F8093FE3B8EAD9FAD825BBD
:102940009F4F0E948B0F8093FF3B8EAD9FAD805BAE
:102950009F4F0E948B0F8093003C8EAD9FAD8E5A8F
:102960009F4F0E948B0F8093013C8EAD9FAD8C5A80
:102970009F4F0E948B0F8093023C80910520909185
:102980000620873091050CF456C02091BE3C309152
:10299000BF3C87E390E0B9010E94325421E935E061
:1029A0008091FB3B482F50E08091FC3B682F70E00A
:1029B0008091FD3BA82FB0E08091FE3B082F10E0F6
:1029C0008091FF3BE82EFF248091003CC82EDD243F
:1029D0008091013CA82EBB248091023C882F90E07E
:1029E000EDB7FEB77297EDBFFEBFEDB7FEB73196FC
:1029F000208331834283538364837583A683B783A3
:102A000000871187E286F386C486D586A686B786B8
:102A1000808B918B0E9470540DB71EB70E5E1F4FB6
:102A20000DBF1EBF2091BE3C3091BF3C8AE090E0BC
:102A3000B9010E9432548EAD9FAD9C01285F3F4F7B
:102A4000CE014E96B90140E150E00E940A548EAD8D
:102A50009FADAC01485F5F4F8EAD9FAD9C01285E7E
:102A60003F4FCA01B90140E150E00E940A548EADC7
:102A70009FAD48969E01225E3F4FB90140E150E074
:102A80000E940A548EAD9FAD9C01285D3F4FCE0140
:102A90004E96B90142E050E00E940A548EAD9FADBF
:102AA000AC01485D5F4F8EAD9FAD9C01265D3F4FF1
:102AB000CA01B90142E050E00E940A548EAD9FADB8
:102AC0008A969E01225E3F4FB90142E050E00E948B
:102AD0000A548EAD9FADFC01BE9610828EAD9FADA7
:102AE000FC01BF9610821D861E861F86188A198AD1
:102AF00029C02E853F85C901880F991F820F931F1A
:102B00009C01220F331F220F331F220F331F820F0E
:102B1000931F84569F4B2BEF3BE3B90148E050E0F5
:102B20000E94FD53009719F481E08D871BC08E85AC
:102B30009F85A889B9890196A11DB11D8E879F87A0
:102B4000A88BB98BE8E9F0E4808191819C0140E099
:102B500050E08E859F85A889B98982179307A407BD
:102B6000B50738F28D85882331F4E0E0F0E487A9D9
:102B7000882309F4B9C08091052090910620873000
:102B80009105FCF02091BE3C3091BF3C87E390E082
:102B9000B9010E94325483E895E00F920F92EDB78D
:102BA000FEB73196808391830E9470540F900F90EE
:102BB0002091BE3C3091BF3C8AE090E0B9010E9478
:102BC00032548EAD9FADFC01F09682E080838EADD5
:102BD0009FAD8C010F5C1F4F0E94CF53D8018C9387
:102BE0008EAD9FADFC01EC5BFF4F8AE180838EAD23
:102BF0009FADFC01EB5BFF4F88E180838EAD9FAD05
:102C0000FC01EA5BFF4F10828EAD9FADFC01E95BDA
:102C1000FF4F10828EAD9FADFC01E85BFF4F8DE64C
:102C200080838EAD9FADFC01E75BFF4F89EE808313
:102C30008EAD9FADFC01E65BFF4F84E680838EADD9
:102C40009FADFC01E55BFF4F82E180831E861F86FE
:102C5000188A198A3AC08E859F85880F991F9C0112
:102C6000245B3F4F8EAD9FADFC01E20FF31F10823E
:102C70008E859F85880F991F9C01235B3F4F8EADEA
:102C80009FADBC01620F731F27E030E040E050E0D1
:102C90008E859F85A889B98979018A01E81AF90A80
:102CA0000A0B1B0BD801C701FC01E550F44C8081D5
:102CB000DB018C938E859F85A889B9890196A11D1A
:102CC000B11D8E879F87A88BB98B8E859F85A8891C
:102CD000B98988309105A105B10508F4BCCF8CE213
:102CE00090E08A8F9B8F88C080910520909106206C
:102CF00087309105FCF02091BE3C3091BF3C87E3CA
:102D000090E0B9010E94325485E795E00F920F924E
:102D1000EDB7FEB73196808391830E9470540F9077
:102D20000F902091BE3C3091BF3C8AE090E0B90109
:102D30000E94325488E0FE01BE96DF01E82E1D920B
:102D4000EA94E9F71B861C863EC08B859C85880F1C
:102D5000991F880F991F880F991F8D5F934C9E01B3
:102D6000225D3F4FB90148E050E00E94FD530097BB
:102D700091F48B859C85880F991F880F991F880F68
:102D8000991F8D5F934C2BEF3BE3B90148E050E076
:102D90000E940A541EC08B859C85880F991F880F3E
:102DA000991F880F991F8D5F934C2BEF3BE3B9015F
:102DB00048E050E00E94FD53009759F08B859C85B8
:102DC00001968B879C878B859C85803191050CF4BF
:102DD000BCCF8EAD9FADFC01F09683E080838EADBD
:102DE0009FAD8C010F5C1F4F0E94CF53D8018C9375
:102DF00084E190E08A8F9B8F1E861F86188A198A2D
:102E000019C08E859F859C012C5C3F4F8EAD9FAD78
:102E10008C01020F131F0E94CF53F80180838E850F
:102E20009F85A889B9890196A11DB11D8E879F87AD
:102E3000A88BB98B8E859F85A889B989803191052A
:102E4000A105B105F0F28EAD9FADFC01F2968A8D21
:102E50009B8D892F992780838EAD9FADFC01F396C2
:102E60008A8D80838A8D9B8D08968A8F9B8F8EADED
:102E70009FADFC0134968A8D9B8D892F9927808385
:102E80008EAD9FADFC0135968A8D80838EAD9FAD52
:102E9000FC01379680E480838EAD9FADFC01BC962B
:102EA0008A8D9B8D892F992780838EAD9FADFC01E4
:102EB000BD968A8D80838A8D9B8D8896CC01A0E0FB
:102EC000B0E08AAF9BAFACAFBDAF8AAD9BADACAD50
:102ED000BDAD2EAD3FADBC01CD01A9010E94C90F12
:102EE0008A8F9B8F8EAD9FADFC01BE968A8D9B8D88
:102EF000892F992780838EAD9FADFC01BF968A8D67
:102F000080838091052090910620873091050CF4F4
:102F100041C01F82188619861A8626C02F813885DF
:102F20008EAD9FADFC01E20FF31F8081282F30E0B2
:102F300000D00F92EDB7FEB731968DE290E280831C
:102F40009183228333830E945E540F900F900F90E1
:102F50000F908F819885A985BA850196A11DB11D15
:102F60008F839887A987BA872F81388549855A85A5
:102F70008AAD9BADACADBDAD281739074A075B07DD
:102F800068F22091BE3C3091BF3C8AE090E0B901EC
:102F90000E9432548AAD9BADACADBDAD2EAD3FAD00
:102FA000BC01CD01A9010E949020882309F400C32F
:102FB000809105209091062083309105FCF02091AE
:102FC000BE3C3091BF3C83E390E0B9010E94325493
:102FD00086E595E00F920F92EDB7FEB731968083AC
:102FE00091830E9470540F900F902091BE3C3091BD
:102FF000BF3C8AE090E0B9010E943254F1E0219692
:10300000FFAF2197D8C28EAD9FADFC01789680812D
:103010008F3F09F0BCC08EAD9FAD9C01285F3F4F34
:1030200082E390E2B90140E150E00E94FD53009735
:1030300009F485C080910520909106208730910584
:10304000FCF02091BE3C3091BF3C87E390E0B90199
:103050000E94325485E495E00F920F92EDB7FEB7CF
:103060003196808391830E9470540F900F9020912D
:10307000BE3C3091BF3C8AE090E0B9010E943254DE
:10308000809105209091062087309105FCF02091D9
:10309000BE3C3091BF3C87E390E0B9010E943254BE
:1030A00088E395E00F920F92EDB7FEB731968083DB
:1030B00091830E9470540F900F902091BE3C3091EC
:1030C000BF3C8AE090E0B9010E9432548AAD9BADCA
:1030D000ACADBDAD2EAD3FADBC01CD01A9010E948F
:1030E000A637882309F464C28091052090910620B8
:1030F00083309105FCF02091BE3C3091BF3C83E3CE
:1031000090E0B9010E9432548CE195E00F920F9249
:10311000EDB7FEB73196808391830E9470540F9073
:103120000F902091BE3C3091BF3C8AE090E0B90105
:103130000E94325401E021960FAF21973CC280914A
:10314000052090910620873091050CF431C2209122
:10315000BE3C3091BF3C87E390E0B9010E943254FD
:1031600085E095E00F920F92EDB7FEB73196808320
:1031700091830E9470540F900F902091BE3C30912B
:10318000BF3C8AE090E0B9010E94325411C28EAD7A
:103190009FADFC01389680818E3FA1F58EAD9FAD2D
:1031A000FC0139968081882F90E0807C9070803877
:1031B000910541F580910520909106208730910579
:1031C0000CF4F6C12091BE3C3091BF3C87E390E007
:1031D000B9010E94325487EF94E00F920F92EDB73D
:1031E000FEB73196808391830E9470540F900F90A8
:1031F0002091BE3C3091BF3C8AE090E0B9010E9432
:103200003254D6C18EAD9FAD489622E430E2B9016A
:1032100040E150E00E94FD53009709F004C18EADDB
:103220009FAD089623E83CE3B90140E150E00E94DD
:10323000FD53009709F0CFC08091052090910620A2
:1032400087309105FCF02091BE3C3091BF3C87E374
:1032500090E0B9010E9432548AED94E00F920F92EF
:10326000EDB7FEB73196808391830E9470540F9022
:103270000F902091BE3C3091BF3C8AE090E0B901B4
:103280000E943254888D998D8A30910508F490C13E
:103290008EAD9FADFC01F1968081882F90E0813149
:1032A000910509F085C181E08EAB84E08FAB18AE4B
:1032B0008BE489AF8EAD9FADC3969E012A5C3F4FD4
:1032C000B90144E050E00E94FD53009709F070C13D
:1032D0008EAD9FADFC01F7968081882F90E08D83A5
:1032E0009E838D819E81982F88278D839E838EADAE
:1032F0009FADFC01F8968081282F30E08D819E8162
:10330000822B932B8D839E838EAD9FADFC01F9960E
:103310008081882F90E08B839C838B819C81982F68
:1033200088278B839C838EAD9FADFC01FA968081AC
:10333000282F30E08B819C81822B932B8B839C8365
:10334000888D998D89839A8389819A81439789830E
:103350009A8380910520909106208730910594F101
:103360002091BE3C3091BF3C87E390E0B9010E94C0
:10337000325485EA94E02DB73EB7285030402DBF37
:103380003EBFEDB7FEB73196808391838D819E81DC
:10339000828393838B819C818483958389819A81A5
:1033A000868397830E9470548DB79EB708968DBF11
:1033B0009EBF2091BE3C3091BF3C8AE090E0B901B5
:1033C0000E9432548EAD9FADCB9629813A81B901CE
:1033D0000E94273DEDC08091052090910620873006
:1033E00091050CF4E5C02091BE3C3091BF3C87E3D1
:1033F00090E0B9010E94325484E994E00F920F9258
:10340000EDB7FEB73196808391830E9470540F9080
:103410000F902091BE3C3091BF3C8AE090E0B90112
:103420000E943254C5C080910520909106208730BB
:103430009105FCF02091BE3C3091BF3C87E390E0C9
:10344000B9010E94325487E894E00F920F92EDB7D1
:10345000FEB73196808391830E9470540F900F9035
:103460002091BE3C3091BF3C8AE090E0B9010E94BF
:1034700032548AAD9BADACADBDAD2EAD3FADBC0100
:10348000CD01A9010E94A637882309F491C080913B
:1034900005209091062083309105FCF02091BE3CE0
:1034A0003091BF3C83E390E0B9010E9432548BE637
:1034B00094E00F920F92EDB7FEB73196808391831F
:1034C0000E9470540F900F902091BE3C3091BF3CF1
:1034D0008AE090E0B9010E94325491E021969FAFBA
:1034E000219769C08EAD9FADFC01369680818A33ED
:1034F00009F05EC0809105209091062087309105EB
:10350000FCF02091BE3C3091BF3C87E390E0B901D4
:103510000E9432548EE594E00F920F92EDB7FEB701
:103520003196808391830E9470540F900F90209168
:10353000BE3C3091BF3C8AE090E0B9010E94325419
:103540008AAD9BADACADBDAD2EAD3FADBC01CD01E7
:10355000A9010E94A637882359F1809105209091F6
:10356000062083309105FCF02091BE3C3091BF3C99
:1035700083E390E0B9010E94325482E494E00F9218
:103580000F92EDB7FEB73196808391830E947054FD
:103590000F900F902091BE3C3091BF3C8AE090E0AC
:1035A000B9010E943254A1E02196AFAF219703C028
:1035B00021961FAE219721968FAD2197C05CDF4FDA
:1035C000CDBFDEBFCF91DF911F910F91FF90EF90A4
:1035D000DF90CF90BF90AF9008952F923F924F927F
:1035E0005F926F927F928F929F92AF92BF92CF9293
:1035F000DF92EF92FF920F931F93DF93CF93CDB79C
:10360000DEB72C97CDBFDEBF89839A836B837C8323
:10361000E981FA818081282F30E0E981FA81818176
:10362000482F50E0E981FA818281682F70E0E981BA
:10363000FA818381A82FB0E0E981FA818481082F83
:1036400010E0E981FA818581E82EFF24E981FA8181
:103650008681C82EDD24E981FA818781A82EBB24CA
:10366000E981FA818085882E9924E981FA81818512
:10367000682E7724E981FA818285482E5524E981D4
:10368000FA818385282E3324E981FA818485E82F05
:10369000F0E0EB87FC87E981FA818585E82FF0E08F
:1036A000E987FA87E981FA818685E82FF0E0EF83E0
:1036B000F887E981FA818785E82FF0E0ED83FE83C2
:1036C0008DB79EB786978DBF9EBFEDB7FEB731967B
:1036D0008B819C81808391838EE290E082839383AF
:1036E00082E990E2848395832683378340875187DC
:1036F00062877387A487B58706871787E08AF18A70
:10370000C28AD38AA48AB58A868A978A608E718E85
:10371000428E538E248E358E8B859C85868F978F17
:1037200089859A8580A391A38F81988582A393A38D
:103730008D819E8184A395A30E949354EDB7FEB71B
:10374000B696EDBFFEBF2C96CDBFDEBFCF91DF9109
:103750001F910F91FF90EF90DF90CF90BF90AF90AF
:103760009F908F907F906F905F904F903F902F90A1
:103770000895CF92DF92EF92FF920F931F93DF9302
:10378000CF930F92CDB7DEB78091AD2A8170882399
:1037900009F45FC18091A12A9091A22AA091A32A45
:1037A000B091A42A803021E0920721E0A20720E016
:1037B000B20708F44EC18091052090910620863012
:1037C00091052CF12091BE3C3091BF3C86E390E006
:1037D000B9010E94325480EF96E000D00F92EDB70D
:1037E000FEB731968083918380E190E0828393835A
:1037F0000E9470540F900F900F900F902091BE3C3C
:103800003091BF3C8AE090E0B9010E94325480912F
:103810000520909106208630910544F12091BE3C10
:103820003091BF3C86E390E0B9010E94325425ED0F
:1038300036E0E0E0F0E48081882F90E000D00F9245
:10384000EDB7FEB7319620833183828393830E9444
:1038500070540F900F900F900F902091BE3C3091BC
:10386000BF3C8AE090E0B9010E943254809105206B
:10387000909106208630910544F12091BE3C309114
:10388000BF3C86E390E0B9010E9432542AEB36E057
:10389000E0E0F0E48181882F90E000D00F92EDB756
:1038A000FEB7319620833183828393830E947054C4
:1038B0000F900F900F900F902091BE3C3091BF3C25
:1038C0008AE090E0B9010E943254809105209091E5
:1038D0000620863091054CF12091BE3C3091BF3CD2
:1038E00086E390E0B9010E9432540DE916E0E0E071
:1038F000F0E4828193810E94911D00D00F92EDB778
:10390000FEB7319600831183828393830E947054A3
:103910000F900F900F900F902091BE3C3091BF3CC4
:103920008AE090E0B9010E94325480910520909184
:1039300006208630910594F12091BE3C3091BF3C29
:1039400086E390E0B9010E9432540FE716E0E0E010
:10395000F0E484819581A681B781BC01CD010E94EC
:10396000A01DDC01CB0100D000D0EDB7FEB7319631
:103970000083118382839383A483B5830E94705450
:103980008DB79EB706968DBF9EBF2091BE3C3091ED
:10399000BF3C8AE090E0B9010E943254809105203A
:1039A00090910620863091050CF44AC02091BE3CCF
:1039B0003091BF3C86E390E0B9010E9432540F2E53
:1039C000FAE5CF2EF6E0DF2EF02DE0E0F0E4808582
:1039D0009185A285B385BC01CD010E94A01D7B010C
:1039E0008C01E0E0F0E484859585A685B785BC016F
:1039F000CD010E94A01DDC01CB01EDB7FEB73A97C7
:103A0000EDBFFEBFEDB7FEB73196C082D182E28234
:103A1000F3820483158386839783A087B1870E94EE
:103A200070542DB73EB7265F3F4F2DBF3EBF20914C
:103A3000BE3C3091BF3C8AE090E0B9010E94325414
:103A400086E660E170E040E050E40E94B10E198229
:103A50005DC08091052090910620833091050CF483
:103A600053C02091BE3C3091BF3C83E390E0B9014C
:103A70000E94325444E256E08091A12A9091A22AF9
:103A8000A091A32AB091A42ACD01AA27BB27BC01EB
:103A90006F7070708091A12A9091A22AA091A32AA0
:103AA000B091A42A892F9A2FAB2FBB279C012F708E
:103AB00030708091A12A9091A22AA091A32AB0915E
:103AC000A42A8F709070EDB7FEB73897EDBFFEBF98
:103AD000EDB7FEB7319640835183628373832483AD
:103AE0003583868397830E9470542DB73EB7285F35
:103AF0003F4F2DBF3EBF2091BE3C3091BF3C8AE07E
:103B000090E0B9010E94325431E0398389810F90ED
:103B1000CF91DF911F910F91FF90EF90DF90CF90A9
:103B20000895DF93CF930F920F92CDB7DEB78983BD
:103B30009A8399818A810F900F90CF91DF91089598
:103B4000DF93CF9300D00F92CDB7DEB769837A832E
:103B50008B839C8389819A81AB81BC81BC01CD011F
:103B60000E94BC1DDC01CB01BC01CD012496CDBF60
:103B7000DEBFCF91DF910895DF93CF9300D00F92F6
:103B8000CDB7DEB769837A838B839C8329813A81A1
:103B9000922F832FCC01A0E0B0E0BC015527442731
:103BA00089819A81AB81BC81CD01AA27BB279C0169
:103BB000922F832FCC01A0E0B0E0842B952BA62B75
:103BC000B72BBC01CD012496CDBFDEBFCF91DF91D5
:103BD0000895DF93CF93CDB7DEB7CC55D040CDBF9E
:103BE000DEBF8091052090910620873091052CF151
:103BF0002091BE3C3091BF3C87E390E0B9010E9428
:103C0000325483E197E000D00F92EDB7FEB73196C2
:103C10008083918384E290E0828393830E94705436
:103C20000F900F900F900F902091BE3C3091BF3CB1
:103C30008AE090E0B9010E9432548BE664E270E0C1
:103C400040E150E40E94B10E80E0C45ADF4FCDBF86
:103C5000DEBFCF91DF910895DF93CF930F92CDB761
:103C6000DEB78091292090912A20A0912B20B0913D
:103C70002C208F3F2FEF92072FEFA2072FEFB207D5
:103C800009F43FC08091292090912A20A0912B20F7
:103C9000B0912C2089838091052090910620873057
:103CA000910534F12091BE3C3091BF3C87E390E018
:103CB000B9010E9432542BED37E08981882F90E0C2
:103CC00000D00F92EDB7FEB7319620833183828307
:103CD00093830E9470540F900F900F900F9020913B
:103CE000BE3C3091BF3C8AE090E0B9010E94325462
:103CF00081E761E070E09E012F5F3F4FA9010E94C4
:103D0000B10E80E00F90CF91DF910895DF93CF93B4
:103D1000CDB7DEB78091A12A9091A22AA091A32AC3
:103D2000B091A42A803021E0920721E0A20720E090
:103D3000B207B0F18091052090910620873091055F
:103D400044F12091BE3C3091BF3C87E390E0B90143
:103D50000E9432542CEF37E0E0E0F0E485A9882F90
:103D600090E000D00F92EDB7FEB7319620833183FB
:103D7000828393830E9470540F900F900F900F9046
:103D80002091BE3C3091BF3C8AE090E0B9010E9496
:103D900032548EE661E070E045E350E40E94B10EDB
:103DA00080E0CF91DF910895DF93CF93CDB7DEB759
:103DB0008091A12A9091A22AA091A32AB091A42A2D
:103DC000803024E0920721E0A20720E0B20708F447
:103DD00068C080910520909106208730910544F1BC
:103DE0002091BE3C3091BF3C87E390E0B9010E9436
:103DF00032542FE438E0E0E0F0E484A9882F90E02A
:103E000000D00F92EDB7FEB73196208331838283C5
:103E100093830E9470540F900F900F900F902091F9
:103E2000BE3C3091BF3C8AE090E0B9010E94325420
:103E300082E761E070E044E350E40E94B10EE0E00C
:103E4000F0E486A9882369F18091052090910620ED
:103E500087309105FCF02091BE3C3091BF3C87E358
:103E600090E0B9010E94325484E298E00F920F92E0
:103E7000EDB7FEB73196808391830E9470540F9006
:103E80000F902091BE3C3091BF3C8AE090E0B90198
:103E90000E94325483E760E070E040E050E00E940E
:103EA000B10E80E0CF91DF910895DF93CF93CDB72E
:103EB000DEB780919C2A882371F58091052090912E
:103EC000062087309105FCF02091BE3C3091BF3C2C
:103ED00087E390E0B9010E94325485EC98E00F929C
:103EE0000F92EDB7FEB73196808391830E94705494
:103EF0000F900F902091BE3C3091BF3C8AE090E043
:103F0000B9010E94325487E660E070E040E050E082
:103F10000E94B10E92C080919C2A813071F58091EF
:103F200005209091062087309105FCF02091BE3C41
:103F30003091BF3C87E390E0B9010E9432548AEA95
:103F400098E00F920F92EDB7FEB731968083918380
:103F50000E9470540F900F902091BE3C3091BF3C56
:103F60008AE090E0B9010E9432548FE660E070E090
:103F700040E050E00E94B10E60C080919C2A8230E7
:103F800071F5809105209091062087309105FCF015
:103F90002091BE3C3091BF3C87E390E0B9010E9484
:103FA000325489E898E00F920F92EDB7FEB7319640
:103FB000808391830E9470540F900F902091BE3C9B
:103FC0003091BF3C8AE090E0B9010E94325480E712
:103FD00060E070E040E050E00E94B10E2EC08091A1
:103FE000052090910620833091053CF12091BE3C44
:103FF0003091BF3C83E390E0B9010E94325421E745
:1040000038E080919C2A882F90E000D00F92EDB785
:10401000FEB7319620833183828393830E9470544C
:104020000F900F900F900F902091BE3C3091BF3CAD
:104030008AE090E0B9010E94325480E0CF91DF9194
:104040000895DF93CF93CDB7DEB78091052090918F
:10405000062087309105FCF02091BE3C3091BF3C9A
:1040600087E390E0B9010E94325485EE98E00F9208
:104070000F92EDB7FEB73196808391830E94705402
:104080000F900F902091BE3C3091BF3C8AE090E0B1
:10409000B9010E94325488E660E070E040E050E0F0
:1040A0000E94B10E80E0CF91DF910895DF93CF930E
:1040B000CDB7DEB78091052090910620873091051D
:1040C000FCF02091BE3C3091BF3C87E390E0B90109
:1040D0000E9432548BEF98E00F920F92EDB7FEB72B
:1040E0003196808391830E9470540F900F9020919D
:1040F000BE3C3091BF3C8AE090E0B9010E9432544E
:104100008091AD2A8D7F8093AD2A89E660E070E0D2
:1041100040E050E00E94B10E80E0CF91DF91089521
:10412000DF93CF9300D000D0CDB7DEB769837A8319
:104130008B839C834D835E8329813A814D815E818F
:1041400085E6B9010E94B10E80E02696CDBFDEBFA4
:10415000CF91DF910895DF93CF93CDB7DEB78091F4
:1041600005209091062087309105FCF02091BE3CFF
:104170003091BF3C87E390E0B9010E94325487E15F
:1041800099E00F920F92EDB7FEB73196808391833D
:104190000E9470540F900F902091BE3C3091BF3C14
:1041A0008AE090E0B9010E9432548DE660E070E050
:1041B00040E050E00E94B10E80E0CF91DF91089581
:1041C000DF93CF93CDB7DEB7809105209091062085
:1041D00087309105FCF02091BE3C3091BF3C87E3D5
:1041E00090E0B9010E9432548CE299E00F920F9254
:1041F000EDB7FEB73196808391830E9470540F9083
:104200000F902091BE3C3091BF3C8AE090E0B90114
:104210000E94325480E060E070E040E050E00E9494
:10422000B10E80E0CF91DF910895DF93CF93CDB7AA
:10423000DEB7809105209091062087309105FCF033
:104240002091BE3C3091BF3C87E390E0B9010E94D1
:10425000325488E499E00F920F92EDB7FEB7319691
:10426000808391830E9470540F900F902091BE3CE8
:104270003091BF3C8AE090E0B9010E9432548AE656
:1042800060E070E040E050E00E94B10E80E0CF912D
:10429000DF910895DF93CF9300D000D0CDB7DEB784
:1042A00069837A838B839C834D835E838091AD2A5F
:1042B0008870882309F482C08D819E81009741F126
:1042C0008091052090910620873091050CF476C0EE
:1042D0002091BE3C3091BF3C87E390E0B9010E9441
:1042E000325488E699E00F920F92EDB7FEB73196FF
:1042F000808391830E9470540F900F902091BE3C58
:104300003091BF3C8AE090E0B9010E94325456C01F
:1043100080918C3390918D33A0918E33B0918F33F7
:104320002091A52A3091A62A4091A72A5091A82A27
:10433000821B930BA40BB50B8B309105A105B10526
:10434000E8F1809105209091062087309105FCF0DE
:104350002091BE3C3091BF3C87E390E0B9010E94C0
:10436000325483E699E00F920F92EDB7FEB7319683
:10437000808391830E9470540F900F902091BE3CD7
:104380003091BF3C8AE090E0B9010E9432548DE642
:1043900060E070E040E050E00E94B10E80918C330C
:1043A00090918D33A0918E33B0918F338093A52A55
:1043B0009093A62AA093A72AB093A82A80E02696D5
:1043C000CDBFDEBFCF91DF910895EF92FF920F93A3
:1043D0001F93DF93CF9300D00F92CDB7DEB78983C1
:1043E0008091FA3BE82EFF24EB82FC820B811C813A
:1043F0000530110509F450C12B813C81263031056F
:10440000F4F48B819C818230910509F4D2C00B8138
:104410001C810330110534F42B813C81213031059E
:1044200099F18CC28B819C818330910509F401C183
:104430000B811C810430110509F428C17FC22B8136
:104440003C812830310509F49AC18B819C818930E7
:1044500091056CF40B811C810630110509F44FC1E4
:104460002B813C812730310509F44FC167C28B8114
:104470009C818930910509F43EC20B811C810A3070
:10448000110509F44EC25AC28091AD2A8170882369
:1044900009F084C08091A92A9091AA2AA091AB2A00
:1044A000B091AC2A0097A105B10531F180910520AA
:1044B0009091062087309105FCF02091BE3C309110
:1044C000BF3C87E390E0B9010E9432548BE29AE04E
:1044D0000F920F92EDB7FEB73196808391830E94C1
:1044E00070540F900F902091BE3C3091BF3C8AE0F9
:1044F00090E0B9010E9432548091A92A9091AA2A91
:10450000A091AB2AB091AC2A0196A11DB11D809358
:10451000A92A9093AA2AA093AB2AB093AC2A80919F
:10452000A92A9091AA2AA091AB2AB091AC2A8330F3
:104530009105A105B10548F58091052090910620CF
:1045400087309105FCF02091BE3C3091BF3C87E361
:1045500090E0B9010E94325488E19AE00F920F92E4
:10456000EDB7FEB73196808391830E9470540F900F
:104570000F902091BE3C3091BF3C8AE090E0B901A1
:104580000E9432540E94E020D9C11092A92A1092B0
:10459000AA2A1092AB2A1092AC2AD0C11092A92A52
:1045A0001092AA2A1092AB2A1092AC2A82E0809331
:1045B000FA3BE0E0F0E480859185A285B385009721
:1045C000A105B10551F51092FA3B8091052090911B
:1045D0000620823091050CF4B1C12091BE3C30918F
:1045E000BF3C82E390E0B9010E9432548DE09AE032
:1045F0000F920F92EDB7FEB73196808391830E94A0
:1046000070540F900F902091BE3C3091BF3C8AE0D7
:1046100090E0B9010E94325491C10E94B91B8823D5
:1046200021F483E08093FA3B89C181E08093FA3BD7
:1046300085C1E0E0F0E4E0A0F1A002A113A160E0F8
:1046400070E080E090E00E94BC1DDC01CB01E81628
:10465000F9060A071B0711F00E94E91D8091A12AA3
:104660009091A22AA091A32AB091A42A803011E0AF
:10467000910711E0A10710E0B10720F084E08093DA
:10468000FA3B5CC185E08093FA3B58C10E94861ECC
:1046900085E08093FA3B52C10E94551F8091A12A68
:1046A0009091A22AA091A32AB091A42A803024E05C
:1046B000920721E0A20720E0B20720F086E0809375
:1046C000FA3B3CC18091A12A9091A22AA091A32AF1
:1046D000B091A42A803031E0930731E0A30730E0A5
:1046E000B30720F087E08093FA3B28C18091AD2A80
:1046F0008D7F8093AD2A88E08093FA3B1FC10E9492
:10470000D41E87E08093FA3B19C18091AD2A847052
:10471000882369F58981882309F410C180910520D7
:104720009091062087309105FCF02091BE3C30919D
:10473000BF3C87E390E0B9010E94325484EF99E0D6
:104740000F920F92EDB7FEB73196808391830E944E
:1047500070540F900F902091BE3C3091BF3C8AE086
:1047600090E0B9010E9432540E941521E7C088E010
:104770008093FA3B8091AD2A8D7F8093AD2A809102
:10478000AD2A8270882309F0ABC08981882309F49F
:10479000D5C08091A92A9091AA2AA091AB2AB09164
:1047A000AC2A0097A105B10531F1809105209091C7
:1047B000062087309105FCF02091BE3C3091BF3C33
:1047C00087E390E0B9010E94325488ED99E00F929E
:1047D0000F92EDB7FEB73196808391830E9470549B
:1047E0000F900F902091BE3C3091BF3C8AE090E04A
:1047F000B9010E9432548091A92A9091AA2AA091CD
:10480000AB2AB091AC2A0196A11DB11D8093A92AB3
:104810009093AA2AA093AB2AB093AC2A8091A92A9C
:104820009091AA2AA091AB2AB091AC2A8A30910526
:10483000A105B10548F580910520909106208730AB
:104840009105FCF02091BE3C3091BF3C87E390E0A5
:10485000B9010E9432548EEB99E00F920F92EDB79E
:10486000FEB73196808391830E9470540F900F9011
:104870002091BE3C3091BF3C8AE090E0B9010E949B
:1048800032540E9456205AC08091052090910620F3
:1048900083309105FCF02091BE3C3091BF3C83E316
:1048A00090E0B9010E9432548EE999E00F920F9284
:1048B000EDB7FEB73196808391830E9470540F90BC
:1048C0000F902091BE3C3091BF3C8AE090E0B9014E
:1048D0000E94325481E08093FA3B0E9421202EC036
:1048E0001092A92A1092AA2A1092AB2A1092AC2AEE
:1048F00089E08093FA3B8091A12A9091A22AA0910D
:10490000A32AB091A42A803003E0900701E0A00719
:1049100000E0B00710F00E942C1E8AE08093FA3B62
:104920000DC060E070E080E090E040E050E00E9468
:104930004A21882319F011E01A8375C08091AD2AAD
:104940008170882309F46EC08091AD2A8870882315
:1049500009F468C020918C3330918D3340918E33AF
:1049600050918F3380919D2A90919E2AA0919F2AE9
:10497000B091A02A79018A01E81AF90A0A0B1B0BE7
:10498000D801C7018D339105A105B10508F44AC0CE
:104990008091052090910620833091050CF43FC052
:1049A0002091BE3C3091BF3C83E390E0B9010E946E
:1049B00032546DE679E020918C3330918D33409103
:1049C0008E3350918F3380919D2A90919E2AA09191
:1049D0009F2AB091A02A79018A01E81AF90A0A0BE4
:1049E0001B0BD801C70100D000D0EDB7FEB7319640
:1049F0006083718382839383A483B5830E94705400
:104A00000DB71EB70A5F1F4F0DBF1EBF2091BE3CE2
:104A10003091BF3C8AE090E0B9010E94325412E02C
:104A20001A8301C01A828A812496CDBFDEBFCF913E
:104A3000DF911F910F91FF90EF900895DF93CF9337
:104A4000CDB7DEB780910520909106208730910583
:104A5000FCF02091BE3C3091BF3C87E390E0B9016F
:104A60000E94325487E49AE00F920F92EDB7FEB79E
:104A70003196808391830E9470540F900F90209103
:104A8000BE3C3091BF3C8AE090E0B9010E943254B4
:104A90000E942120E0E0F0E480859185A285B38525
:104AA0000097A105B10519F41092FA3B03C081E00B
:104AB0008093FA3B8DEA9AE260E070E041E050E0DA
:104AC0000E94135480E00E94E521CF91DF91089568
:104AD0000F931F93DF93CF9300D000D0CDB7DEB7F5
:104AE00069837A838B839C834D835E831092A12A92
:104AF0001092A22A1092A32A1092A42AED81FE817C
:104B00008081882F90E0A0E0B0E0AC01332722271D
:104B10008091A12A9091A22AA091A32AB091A42ABF
:104B2000822B932BA42BB52B8093A12A9093A22A9E
:104B3000A093A32AB093A42A8D819E81FC01319673
:104B40008081882F90E0982F88279C01442737FD8B
:104B50004095542F8091A12A9091A22AA091A32A36
:104B6000B091A42A822B932BA42BB52B8093A12A3E
:104B70009093A22AA093A32AB093A42A8D819E8108
:104B8000FC0132968081282F30E040E050E0809197
:104B9000A12A9091A22AA091A32AB091A42A822BA3
:104BA000932BA42BB52B8093A12A9093A22AA09398
:104BB000A32AB093A42A00E410E68091A12A909140
:104BC000A22AA091A32AB091A42ABC01CD010E94DF
:104BD000BC1DDC01CB01F80182A393A3A4A3B5A360
:104BE000809105209091062086309105F4F1209166
:104BF000BE3C3091BF3C86E390E0B9010E94325444
:104C000047E55AE0ED81FE818081682F70E08D815B
:104C10009E81FC0131968081282F30E08D819E811C
:104C2000FC0132968081882F90E0EDB7FEB738976F
:104C3000EDBFFEBFEDB7FEB731964083518362836F
:104C4000738324833583868397830E9470548DB742
:104C50009EB708968DBF9EBF2091BE3C3091BF3C51
:104C60008AE090E0B9010E9432548091AD2A8160BF
:104C70008093AD2A8091A12A9091A22AA091A32A83
:104C8000B091A42A8030E1E09E07E1E0AE07E0E0C9
:104C9000BE0728F08091AD2A88608093AD2A80E01D
:104CA0002696CDBFDEBFCF91DF911F910F91089562
:104CB0002F923F924F925F926F927F928F929F922C
:104CC000AF92BF92CF92DF92EF92FF920F931F931A
:104CD000DF93CF93CDB7DEB72F97CDBFDEBF698708
:104CE0007A878B879C874D875E8789859A85AB8578
:104CF000BC8583309105A105B10569F489859A8544
:104D0000AB85BC852D853E85BC01CD01A9010E94E6
:104D100068258F87BDC18091A12A9091A22AA09178
:104D2000A32AB091A42A803021E0920721E0A207B3
:104D300020E0B20708F4ABC18EEB9BE32D853E85E6
:104D4000B90140E150E00E940A5480910520909101
:104D5000062086309105FCF02091BE3C3091BF3C8E
:104D600086E390E0B9010E94325482E19BE00F9209
:104D70000F92EDB7FEB73196808391830E947054F5
:104D80000F900F902091BE3C3091BF3C8AE090E0A4
:104D9000B9010E9432548091C63B9091C73BA091CB
:104DA000C83BB091C93BBC01CD010E94BC1DDC01D8
:104DB000CB015C016D01EE24FF2487012A2D3B2DE0
:104DC0004C2D5D2D6E2D7F2D802F912F00E20E94A6
:104DD000D952A22EB32EC42ED52EE62EF72E082F92
:104DE000192F2A2C3B2C4C2C5D2C6E2C7F2C802ECA
:104DF000912E8091CA3B9091CB3BA091CC3BB0913E
:104E0000CD3BBC01CD010E94BC1DDC01CB019C014E
:104E1000AD0160E070E080E090E0E22DE22BE983FC
:104E2000E32DE32BEA83E42DE42BEB83E52DE52B47
:104E3000EC83E62DE62BED83E72DE72BEE83E82DC3
:104E4000E82BEF83892D892B88878091052090910D
:104E50000620863091053CF12091BE3C3091BF3C4C
:104E600086E390E0B9010E94325427EF3AE0809146
:104E7000BE3B882F90E000D00F92EDB7FEB7319681
:104E800020833183828393830E9470540F900F900C
:104E90000F900F902091BE3C3091BF3C8AE090E093
:104EA000B9010E94325480910520909106208630ED
:104EB00091053CF12091BE3C3091BF3C86E390E0EF
:104EC000B9010E9432542CED3AE08091BF3B882F0B
:104ED00090E000D00F92EDB7FEB73196208331837A
:104EE000828393830E9470540F900F900F900F90C5
:104EF0002091BE3C3091BF3C8AE090E0B9010E9415
:104F000032548091052090910620863091054CF115
:104F10002091BE3C3091BF3C86E390E0B9010E94F5
:104F200032540FEB1AE08091C03B9091C13B0E943C
:104F30005F2800D00F92EDB7FEB731960083118342
:104F4000828393830E9470540F900F900F900F9064
:104F50002091BE3C3091BF3C8AE090E0B9010E94B4
:104F60003254809105209091062086309105A4F15D
:104F70002091BE3C3091BF3C86E390E0B9010E9495
:104F8000325401EA1AE08091C23B9091C33BA09158
:104F9000C43BB091C53BBC01CD010E94A01DDC010A
:104FA000CB0100D000D0EDB7FEB73196008311835E
:104FB00082839383A483B5830E9470548DB79EB778
:104FC00006968DBF9EBF2091BE3C3091BF3C8AE0CB
:104FD00090E0B9010E943254809105209091062002
:104FE000863091050CF44EC02091BE3C3091BF3C00
:104FF00086E390E0B9010E9432540F2EFCE7CF2ED9
:10500000FAE0DF2EF02D8091C63B9091C73BA09136
:10501000C83BB091C93BBC01CD010E94BC1D7B01C6
:105020008C018091CA3B9091CB3BA091CC3BB0913D
:10503000CD3BBC01CD010E94BC1DDC01CB012DB7D5
:105040003EB72A5030402DBF3EBFEDB7FEB7319678
:10505000C082D182E282F3820483158386839783A0
:10506000A087B1870E9470548DB79EB70A968DBFF6
:105070009EBF2091BE3C3091BF3C8AE090E0B901D8
:105080000E9432548091AD2A84608093AD2A1F869D
:105090008F852F96CDBFDEBFCF91DF911F910F91EE
:1050A000FF90EF90DF90CF90BF90AF909F908F9048
:1050B0007F906F905F904F903F902F900895DF9377
:1050C000CF930F920F92CDB7DEB789839A838981F0
:1050D0009A810E94911D0F900F90CF91DF910895BA
:1050E000DF93CF93CDB7DEB72897CDBFDEBF6B83FD
:1050F0007C838D839E834F8358878091A12A9091D2
:10510000A22AA091A32AB091A42A803021E092077C
:1051100021E0A20720E0B20708F443C08F81988500
:1051200089839A8361E070E080E090E00E94BC1D7A
:10513000DC01CB018093DE3B9093DF3BA093E03B0F
:10514000B093E13B8EEC9BE329813A81B90144E2C3
:1051500050E00E940A5480910520909106208630EC
:105160009105FCF02091BE3C3091BF3C86E390E07D
:10517000B9010E94325485E39BE00F920F92EDB784
:10518000FEB73196808391830E9470540F900F90E8
:105190002091BE3C3091BF3C8AE090E0B9010E9472
:1051A000325480E02896CDBFDEBFCF91DF910895C5
:1051B000DF93CF9300D000D0CDB7DEB769837A8379
:1051C0008B839C834D835E83809105209091062084
:1051D00086309105FCF02091BE3C3091BF3C86E3C7
:1051E00090E0B9010E94325481E69BE00F920F9249
:1051F000EDB7FEB73196808391830E9470540F9073
:105200000F902091BE3C3091BF3C8AE090E0B90104
:105210000E94325482E08093FA3B80E02696CDBF14
:10522000DEBFCF91DF910895DF93CF93CDB7DEB787
:10523000E997CDBFDEBF6FA778AB89AB9AAB4BAB1D
:105240005CABCE0101968DAB9EABAAEDB0E2AFABED
:10525000B8AFBCE1B9AFEFA9F8AD00808FA998ADA8
:1052600001968FAB98AFADA9BEA90C92EDA9FEA98E
:105270003196EDABFEABF9ADF150F9AF89AD8823B6
:1052800051F782E1FE017D96DF01982F1D929A95DC
:10529000E9F78BA99CA99E012F5F3F4FB9010E949E
:1052A000ED1A83E89CE32BA93CA9B90140E150E049
:1052B0000E940A5480910520909106208630910525
:1052C0002CF12091BE3C3091BF3C86E390E0B901C7
:1052D0000E94325483E89BE000D00F92EDB7FEB7F6
:1052E000319680839183CE010196828393830E94BD
:1052F00070540F900F900F900F902091BE3C309102
:10530000BF3C8AE090E0B9010E9432548091AD2AFE
:1053100082608093AD2A80E0E996CDBFDEBFCF9159
:10532000DF910895DF93CF93CDB7DEB72797CDBF39
:10533000DEBF6A837B838C839D834E835F83EE8194
:10534000FF81808189838981883010F087E089839B
:105350002A813B818E819F81FC01E20FF31F108225
:105360008981282F30E080910520909106208217B6
:10537000930744F18981882F90E0C0962091BE3C2C
:105380003091BF3CB9010E94325426E93BE08E8146
:105390009F81019600D00F92EDB7FEB73196208322
:1053A0003183828393830E9470540F900F900F90EB
:1053B0000F902091BE3C3091BF3C8AE090E0B90153
:1053C0000E94325480E02796CDBFDEBFCF91DF919F
:1053D0000895DF93CF93CDB7DEB72B97CDBFDEBF58
:1053E0008A834B835C836D837E832F83388781E040
:1053F00089838A81282F30E02A873B878A859B858D
:105400008936910509F455C02A853B852A36310530
:105410008CF48A859B858536910521F12A853B850B
:105420002636310561F18A859B858130910509F425
:1054300067C080C02A853B852B36310569F18A8596
:105440009B858B3691050CF441C02A853B852C3613
:10545000310509F448C08A859B858D36910509F48C
:105460005CC068C08B819C81AD81BE812F813885F5
:10547000BC01CD01A9010E942B1389835DC08B81E2
:105480009C81AD81BE812F813885BC01CD01A901F0
:105490000E945826898350C08B819C81AD81BE813A
:1054A0002F813885BC01CD01A9010E947028898314
:1054B00043C08B819C81AD81BE812F813885BC0129
:1054C000CD01A9010E941429898336C08B819C815A
:1054D000AD81BE812F813885BC01CD01A9010E941B
:1054E000D828898329C08B819C81AD81BE812F8181
:1054F0003885BC01CD01A9010E94922989831CC075
:105500008B819C81AD81BE812F813885BC01CD010D
:10551000A9010E94682589830FC08B819C81AD8180
:10552000BE812F813885BC01CD01A9010E944A218D
:10553000898302C0198619C080918C3390918D3374
:10554000A0918E33B0918F3380939D2A90939E2AA1
:10555000A0939F2AB093A02A8981882321F480E018
:105560000E94E52189839981998789852B96CDBFF2
:10557000DEBFCF91DF910895DF93CF9300D000D0AD
:10558000CDB7DEB789839A834B835C836D837E833B
:1055900080E090E02696CDBFDEBFCF91DF910895E9
:1055A000DF93CF930F920F92CDB7DEB789839A83A3
:1055B000809105209091062087309105C4F180915B
:1055C000052090910620873091058CF12091BE3CFA
:1055D0003091BF3C87E390E0B9010E94325481EAE8
:1055E0009BE000D00F92EDB7FEB731968083918398
:1055F00089819A81828393830E9470540F900F90C7
:105600000F900F902091BE3C3091BF3C8AE090E01B
:10561000B9010E9432540BC0E981FA81208189814D
:105620009A81019689839A83822F0E94504BE98147
:10563000FA818081882381F70F900F90CF91DF91BD
:105640000895DF93CF9300D00F92CDB7DEB7898353
:105650009A836B837C8380918C3390918D33A0915E
:105660008E33B0918F338093BC329093BD32A09330
:10567000BE32B093BF3281E08093B42A1092B52A33
:105680001092B62A8B819C818093C0329093C13254
:105690002496CDBFDEBFCF91DF910895EF92FF92A8
:1056A0000F931F93DF93CF93CDB7DEB78091052083
:1056B0009091062087309105FCF02091BE3C3091FE
:1056C000BF3C87E390E0B9010E9432548BEA9BE033
:1056D0000F920F92EDB7FEB73196808391830E94AF
:1056E00070540F900F902091BE3C3091BF3C8AE0E7
:1056F00090E0B9010E9432541092BB2A1092AE2A57
:10570000E0E4F6E080E2858380918C3390918D33E4
:10571000A0918E33B0918F338093BC329093BD3281
:10572000A093BE32B093BF3202C00E94F83E2091D7
:105730008C3330918D3340918E3350918F338091E3
:10574000BC329091BD32A091BE32B091BF3279018E
:105750008A01E81AF90A0A0B1B0BD801C70182302B
:105760009105A105B10508F380918C3390918D339B
:10577000A0918E33B0918F338093BC329093BD3221
:10578000A093BE32B093BF328091BC329091BD32B3
:10579000A091BE32B091BF328B309105A105B10509
:1057A000A4F08091BC329091BD32A091BE32B091F4
:1057B000BF320A97A109B1098093BC329093BD32E0
:1057C000A093BE32B093BF3208C01092BC32109288
:1057D000BD321092BE321092BF32E0E4F6E080E2B9
:1057E0008683CF91DF911F910F91FF90EF900895E5
:1057F000EF92FF920F931F93DF93CF93CDB7DEB756
:105800002897CDBFDEBF8091AE2A863098F01092E7
:10581000AF2A0E944E2B00E410E6E0E4F0E680811F
:1058200091810E94DF3001960E94F030F801808360
:105830009183BBC420918C3330918D3340918E3352
:1058400050918F338091BC329091BD32A091BE3285
:10585000B091BF3279018A01E81AF90A0A0B1B0BD1
:10586000D801C70184309105A105B10508F496C49B
:105870008091AF2A8D3089F480918C3390918D3353
:10588000A0918E33B0918F338093BC329093BD3210
:10589000A093BE32B093BF3288C41092B42A8091D4
:1058A000B52A9091B62A0097B9F48091AF2A8D302D
:1058B00098F41092AF2A0E944E2B00E410E6E0E428
:1058C000F0E6808191810E94DF3001960E94F030E5
:1058D000F8018083918369C48091B52A9091B62A9A
:1058E000009709F462C48091B52A9091B62AFC0110
:1058F000EE53FD4C10828091052090910620873058
:10590000910564F1809105209091062087309105E2
:105910002CF12091BE3C3091BF3C87E390E0B9016F
:105920000E94325486E39CE000D00F92EDB7FEB7A0
:1059300031968083918382EC92E3828393830E94E9
:1059400070540F900F900F900F902091BE3C3091AB
:10595000BF3C8AE090E0B9010E9432548091AF2AA6
:10596000E82EFF24EF82F8860F8118850530110597
:1059700009F464C12F813885263031052CF58F81DB
:1059800098858230910509F49AC0EF81F885E3305B
:10599000F1056CF4EF80F884E114F10409F43FC0E0
:1059A0000F8118850130110509F46EC0FEC32F81E7
:1059B00038852330310509F491C08F819885843072
:1059C000910509F4F0C0F1C3EF81F885E830F105E5
:1059D00009F476C10F811885093011056CF42F8107
:1059E00038852630310509F435C18F819885873097
:1059F000910509F44AC1D9C3EF81F885EA30F10570
:105A000009F47EC10F8118850A3011050CF46CC1B0
:105A10002F8138852C30310509F47EC1C6C38091B1
:105A2000B52A9091B62A8A30910599F48091B52AC9
:105A30009091B62AAC0182EC92E328E031E2B90100
:105A40000E94FD53009709F0B0C381E08093AF2A14
:105A5000ACC38091B52A9091B62A8630910509F0A1
:105A6000A4C38091B52A9091B62AAC0182EC92E34E
:105A700023E131E2B9010E94FD53009709F095C37B
:105A800082E08093AF2A91C38091B52A9091B62A83
:105A90008C30910509F089C38091B52A9091B62A7E
:105AA000AC0182EC92E32AE131E2B9010E94FD539C
:105AB000009709F07AC382E08093AF2A76C3809181
:105AC000B52A9091B62A8B30910524F08CE0809312
:105AD000AF2A6BC383E08093AF2A67C38091B52A56
