:100000000C94C5070C94EB070C94EB070C94EB07CE
:100010000C94EB070C94EB070C94EB070C94EB0798
:100020000C94EB070C94EB070C94EB070C94EB0788
:100030000C94EB070C94EB070C94EB070C94EB0778
:100040000C94EB070C94EB070C94EB070C94EB0768
:100050000C94EB070C94EB070C94EB070C94EB0758
:100060000C94EB070C94EB070C94EB070C94EB0748
:100070000C94784D0C94E44D0C94CC4D0C94EB07FF
:100080000C94EB070C94EB070C94EB070C94EB0728
:100090000C94EB070C94EB070C94EB070C94EB0718
:1000A0000C94EB070C94EB070C94EB070C94EB0708
:1000B0000C94EB070C94EB070C94EB070C94EB07F8
:1000C0000C94EB070C94EB070C94EB070C94EB07E8
:1000D0000C94EB070C94EB070C94EB070C94EB07D8
:1000E0000C94EB070C94EB070C94324F0C949E4F3E
:1000F0000C94864F0C94EB070C94EB070C94EB07D5
:100100000C94EB070C94EB070C94EB070C94EB07A7
:100110000C94EB070C94EB070C94EB070C94EB0797
:100120000C94EB070C94EB070C94EB070C94EB0787
:100130000C94EB070C94EB070C94EB070C94EB0777
:100140000C94EB070C94EB070C94EB070C94EB0767
:100150000C94EB070C94EB070C94EB070C94EB0757
:100160000C94594B0C94C54B0C94AD4B0C94EB0771
:100170000C94EB070C94EB070C94EB070C94EB0737
:100180000C94EB070C94EB070C94EB070C94EB0727
:100190000C94EB070C94EB070C94EB070C94EB0717
:1001A0000C94EB070C94EB070C94EB070C944E505B
:1001B0000C94EB070C94EB070C94EB070C94EB07F7
:1001C0000C94EB070C94EB070C94EB070C94EB07E7
:1001D0000C94EB070C94EB070C94EB070C94EB07D7
:1001E0000C94EB070C94EB070C94EB070C94EB07C7
:1001F0000C94EB074C616D70202520336420253072
:100200003258253032582530325825303258253072
:1002100032582530325825303258253032580A00AD
:100220000A0D435243207473436F6E666967426FD1
:10023000726465725275746572203D2025642020B9
:100240002020707354696D657273203D2025640A07
:100250000D000A0D53657420766572626F736974C0
:10026000793A000A0D536574204F6666204D696E19
:100270007574653A000A0D536574204F6666204810
:100280006F75723A000A0D536574204F6E204D69E8
:100290006E7574653A000A0D536574204F6E2048E0
:1002A0006F75723A000A0D536574204D696E75744E
:1002B000653A000A0D53657420486F75723A000A5A
:1002C0000D53657420446174653A000A0D536574DA
:1002D000204D6F6E74683A000A0D5365742059659D
:1002E00061723A000A0D0046726F6D20435244322B
:1002F000207561727420726563697665643A005096
:100300007265737320616E79206B657920210A0D07
:1003100000546F20435244322055617274202020D3
:100320002073656E6465743A4645444342413938EA
:1003300037363534333231300A0D000A0D0046723B
:100340006F6D20475052532075617274207265633F
:10035000697665643A00507265737320616E792026
:100360006B657920210A0D00546F204750525320AD
:10037000556172742020202073656E6465743A3074
:100380003132333435363738394142434445460AF1
:100390000D004572726F722068616E646C696E67E1
:1003A0002074756E207061636B6574004572726FA6
:1003B0007220636F6D6D756E69636174696E67201D
:1003C0007769746820626F7264657220726F7574E9
:1003D0006572206D6F64756C650042414420636CEA
:1003E0006561722052414D00424144206372632096
:1003F000696E2052414D2C20707354696D65727383
:10040000004241442063726320696E2052414D2CAA
:100410002070734D6F64756C65536574436F6E66C1
:100420006967004572726F722077726974696E67CE
:10043000207061636B657420746F206D6F64756CE0
:1004400065004572726F722077726974696E6720F9
:10045000746F2074756E20646576696365005365FA
:100460006E64206D657373616765004572726F72AB
:100470002077726974696E6720746F2074756E20BE
:100480006465766963650053656E64206D6573739A
:1004900061676500546F20626F7264657220616EDF
:1004A00073776572004A656E4E65744E6574776F3A
:1004B000726B426C6F625461626C6520204E4F52C9
:1004C000452025642056657273696F6E202564206F
:1004D0006C656E67687420256400546F20626F72CB
:1004E0006465722066726F6D20726F75746572201C
:1004F000616E73776572004C6F63616C206D65731C
:1005000073616765004C6F63616C206D756C746915
:100510006361737420616E73776572004572726FE8
:10052000722077726974696E6720746F2074756EBB
:10053000206465766963650053656E64206D65733C
:1005400073616765004D756C7469636173742061D4
:100550006E73776572004572726F7220777269747C
:10056000696E67207061636B657420746F206D6FB6
:1005700064756C65004163637365732052656A65D9
:1005800063740041636373657320416363657074D2
:1005900000524144495553204163636573732052AF
:1005A00065717565737420253032582530325825B1
:1005B00030325825303258253032582530325825BF
:1005C00030325825303258004241442043616C6338
:1005D000756C6174656420636865636B73756D2009
:1005E000253034580050726F74636F6C202564207E
:1005F0004C656E67687420256420436865636B737F
:10060000756D202530345800495076362066726F5B
:100610006D204A656E6E6963206C656E6768742034
:10062000256C640043616E6E6F7420636F6E666943
:100630006775726520626F7264657220726F75747F
:100640006572206E6F64652076657273696F6E20C7
:100650005625642E25642E256400436F6E666967F7
:1006600020364C6F5750414E205072656669782095
:100670003A2030782530386C782530386C78004353
:100680006F6E666967204A656E4E65742049442026
:1006900020202020203A203078256C7800436F6E8F
:1006A0006669672031352E342050414E2049442060
:1006B0002020203A203078257800436F6E666967E5
:1006C0002031352E34204368616E6E656C20202009
:1006D0003A20256400436F6E6669672031352E34F9
:1006E00020526567696F6E202020203A2025640023
:1006F00057726974696E6720636F6E666967757299
:100700006174696F6E20746F204D6F64756C652025
:1007100025640057726974696E67204D6F64756C4B
:10072000653A20536563757269747920436F6E660C
:10073000696720256400417574686F72697361741C
:10074000696F6E20536368656D6520204552524F76
:100750005200417574686F7269736174696F6E20BD
:10076000536368656D6520203A20524144495553D2
:10077000207365727665722061742025732075730D
:10078000696E672050415000417574686F726973DB
:100790006174696F6E20536368656D6520203A202F
:1007A0004E6F6E65004E6574776F726B204B657986
:1007B00020202020202020202020203A20257300E7
:1007C000456E61626C696E67206E6574776F726BDF
:1007D0002073656375726974793A00577269746938
:1007E0006E67204D6F64756C653A2041637469765D
:1007F000697479204C45443A202564005772697425
:10080000696E67204D6F64756C653A20536574207E
:100810004A656E4E65742050726F66696C6520285B
:100820002564290057726974696E67204D6F64757D
:100830006C653A20456E61626C696E6720416E742A
:10084000656E6E61204469766572736974790057CC
:10085000726974696E67204D6F64756C653A2053D8
:1008600065742046726F6E74656E64202825642955
:1008700000556E6B6E6F776E206D6F64756C6520C2
:100880006D6F64653A2025640057726974696E67FC
:10089000204D6F64756C653A2052756E20436F6D04
:1008A0006D6973696F6E696E670057726974696EFE
:1008B00067204D6F64756C653A2052756E20526FDB
:1008C000757465720057726974696E67204D6F6444
:1008D000756C653A2052756E20436F6F7264696E55
:1008E00061746F720057726974696E67204D6F642E
:1008F000756C653A20526573657400577269746946
:100900006E67204D6F64756C653A204765742041B1
:100910006464726573730057726974696E67204D01
:100920006F64756C653A2050696E67005772697420
:10093000696E67204D6F64756C653A204765742059
:1009400056657273696F6E0057726974696E6720BD
:100950004D6F64756C653A2047657420436F6E6611
:1009600069670050696E6700506F6E67004E6F6474
:1009700065206E6F7420726573706F6E64696E6748
:1009800020286C61737420636F6D6D7320256C6417
:10099000207365636F6E64732061676F2900436124
:1009A0006E6E6F742064657465726D696E65206D1E
:1009B0006F64756C65206164647265737300526561
:1009C0007175657374696E67206D6F64756C6520F1
:1009D000616464726573730054696D656F7574202A
:1009E00077616974696E6720666F722061646472F2
:1009F0006573730052657175657374696E67206302
:100A00006F6E66696775726174696F6E004241440A
:100A100020636F6E666967005265717565737469EE
:100A20006E672076657273696F6E0054696D656FCD
:100A300075742077616974696E6720666F722076BD
:100A4000657273696F6E005374617274696E6720AA
:100A50006D6F64756C6500436F6E6E65637465647D
:100A600020746F20426F7264657220726F757465B6
:100A700072205625642E25642E256400436F6E6611
:100A8000696720364C6F5750414E20507265666939
:100A900078203A2030782530386C782530386C78DA
:100AA00000436F6E666967204A656E4E6574204923
:100AB000442020202020203A203078256C780043E4
:100AC0006F6E6669672031352E342050414E2049C3
:100AD00044202020203A203078257800436F6E662D
:100AE00069672031352E34204368616E6E656C2055
:100AF00020203A20256400436F6E666967203135F7
:100B00002E3420526567696F6E202020203A202500
:100B10006400526563656976656420636F6E66691B
:100B20006775726174696F6E2066726F6D204D6FAC
:100B300064756C65005265636569766564207365EC
:100B400063757269747920636F6E66696775726127
:100B500074696F6E2066726F6D204D6F64756C6581
:100B600000436F6E66696775726174696F6E20729B
:100B70006571756573742066726F6D206D6F647535
:100B80006C65004D6F64756C65206164647265739B
:100B9000733A202573004D6F64756C653A20257398
:100BA00000546F2053494D3A2573004F6E2F4F6606
:100BB000662053494D00436C69656E74202520649E
:100BC00020746F20726563697665642053494D3ADD
:100BD00025640046726F6D2053494D3A25730054C9
:100BE0006F20636C69656E742025642073656E6484
:100BF0006564202564202A203220627974657300A0
:100C000046726F6D20636C69656E742053494D3A6E
:100C10002573004572726F72205345542050494E1F
:100C2000202573004572726F722050494E20746502
:100C300073742025730046726F6D2053494D3A2519
:100C400073004F70656E656420434F4D20696E20C0
:100C500074756E20646576696365004572726F72A3
:100C6000204F70656E656420434F4D20696E20747F
:100C7000756E20646576696365004572726F7220D7
:100C800077726974696E67207061636B6574207434
:100C90006F206D6F64756C6500424144206C656E19
:100CA0006768742066726F6D20636C69656E743A54
:100CB000256420256400204F6E202532583A2530C7
:100CC000325820204F6666202532583A2530325857
:100CD0000A0D000A0D54696D6520000A0D00496E69
:100CE000707574733A20006B205375625472656599
:100CF0004E6F6465732C206C204E6574776F726B39
:100D00005461626C650A0D00782074657374204329
:100D100052430A0D007620566572626F73697479CA
:100D20000A0D007220524144495553207461626C8F
:100D3000650A0D00612C622074657374204750525F
:100D4000530A0D007420536574204F6E2F4F666652
:100D50000A0D0070205365742050494E0A0D003072
:100D6000204A656E6E69632072657365740A0D00B2
:100D700039205365742074696D6520262064617480
:100D8000610A0D00382054657374204578746572CB
:100D90006E616C2052414D0A0D003720546573740A
:100DA00020435244322055617274204A50340A0D57
:100DB0000036205465737420475052532055617299
:100DC00074204A50360A0D00352047505253204AAD
:100DD0005036205253540A0D0034204F6E2F4F6668
:100DE000662052656C617920310A0D003320427211
:100DF0006F616463617374203235350A0D003220EF
:100E000042726F616463617374203132370A0D007E
:100E1000312042726F61646361737420310A0D0086
:100E20000A0D4A656E6E696320484F53542056255B
:100E3000642E25642E25640A0D004F6E54696D657D
:100E400072004F666654696D6572004F6E4C616D3D
:100E500070004F66664C616D70005465737420615C
:100E600074206164647265737320256400446F7537
:100E7000626C65207265706F7274004F6B004D413B
:100E8000432025303258253032582530325825300D
:100E900032582530325825303258253032582530D6
:100EA000325800436F6E6E6563746564202564205C
:100EB0006F6620256400546573742061742061643A
:100EC0006472657373202564002532583A253032E8
:100ED000582047726F7570202564204C69676874CC
:100EE0002025640054657374206174206164647209
:100EF000657373202564000A0D45787465726E6110
:100F00006C2052414D204F4B0A0D000A0D4578656B
:100F1000726E616C2052414D204552524F52533AED
:100F2000257520617420416464726573733A30786A
:100F300025580A0D000A0D457865726E616C2052C5
:100F4000414D206E6F7420636C6561722061742066
:100F5000416464726573733A307825580053657440
:100F60002050494E203A2025730A0D005365742005
:100F700050494E203A2025730A0D00436C6F636B75
:100F80002069732072657365740011241FBECFEF52
:100F9000DFE3DEBFCDBF00E00CBF18BE19BE1ABE36
:100FA0001BBE12E2A0E0B0E2EAEFF2EB00E00BBF02
:100FB00002C007900D92AE38B107D9F71BBE16E3F9
:100FC000AEE8B2E201C01D92A23CB107E1F70E9477
:100FD000ED070C947B590C9400008F929F92AF9276
:100FE000BF92CF92DF92EF92FF920F931F93DF9306
:100FF000CF93CDB7DEB72A97CDBFDEBF0E94925008
:101000000E94DB510E9493511D8280E090E46CE3CA
:1010100070E00E94B143882341F1809105209091B6
:10102000062083309105FCF02091BE363091BF360A
:1010300083E390E0B9010E94095681E094E00F92A9
:101040000F92EDB7FEB73196808391830E94475689
:101050000F900F902091BE363091BF368AE090E01D
:10106000B9010E94095681E08D838DE390E46AE521
:1010700070E00E94B143882341F180910520909156
:10108000062083309105FCF02091BE363091BF36AA
:1010900083E390E0B9010E94095688EE93E00F9235
:1010A0000F92EDB7FEB73196808391830E94475629
:1010B0000F900F902091BE363091BF368AE090E0BD
:1010C000B9010E94095681E08D838D81882341F109
:1010D000809105209091062083309105FCF02091AD
:1010E000BE363091BF3683E390E0B9010E940956C5
:1010F0008AED93E00F920F92EDB7FEB731968083A1
:1011000091830E9447560F900F902091BE363091E8
:10111000BF368AE090E0B9010E9409560E949138DA
:1011200000E410E6E0E4F0E6828193810E94C40DC1
:1011300001960E94D50DF80182839383E0E4F0E6E6
:101140001082118200E410E660E071E081E090E03E
:101150000E94E40DDC01CB01F801868F978FA0A3DC
:10116000B1A3E0E4F0E612A213A214A215A22CE9A6
:1011700036E38AE490E6B90146E050E00E94E1558A
:1011800080E590E666E570E646E050E00E94E155B5
:101190000E94922580918C3390918D33A0918E3353
:1011A000B0918F338093932A9093942AA093952A99
:1011B000B093962A0E949C400E94C33280E992E23A
:1011C00021E932E2E3E9F2E2B90140E058E09F01AF
:1011D0000E94110E8823D9F1609190228091912272
:1011E000909192229C0140E050E0E3E9F2E2862FE8
:1011F000BA01A9019F010E945D2A882341F18091D3
:1012000005209091062083309105FCF02091BE3698
:101210003091BF3683E390E0B9010E9409568CEA11
:1012200093E00F920F92EDB7FEB7319680839183D2
:101230000E9447560F900F902091BE363091BF36D6
:101240008AE090E0B9010E9409560E9492250E940E
:101250008233882331F180910520909106208330DC
:101260009105FCF02091BE363091BF3683E390E0CB
:10127000B9010E94095682E993E00F920F92EDB7EF
:10128000FEB73196808391830E9447560F900F904E
:101290002091BE363091BF368AE090E0B9010E94BD
:1012A000095620918C3330918D3340918E3350917B
:1012B0008F338091932A9091942AA091952AB0918E
:1012C000962A79018A01E81AF90A0A0B1B0BD80140
:1012D000C70183309105A105B105B8F080918C3329
:1012E00090918D33A0918E33B0918F338093932A58
:1012F0009093942AA093952AB093962A81E00E9415
:101300005922882311F00E9492250E94784E88234A
:1013100009F450CF0E94914E8C830E94DA3880E00D
:1013200090E227E936E3B9010E94F155009709F4EC
:101330003FC080918E2290918F22843091055CF580
:101340008C818033D8F08C818A33C0F420918E2236
:1013500030918F22F901E050F04E8C818083C901D9
:10136000019680938E2290938F2280918E2290916D
:101370008F22FC01E050F04E10821CCF10928E2282
:1013800010928F2280918E2290918F22FC01E0504A
:10139000F04E10820FCF10928E2210928F228091E9
:1013A0008E2290918F22FC01E050F04E108202CFED
:1013B0008C81082F10E009871A8729853A85203506
:1013C000310509F447C289859A85813591050CF06C
:1013D0005BC0E985FA85E533F10509F4DBC00985D1
:1013E0001A85063311052CF529853A8522333105F6
:1013F00009F4B4C089859A85833391056CF4E98535
:10140000FA85E033F10509F41CC209851A85013318
:10141000110509F49AC0CECE29853A8523333105CA
:1014200009F4A5C089859A858433910509F4A8C07B
:10143000C1CEE985FA85E833F10509F446C109858D
:101440001A85093311056CF429853A85263331054F
:1014500009F4B3C089859A858733910509F4F1C0F1
:10146000A9CEE985FA85EB34F10509F4F0C10985C7
:101470001A850C34110509F4E7C129853A85293309
:10148000310509F425C196CE89859A858B3691055B
:1014900009F4DDC1E985FA85EC36F1055CF50985CD
:1014A0001A850635110509F43DC229853A85273587
:1014B00031056CF489859A858235910509F472C2EB
:1014C000E985FA85E435F10509F4C7C173CE0985CC
:1014D0001A850136110509F44FC329853A8522364C
:1014E000310509F44DC389859A858835910509F43C
:1014F0002FC260CEE985FA85E237F10509F452C2C0
:1015000009851A85033711056CF429853A852C362F
:10151000310509F499C189859A858037910509F4C7
:1015200099C148CEE985FA85E637F10509F4FAC193
:1015300009851A850837110509F40AC229853A85F3
:101540002437310509F489C135CE64E07EEF8FEF91
:101550009FEF42E021E00E945C122CCE64E07EEF1F
:101560008FEF9FEF42E02FE70E945C1223CE64E0F2
:101570007EEF8FEF9FEF42E02FEF0E945C121ACEBA
:1015800080919433882319F00E944D3D13CE0E9420
:101590001E3D10CEE0E4F6E08085882F90E080725A
:1015A0009070009729F0E0E4F6E080E2868302CEB6
:1015B000E0E4F6E080E28583FDCD87E090E20E94E2
:1015C0005A4D88E693E00F920F92EDB7FEB7319631
:1015D000808391830E9447560F900F9086E593E099
:1015E0000F920F92EDB7FEB73196808391830E94E0
:1015F00047560F900F900E94914E8EE393E00F920A
:101600000F92EDB7FEB73196808391830E944756C3
:101610000F900F9004C00E94714C0E94E14E0E94F6
:10162000594C8823C1F78BE393E00F920F92EDB7EB
:10163000FEB73196808391830E9447560F900F909A
:10164000B9CD88E190E20E943B4B81E193E00F929B
:101650000F92EDB7FEB73196808391830E94475673
:101660000F900F908FEF92E00F920F92EDB7FEB7B1
:101670003196808391830E9447560F900F900E946D
:10168000914E87EE92E00F920F92EDB7FEB7319632
:10169000808391830E9447560F900F9004C00E9450
:1016A000BA4A0E94E14E0E946B4A8823C1F784EE39
:1016B00092E00F920F92EDB7FEB73196808391833F
:1016C0000E9447560F900F9075CD0E94A24272CD96
:1016D00088ED92E00F920F92EDB7FEB731968083BE
:1016E00091830E9447560F900F900E94B7388B83CA
:1016F00086E08E838B818F8383EA96E39E012A5F47
:101700003F4F6FE6A90122E000E00E9498488091D7
:10171000BA368823E1F78BEC92E00F920F92EDB787
:10172000FEB73196808391830E9447560F900F90A9
:101730000E94B7388B8385E08E838B818F718F8376
:1017400083EA96E39E012A5F3F4F6FE6A90122E0FC
:1017500000E00E9498488091BA368823E1F78FEB29
:1017600092E00F920F92EDB7FEB73196808391838E
:101770000E9447560F900F900E94B7388B8384E0E9
:101780008E838B818F738F8383EA96E39E012A5F1A
:101790003F4F6FE6A90122E000E00E949848809147
:1017A000BA368823E1F783EB92E00F920F92EDB700
:1017B000FEB73196808391830E9447560F900F9019
:1017C0000E94B7388B8382E08E838B818F738F83E7
:1017D00088E0888783EA96E39E012A5F3F4F6FE6A1
:1017E000A90123E000E00E9498488091BA3688233E
:1017F000E1F785EA92E00F920F92EDB7FEB73196CE
:10180000808391830E9447560F900F900E94B738B3
:101810008B831E8280E88F838B818F77888783EA12
:1018200096E39E012A5F3F4F6FE6A90123E000E0A7
:101830000E9498488091BA368823E1F71092A23628
:10184000B9CC0E949225B6CC0E945340B3CC0E94E2
:101850009340B0CC0E941551ADCC86E992E00F9236
:101860000F92EDB7FEB73196808391830E94475661
:101870000F900F900DE310E40E94B738F8018683B3
:101880008DE390E46AE570E00E94814385E892E090
:101890000F920F92EDB7FEB73196808391830E942D
:1018A00047560F900F900DE310E40E94B738F801EF
:1018B00087838DE390E46AE570E00E94814385E7C9
:1018C00092E00F920F92EDB7FEB73196808391832D
:1018D0000E9447560F900F900DE310E40E94B73816
:1018E000F80180878DE390E46AE570E00E9481430F
:1018F00083E692E00F920F92EDB7FEB731968083A8
:1019000091830E9447560F900F900DE310E40E94C0
:10191000B738F80181878DE390E46AE570E00E94B2
:10192000814348CC82E592E00F920F92EDB7FEB76B
:101930003196808391830E9447560F900F900E94AA
:10194000B738882F90E0809305209093062032CC02
:101950000F2EF0E2EF2EF2E0FF2EF02D80E090E46B
:101960006CE370E00E94B143082F10E08DE390E437
:101970006AE570E00E94B143882F90E000D000D06B
:10198000EDB7FEB73196E082F18202831383848340
:1019900095830E9447560DB71EB70A5F1F4F0DBFB4
:1019A0001EBF08CC19821A82DCC044EF51E02981A5
:1019B0003A81C901880F991F820F931F9C01220F42
:1019C000331F220F331F220F331F820F931FFC017F
:1019D000E456FF4B8081682F70E029813A81C9016C
:1019E000880F991F820F931F9C01220F331F220F14
:1019F000331F220F331F820F931FFC01E456FF4B4E
:101A00008181A82FB0E029813A81C901880F991FEF
:101A1000820F931F9C01220F331F220F331F220FAF
:101A2000331F820F931FFC01E456FF4B8281082F66
:101A300010E029813A81C901880F991F820F931FF5
:101A40009C01220F331F220F331F220F331F820FDF
:101A5000931FFC01E456FF4B8381E82EFF2429816C
:101A60003A81C901880F991F820F931F9C01220F91
:101A7000331F220F331F220F331F820F931FFC01CE
:101A8000E456FF4B8481C82EDD2429813A81C901A7
:101A9000880F991F820F931F9C01220F331F220F63
:101AA000331F220F331F820F931FFC01E456FF4B9D
:101AB0008581A82EBB2429813A81C901880F991FED
:101AC000820F931F9C01220F331F220F331F220FFF
:101AD000331F820F931FFC01E456FF4B8681882E33
:101AE000992429813A81C901880F991F820F931F78
:101AF0009C01220F331F220F331F220F331F820F2F
:101B0000931FFC01E456FF4B8781282F30E08DB7EF
:101B10009EB744978DBF9EBFEDB7FEB73196408309
:101B2000518389819A818283938364837583A68399
:101B3000B78300871187E286F386C486D586A6869A
:101B4000B786808A918A228B338B0E944756EDB7E5
:101B5000FEB77496EDBFFEBF89819A810196898395
:101B60009A8389819A81E8E9F0E4208131818217A2
:101B7000930708F41ACF1ECB81E0809393361ACBDB
:101B800081E08093963616CBDF93CF930F920F921E
:101B9000CDB7DEB789839A8389819A810E94D50D5A
:101BA0000F900F90CF91DF910895DF93CF930F9215
:101BB0000F92CDB7DEB789839A8399818A810F907E
:101BC0000F90CF91DF910895DF93CF9300D00F92C4
:101BD000CDB7DEB769837A838B839C8329813A8171
:101BE000922F832FCC01A0E0B0E0BC015527442701
:101BF00089819A81AB81BC81CD01AA27BB279C0139
:101C0000922F832FCC01A0E0B0E0842B952BA62B44
:101C1000B72BBC01CD012496CDBFDEBFCF91DF91A4
:101C20000895DF93CF93CDB7DEB72E97CDBFDEBF3C
:101C30008A839B836C837D834E835F832887398768
:101C4000DCC08981282F30E02D873E878D859E85D9
:101C500082309105A1F02D853E852330310599F024
:101C60008D859E858130910589F51092982A109274
:101C7000992A1092972A81E080939B2ABEC081E026
:101C80008093972ABAC0EC81FD81208131818E81B9
:101C90009F818217930718F410929B2AAEC0EA81A5
:101CA000FB818081EC81FD812081318148855985CE
:101CB000B9010E946E0F982F80919A2A981709F007
:101CC0009CC010929B2A91E09C879FC08091972A8C
:101CD000882331F0898190E1892789831092972A9E
:101CE00080919B2A282F30E02A873B878A859B8515
:101CF0008230910561F12A853B85233031055CF402
:101D00008A859B85009709F478C02A853B85213018
:101D1000310599F070C08A859B858430910509F45E
:101D200044C02A853B852430310504F18A859B8592
:101D30008530910509F442C05EC08981EA81FB814A
:101D4000808380919B2A8F5F80939B2A56C08981D4
:101D5000882F90E0982F8827EC81FD8180839183E4
:101D600080919B2A8F5F80939B2A47C0EC81FD81E5
:101D7000208131818981882F90E0820F931FEC812F
:101D8000FD8180839183EC81FD81208131818E8171
:101D90009F818217930718F410929B2A2EC080917E
:101DA0009B2A8F5F80939B2A28C0898180939A2ADF
:101DB00080919B2A8F5F80939B2A1FC0EC81FD81BD
:101DC000208131818091982A9091992A82179307D6
:101DD000A0F42091982A3091992A88859985FC0150
:101DE000E20FF31F89818083C90101968093982AAD
:101DF0009093992A02C010929B2ACE0101960E94CC
:101E0000D50F882309F01DCF1C868C852E96CDBF5B
:101E1000DEBFCF91DF910895DF93CF93CDB7DEB7CB
:101E20002797CDBFDEBF8B836C837D834E835F831B
:101E300081E061E00E94AC0F99230CF449C080E07E
:101E40006B810E94AC0F99230CF442C08C819D8160
:101E5000892F9927982F80E0692F0E94AC0F992332
:101E6000BCF19C8180E0692F0E94AC0F992384F122
:101E70002C813D814E815F818B81B9010E946E0F63
:101E8000982F80E0692F0E94AC0F99230CF11982E2
:101E90001A8213C029813A818E819F81FC01E20F51
:101EA000F31F908180E0692F0E94AC0F992384F08A
:101EB00089819A81019689839A8329813A818C81CB
:101EC0009D812817390730F381E063E00E94AC0F51
:101ED0002796CDBFDEBFCF91DF910895DF93CF93DB
:101EE000CDB7DEB72897CDBFDEBF8C836D837E83F1
:101EF0004F835887198299818C81892789838D81A5
:101F00009E81892F9927982F8981892789839D818F
:101F10008981892789831A821B8210C02A813B818B
:101F20008F819885FC01E20FF31F908189818927B9
:101F300089838A819B8101968A839B832A813B8145
:101F40008D819E812817390748F389812896CDBF56
:101F5000DEBFCF91DF910895DF93CF9300D00F9232
:101F6000CDB7DEB789836A838981882389F48A8122
:101F7000803170F49A8180E189278A8382E00E940F
:101F8000084B99232CF48FEF9FEF8B839C8305C024
:101F90008A810E94084B8B839C838B819C81249631
:101FA000CDBFDEBFCF91DF910895DF93CF930F9226
:101FB0000F92CDB7DEB789839A8389819A810E9477
:101FC000834A0F900F90CF91DF910895DF93CF93C5
:101FD00000D0CDB7DEB78A839B831982EA81FB816B
:101FE00080818A3330F4EA81FB8180818053898348
:101FF00005C0EA81FB81808187538983898182952D
:10200000807F89838A819B8101968A839B83EA8171
:10201000FB8180818A3348F4EA81FB81808180538F
:10202000982F8981892B898308C0EA81FB8180816F
:102030008753982F8981892B898389812396CDBFE6
:10204000DEBFCF91DF910895DF93CF93CDB7DEB799
:102050006497CDBFDEBF6F87788B898B9A8B4B8B54
:102060005C8B8F85988981709070882399F02F857B
:1020700038898B899C89FC01E20FF31F10828F85C0
:102080009889A989BA890196A11DB11D8F87988B5E
:10209000A98BBA8B8B899C89FC01BE968081882F85
:1020A00090E0382F22278B899C89FC01BF96808184
:1020B000882F90E0822B932BCC01A0E0B0E08B879F
:1020C0009C87AD87BE878B899C89FC013496808173
:1020D000882F90E0382F22278B899C89FC01359628
:1020E0008081882F90E0822B932BCC01A0E0B0E080
:1020F0008F839887A987BA878B899C89FC0136963C
:102100008081882F90E0A0E0B0E08B839C83AD833A
:10211000BE832F81388549855A858B819C81AD810D
:10212000BE81820F931FA41FB51F8B879C87AD872D
:10213000BE878B899C89089689839A834FC0E981E1
:10214000FA818081882F90E0382F222789819A8117
:10215000FC0131968081882F90E0822B932BCC015B
:10216000A0E0B0E08B839C83AD83BE832B853C8550
:102170004D855E858B819C81AD81BE81820F931FD1
:10218000A41FB51F8B879C87AD87BE8717C08B8523
:102190009C85AD85BE859C01AD01407050708B85DE
:1021A0009C85AD85BE85CD01AA27BB27820F931FD5
:1021B000A41FB51F8B879C87AD87BE878B859C85A9
:1021C000AD85BE85CD01AA27BB270097A105B10526
:1021D000F1F689819A81029689839A832F853889BD
:1021E0008B899C89280F391F89819A8182179307CF
:1021F00008F4A5CF8B859C8580959095CC01A0E0B7
:10220000B0E08B879C87AD87BE878B859C85649665
:10221000CDBFDEBFCF91DF9108950F931F93DF9362
:10222000CF93CDB7DEB7C95DD040CDBFDEBFFE01D5
:10223000E153FF4F80839183FE01EF52FF4F608394
:102240007183FE01ED52FF4F20833183428353831C
:10225000FE01E952FF4F0083118380E68F831886C9
:1022600019861A86FE01ED52FF4F80819181A2816D
:10227000B3810896A11DB11D892F9A2FAB2FBB27C3
:102280008B87FE01ED52FF4F8081885F8C8781E153
:102290008D8780E48E87CE0107960896FE01E15374
:1022A000FF4F20813181B90140E150E00E94E155AA
:1022B000CE0107964896FE01EF52FF4F20813181F3
:1022C000B90140E150E00E94E15583ED8FA78DEE0A
:1022D00088AB87E089AB81E58AABFE01ED52FF4F09
:1022E00080819181A281B3810896A11DB11D892FA2
:1022F0009A2FAB2FBB278BABFE01ED52FF4F808196
:10230000885F8CAB1DAA1EAAFE01ED52FF4F4081D3
:102310005181CE010796C096FE01E952FF4F208100
:102320003181B9010E94E1559E012D523F4FFE01BE
:10233000ED52FF4F80819181A281B381C096A11D92
:10234000B11DF90180839183A283B383FE01ED5215
:10235000FF4F80819181A281B381FE01E952FF4F3D
:1023600020813181BC01CD01A9010E9424108D83FF
:102370009E838D819E81892F99278DAB8D818EAB18
:102380008091052090910620873091050CF443C080
:1023900019821A821B821C8225C089819A81FE01C2
:1023A0003796E80FF91F8081282F30E000D00F9278
:1023B000EDB7FEB731968DE290E280839183228360
:1023C00033830E9435560F900F900F900F908981A4
:1023D0009A81AB81BC810196A11DB11D89839A832D
:1023E000AB83BC83FE01ED52FF4F29813A814B81C3
:1023F0005C8180819181A281B381281739074A07C6
:102400005B0758F22091BE363091BF368AE090E0EB
:10241000B9010E940956FE01ED52FF4F8081918162
:10242000A281B3819E01295F3F4FBC01CD01A9016B
:102430000E940421882369F1809105209091062053
:1024400083309105FCF02091BE363091BF3683E396
:1024500090E0B9010E94095683E294E00F920F9236
:10246000EDB7FEB73196808391830E9447560F9057
:102470000F902091BE363091BF368AE090E0B901CE
:102480000E940956F1E0C752DF4FF883C95DD04082
:1024900005C0C752DF4F1882C95DD040C752DF4F19
:1024A0008881C95DD040C752DF4FCDBFDEBFCF911D
:1024B000DF911F910F9108950F931F93DF93CF9397
:1024C000CDB7DEB76B97CDBFDEBF6D8B7E8B8F8BAD
:1024D000988F498F2A8F8091FA358A3019F081E0E0
:1024E0008B8F39C019828DE18A830E94A6558F7720
:1024F0008B838D899E89AF89B88D8B2F9927AA27C9
:10250000BB278C838D899E89AF89B88DCD01AA2781
:10251000BB278D838D899E89AF89B88D892F9A2F8E
:10252000AB2FBB278E838D898F83898D88871986F2
:1025300084E08A878A8D8B8782E390E222E530E20D
:10254000B9012BE030E040E050E0FE0131968F0110
:102550000E940D118B8F8B8D6B96CDBFDEBFCF91FF
:10256000DF911F910F9108950F931F93DF93CF93E6
:10257000CDB7DEB76C97CDBFDEBF8D8B4E8B5F8B3B
:10258000688F798F2A8F0B8F8091FA358A3019F0F6
:1025900081E08C8F4FC08D89882F90E0880F991F24
:1025A000FC01EE58FF4D8081809370208D89882F2B
:1025B00090E0880F991FFC01ED58FF4D80818093BA
:1025C000712019828DE18A830E94A6558F778B83B3
:1025D0008E899F89A88DB98D8B2F9927AA27BB2714
:1025E0008C838E899F89A88DB98DCD01AA27BB27A1
:1025F0008D838E899F89A88DB98D892F9A2FAB2FB6
:10260000BB278E838E898F838A8D8887198684E085
:102610008A878B8D8B8782E390E222E630E2B901D4
:102620002BE030E040E050E0FE0131968F010E9447
:102630000D118C8F8C8D6C96CDBFDEBFCF91DF914D
:102640001F910F9108950F931F93DF93CF93CDB7F1
:10265000DEB76797CDBFDEBF8091FA358A3019F0BB
:1026600081E08F8B20C081E08A8383E089831B8295
:1026700080E18C830E94A6558F778D838A818E831B
:1026800089818F8381E0888782E490E223E836E3C2
:10269000FE013396B90126E030E040E050E08F01C2
:1026A0000E940D118F8B8F896796CDBFDEBFCF91B2
:1026B000DF911F910F9108950F931F93DF93CF9395
:1026C000CDB7DEB76A97CDBFDEBF8F8B988F698F8E
:1026D0008091FA358A3019F081E08A8F27C081E035
:1026E0008A8384E089831B8280E18C830E94A655C3
:1026F0008F778D838A818E8389818F838F89988D4F
:10270000892F992788878F898987898D8A8782E48D
:1027100090E223E836E3FE013396B90128E030E089
:1027200040E050E08F010E940D118A8F8A8D6A96D9
:10273000CDBFDEBFCF91DF911F910F910895AF9272
:10274000BF92CF92DF92EF92FF920F931F93DF938E
:10275000CF93CDB7DEB7C054D040CDBFDEBF6AAF98
:102760007BAF8CAF9DAF4EAF5FAF8EAD9FADFC0129
:10277000BE968081882F90E0382F22278EAD9FADA6
:10278000FC01BF968081882F90E0822B932B8C8F49
:102790009D8F8EAD9FADFC0134968081882F90E097
:1027A000382F22278EAD9FADFC0135968081882F72
:1027B00090E0822B932B888F998F8EAD9FADFC017B
:1027C00036968081882F90E08E8B9F8B809105209C
:1027D00090910620873091050CF4ACC080910520C3
:1027E00090910620873091055CF12091BE363091A2
:1027F000BF3687E390E0B9010E94095688E096E071
:1028000000D000D0EDB7FEB73196808391838AADBA
:102810009BADACADBDAD82839383A483B5830E9491
:1028200047560DB71EB70A5F1F4F0DBF1EBF209141
:10283000BE363091BF368AE090E0B9010E94095659
:1028400080910520909106208730910594F1209188
:10285000BE363091BF3687E390E0B9010E94095639
:1028600085EE95E02DB73EB7285030402DBF3EBFD6
:10287000EDB7FEB73196808391838E899F898283DD
:102880009383888D998D848395838C8D9D8D86838C
:1028900097830E9447568DB79EB708968DBF9EBFFF
:1028A0002091BE363091BF368AE090E0B9010E9497
:1028B00009561A8A1B8A1C8A1D8A26C02A893B89C6
:1028C0008EAD9FADFC01E20FF31F8081282F30E019
:1028D00000D00F92EDB7FEB731968DE290E2808383
:1028E0009183228333830E9435560F900F900F906F
:1028F0000F908A899B89AC89BD890196A11DB11D64
:102900008A8B9B8BAC8BBD8B2A893B894C895D89DB
:102910008AAD9BADACADBDAD281739074A075B0743
:1029200068F22091BE363091BF368AE090E0B9015E
:102930000E9409568AAD9BADACADBDAD2EAD3FAD8D
:10294000BC01CD01A9010E9424108A8F9B8F8A8D22
:102950009B8D009791F18C8D9D8D009771F18091E9
:10296000052090910620873091050CF495C62091A2
:10297000BE363091BF3687E390E0B9010E94095618
:1029800088EC95E000D00F92EDB7FEB731968083CA
:1029900091838A8D9B8D828393830E9447560F90EB
:1029A0000F900F900F902091BE363091BF368AE085
:1029B00090E0B9010E9409566FC68EAD9FADFC0133
:1029C00036968081813109F001C68EAD9FAD489663
:1029D00064E270E440E150E00E94D455009709F0B1
:1029E00086C38EAD9FAD8A5B9F4F0E94E60F80939A
:1029F000FB358EAD9FAD885B9F4F0E94E60F8093A5
:102A0000FC358EAD9FAD865B9F4F0E94E60F809395
:102A1000FD358EAD9FAD845B9F4F0E94E60F809386
:102A2000FE358EAD9FAD825B9F4F0E94E60F809377
:102A3000FF358EAD9FAD805B9F4F0E94E60F809368
:102A400000368EAD9FAD8E5A9F4F0E94E60F809349
:102A500001368EAD9FAD8C5A9F4F0E94E60F80933A
:102A600002368091052090910620873091050CF464
:102A700056C02091BE363091BF3687E390E0B90151
:102A80000E94095621E935E08091FB35482F50E03E
:102A90008091FC35682F70E08091FD35A82FB0E063
:102AA0008091FE35082F10E08091FF35E82EFF243D
:102AB00080910036C82EDD2480910136A82EBB24DB
:102AC00080910236882F90E0EDB7FEB77297EDBF88
:102AD000FEBFEDB7FEB73196208331834283538327
:102AE00064837583A683B78300871187E286F386A4
:102AF000C486D586A686B786808B918B0E94475662
:102B00000DB71EB70E5E1F4F0DBF1EBF2091BE3604
:102B10003091BF368AE090E0B9010E9409568EAD2F
:102B20009FAD9C01285F3F4FCE014E96B90140E119
:102B300050E00E94E1558EAD9FADAC01485F5F4F04
:102B40008EAD9FAD9C01285E3F4FCA01B90140E1A7
:102B500050E00E94E1558EAD9FAD48969E01225EE9
:102B60003F4FB90140E150E00E94E1558EAD9FAD6D
:102B70009C01285D3F4FCE014E96B90142E050E0E6
:102B80000E94E1558EAD9FADAC01485D5F4F8EADAB
:102B90009FAD9C01265D3F4FCA01B90142E050E064
:102BA0000E94E1558EAD9FAD8A969E01225E3F4FF9
:102BB000B90142E050E00E94E1558EAD9FADFC01AD
:102BC000BE9610828EAD9FADFC01BF9610821D8611
:102BD0001E861F86188A198A29C02E853F85C9013D
:102BE000880F991F820F931F9C01220F331F220F02
:102BF000331F220F331F820F931F84569F4B2BEFDF
:102C000035E3B90148E050E00E94D455009719F42B
:102C100081E08D871BC08E859F85A889B989019623
:102C2000A11DB11D8E879F87A88BB98BE8E9F0E4C1
:102C3000808191819C0140E050E08E859F85A8892C
:102C4000B98982179307A407B50738F28D858823C1
:102C500031F4E0E0F0E487A9882309F4B9C0809159
:102C600005209091062087309105FCF02091BE361A
:102C70003091BF3687E390E0B9010E94095683E89E
:102C800095E00F920F92EDB7FEB731968083918356
:102C90000E9447560F900F902091BE363091BF365C
:102CA0008AE090E0B9010E9409568EAD9FADFC010B
:102CB000F09682E080838EAD9FAD8C010F5C1F4F3C
:102CC0000E94A655D8018C938EAD9FADFC01EC5BA4
:102CD000FF4F8AE180838EAD9FADFC01EB5BFF4F20
:102CE00088E180838EAD9FADFC01EA5BFF4F1082CF
:102CF0008EAD9FADFC01E95BFF4F10828EAD9FADA5
:102D0000FC01E85BFF4F8DE680838EAD9FADFC013B
:102D1000E75BFF4F89EE80838EAD9FADFC01E65BE4
:102D2000FF4F84E680838EAD9FADFC01E55BFF4FD6
:102D300082E180831E861F86188A198A3AC08E8592
:102D40009F85880F991F9C01245B3F4F8EAD9FADDF
:102D5000FC01E20FF31F10828E859F85880F991F5B
:102D60009C01235B3F4F8EAD9FADBC01620F731F73
:102D700027E030E040E050E08E859F85A889B98942
:102D800079018A01E81AF90A0A0B1B0BD801C7015D
:102D9000FC01E550FA4C8081DB018C938E859F8588
:102DA000A889B9890196A11DB11D8E879F87A88B1F
:102DB000B98B8E859F85A889B98988309105A10531
:102DC000B10508F4BCCF8CE290E08A8F9B8F88C05D
:102DD000809105209091062087309105FCF020918C
:102DE000BE363091BF3687E390E0B9010E940956A4
:102DF00085E795E00F920F92EDB7FEB7319680838D
:102E000091830E9447560F900F902091BE363091CB
:102E1000BF368AE090E0B9010E94095688E0FE01C1
:102E2000BE96DF01E82E1D92EA94E9F71B861C8608
:102E30003EC08B859C85880F991F880F991F880F2E
:102E4000991F8D5F994C9E01225D3F4FB90148E06B
:102E500050E00E94D455009791F48B859C85880F93
:102E6000991F880F991F880F991F8D5F994C2BEF21
:102E700035E3B90148E050E00E94E1551EC08B8562
:102E80009C85880F991F880F991F880F991F8D5F48
:102E9000994C2BEF35E3B90148E050E00E94D4553E
:102EA000009759F08B859C8501968B879C878B8535
:102EB0009C85803191050CF4BCCF8EAD9FADFC019B
:102EC000F09683E080838EAD9FAD8C010F5C1F4F29
:102ED0000E94A655D8018C9384E190E08A8F9B8F45
:102EE0001E861F86188A198A19C08E859F859C01A7
:102EF0002C5C3F4F8EAD9FAD8C01020F131F0E94C3
:102F0000A655F80180838E859F85A889B989019689
:102F1000A11DB11D8E879F87A88BB98B8E859F853C
:102F2000A889B98980319105A105B105F0F28EAD6E
:102F30009FADFC01F2968A8D9B8D892F9927808306
:102F40008EAD9FADFC01F3968A8D80838A8D9B8D1B
:102F500008968A8F9B8F8EAD9FADFC0134968A8D2B
:102F60009B8D892F992780838EAD9FADFC0135966F
:102F70008A8D80838EAD9FADFC01379680E480837F
:102F80008EAD9FADFC01BC968A8D9B8D892F9927B4
:102F900080838EAD9FADFC01BD968A8D80838A8D26
:102FA0009B8D8896CC01A0E0B0E08AAF9BAFACAF20
:102FB000BDAF8AAD9BADACADBDAD2EAD3FADBC01DF
:102FC000CD01A9010E9424108A8F9B8F8EAD9FADE9
:102FD000FC01BE968A8D9B8D892F992780838EADAB
:102FE0009FADFC01BF968A8D8083809105209091D2
:102FF0000620873091050CF441C01F82188619867F
:103000001A8626C02F8138858EAD9FADFC01E20F58
:10301000F31F8081282F30E000D00F92EDB7FEB76C
:1030200031968DE290E280839183228333830E94E4
:1030300035560F900F900F900F908F819885A9852E
:10304000BA850196A11DB11D8F839887A987BA877C
:103050002F81388549855A858AAD9BADACADBDAD14
:10306000281739074A075B0768F22091BE3630916E
:10307000BF368AE090E0B9010E9409568AAD9BAD47
:10308000ACADBDAD2EAD3FADBC01CD01A9010E94DF
:103090000421882309F400C3809105209091062023
:1030A00083309105FCF02091BE363091BF3683E32A
:1030B00090E0B9010E94095686E595E00F920F92C3
:1030C000EDB7FEB73196808391830E9447560F90EB
:1030D0000F902091BE363091BF368AE090E0B90162
:1030E0000E940956F1E02196FFAF2197D8C28EAD1C
:1030F0009FADFC01789680818F3F09F0BCC08EADFA
:103100009FAD9C01285F3F4F82E390E2B90140E10F
:1031100050E00E94D455009709F485C080910520A5
:103120009091062087309105FCF02091BE363091B9
:10313000BF3687E390E0B9010E94095685E495E027
:103140000F920F92EDB7FEB73196808391830E9464
:1031500047560F900F902091BE363091BF368AE0CF
:1031600090E0B9010E9409568091052090910620B7
:1031700087309105FCF02091BE363091BF3687E351
:1031800090E0B9010E94095688E395E00F920F92F2
:10319000EDB7FEB73196808391830E9447560F901A
:1031A0000F902091BE363091BF368AE090E0B90191
:1031B0000E9409568AAD9BADACADBDAD2EAD3FAD05
:1031C000BC01CD01A9010E945A38882309F464C2C8
:1031D000809105209091062083309105FCF020918C
:1031E000BE363091BF3683E390E0B9010E940956A4
:1031F0008CE195E00F920F92EDB7FEB73196808388
:1032000091830E9447560F900F902091BE363091C7
:10321000BF368AE090E0B9010E94095601E021968C
:103220000FAF21973CC280910520909106208730F6
:1032300091050CF431C22091BE363091BF3687E340
:1032400090E0B9010E94095685E095E00F920F9237
:10325000EDB7FEB73196808391830E9447560F9059
:103260000F902091BE363091BF368AE090E0B901D0
:103270000E94095611C28EAD9FADFC013896808127
:103280008E3FA1F58EAD9FADFC0139968081882FD0
:1032900090E0807C90708038910541F58091052008
:1032A00090910620873091050CF4F6C12091BE362E
:1032B0003091BF3687E390E0B9010E94095687EF4D
:1032C00094E00F920F92EDB7FEB731968083918311
:1032D0000E9447560F900F902091BE363091BF3616
:1032E0008AE090E0B9010E940956D6C18EAD9FAD2B
:1032F000489622E430E2B90140E150E00E94D45502
:10330000009709F004C18EAD9FAD089623E836E31F
:10331000B90140E150E00E94D455009709F0CFC0B8
:10332000809105209091062087309105FCF0209136
:10333000BE363091BF3687E390E0B9010E9409564E
:103340008AED94E00F920F92EDB7FEB7319680832D
:1033500091830E9447560F900F902091BE36309176
:10336000BF368AE090E0B9010E940956888D998D98
:103370008A30910508F490C18EAD9FADFC01F196A5
:103380008081882F90E08131910509F085C181E02D
:103390008EAB84E08FAB18AE8BE489AF8EAD9FAD62
:1033A000C3969E012A5C3F4FB90144E050E00E9461
:1033B000D455009709F070C18EAD9FADFC01F79612
:1033C0008081882F90E08D839E838D819E81982FB0
:1033D00088278D839E838EAD9FADFC01F8968081FA
:1033E000282F30E08D819E81822B932B8D839E83AD
:1033F0008EAD9FADFC01F9968081882F90E08B8384
:103400009C838B819C81982F88278B839C838EAD96
:103410009FADFC01FA968081282F30E08B819C8142
:10342000822B932B8B839C83888D998D89839A83A0
:1034300089819A81439789839A838091052090910D
:1034400006208730910594F12091BE363091BF3629
:1034500087E390E0B9010E94095685EA94E02DB710
:103460003EB7285030402DBF3EBFEDB7FEB7319676
:10347000808391838D819E81828393838B819C81C4
:103480008483958389819A81868397830E94475696
:103490008DB79EB708968DBF9EBF2091BE363091E6
:1034A000BF368AE090E0B9010E9409568EAD9FAD0B
:1034B000CB9629813A81B9010E94E83DEDC0809107
:1034C000052090910620873091050CF4E5C02091ED
:1034D000BE363091BF3687E390E0B9010E940956AD
:1034E00084E994E00F920F92EDB7FEB73196808396
:1034F00091830E9447560F900F902091BE363091D5
:10350000BF368AE090E0B9010E940956C5C080919B
:1035100005209091062087309105FCF02091BE3661
:103520003091BF3687E390E0B9010E94095687E8E1
:1035300094E00F920F92EDB7FEB73196808391839E
:103540000E9447560F900F902091BE363091BF36A3
:103550008AE090E0B9010E9409568AAD9BADACADFE
:10356000BDAD2EAD3FADBC01CD01A9010E945A38C1
:10357000882309F491C08091052090910620833022
:103580009105FCF02091BE363091BF3683E390E088
:10359000B9010E9409568BE694E00F920F92EDB7A5
:1035A000FEB73196808391830E9447560F900F900B
:1035B0002091BE363091BF368AE090E0B9010E947A
:1035C000095691E021969FAF219769C08EAD9FADBE
:1035D000FC01369680818A3309F05EC08091052017
:1035E0009091062087309105FCF02091BE363091F5
:1035F000BF3687E390E0B9010E9409568EE594E05A
:103600000F920F92EDB7FEB73196808391830E949F
:1036100047560F900F902091BE363091BF368AE00A
:1036200090E0B9010E9409568AAD9BADACADBDAD2D
:103630002EAD3FADBC01CD01A9010E945A388823AF
:1036400059F1809105209091062083309105FCF07E
:103650002091BE363091BF3683E390E0B9010E94DD
:10366000095682E494E00F920F92EDB7FEB73196BF
:10367000808391830E9447560F900F902091BE3611
:103680003091BF368AE090E0B9010E940956A1E06E
:103690002196AFAF219703C021961FAE21972196A7
:1036A0008FAD2197C05CDF4FCDBFDEBFCF91DF91E3
:1036B0001F910F91FF90EF90DF90CF90BF90AF9050
:1036C00008952F923F924F925F926F927F928F92C6
:1036D0009F92AF92BF92CF92DF92EF92FF920F93A1
:1036E0001F93DF93CF93CDB7DEB72C97CDBFDEBF4F
:1036F00089839A836B837C83E981FA818081282F77
:1037000030E0E981FA818181482F50E0E981FA8136
:103710008281682F70E0E981FA818381A82FB0E06F
:10372000E981FA818481082F10E0E981FA8185819D
:10373000E82EFF24E981FA818681C82EDD24E98103
:10374000FA818781A82EBB24E981FA818085882EA1
:103750009924E981FA818185682E7724E981FA81AB
:103760008285482E5524E981FA818385282E3324C9
:10377000E981FA818485E82FF0E0EB87FC87E98115
:10378000FA818585E82FF0E0E987FA87E981FA81F7
:103790008685E82FF0E0EF83F887E981FA81878555
:1037A000E82FF0E0ED83FE838DB79EB786978DBF3F
:1037B0009EBFEDB7FEB731968B819C81808391834C
:1037C0008EE290E08283938382E990E28483958302
:1037D000268337834087518762877387A487B5879D
:1037E00006871787E08AF18AC28AD38AA48AB58AB3
:1037F000868A978A608E718E428E538E248E358E85
:103800008B859C85868F978F89859A8580A391A3C8
:103810008F81988582A393A38D819E8184A395A394
:103820000E946A56EDB7FEB7B696EDBFFEBF2C9666
:10383000CDBFDEBFCF91DF911F910F91FF90EF9031
:10384000DF90CF90BF90AF909F908F907F906F90C0
:103850005F904F903F902F900895CF92DF92EF921C
:10386000FF920F931F93DF93CF930F92CDB7DEB7E5
:103870008091AD2A8170882309F45FC18091A12ACB
:103880009091A22AA091A32AB091A42A803021E08D
:10389000920721E0A20720E0B20708F44EC1809110
:1038A000052090910620863091052CF12091BE369E
:1038B0003091BF3686E390E0B9010E94095680EF4F
:1038C00096E000D00F92EDB7FEB7319680839183DA
:1038D00080E190E0828393830E9447560F900F907F
:1038E0000F900F902091BE363091BF368AE090E065
:1038F000B9010E94095680910520909106208630DA
:10390000910544F12091BE363091BF3686E390E0B8
:10391000B9010E94095625ED36E0E0E0F0E480812F
:10392000882F90E000D00F92EDB7FEB7319620833C
:103930003183828393830E9447560F900F900F909C
:103940000F902091BE363091BF368AE090E0B901E9
:103950000E9409568091052090910620863091059D
:1039600044F12091BE363091BF3686E390E0B90134
:103970000E9409562AEB36E0E0E0F0E48181882FCE
:1039800090E000D00F92EDB7FEB7319620833183DF
:10399000828393830E9447560F900F900F900F9051
:1039A0002091BE363091BF368AE090E0B9010E9486
:1039B00009568091052090910620863091054CF1A2
:1039C0002091BE363091BF3686E390E0B9010E9467
:1039D00009560DE916E0E0E0F0E4828193810E944F
:1039E000051E00D00F92EDB7FEB73196008311830C
:1039F000828393830E9447560F900F900F900F90F1
:103A00002091BE363091BF368AE090E0B9010E9425
:103A1000095680910520909106208630910594F1F9
:103A20002091BE363091BF3686E390E0B9010E9406
:103A300009560FE716E0E0E0F0E484819581A68165
:103A4000B781BC01CD010E94141EDC01CB0100D066
:103A500000D0EDB7FEB73196008311838283938344
:103A6000A483B5830E9447568DB79EB706968DBF37
:103A70009EBF2091BE363091BF368AE090E0B901FA
:103A80000E9409568091052090910620863091056C
:103A90000CF44AC02091BE363091BF3686E390E0E8
:103AA000B9010E9409560F2EFAE5CF2EF6E0DF2E5F
:103AB000F02DE0E0F0E480859185A285B385BC011E
:103AC000CD010E94141E7B018C01E0E0F0E48485AE
:103AD0009585A685B785BC01CD010E94141EDC0129
:103AE000CB01EDB7FEB73A97EDBFFEBFEDB7FEB71E
:103AF0003196C082D182E282F38204831583868369
:103B00009783A087B1870E9447562DB73EB7265F9F
:103B10003F4F2DBF3EBF2091BE363091BF368AE069
:103B200090E0B9010E94095686E660E170E040E04D
:103B300050E40E940C0F19825DC080910520909185
:103B40000620833091050CF453C02091BE3630918D
:103B5000BF3683E390E0B9010E94095644E256E083
:103B60008091A12A9091A22AA091A32AB091A42A7F
:103B7000CD01AA27BB27BC016F7070708091A12A6C
:103B80009091A22AA091A32AB091A42A892F9A2FBA
:103B9000AB2FBB279C012F7030708091A12A909190
:103BA000A22AA091A32AB091A42A8F709070EDB799
:103BB000FEB73897EDBFFEBFEDB7FEB73196408335
:103BC00051836283738324833583868397830E9422
:103BD00047562DB73EB7285F3F4F2DBF3EBF2091C0
:103BE000BE363091BF368AE090E0B9010E94095696
:103BF00031E0398389810F90CF91DF911F910F912F
:103C0000FF90EF90DF90CF900895DF93CF930F92C6
:103C10000F92CDB7DEB789839A8399818A810F90FD
:103C20000F90CF91DF910895DF93CF9300D00F9243
:103C3000CDB7DEB769837A838B839C8389819A8130
:103C4000AB81BC81BC01CD010E94301EDC01CB01E7
:103C5000BC01CD012496CDBFDEBFCF91DF91089589
:103C6000DF93CF9300D00F92CDB7DEB769837A830D
:103C70008B839C8329813A81922F832FCC01A0E0F2
:103C8000B0E0BC015527442789819A81AB81BC8172
:103C9000CD01AA27BB279C01922F832FCC01A0E046
:103CA000B0E0842B952BA62BB72BBC01CD0124961D
:103CB000CDBFDEBFCF91DF910895DF93CF93CDB716
:103CC000DEB7CC55D040CDBFDEBF809105209091AE
:103CD0000620873091052CF12091BE363091BF36F9
:103CE00087E390E0B9010E94095683E197E000D094
:103CF0000F92EDB7FEB731968083918384E290E016
:103D0000828393830E9447560F900F900F900F90DD
:103D10002091BE363091BF368AE090E0B9010E9412
:103D200009568BE664E270E040E150E40E940C0F1B
:103D300080E0C45ADF4FCDBFDEBFCF91DF91089541
:103D4000DF93CF930F92CDB7DEB78091292090916A
:103D50002A20A0912B20B0912C208F3F2FEF92078B
:103D60002FEFA2072FEFB20709F43FC0809129205F
:103D700090912A20A0912B20B0912C2089838091B2
:103D80000520909106208730910534F12091BE36B0
:103D90003091BF3687E390E0B9010E9409562BEDC0
:103DA00037E08981882F90E000D00F92EDB7FEB701
:103DB000319620833183828393830E9447560F90EC
:103DC0000F900F900F902091BE363091BF368AE051
:103DD00090E0B9010E94095681E761E070E09E0120
:103DE0002F5F3F4FA9010E940C0F80E00F90CF91F1
:103DF000DF910895DF93CF93CDB7DEB78091A12AED
:103E00009091A22AA091A32AB091A42A803021E007
:103E1000920721E0A20720E0B207B0F180910520CF
:103E2000909106208730910544F12091BE36309163
:103E3000BF3687E390E0B9010E9409562CEF37E0C6
:103E4000E0E0F0E485A9882F90E000D00F92EDB774
:103E5000FEB7319620833183828393830E94475635
:103E60000F900F900F900F902091BE363091BF367B
:103E70008AE090E0B9010E9409568EE661E070E0A8
:103E800045E350E40E940C0F80E0CF91DF9108954C
:103E9000DF93CF93CDB7DEB78091A12A9091A22A6C
:103EA000A091A32AB091A42A803024E0920721E0B7
:103EB000A20720E0B20708F468C080910520909125
:103EC00006208730910544F12091BE363091BF36EF
:103ED00087E390E0B9010E9409562FE438E0E0E062
:103EE000F0E484A9882F90E000D00F92EDB7FEB7E0
:103EF000319620833183828393830E9447560F90AB
:103F00000F900F900F902091BE363091BF368AE00F
:103F100090E0B9010E94095682E761E070E044E355
:103F200050E40E940C0FE0E0F0E486A9882369F1D8
:103F3000809105209091062087309105FCF020911A
:103F4000BE363091BF3687E390E0B9010E94095632
:103F500084E298E00F920F92EDB7FEB7319680831E
:103F600091830E9447560F900F902091BE3630915A
:103F7000BF368AE090E0B9010E94095683E760E00D
:103F800070E040E050E00E940C0F80E0CF91DF91A4
:103F90000895DF93CF93CDB7DEB780919C2A882315
:103FA00071F5809105209091062087309105FCF0F5
:103FB0002091BE363091BF3687E390E0B9010E9470
:103FC000095685EC98E00F920F92EDB7FEB7319647
:103FD000808391830E9447560F900F902091BE36A8
:103FE0003091BF368AE090E0B9010E94095687E619
:103FF00060E070E040E050E00E940C0F92C08091C1
:104000009C2A813071F5809105209091062087309F
:104010009105FCF02091BE363091BF3687E390E0E9
:10402000B9010E9409568AEA98E00F920F92EDB703
:10403000FEB73196808391830E9447560F900F9070
:104040002091BE363091BF368AE090E0B9010E94DF
:1040500009568FE660E070E040E050E00E940C0FEF
:1040600060C080919C2A823071F5809105209091EA
:10407000062087309105FCF02091BE363091BF3686
:1040800087E390E0B9010E94095689E898E00F9211
:104090000F92EDB7FEB73196808391830E94475609
:1040A0000F900F902091BE363091BF368AE090E09D
:1040B000B9010E94095680E760E070E040E050E0FE
:1040C0000E940C0F2EC08091052090910620833015
:1040D00091053CF12091BE363091BF3683E390E0EC
:1040E000B9010E94095621E738E080919C2A882F67
:1040F00090E000D00F92EDB7FEB731962083318368
:10410000828393830E9447560F900F900F900F90D9
:104110002091BE363091BF368AE090E0B9010E940E
:10412000095680E0CF91DF910895DF93CF93CDB70B
:10413000DEB7809105209091062087309105FCF034
:104140002091BE363091BF3687E390E0B9010E94DE
:10415000095685EE98E00F920F92EDB7FEB73196B3
:10416000808391830E9447560F900F902091BE3616
:104170003091BF368AE090E0B9010E94095688E686
:1041800060E070E040E050E00E940C0F80E0CF91D2
:10419000DF910895DF93CF93CDB7DEB780910520EF
:1041A0009091062087309105FCF02091BE36309129
:1041B000BF3687E390E0B9010E9409568BEF98E083
:1041C0000F920F92EDB7FEB73196808391830E94D4
:1041D00047560F900F902091BE363091BF368AE03F
:1041E00090E0B9010E9409568091AD2A8D7F80939D
:1041F000AD2A89E660E070E040E050E00E940C0FDC
:1042000080E0CF91DF910895DF93CF9300D000D06D
:10421000CDB7DEB769837A838B839C834D835E83BE
:1042200029813A814D815E8185E6B9010E940C0F9A
:1042300080E02696CDBFDEBFCF91DF910895DF935A
:10424000CF93CDB7DEB780910520909106208730BF
:104250009105FCF02091BE363091BF3687E390E0A7
:10426000B9010E94095687E199E00F920F92EDB7CC
:10427000FEB73196808391830E9447560F900F902E
:104280002091BE363091BF368AE090E0B9010E949D
:1042900009568DE660E070E040E050E00E940C0FAF
:1042A00080E0CF91DF910895DF93CF93CDB7DEB754
:1042B000809105209091062087309105FCF0209197
:1042C000BE363091BF3687E390E0B9010E940956AF
:1042D0008CE299E00F920F92EDB7FEB73196808392
:1042E00091830E9447560F900F902091BE363091D7
:1042F000BF368AE090E0B9010E94095680E060E094
:1043000070E040E050E00E940C0F80E0CF91DF9120
:104310000895DF93CF93CDB7DEB7809105209091BC
:10432000062087309105FCF02091BE363091BF36D3
:1043300087E390E0B9010E94095688E499E00F9262
:104340000F92EDB7FEB73196808391830E94475656
:104350000F900F902091BE363091BF368AE090E0EA
:10436000B9010E9409568AE660E070E040E050E042
:104370000E940C0F80E0CF91DF910895DF93CF93DF
:1043800000D000D0CDB7DEB769837A838B839C835E
:104390004D835E838091AD2A8870882309F482C0A2
:1043A0008D819E81009741F180910520909106209A
:1043B000873091050CF476C02091BE363091BF361F
:1043C00087E390E0B9010E94095688E699E00F92D0
:1043D0000F92EDB7FEB73196808391830E944756C6
:1043E0000F900F902091BE363091BF368AE090E05A
:1043F000B9010E94095656C080918C3390918D333B
:10440000A0918E33B0918F332091A52A3091A62AA6
:104410004091A72A5091A82A821B930BA40BB50B9D
:104420008B309105A105B105E8F1809105209091AF
:10443000062087309105FCF02091BE363091BF36C2
:1044400087E390E0B9010E94095683E699E00F9254
:104450000F92EDB7FEB73196808391830E94475645
:104460000F900F902091BE363091BF368AE090E0D9
:10447000B9010E9409568DE660E070E040E050E02E
:104480000E940C0F80918C3390918D33A0918E33CC
:10449000B0918F338093A52A9093A62AA093A72A40
:1044A000B093A82A80E02696CDBFDEBFCF91DF91E2
:1044B0000895EF92FF920F931F93DF93CF9300D055
:1044C0000F92CDB7DEB789838091FA35E82EFF24AD
:1044D000EB82FC820B811C810530110509F450C16F
:1044E0002B813C8126303105F4F48B819C81823014
:1044F000910509F4D2C00B811C810330110534F4FD
:104500002B813C812130310599F18CC28B819C81BA
:104510008330910509F401C10B811C810430110520
:1045200009F428C17FC22B813C812830310509F470
:104530009AC18B819C81893091056CF40B811C811F
:104540000630110509F44FC12B813C81273031051C
:1045500009F44FC167C28B819C818930910509F4B0
:104560003EC20B811C810A30110509F44EC25AC2A9
:104570008091AD2A8170882309F084C08091A92A96
:104580009091AA2AA091AB2AB091AC2A0097A105DC
:10459000B10531F180910520909106208730910579
:1045A000FCF02091BE363091BF3687E390E0B90130
:1045B0000E9409568BE29AE00F920F92EDB7FEB778
:1045C0003196808391830E9447560F900F902091DF
:1045D000BE363091BF368AE090E0B9010E9409569C
:1045E0008091A92A9091AA2AA091AB2AB091AC2AD5
:1045F0000196A11DB11D8093A92A9093AA2AA09388
:10460000AB2AB093AC2A8091A92A9091AA2AA091B2
:10461000AB2AB091AC2A83309105A105B10548F5CC
:10462000809105209091062087309105FCF0209123
:10463000BE363091BF3687E390E0B9010E9409563B
:1046400088E19AE00F920F92EDB7FEB73196808322
:1046500091830E9447560F900F902091BE36309163
:10466000BF368AE090E0B9010E9409560E945421A9
:10467000D9C11092A92A1092AA2A1092AB2A10929C
:10468000AC2AD0C11092A92A1092AA2A1092AB2A61
:104690001092AC2A82E08093FA35E0E0F0E4808565
:1046A0009185A285B3850097A105B10551F51092BA
:1046B000FA358091052090910620823091050CF406
:1046C000B1C12091BE363091BF3682E390E0B9018E
:1046D0000E9409568DE09AE00F920F92EDB7FEB757
:1046E0003196808391830E9447560F900F902091BE
:1046F000BE363091BF368AE090E0B9010E9409567B
:1047000091C10E942D1C882321F483E08093FA3507
:1047100089C181E08093FA3585C1E0E0F0E4E0A052
:10472000F1A002A113A160E070E080E090E00E949F
:10473000301EDC01CB01E816F9060A071B0711F051
:104740000E945D1E8091A12A9091A22AA091A32A85
:10475000B091A42A803011E0910711E0A10710E088
:10476000B10720F084E08093FA355CC185E0809346
:10477000FA3558C10E94FA1E85E08093FA3552C17D
:104780000E94C91F8091A12A9091A22AA091A32AD8
:10479000B091A42A803024E0920721E0A20720E013
:1047A000B20720F086E08093FA353CC18091A12ABF
:1047B0009091A22AA091A32AB091A42A803031E03E
:1047C000930731E0A30730E0B30720F087E0809340
:1047D000FA3528C18091AD2A8D7F8093AD2A88E07B
:1047E0008093FA351FC10E94481F87E08093FA35F5
:1047F00019C18091AD2A8470882369F58981882345
:1048000009F410C180910520909106208730910510
:10481000FCF02091BE363091BF3687E390E0B901BD
:104820000E94095684EF99E00F920F92EDB7FEB700
:104830003196808391830E9447560F900F9020916C
:10484000BE363091BF368AE090E0B9010E94095629
:104850000E948921E7C088E08093FA358091AD2AD3
:104860008D7F8093AD2A8091AD2A8270882309F0D4
:10487000ABC08981882309F4D5C08091A92A909181
:10488000AA2AA091AB2AB091AC2A0097A105B10544
:1048900031F1809105209091062087309105FCF040
:1048A0002091BE363091BF3687E390E0B9010E9477
:1048B000095688ED99E00F920F92EDB7FEB7319649
:1048C000808391830E9447560F900F902091BE36AF
:1048D0003091BF368AE090E0B9010E94095680917C
:1048E000A92A9091AA2AA091AB2AB091AC2A01964C
:1048F000A11DB11D8093A92A9093AA2AA093AB2A47
:10490000B093AC2A8091A92A9091AA2AA091AB2AAF
:10491000B091AC2A8A309105A105B10548F5809186
:1049200005209091062087309105FCF02091BE363D
:104930003091BF3687E390E0B9010E9409568EEBB3
:1049400099E00F920F92EDB7FEB731968083918375
:104950000E9447560F900F902091BE363091BF367F
:104960008AE090E0B9010E9409560E94CA205AC00C
:10497000809105209091062083309105FCF02091D4
:10498000BE363091BF3683E390E0B9010E940956EC
:104990008EE999E00F920F92EDB7FEB731968083C2
:1049A00091830E9447560F900F902091BE36309110
:1049B000BF368AE090E0B9010E94095681E08093F9
:1049C000FA350E9495202EC01092A92A1092AA2A88
:1049D0001092AB2A1092AC2A89E08093FA3580912C
:1049E000A12A9091A22AA091A32AB091A42A803052
:1049F00003E0900701E0A00700E0B00710F00E947C
:104A0000A01E8AE08093FA350DC060E070E080E07F
:104A100090E040E050E00E94BE21882319F011E0B0
:104A20001A8375C08091AD2A8170882309F46EC005
:104A30008091AD2A8870882309F468C020918C3356
:104A400030918D3340918E3350918F3380919D2AD8
:104A500090919E2AA0919F2AB091A02A79018A0163
:104A6000E81AF90A0A0B1B0BD801C7018D3391050F
:104A7000A105B10508F44AC0809105209091062057
:104A8000833091050CF43FC02091BE363091BF3683
:104A900083E390E0B9010E9409566DE679E0209128
:104AA0008C3330918D3340918E3350918F33809180
:104AB0009D2A90919E2AA0919F2AB091A02A7901C7
:104AC0008A01E81AF90A0A0B1B0BD801C70100D0AA
:104AD00000D0EDB7FEB731966083718382839383F4
:104AE000A483B5830E9447560DB71EB70A5F1F4FB8
:104AF0000DBF1EBF2091BE363091BF368AE090E0D8
:104B0000B9010E94095612E01A8301C01A828A81F3
:104B10002496CDBFDEBFCF91DF911F910F91FF9003
:104B2000EF900895DF93CF93CDB7DEB78091052046
:104B30009091062087309105FCF02091BE3630918F
:104B4000BF3687E390E0B9010E94095687E49AE0F6
:104B50000F920F92EDB7FEB73196808391830E943A
:104B600047560F900F902091BE363091BF368AE0A5
:104B700090E0B9010E9409560E949520E0E0F0E41F
:104B800080859185A285B3850097A105B10519F4AB
:104B90001092FA3503C081E08093FA358DEA9AE2EB
:104BA00060E070E041E050E00E94EA5580E00E9441
:104BB0005922CF91DF9108950F931F93DF93CF93E5
:104BC00000D000D0CDB7DEB769837A838B839C8316
:104BD0004D835E831092A12A1092A22A1092A32ADA
:104BE0001092A42AED81FE818081882F90E0A0E0C0
:104BF000B0E0AC01332722278091A12A9091A22A0C
:104C0000A091A32AB091A42A822B932BA42BB52B7D
:104C10008093A12A9093A22AA093A32AB093A42AB6
:104C20008D819E81FC0131968081882F90E0982FA4
:104C300088279C01442737FD4095542F8091A12A55
:104C40009091A22AA091A32AB091A42A822B932BFF
:104C5000A42BB52B8093A12A9093A22AA093A32AD8
:104C6000B093A42A8D819E81FC0132968081282FE9
:104C700030E040E050E08091A12A9091A22AA091DA
:104C8000A32AB091A42A822B932BA42BB52B80931B
:104C9000A12A9093A22AA093A32AB093A42A00E465
:104CA00010E68091A12A9091A22AA091A32AB09106
:104CB000A42ABC01CD010E94301EDC01CB01F80109
:104CC00082A393A3A4A3B5A380910520909106206D
:104CD00086309105F4F12091BE363091BF3686E3DF
:104CE00090E0B9010E94095647E55AE0ED81FE8146
:104CF0008081682F70E08D819E81FC0131968081DA
:104D0000282F30E08D819E81FC0132968081882F92
:104D100090E0EDB7FEB73897EDBFFEBFEDB7FEB739
:104D200031964083518362837383248335838683E2
:104D300097830E9447568DB79EB708968DBF9EBF3A
:104D40002091BE363091BF368AE090E0B9010E94D2
:104D500009568091AD2A81608093AD2A8091A12A65
:104D60009091A22AA091A32AB091A42A8030E1E0D8
:104D70009E07E1E0AE07E0E0BE0728F08091AD2A93
:104D800088608093AD2A80E02696CDBFDEBFCF91AC
:104D9000DF911F910F9108952F923F924F925F9252
:104DA0006F927F928F929F92AF92BF92CF92DF923B
:104DB000EF92FF920F931F93DF93CF93CDB7DEB7A0
:104DC0002F97CDBFDEBF69877A878B879C874D87FA
:104DD0005E8789859A85AB85BC8583309105A10561
:104DE000B10569F489859A85AB85BC852D853E859D
:104DF000BC01CD01A9010E94DC258F87BDC1809136
:104E0000A12A9091A22AA091A32AB091A42A80302D
:104E100021E0920721E0A20720E0B20708F4ABC12D
:104E20008EEB95E32D853E85B90140E150E00E946F
:104E3000E155809105209091062086309105FCF087
:104E40002091BE363091BF3686E390E0B9010E94D2
:104E5000095682E19BE00F920F92EDB7FEB73196B3
:104E6000808391830E9447560F900F902091BE3609
:104E70003091BF368AE090E0B9010E9409568091D6
:104E8000C6359091C735A091C835B091C935BC01E0
:104E9000CD010E94301EDC01CB015C016D01EE24CE
:104EA000FF2487012A2D3B2D4C2D5D2D6E2D7F2D4E
:104EB000802F912F00E20E94B054A22EB32EC42E58
:104EC000D52EE62EF72E082F192F2A2C3B2C4C2CF2
:104ED0005D2C6E2C7F2C802E912E8091CA35909166
:104EE000CB35A091CC35B091CD35BC01CD010E9420
:104EF000301EDC01CB019C01AD0160E070E080E080
:104F000090E0E22DE22BE983E32DE32BEA83E42D0D
:104F1000E42BEB83E52DE52BEC83E62DE62BED83EF
:104F2000E72DE72BEE83E82DE82BEF83892D892BE6
:104F300088878091052090910620863091053CF16C
:104F40002091BE363091BF3686E390E0B9010E94D1
:104F5000095627EF3AE08091BE35882F90E000D0C7
:104F60000F92EDB7FEB7319620833183828393830E
:104F70000E9447560F900F900F900F902091BE36D1
:104F80003091BF368AE090E0B9010E9409568091C5
:104F9000052090910620863091053CF12091BE3687
:104FA0003091BF3686E390E0B9010E9409562CED9E
:104FB0003AE08091BF35882F90E000D00F92EDB796
:104FC000FEB7319620833183828393830E944756B4
:104FD0000F900F900F900F902091BE363091BF36FA
:104FE0008AE090E0B9010E940956809105209091D5
:104FF0000620863091054CF12091BE363091BF36A7
:1050000086E390E0B9010E9409560FEB1AE0809107
:10501000C0359091C1350E94D32800D00F92EDB7D2
:10502000FEB7319600831183828393830E94475693
:105030000F900F900F900F902091BE363091BF3699
:105040008AE090E0B9010E94095680910520909174
:10505000062086309105A4F12091BE363091BF36EE
:1050600086E390E0B9010E94095601EA1AE08091B6
:10507000C2359091C335A091C435B091C535BC01FE
:10508000CD010E94141EDC01CB0100D000D0EDB791
:10509000FEB731960083118382839383A483B58303
:1050A0000E9447568DB79EB706968DBF9EBF209132
:1050B000BE363091BF368AE090E0B9010E940956B1
:1050C0008091052090910620863091050CF44EC009
:1050D0002091BE363091BF3686E390E0B9010E9440
:1050E00009560F2EFCE7CF2EFAE0DF2EF02D80912F
:1050F000C6359091C735A091C835B091C935BC016E
:10510000CD010E94301E7B018C018091CA359091A7
:10511000CB35A091CC35B091CD35BC01CD010E94ED
:10512000301EDC01CB012DB73EB72A5030402DBFD9
:105130003EBFEDB7FEB73196C082D182E282F382E4
:105140000483158386839783A087B1870E9447567F
:105150008DB79EB70A968DBF9EBF2091BE36309107
:10516000BF368AE090E0B9010E9409568091AD2ACD
:1051700084608093AD2A1F868F852F96CDBFDEBFBA
:10518000CF91DF911F910F91FF90EF90DF90CF9023
:10519000BF90AF909F908F907F906F905F904F9057
:1051A0003F902F900895DF93CF930F920F92CDB73A
:1051B000DEB789839A8389819A810E94051E0F90A8
:1051C0000F90CF91DF910895DF93CF93CDB7DEB7E6
:1051D0002897CDBFDEBF6B837C838D839E834F83F7
:1051E00058878091A12A9091A22AA091A32AB091D8
:1051F000A42A803021E0920721E0A20720E0B20734
:1052000008F443C08F81988589839A8361E070E0B8
:1052100080E090E00E94301EDC01CB018093DE35FF
:105220009093DF35A093E035B093E1358EEC95E3B4
:1052300029813A81B90144E250E00E94E155809110
:1052400005209091062086309105FCF02091BE3615
:105250003091BF3686E390E0B9010E94095685E39C
:105260009BE00F920F92EDB7FEB73196808391834A
:105270000E9447560F900F902091BE363091BF3656
:105280008AE090E0B9010E94095680E02896CDBFDF
:10529000DEBFCF91DF910895DF93CF9300D000D090
:1052A000CDB7DEB769837A838B839C834D835E831E
:1052B000809105209091062086309105FCF0209188
:1052C000BE363091BF3686E390E0B9010E940956A0
:1052D00081E69BE00F920F92EDB7FEB73196808387
:1052E00091830E9447560F900F902091BE363091C7
:1052F000BF368AE090E0B9010E94095682E08093AF
:10530000FA3580E02696CDBFDEBFCF91DF910895BC
:10531000DF93CF93CDB7DEB7E997CDBFDEBF6FA7E1
:1053200078AB89AB9AAB4BAB5CABCE0101968DAB46
:105330009EABAAEDB0E2AFABB8AFBCE1B9AFEFA99D
:10534000F8AD00808FA998AD01968FAB98AFADA94D
:10535000BEA90C92EDA9FEA93196EDABFEABF9AD5D
:10536000F150F9AF89AD882351F782E1FE017D96B6
:10537000DF01982F1D929A95E9F78BA99CA99E01B0
:105380002F5F3F4FB9010E94611B83E896E32BA971
:105390003CA9B90140E150E00E94E155809105200F
:1053A00090910620863091052CF12091BE363091E7
:1053B000BF3686E390E0B9010E94095683E89BE07E
:1053C00000D00F92EDB7FEB7319680839183CE0166
:1053D0000196828393830E9447560F900F900F90FF
:1053E0000F902091BE363091BF368AE090E0B9012F
:1053F0000E9409568091AD2A82608093AD2A80E098
:10540000E996CDBFDEBFCF91DF910895DF93CF93B3
:10541000CDB7DEB72797CDBFDEBF6A837B838C8392
:105420009D834E835F83EE81FF81808189838981A3
:10543000883010F087E089832A813B818E819F81AB
:10544000FC01E20FF31F10828981282F30E0809148
:105450000520909106208217930744F18981882FB7
:1054600090E0C0962091BE363091BF36B9010E94BF
:10547000095626E93BE08E819F81019600D00F926C
:10548000EDB7FEB7319620833183828393830E94E8
:1054900047560F900F900F900F902091BE3630918D
:1054A000BF368AE090E0B9010E94095680E0279655
:1054B000CDBFDEBFCF91DF910895DF93CF93CDB7FE
:1054C000DEB72B97CDBFDEBF8A834B835C836D83B2
:1054D0007E832F83388781E089838A81282F30E07B
:1054E0002A873B878A859B858936910509F455C0B3
:1054F0002A853B852A3631058CF48A859B8585363D
:10550000910521F12A853B852636310561F18A8591
:105510009B858130910509F467C080C02A853B8551
:105520002B36310569F18A859B858B3691050CF404
:1055300041C02A853B852C36310509F448C08A854F
:105540009B858D36910509F45CC068C08B819C8178
:10555000AD81BE812F813885BC01CD01A9010E949A
:105560009F1389835DC08B819C81AD81BE812F811A
:105570003885BC01CD01A9010E94CC26898350C089
:105580008B819C81AD81BE812F813885BC01CD018D
:10559000A9010E94E428898343C08B819C81AD814D
:1055A000BE812F813885BC01CD01A9010E948829C7
:1055B000898336C08B819C81AD81BE812F813885E6
:1055C000BC01CD01A9010E944C29898329C08B818E
:1055D0009C81AD81BE812F813885BC01CD01A9019F
:1055E0000E94062A89831CC08B819C81AD81BE816B
:1055F0002F813885BC01CD01A9010E94DC2589835A
:105600000FC08B819C81AD81BE812F813885BC010B
:10561000CD01A9010E94BE21898302C0198619C04B
:1056200080918C3390918D33A0918E33B0918F33D4
:1056300080939D2A90939E2AA0939F2AB093A02A9C
:105640008981882321F480E00E94592289839981ED
:10565000998789852B96CDBFDEBFCF91DF910895C5
:10566000DF93CF9300D000D0CDB7DEB789839A8384
:105670004B835C836D837E8380E090E02696CDBF74
:10568000DEBFCF91DF910895DF93CF930F920F92FA
:10569000CDB7DEB789839A8380910520909106204B
:1056A00087309105C4F180910520909106208730C4
:1056B00091058CF12091BE363091BF3687E390E0A2
:1056C000B9010E94095681EA9BE000D00F92EDB724
:1056D000FEB731968083918389819A8182839383F7
:1056E0000E9447560F900F900F900F902091BE365A
:1056F0003091BF368AE090E0B9010E9409560BC094
:10570000E981FA81208189819A81019689839A832E
:10571000822F0E94274DE981FA818081882381F7B9
:105720000F900F90CF91DF910895DF93CF9300D02A
:105730000F92CDB7DEB789839A836B837C83809188
:105740008C3390918D33A0918E33B0918F338093B1
:10575000BC329093BD32A093BE32B093BF3281E091
:105760008093B42A1092B52A1092B62A8B819C811C
:105770008093C0329093C1322496CDBFDEBFCF91CB
:10578000DF910895EF92FF920F931F93DF93CF93D2
:10579000CDB7DEB780910520909106208730910526
:1057A000FCF02091BE363091BF3687E390E0B9011E
:1057B0000E9409568BEA9BE00F920F92EDB7FEB75D
:1057C0003196808391830E9447560F900F902091CD
:1057D000BE363091BF368AE090E0B9010E9409568A
:1057E0001092BB2A1092AE2AE0E4F6E080E28583B4
:1057F00080918C3390918D33A0918E33B0918F3303
:105800008093BC329093BD32A093BE32B093BF322E
:1058100002C00E949C4020918C3330918D33409186
:105820008E3350918F338091BC329091BD32A091D4
:10583000BE32B091BF3279018A01E81AF90A0A0B27
:105840001B0BD801C70182309105A105B10508F3F2
:1058500080918C3390918D33A0918E33B0918F33A2
:105860008093BC329093BD32A093BE32B093BF32CE
:105870008091BC329091BD32A091BE32B091BF32C6
:105880008B309105A105B105A4F08091BC329091B7
:10589000BD32A091BE32B091BF320A97A109B109C1
:1058A0008093BC329093BD32A093BE32B093BF328E
:1058B00008C01092BC321092BD321092BE321092CB
:1058C000BF32E0E4F6E080E28683CF91DF911F9162
:1058D0000F91FF90EF900895EF92FF920F931F9317
:1058E000DF93CF93CDB7DEB72897CDBFDEBF8091D2
:1058F000AE2A863098F01092AF2A0E94C22B00E4A4
:1059000010E6E0E4F0E6808191810E945331019637
:105910000E946431F80180839183BBC420918C3351
:1059200030918D3340918E3350918F338091BC32C2
:105930009091BD32A091BE32B091BF3279018A01FF
:10594000E81AF90A0A0B1B0BD801C701843091052C
:10595000A105B10508F496C48091AF2A8D3089F471
:1059600080918C3390918D33A0918E33B0918F3391
:105970008093BC329093BD32A093BE32B093BF32BD
:1059800088C41092B42A8091B52A9091B62A0097C3
:10599000B9F48091AF2A8D3098F41092AF2A0E940A
:1059A000C22B00E410E6E0E4F0E6808191810E94E1
:1059B000533101960E946431F8018083918369C458
:1059C0008091B52A9091B62A009709F462C480911B
:1059D000B52A9091B62AFC01EE53FD4C10828091BD
:1059E0000520909106208730910564F18091052073
:1059F00090910620873091052CF12091BE36309190
:105A0000BF3687E390E0B9010E94095686E39CE027
:105A100000D00F92EDB7FEB731968083918382EC70
:105A200092E3828393830E9447560F900F900F90CA
:105A30000F902091BE363091BF368AE090E0B901D8
:105A40000E9409568091AF2AE82EFF24EF82F88643
:105A50000F8118850530110509F464C12F8138853F
:105A6000263031052CF58F8198858230910509F417
:105A70009AC0EF81F885E330F1056CF4EF80F8848B
:105A8000E114F10409F43FC00F81188501301105BC
:105A900009F46EC0FEC32F8138852330310509F427
:105AA00091C08F8198858430910509F4F0C0F1C3CD
:105AB000EF81F885E830F10509F476C10F8118858A
:105AC000093011056CF42F8138852630310509F431
:105AD00035C18F8198858730910509F44AC1D9C3B2
