:100000000C940D080C9433080C9433080C943308AA
:100010000C9433080C9433080C9433080C94330874
:100020000C9433080C9433080C9433080C94330864
:100030000C9433080C9433080C9430510C9433080E
:100040000C9433080C9433080C9433080C94330844
:100050000C9433080C9433080C9433080C94330834
:100060000C9433080C9433080C9433080C94330824
:100070000C94764E0C94E24E0C94CA4E0C943308B9
:100080000C9433080C9433080C9433080C94330804
:100090000C9433080C9433080C9433080C943308F4
:1000A0000C9433080C9433080C9433080C943308E4
:1000B0000C9433080C9433080C9433080C943308D4
:1000C0000C9433080C9433080C9433080C943308C4
:1000D0000C9433080C9433080C9433080C943308B4
:1000E0000C9433080C9433080C9430500C949C50AE
:1000F0000C9484500C9433080C9433080C943308FB
:100100000C9433080C9433080C9433080C94330883
:100110000C9433080C9433080C9433080C94330873
:100120000C9433080C9433080C9433080C94330863
:100130000C9433080C9433080C9433080C94330853
:100140000C9433080C9433080C9433080C94330843
:100150000C9433080C9433080C9433080C94330833
:100160000C94574C0C94C34C0C94AB4C0C9433082B
:100170000C9433080C9433080C9433080C94330813
:100180000C9433080C9433080C9433080C94330803
:100190000C9433080C9433080C9433080C943308F3
:1001A0000C9433080C9433080C9433080C94A45129
:1001B0000C9433080C9433080C9433080C943308D3
:1001C0000C9433080C9433080C9433080C943308C3
:1001D0000C9433080C9433080C9433080C948E560A
:1001E0000C94FD560C94D3560C9433080C9433089D
:1001F0000C9433084C616D70202520336420253029
:100200003258253032582530325825303258253072
:1002100032582530325825303258253032580A00AD
:100220000A0D435243207473436F6E666967426FD1
:10023000726465725275746572203D2025642020B9
:100240002020707354696D657273203D2025640A07
:100250000D000A0D53657420766572626F736974C0
:10026000793A000A0D536574204F666632204D6955
:100270006E7574653A000A0D536574204F666632D8
:1002800020486F75723A000A0D536574204F6E3224
:10029000204D696E7574653A000A0D536574204FE0
:1002A0006E3220486F75723A000A0D536574204F04
:1002B000666631204D696E7574653A000A0D5365A6
:1002C00074204F66663120486F75723A000A0D53EC
:1002D0006574204F6E31204D696E7574653A000A61
:1002E0000D536574204F6E3120486F75723A000AC5
:1002F0000D536574204D696E7574653A000A0D538F
:10030000657420486F75723A000A0D536574204475
:100310006174653A000A0D536574204D6F6E746800
:100320003A000A0D53657420596561723A000A0D4E
:100330000046726F6D204352443220756172742002
:10034000726563697665643A005072657373206103
:100350006E79206B657920210A0D00546F2043527D
:10036000443220556172742020202073656E6465CC
:10037000743A46454443424139383736353433328E
:1003800031300A0D000A0D0046726F6D2047505241
:1003900053207561727420726563697665643A00F2
:1003A000507265737320616E79206B657920210A24
:1003B0000D00546F20475052532055617274202015
:1003C000202073656E6465743A30313233343536CB
:1003D0003738394142434445460A0D0042414420E2
:1003E000636C6561722052414D004241442063724A
:1003F0006320696E2052414D2C20707354696D65E5
:100400007273004241442063726320696E2052413E
:100410004D2C2070734D6F64756C65536574436F1C
:100420006E666967004572726F72207772697469CF
:100430006E67207061636B657420746F206D6F64EC
:10044000756C65004572726F722077726974696E9F
:100450006720746F2074756E20646576696365002B
:1004600053656E64206D65737361676500457272D4
:100470006F722077726974696E6720746F2074756B
:100480006E206465766963650053656E64206D65F2
:10049000737361676500546F20626F7264657220C8
:1004A000616E73776572004A656E4E65744E657451
:1004B000776F726B426C6F625461626C6520204E84
:1004C0004F52452025642056657273696F6E202552
:1004D00064206C656E67687420256400546F206228
:1004E0006F726465722066726F6D20726F757465CD
:1004F0007220616E73776572004C6F63616C206D62
:10050000657373616765004C6F63616C206D756C1A
:1005100074696361737420616E73776572004572EC
:10052000726F722077726974696E6720746F2074BD
:10053000756E206465766963650053656E64206D31
:10054000657373616765004D756C7469636173747D
:1005500020616E73776572004572726F72207772D8
:100560006974696E67207061636B657420746F20B5
:100570006D6F64756C6500416363736573205265CC
:100580006A656374004163637365732041636365E7
:10059000707400524144495553204163636573733D
:1005A00020526571756573742025303258253032BC
:1005B00058253032582530325825303258253032BF
:1005C000582530325825303258004241442043618A
:1005D0006C63756C6174656420636865636B7375C7
:1005E0006D20253034580050726F74636F6C202575
:1005F00064204C656E6768742025642043686563D9
:100600006B73756D2025303458004950763620665E
:10061000726F6D204A656E6E6963206C656E6768E7
:100620007420256C640043616E6E6F7420636F6E7E
:1006300066696775726520626F7264657220726F99
:1006400075746572206E6F64652076657273696F6C
:100650006E205625642E25642E256400436F6E6639
:10066000696720364C6F5750414E2050726566695D
:1006700078203A2030782530386C782530386C78FE
:1006800000436F6E666967204A656E4E6574204947
:10069000442020202020203A203078256C78004308
:1006A0006F6E6669672031352E342050414E2049E7
:1006B00044202020203A203078257800436F6E6651
:1006C00069672031352E34204368616E6E656C2079
:1006D00020203A20256400436F6E6669672031351B
:1006E0002E3420526567696F6E202020203A202525
:1006F000640057726974696E6720636F6E6669671C
:1007000075726174696F6E20746F204D6F64756CC3
:10071000652025640057726974696E67204D6F64A7
:10072000756C653A20536563757269747920436FFF
:100730006E66696720256400417574686F7269731D
:100740006174696F6E20536368656D652020455242
:10075000524F5200417574686F7269736174696FAA
:100760006E20536368656D6520203A2052414449EC
:10077000555320736572766572206174202573204D
:100780007573696E672050415000417574686F72CF
:1007900069736174696F6E20536368656D652020AD
:1007A0003A204E6F6E65004E6574776F726B204B0A
:1007B000657920202020202020202020203A20257C
:1007C0007300456E61626C696E67206E6574776F49
:1007D000726B2073656375726974793A0057726938
:1007E00074696E67204D6F64756C653A204163745F
:1007F0006976697479204C45443A20256400577223
:100800006974696E67204D6F64756C653A20536535
:1008100074204A656E4E65742050726F66696C650F
:1008200020282564290057726974696E67204D6F0E
:1008300064756C653A20456E61626C696E67204133
:100840006E74656E6E612044697665727369747941
:100850000057726974696E67204D6F64756C653AF4
:10086000205365742046726F6E74656E642028256F
:10087000642900556E6B6E6F776E206D6F64756CBA
:1008800065206D6F64653A2025640057726974694C
:100890006E67204D6F64756C653A2052756E20430B
:1008A0006F6D6D6973696F6E696E670057726974F9
:1008B000696E67204D6F64756C653A2052756E20C5
:1008C000526F757465720057726974696E67204D56
:1008D0006F64756C653A2052756E20436F6F726459
:1008E000696E61746F720057726974696E67204D2A
:1008F0006F64756C653A2052657365740057726950
:1009000074696E67204D6F64756C653A2047657435
:1009100020416464726573730057726974696E670D
:10092000204D6F64756C653A2050696E6700577290
:100930006974696E67204D6F64756C653A20476510
:10094000742056657273696F6E0057726974696EB0
:1009500067204D6F64756C653A2047657420436F5E
:100960006E6669670050696E6700506F6E67004E73
:100970006F6465206E6F7420726573706F6E64694A
:100980006E6720286C61737420636F6D6D73202512
:100990006C64207365636F6E64732061676F2900F8
:1009A00043616E6E6F742064657465726D696E6507
:1009B000206D6F64756C652061646472657373008B
:1009C00052657175657374696E67206D6F64756CBF
:1009D0006520616464726573730054696D656F7539
:1009E000742077616974696E6720666F7220616434
:1009F00064726573730052657175657374696E67AF
:100A000020636F6E66696775726174696F6E00420C
:100A1000414420636F6E6669670052657175657346
:100A200074696E672076657273696F6E0054696DC4
:100A3000656F75742077616974696E6720666F727F
:100A40002076657273696F6E005374617274696E9B
:100A500067206D6F64756C6500436F6E6E656374BF
:100A6000656420746F20426F7264657220726F75C6
:100A7000746572205625642E25642E256400436F0C
:100A80006E66696720364C6F5750414E2050726534
:100A9000666978203A2030782530386C78253038EF
:100AA0006C7800436F6E666967204A656E4E6574A8
:100AB0002049442020202020203A203078256C78BE
:100AC00000436F6E6669672031352E342050414EE9
:100AD000204944202020203A203078257800436F98
:100AE0006E6669672031352E34204368616E6E650D
:100AF0006C2020203A20256400436F6E66696720D1
:100B000031352E3420526567696F6E202020203ADF
:100B100020256400526563656976656420636F6EA5
:100B200066696775726174696F6E2066726F6D2099
:100B30004D6F64756C650052656365697665642008
:100B4000736563757269747920636F6E6669677522
:100B5000726174696F6E2066726F6D204D6F64757F
:100B60006C6500436F6E66696775726174696F6E5C
:100B700020726571756573742066726F6D206D6F7C
:100B800064756C65004D6F64756C6520616464729A
:100B90006573733A202573004D6F64756C653A2058
:100BA000257300546F2053494D3A2573004F6E2F23
:100BB0004F66662053494D00436C69656E7420256D
:100BC000206420746F2072656369766564205349E0
:100BD0004D3A25640046726F6D2053494D3A257396
:100BE00000546F20636C69656E7420256420736502
:100BF0006E646564202564202A2032206279746541
:100C0000730046726F6D20636C69656E7420534982
:100C10004D3A2573004572726F722053455420502F
:100C2000494E202573004572726F722050494E2044
:100C3000746573742025730046726F6D2053494D9F
:100C40003A2573004F70656E656420434F4D2069EF
:100C50006E2074756E2064657669636500457272F6
:100C60006F72204F70656E656420434F4D20696E32
:100C70002074756E20646576696365004572726FD5
:100C8000722077726974696E67207061636B657436
:100C900020746F206D6F64756C6500424144206C58
:100CA000656E6768742066726F6D20636C69656E2F
:100CB000743A256420256400204F6E312025325877
:100CC0003A2530325820204F666631202532583A76
:100CD00025303258202020204F6E32202532583ABD
:100CE0002530325820204F666632202532583A256A
:100CF0003032580A0D000A0D54696D6520000A0D46
:100D000000496E707574733A20006B2053756254FD
:100D10007265654E6F6465732C206C204E65747728
:100D20006F726B5461626C650A0D00782074657394
:100D300074204352430A0D007620566572626F7329
:100D40006974790A0D007220524144495553207448
:100D500061626C650A0D00612C62207465737420F9
:100D6000475052530A0D007420536574204F6E2F64
:100D70004F66660A0D0070205365742050494E0A74
:100D80000D0030204A656E6E69632072657365746C
:100D90000A0D0039205365742074696D6520262082
:100DA000646174610A0D00382054657374204578BD
:100DB0007465726E616C2052414D0A0D00372054EB
:100DC00065737420435244322055617274204A5036
:100DD000340A0D0036205465737420475052532056
:100DE00055617274204A50360A0D00352047505222
:100DF00053204A5036205253540A0D0034204F6E6F
:100E00002F4F66662052656C617920310A0D0033E0
:100E10002042726F616463617374203235350A0D4C
:100E200000322042726F6164636173742031323723
:100E30000A0D00312042726F616463617374203166
:100E40000A0D000A0D4A656E6E696320484F5354BF
:100E5000205625642E25642E2564202053697A654A
:100E6000204E564D203D20257520627974657320F3
:100E700046726565203D2025642062797465730A99
:100E80000D004F6E54696D6572004F666654696D52
:100E90006572004F6E4C616D70004F66664C616DFF
:100EA00070005465737420617420616464726573AA
:100EB0007320256400446F75626C65207265706FE5
:100EC0007274004F6B004D4143202530325825305D
:100ED0003258253032582530325825303258253096
:100EE0003258253032582530325800436F6E6E65C7
:100EF00063746564202564206F6620256400546552
:100F00007374206174206164647265737320256456
:100F1000002532583A253032582047726F757020BC
:100F20002564204C696768742025640054657374D7
:100F300020617420616464726573732025640045C8
:100F400072726F722068616E646C696E672074756E
:100F50006E207061636B6574004572726F722063FE
:100F60006F6D6D756E69636174696E672077697402
:100F70006820626F7264657220726F75746572208A
:100F80006D6F64756C65000A0D45787465726E61ED
:100F90006C2052414D204F4B0A0D000A0D457865DB
:100FA000726E616C2052414D204552524F52533A5D
:100FB000257520617420416464726573733A3078DA
:100FC00025580A0D000A0D457865726E616C205235
:100FD000414D206E6F7420636C65617220617420D6
:100FE000416464726573733A3078255800536574B0
:100FF0002050494E203A2025730A0D005365742075
:1010000050494E203A2025730A0D00436C6F636BE4
:101010002069732072657365740011241FBECFEFC1
:10102000DFE3DEBFCDBF00E00CBF18BE19BE1ABEA5
:101030001BBE12E2A0E0B0E2EAE0FEEB00E00BBF74
:1010400002C007900D92A039B107D9F71BBE17E374
:10105000A0E9B2E201C01D92A03EB107E1F70E94F3
:101060003C080C94035F0C940000DF93CF93CDB742
:10107000DEB7CF91DF9108958F929F92AF92BF928A
:10108000CF92DF92EF92FF920F931F93DF93CF9354
:10109000CDB7DEB72A97CDBFDEBF0E94E8510E94D0
:1010A00043530E94FB521D8280E090E46CE370E0A9
:1010B0000E94AF44882341F1809105209091062041
:1010C00083309105FCF02091DC373091DD3783E3EC
:1010D00090E0B9010E94915B83E094E00F920F923F
:1010E000EDB7FEB73196808391830E94CF5B0F905E
:1010F0000F902091DC373091DD378AE090E0B90124
:101100000E94915B81E08D838DE390E46EE570E059
:101110000E94AF44882341F18091052090910620E0
:1011200083309105FCF02091DC373091DD3783E38B
:1011300090E0B9010E94915B8AEE93E00F920F92CA
:10114000EDB7FEB73196808391830E94CF5B0F90FD
:101150000F902091DC373091DD378AE090E0B901C3
:101160000E94915B81E08D838D81882341F1809184
:1011700005209091062083309105FCF02091DC370A
:101180003091DD3783E390E0B9010E94915B8CEDF3
:1011900093E00F920F92EDB7FEB731968083918363
:1011A0000E94CF5B0F900F902091DC373091DD379C
:1011B0008AE090E0B9010E94915B0E947A3804E4D1
:1011C00010E6E4E4F0E6828193810E94DB0D019653
:1011D0000E94EC0DF80182839383E4E4F0E6108230
:1011E000118204E410E660E070E082E090E00E948A
:1011F000FB0DDC01CB01F801868F978FA0A3B1A373
:10120000E4E4F0E612A213A214A215A225EB37E340
:101210008EE490E6B90146E050E00E94695B84E507
:1012200090E66AE570E646E050E00E94695B0E9445
:10123000A9258091842B9091852BA091862BB0912C
:10124000872B8093BB379093BC37A093BD37B09367
:10125000BE370E94B9400E94764F8823D1F30E9486
:101260008F4F8C830E94C33880E090E220EB37E3FD
:10127000B9010E94795B009709F43FC080919022E8
:1012800090919122843091055CF58C818033D8F067
:101290008C818A33C0F42091902230919122F901FF
:1012A000E050F04E8C818083C9010196809390229A
:1012B000909391228091902290919122FC01E05094
:1012C000F04E1082C6CF10929022109291228091FF
:1012D000902290919122FC01E050F04E1082B9CF03
:1012E00010929022109291228091902290919122BE
:1012F000FC01E050F04E1082ACCF8C81282F30E002
:1013000029873A8789859A858C34910509F447C2E3
:10131000E985FA85ED34F1050CF05BC029853A8545
:101320002633310509F4F4C089859A858733910500
:101330002CF5E985FA85E233F10509F4BAC029856F
:101340003A85233331056CF489859A85803391057C
:1013500009F422C2E985FA85E133F10509F4A0C058
:1013600078CF29853A852433310509F4B4C08985BD
:101370009A85853391050CF0B8C0A4C0E985FA853B
:10138000E933F10509F44FC129853A852A3331053E
:101390006CF489859A858733910509F4FDC0E98548
:1013A000FA85E833F10509F43BC153CF29853A8525
:1013B0002234310509F4FBC389859A858B34910564
:1013C00009F4F0C1E985FA85E134F10509F4EBC3CC
:1013D00040CF29853A852236310509F4E8C389854D
:1013E0009A85833691055CF5E985FA85E435F10542
:1013F00009F4DEC129853A85253531056CF48985E6
:101400009A858035910509F4D0C1E985FA85E235E0
:10141000F10509F4DEC21DCF29853A85283531054D
:1014200009F4ADC289859A858136910509F4BBC35B
:10143000E985FA85E635F10509F48BC20ACF2985DD
:101440003A852237310509F4C4C289859A858337E4
:1014500091059CF4E985FA85EC36F10509F49FC104
:1014600029853A852037310509F49FC189859A85F8
:101470008B36910509F496C1ECCEE985FA85E637FD
:10148000F10509F466C229853A852837310509F442
:1014900076C289859A858437910509F489C1D9CEA8
:1014A00064E07EEF8FEF9FEF42E021E00E94731235
:1014B000D0CE64E07EEF8FEF9FEF42E02FE70E94F7
:1014C0007312C7CE64E07EEF8FEF9FEF42E02FEF05
:1014D0000E947312BECE80918C2B882319F00E943B
:1014E0006A3DB7CE0E943B3DB4CEE0E4F6E0808595
:1014F000882F90E080729070009729F0E0E4F6E089
:1015000080E28683A6CEE0E4F6E080E28583A1CE89
:1015100087E090E20E94584E82EB93E00F920F9288
:10152000EDB7FEB73196808391830E94CF5B0F9019
:101530000F9080EA93E00F920F92EDB7FEB73196CD
:10154000808391830E94CF5B0F900F900E948F4FFA
:1015500088E893E00F920F92EDB7FEB73196808343
:1015600091830E94CF5B0F900F9004C00E946F4D3B
:101570000E94DF4F0E94574D8823C1F785E893E012
:101580000F920F92EDB7FEB73196808391830E9440
:10159000CF5B0F900F905DCE88E190E20E94394CB6
:1015A0008BE593E00F920F92EDB7FEB731968083F3
:1015B00091830E94CF5B0F900F9089E493E00F928C
:1015C0000F92EDB7FEB73196808391830E94CF5B77
:1015D0000F900F900E948F4F81E393E00F920F9234
:1015E000EDB7FEB73196808391830E94CF5B0F9059
:1015F0000F9004C00E94B84B0E94DF4F0E94694BBD
:101600008823C1F78EE293E00F920F92EDB7FEB7F9
:101610003196808391830E94CF5B0F900F9019CEFB
:101620000E94A04316CE82E293E00F920F92EDB794
:10163000FEB73196808391830E94CF5B0F900F900D
:101640000E94A0388B8386E08E838B818F8380EC11
:1016500097E39E012A5F3F4F6FE6A90122E000E079
:101660000E9496498091D7378823E1F785E193E07E
:101670000F920F92EDB7FEB73196808391830E944F
:10168000CF5B0F900F900E94A0388B8385E08E83F4
:101690008B818F718F8380EC97E39E012A5F3F4F90
:1016A0006FE6A90122E000E00E9496498091D737B9
:1016B0008823E1F789E093E00F920F92EDB7FEB730
:1016C0003196808391830E94CF5B0F900F900E9490
:1016D000A0388B8384E08E838B818F738F8380EC23
:1016E00097E39E012A5F3F4F6FE6A90122E000E0E9
:1016F0000E9496498091D7378823E1F78DEF92E0D9
:101700000F920F92EDB7FEB73196808391830E94BE
:10171000CF5B0F900F900E94A0388B8382E08E8366
:101720008B818F738F8388E0888780EC97E39E019D
:101730002A5F3F4F6FE6A90123E000E00E9496492F
:101740008091D7378823E1F78FEE92E00F920F92C6
:10175000EDB7FEB73196808391830E94CF5B0F90E7
:101760000F900E94A0388B831E8280E88F838B812C
:101770008F77888780EC97E39E012A5F3F4F6FE663
:10178000A90123E000E00E9496498091D737882381
:10179000E1F71092BF375DCD0E94A9255ACD0E9476
:1017A000704057CD0E94B04054CD0E947D5251CD23
:1017B0008FED92E00F920F92EDB7FEB731968083D6
:1017C00091830E94CF5B0F900F900DE310E40E9475
:1017D000A038F80186838DE390E46EE570E00E9406
:1017E0007F448DEC92E00F920F92EDB7FEB73196E9
:1017F000808391830E94CF5B0F900F900DE310E4E4
:101800000E94A038F80187838DE390E46EE570E0D4
:101810000E947F448CEB92E00F920F92EDB7FEB7DF
:101820003196808391830E94CF5B0F900F900DE3E0
:1018300010E40E94A038F80180878DE390E46EE503
:1018400070E00E947F4489EA92E00F920F92EDB718
:10185000FEB73196808391830E94CF5B0F900F90EB
:101860000DE310E40E94A038F80181878DE390E435
:101870006EE570E00E947F4489E992E00F920F923A
:10188000EDB7FEB73196808391830E94CF5B0F90B6
:101890000F900DE310E40E94A038F801E65AFF4FC4
:1018A00080838DE390E46EE570E00E947F4487E8DA
:1018B00092E00F920F92EDB7FEB73196808391833D
:1018C0000E94CF5B0F900F900DE310E40E94A038B0
:1018D000F801E55AFF4F80838DE390E46EE570E0F8
:1018E0000E947F4486E792E00F920F92EDB7FEB719
:1018F0003196808391830E94CF5B0F900F900DE310
:1019000010E40E94A038F801E45AFF4F80838DE371
:1019100090E46EE570E00E947F4483E692E00F92CF
:101920000F92EDB7FEB73196808391830E94CF5B13
:101930000F900F900DE310E40E94A038F801E35AD5
:10194000FF4F80838DE390E46EE570E00E947F445A
:1019500080CC82E592E00F920F92EDB7FEB7319600
:10196000808391830E94CF5B0F900F900E94A038DC
:10197000882F90E080930520909306206ACC0F2E4C
:10198000F0E2EF2EF2E0FF2EF02D80E090E46CE329
:1019900070E00E94AF44082F10E08DE390E46EE504
:1019A00070E00E94AF44882F90E000D000D0EDB7E7
:1019B000FEB73196E082F18202831383848395839C
:1019C0000E94CF5B2DB73EB72A5F3F4F2DBF3EBF72
:1019D00040CC19821A82DCC044EF51E029813A815F
:1019E000C901880F991F820F931F9C01220F331F7B
:1019F000220F331F220F331F820F931FFC01E0566B
:101A0000FF4B8081682F70E029813A81C901880FDE
:101A1000991F820F931F9C01220F331F220F331F28
:101A2000220F331F820F931FFC01E056FF4B818171
:101A3000A82FB0E029813A81C901880F991F820F30
:101A4000931F9C01220F331F220F331F220F331FBE
:101A5000820F931FFC01E056FF4B8281082F10E09C
:101A600029813A81C901880F991F820F931F9C0118
:101A7000220F331F220F331F220F331F820F931F9A
:101A8000FC01E056FF4B8381E82EFF2429813A8137
:101A9000C901880F991F820F931F9C01220F331FCA
:101AA000220F331F220F331F820F931FFC01E056BA
:101AB000FF4B8481C82EDD2429813A81C901880F1A
:101AC000991F820F931F9C01220F331F220F331F78
:101AD000220F331F820F931FFC01E056FF4B8581BD
:101AE000A82EBB2429813A81C901880F991F820F32
:101AF000931F9C01220F331F220F331F220F331F0E
:101B0000820F931FFC01E056FF4B8681882E99249B
:101B100029813A81C901880F991F820F931F9C0167
:101B2000220F331F220F331F220F331F820F931FE9
:101B3000FC01E056FF4B8781282F30E08DB79EB720
:101B400044978DBF9EBFEDB7FEB73196408351835A
:101B500089819A818283938364837583A683B78303
:101B600000871187E286F386C486D586A686B78667
:101B7000808A918A228B338B0E94CF5BEDB7FEB7B0
:101B80007496EDBFFEBF89819A81019689839A83FD
:101B900089819A81ECE9F0E42081318182179307F1
:101BA00008F41ACF56CB81E08093AC3752CB81E05A
:101BB0008093AF374ECBDF93CF930F920F92CDB779
:101BC000DEB789839A8389819A810E94EC0D0F90F8
:101BD0000F90CF91DF910895DF93CF930F920F92E3
:101BE000CDB7DEB789839A8399818A810F900F9050
:101BF000CF91DF910895DF93CF9300D00F92CDB7AF
:101C0000DEB769837A838B839C8329813A81922F03
:101C1000832FCC01A0E0B0E0BC0155274427898187
:101C20009A81AB81BC81CD01AA27BB279C01922F51
:101C3000832FCC01A0E0B0E0842B952BA62BB72BF3
:101C4000BC01CD012496CDBFDEBFCF91DF910895B9
:101C5000DF93CF93CDB7DEB72E97CDBFDEBF8A839C
:101C60009B836C837D834E835F8328873987DCC0A9
:101C70008981282F30E02D873E878D859E85823093
:101C80009105A1F02D853E852330310599F08D8594
:101C90009E858130910589F51092932210929422AD
:101CA0001092922281E080939622BEC081E08093C0
:101CB0009222BAC0EC81FD81208131818E819F8189
:101CC0008217930718F410929622AEC0EA81FB8126
:101CD0008081EC81FD812081318148855985B90160
:101CE0000E94850F982F80919522981709F09CC02B
:101CF0001092962291E09C879FC080919222882327
:101D000031F0898190E18927898310929222809114
:101D10009622282F30E02A873B878A859B85823050
:101D2000910561F12A853B85233031055CF48A8574
:101D30009B85009709F478C02A853B8521303105C1
:101D400099F070C08A859B858430910509F444C060
:101D50002A853B852430310504F18A859B858530B1
:101D6000910509F442C05EC08981EA81FB818083CC
:101D7000809196228F5F8093962256C08981882F0A
:101D800090E0982F8827EC81FD818083918380915A
:101D900096228F5F8093962247C0EC81FD8120813F
:101DA00031818981882F90E0820F931FEC81FD8122
:101DB00080839183EC81FD81208131818E819F819F
:101DC0008217930718F4109296222EC080919622C3
:101DD0008F5F8093962228C089818093952280917D
:101DE00096228F5F809396221FC0EC81FD81208117
:101DF0003181809193229091942282179307A0F4CD
:101E0000209193223091942288859985FC01E20FDC
:101E1000F31F89818083C901019680939322909357
:101E2000942202C010929622CE0101960E94EC0FDD
:101E3000882309F01DCF1C868C852E96CDBFDEBF72
:101E4000CF91DF910895DF93CF93CDB7DEB727977A
:101E5000CDBFDEBF8B836C837D834E835F8381E048
:101E600061E00E94C30F99230CF449C080E06B81AC
:101E70000E94C30F99230CF442C08C819D81892F4D
:101E80009927982F80E0692F0E94C30F9923BCF1F6
:101E90009C8180E0692F0E94C30F992384F12C81DB
:101EA0003D814E815F818B81B9010E94850F982F02
:101EB00080E0692F0E94C30F99230CF119821A82C6
:101EC00013C029813A818E819F81FC01E20FF31FAB
:101ED000908180E0692F0E94C30F992384F089814B
:101EE0009A81019689839A8329813A818C819D8187
:101EF0002817390730F381E063E00E94C30F27966B
:101F0000CDBFDEBFCF91DF910895DF93CF93CDB7E3
:101F1000DEB72897CDBFDEBF8C836D837E834F8372
:101F20005887198299818C81892789838D819E8127
:101F3000892F9927982F8981892789839D81898174
:101F4000892789831A821B8210C02A813B818F8155
:101F50009885FC01E20FF31F90818981892789838D
:101F60008A819B8101968A839B832A813B818D8113
:101F70009E812817390748F389812896CDBFDEBF97
:101F8000CF91DF910895DF93CF9300D00F92CDB71B
:101F9000DEB789836A838981882389F48A818031C5
:101FA00070F49A8180E189278A8382E00E94064C3E
:101FB00099232CF48FEF9FEF8B839C8305C08A813C
:101FC0000E94064C8B839C838B819C812496CDBF81
:101FD000DEBFCF91DF910895DF93CF930F920F92E1
:101FE000CDB7DEB789839A8389819A810E94814B1C
:101FF0000F900F90CF91DF910895DF93CF9300D092
:10200000CDB7DEB78A839B831982EA81FB81808109
:102010008A3330F4EA81FB8180818053898305C053
:10202000EA81FB8180818753898389818295807FC2
:1020300089838A819B8101968A839B83EA81FB81C4
:1020400080818A3348F4EA81FB8180818053982F14
:102050008981892B898308C0EA81FB81808187532C
:10206000982F8981892B898389812396CDBFDEBFF3
:10207000CF91DF910895DF93CF93CDB7DEB764970B
:10208000CDBFDEBF6F87788B898B9A8B4B8B5C8B38
:102090008F85988981709070882399F02F85388971
:1020A0008B899C89FC01E20FF31F10828F85988930
:1020B000A989BA890196A11DB11D8F87988BA98B1B
:1020C000BA8B8B899C89FC01BE968081882F90E019
:1020D000382F22278B899C89FC01BF968081882F0D
:1020E00090E0822B932BCC01A0E0B0E08B879C8703
:1020F000AD87BE878B899C89FC0134968081882FAF
:1021000090E0382F22278B899C89FC0135968081AD
:10211000882F90E0822B932BCC01A0E0B0E08F833E
:102120009887A987BA878B899C89FC01369680811C
:10213000882F90E0A0E0B0E08B839C83AD83BE83CA
:102140002F81388549855A858B819C81AD81BE81DF
:10215000820F931FA41FB51F8B879C87AD87BE87F7
:102160008B899C89089689839A834FC0E981FA817B
:102170008081882F90E0382F222789819A81FC0165
:1021800031968081882F90E0822B932BCC01A0E0A8
:10219000B0E08B839C83AD83BE832B853C854D85CE
:1021A0005E858B819C81AD81BE81820F931FA41FB0
:1021B000B51F8B879C87AD87BE8717C08B859C8595
:1021C000AD85BE859C01AD01407050708B859C85AE
:1021D000AD85BE85CD01AA27BB27820F931FA41F03
:1021E000B51F8B879C87AD87BE878B859C85AD850A
:1021F000BE85CD01AA27BB270097A105B105F1F641
:1022000089819A81029689839A832F8538898B895F
:102210009C89280F391F89819A818217930708F4B6
:10222000A5CF8B859C8580959095CC01A0E0B0E0F2
:102230008B879C87AD87BE878B859C856496CDBF39
:10224000DEBFCF91DF9108950F931F93DF93CF935C
:10225000CDB7DEB7C95DD040CDBFDEBFFE01E153D3
:10226000FF4F80839183FE01EF52FF4F60837183A4
:10227000FE01ED52FF4F2083318342835383FE01E1
:10228000E952FF4F0083118380E68F8318861986F9
:102290001A86FE01ED52FF4F80819181A281B381A8
:1022A0000896A11DB11D892F9A2FAB2FBB278B87B5
:1022B000FE01ED52FF4F8081885F8C8781E18D8721
:1022C00080E48E87CE0107960896FE01E153FF4F0A
:1022D00020813181B90140E150E00E94695BCE016B
:1022E00007964896FE01EF52FF4F20813181B901D8
:1022F00040E150E00E94695B83ED8FA78DEE88ABD3
:1023000087E089AB81E58AABFE01ED52FF4F80810A
:102310009181A281B3810896A11DB11D892F9A2FA9
:10232000AB2FBB278BABFE01ED52FF4F8081885F47
:102330008CAB1DAA1EAAFE01ED52FF4F40815181B8
:10234000CE010796C096FE01E952FF4F20813181F0
:10235000B9010E94695B9E012D523F4FFE01ED5273
:10236000FF4F80819181A281B381C096A11DB11DD3
:10237000F90180839183A283B383FE01ED52FF4F65
:1023800080819181A281B381FE01E952FF4F2081BA
:102390003181BC01CD01A9010E943B108D839E8338
:1023A0008D819E81892F99278DAB8D818EAB8091F8
:1023B000052090910620873091050CF443C01982C6
:1023C0001A821B821C8225C089819A81FE01379660
:1023D000E80FF91F8081282F30E000D00F92EDB771
:1023E000FEB731968DE290E280839183228333831E
:1023F0000E94BD5B0F900F900F900F9089819A8182
:10240000AB81BC810196A11DB11D89839A83AB83E9
:10241000BC83FE01ED52FF4F29813A814B815C81E3
:1024200080819181A281B381281739074A075B0710
:1024300058F22091DC373091DD378AE090E0B90125
:102440000E94915BFE01ED52FF4F80819181A2813C
:10245000B3819E01295F3F4FBC01CD01A9010E94BC
:102460001B21882369F180910520909106208330FB
:102470009105FCF02091DC373091DD3783E390E06B
:10248000B9010E94915B85E294E00F920F92EDB743
:10249000FEB73196808391830E94CF5B0F900F909F
:1024A0002091DC373091DD378AE090E0B9010E945D
:1024B000915BF1E0C752DF4FF883C95DD04005C0A2
:1024C000C752DF4F1882C95DD040C752DF4F8881A5
:1024D000C95DD040C752DF4FCDBFDEBFCF91DF9186
:1024E0001F910F9108950F931F93DF93CF93CDB753
:1024F000DEB76B97CDBFDEBF6D8B7E8B8F8B988FDA
:10250000498F2A8F809113378A3019F081E08B8FA1
:1025100039C019828DE18A830E942E5B8F778B836D
:102520008D899E89AF89B88D8B2F9927AA27BB27C4
:102530008C838D899E89AF89B88DCD01AA27BB2751
:102540008D838D899E89AF89B88D892F9A2FAB2F66
:10255000BB278E838D898F83898D8887198684E038
:102560008A878A8D8B8782E390E222E530E2B90187
:102570002BE030E040E050E0FE0131968F010E94F8
:1025800024118B8F8B8D6B96CDBFDEBFCF91DF91EA
:102590001F910F9108950F931F93DF93CF93CDB7A2
:1025A000DEB76C97CDBFDEBF8D8B4E8B5F8B688F98
:1025B000798F2A8F0B8F809113378A3019F081E041
:1025C0008C8F4FC08D89882F90E0880F991FFC0158
:1025D000EE58FF4D8081809370208D89882F90E088
:1025E000880F991FFC01ED58FF4D80818093712069
:1025F00019828DE18A830E942E5B8F778B838E896F
:102600009F89A88DB98D8B2F9927AA27BB278C83EB
:102610008E899F89A88DB98DCD01AA27BB278D836F
:102620008E899F89A88DB98D892F9A2FAB2FBB27B3
:102630008E838E898F838A8D8887198684E08A8726
:102640008B8D8B8782E390E222E630E2B9012BE0AA
:1026500030E040E050E0FE0131968F010E942411ED
:102660008C8F8C8D6C96CDBFDEBFCF91DF911F918B
:102670000F9108950F931F93DF93CF93CDB7DEB7DC
:102680006797CDBFDEBF809113378A3019F081E0A4
:102690008F8B20C081E08A8383E089831B8280E165
:1026A0008C830E942E5B8F778D838A818E838981B4
:1026B0008F8381E0888782E490E22CE937E3FE0192
:1026C0003396B90126E030E040E050E08F010E94EF
:1026D00024118F8B8F896796CDBFDEBFCF91DF919D
:1026E0001F910F9108950F931F93DF93CF93CDB751
:1026F000DEB76A97CDBFDEBF8F8B988F698F8091D1
:1027000013378A3019F081E08A8F27C081E08A83ED
:1027100084E089831B8280E18C830E942E5B8F770B
:102720008D838A818E8389818F838F89988D892F6C
:10273000992788878F898987898D8A8782E490E2A3
:102740002CE937E3FE013396B90128E030E040E0A0
:1027500050E08F010E9424118A8F8A8D6A96CDBF26
:10276000DEBFCF91DF911F910F910895AF92BF927D
:10277000CF92DF92EF92FF920F931F93DF93CF934D
:10278000CDB7DEB7C054D040CDBFDEBF6AAF7BAFA0
:102790008CAF9DAF4EAF5FAF8EAD9FADFC01BE96CF
:1027A0008081882F90E0382F22278EAD9FADFC01CD
:1027B000BF968081882F90E0822B932B8C8F9D8FEA
:1027C0008EAD9FADFC0134968081882F90E0382F2C
:1027D00022278EAD9FADFC0135968081882F90E039
:1027E000822B932B888F998F8EAD9FADFC013696EF
:1027F0008081882F90E08E8B9F8B80910520909117
:102800000620873091050CF4ACC080910520909192
:102810000620873091055CF12091DC373091DD375F
:1028200087E390E0B9010E94915B8AE096E000D0D6
:1028300000D0EDB7FEB73196808391838AAD9BAD12
:10284000ACADBDAD82839383A483B5830E94CF5B7F
:102850000DB71EB70A5F1F4F0DBF1EBF2091DC379B
:102860003091DD378AE090E0B9010E94915B809160
:102870000520909106208730910594F12091DC3756
:102880003091DD3787E390E0B9010E94915B87EEDC
:1028900095E02DB73EB7285030402DBF3EBFEDB775
:1028A000FEB73196808391838E899F89828393833B
:1028B000888D998D848395838C8D9D8D8683978358
:1028C0000E94CF5B8DB79EB708968DBF9EBF2091AB
:1028D000DC373091DD378AE090E0B9010E94915BEE
:1028E0001A8A1B8A1C8A1D8A26C02A893B898EADBA
:1028F0009FADFC01E20FF31F8081282F30E000D054
:102900000F92EDB7FEB731968DE290E2808391830E
:10291000228333830E94BD5B0F900F900F900F9026
:102920008A899B89AC89BD890196A11DB11D8A8BBD
:102930009B8BAC8BBD8B2A893B894C895D898AAD89
:102940009BADACADBDAD281739074A075B0768F2F0
:102950002091DC373091DD378AE090E0B9010E94A8
:10296000915B8AAD9BADACADBDAD2EAD3FADBC01B5
:10297000CD01A9010E943B108A8F9B8F8A8D9B8D70
:10298000009791F18C8D9D8D009771F180910520BC
:1029900090910620873091050CF495C62091DC3784
:1029A0003091DD3787E390E0B9010E94915B8AECBA
:1029B00095E000D00F92EDB7FEB7319680839183FA
:1029C0008A8D9B8D828393830E94CF5B0F900F90A3
:1029D0000F900F902091DC373091DD378AE090E046
:1029E000B9010E94915B6FC68EAD9FADFC0136961A
:1029F0008081813109F001C68EAD9FAD489664E2B9
:102A000070E440E150E00E945C5B009709F086C3EF
:102A10008EAD9FAD8A5B9F4F0E94FD0F8093143750
:102A20008EAD9FAD885B9F4F0E94FD0F8093153741
:102A30008EAD9FAD865B9F4F0E94FD0F8093163732
:102A40008EAD9FAD845B9F4F0E94FD0F8093173723
:102A50008EAD9FAD825B9F4F0E94FD0F8093183714
:102A60008EAD9FAD805B9F4F0E94FD0F8093193705
:102A70008EAD9FAD8E5A9F4F0E94FD0F80931A37E7
:102A80008EAD9FAD8C5A9F4F0E94FD0F80931B37D8
:102A90008091052090910620873091050CF456C056
:102AA0002091DC373091DD3787E390E0B9010E9457
:102AB000915B23E935E080911437482F50E08091F5
:102AC0001537682F70E080911637A82FB0E08091FD
:102AD0001737082F10E080911837E82EFF248091D7
:102AE0001937C82EDD2480911A37A82EBB24809177
:102AF0001B37882F90E0EDB7FEB77297EDBFFEBF92
:102B0000EDB7FEB7319620833183428353836483CC
:102B10007583A683B78300871187E286F386C48610
:102B2000D586A686B786808B918B0E94CF5B0DB72A
:102B30001EB70E5E1F4F0DBF1EBF2091DC373091B8
:102B4000DD378AE090E0B9010E94915B8EAD9FADC8
:102B50009C01285F3F4FCE014E96B90140E150E005
:102B60000E94695B8EAD9FADAC01485F5F4F8EAD3B
:102B70009FAD9C01285E3F4FCA01B90140E150E082
:102B80000E94695B8EAD9FAD48969E01225E3F4FCD
:102B9000B90140E150E00E94695B8EAD9FAD9C01A0
:102BA000285D3F4FCE014E96B90142E050E00E94B1
:102BB000695B8EAD9FADAC01485D5F4F8EAD9FAD43
:102BC0009C01265D3F4FCA01B90142E050E00E94DE
:102BD000695B8EAD9FAD8A969E01225E3F4FB90123
:102BE00042E050E00E94695B8EAD9FADFC01BE9655
:102BF00010828EAD9FADFC01BF9610821D861E8691
:102C00001F86188A198A29C02E853F85C901880F19
:102C1000991F820F931F9C01220F331F220F331F16
:102C2000220F331F820F931F80569F4B24E137E3FF
:102C3000B90148E050E00E945C5B009719F481E024
:102C40008D871BC08E859F85A889B9890196A11D96
:102C5000B11D8E879F87A88BB98BECE9F0E480814A
:102C600091819C0140E050E08E859F85A889B989BB
:102C700082179307A407B50738F28D85882331F4AE
:102C8000E0E0F0E487A9882309F4B9C08091052029
:102C90009091062087309105FCF02091DC3730912F
:102CA000DD3787E390E0B9010E94915B85E895E00C
:102CB0000F920F92EDB7FEB73196808391830E94F9
:102CC000CF5B0F900F902091DC373091DD378AE099
:102CD00090E0B9010E94915B8EAD9FADFC01F09632
:102CE00082E080838EAD9FAD8C010F5C1F4F0E94F0
:102CF0002E5BD8018C938EAD9FADFC01EC5BFF4F3A
:102D00008AE180838EAD9FADFC01EB5BFF4F88E1D4
:102D100080838EAD9FADFC01EA5BFF4F10828EADCC
:102D20009FADFC01E95BFF4F10828EAD9FADFC01B2
:102D3000E85BFF4F8DE680838EAD9FADFC01E75BC6
:102D4000FF4F89EE80838EAD9FADFC01E65BFF4FA8
:102D500084E680838EAD9FADFC01E55BFF4F82E191
:102D600080831E861F86188A198A3AC08E859F85A1
:102D7000880F991F9C01245B3F4F8EAD9FADFC01D6
:102D8000E20FF31F10828E859F85880F991F9C018B
:102D9000235B3F4F8EAD9FADBC01620F731F27E0D9
:102DA00030E040E050E08E859F85A889B98979019F
:102DB0008A01E81AF90A0A0B1B0BD801C701FC01AA
:102DC000EC5EF84C8081DB018C938E859F85A88911
:102DD000B9890196A11DB11D8E879F87A88BB98BDC
:102DE0008E859F85A889B98988309105A105B1058F
:102DF00008F4BCCF8CE290E08A8F9B8F88C08091D2
:102E000005209091062087309105FCF02091DC3759
:102E10003091DD3787E390E0B9010E94915B87E74D
:102E200095E00F920F92EDB7FEB7319680839183B4
:102E30000E94CF5B0F900F902091DC373091DD37EF
:102E40008AE090E0B9010E94915B88E0FE01BE96A5
:102E5000DF01E82E1D92EA94E9F71B861C863EC02E
:102E60008B859C85880F991F880F991F880F991F44
:102E7000845E984C9E01225D3F4FB90148E050E0CE
:102E80000E945C5B009791F48B859C85880F991F4D
:102E9000880F991F880F991F845E984C24E137E3AF
:102EA000B90148E050E00E94695B1EC08B859C859B
:102EB000880F991F880F991F880F991F845E984C5F
:102EC00024E137E3B90148E050E00E945C5B0097E1
:102ED00059F08B859C8501968B879C878B859C857B
:102EE000803191050CF4BCCF8EAD9FADFC01F09606
:102EF00083E080838EAD9FAD8C010F5C1F4F0E94DD
:102F00002E5BD8018C9384E190E08A8F9B8F1E8684
:102F10001F86188A198A19C08E859F859C012C5C92
:102F20003F4F8EAD9FAD8C01020F131F0E942E5B91
:102F3000F80180838E859F85A889B9890196A11D96
:102F4000B11D8E879F87A88BB98B8E859F85A88999
:102F5000B98980319105A105B105F0F28EAD9FAD23
:102F6000FC01F2968A8D9B8D892F992780838EADE7
:102F70009FADFC01F3968A8D80838A8D9B8D089688
:102F80008A8F9B8F8EAD9FADFC0134968A8D9B8D71
:102F9000892F992780838EAD9FADFC0135968A8D50
:102FA00080838EAD9FADFC01379680E480838EAD2B
:102FB0009FADFC01BC968A8D9B8D892F99278083BC
:102FC0008EAD9FADFC01BD968A8D80838A8D9B8DD1
:102FD0008896CC01A0E0B0E08AAF9BAFACAFBDAFAC
:102FE0008AAD9BADACADBDAD2EAD3FADBC01CD014D
:102FF000A9010E943B108A8F9B8F8EAD9FADFC0173
:10300000BE968A8D9B8D892F992780838EAD9FAD2B
:10301000FC01BF968A8D80838091052090910620C7
:10302000873091050CF441C01F82188619861A86D4
:1030300026C02F8138858EAD9FADFC01E20FF31FB6
:103040008081282F30E000D00F92EDB7FEB7319687
:103050008DE290E280839183228333830E94BD5B63
:103060000F900F900F900F908F819885A985BA854A
:103070000196A11DB11D8F839887A987BA872F81DB
:10308000388549855A858AAD9BADACADBDAD281755
:1030900039074A075B0768F22091DC373091DD374A
:1030A0008AE090E0B9010E94915B8AAD9BADACAD26
:1030B000BDAD2EAD3FADBC01CD01A9010E941B21CC
:1030C000882309F400C38091052090910620833065
:1030D0009105FCF02091DC373091DD3783E390E0FF
:1030E000B9010E94915B88E595E00F920F92EDB7D0
:1030F000FEB73196808391830E94CF5B0F900F9033
:103100002091DC373091DD378AE090E0B9010E94F0
:10311000915BF1E02196FFAF2197D8C28EAD9FADB4
:10312000FC01789680818F3F09F0BCC08EAD9FADC9
:103130009C01285F3F4F82E390E2B90140E150E0FB
:103140000E945C5B009709F485C0809105209091F6
:10315000062087309105FCF02091DC373091DD3777
:1031600087E390E0B9010E94915B87E495E00F92BC
:103170000F92EDB7FEB73196808391830E94CF5BAB
:103180000F900F902091DC373091DD378AE090E08E
:10319000B9010E94915B80910520909106208730B3
:1031A0009105FCF02091DC373091DD3787E390E02A
:1031B000B9010E94915B8AE395E00F920F92EDB7FF
:1031C000FEB73196808391830E94CF5B0F900F9062
:1031D0002091DC373091DD378AE090E0B9010E9420
:1031E000915B8AAD9BADACADBDAD2EAD3FADBC012D
:1031F000CD01A9010E944338882309F464C280915B
:1032000005209091062083309105FCF02091DC3759
:103210003091DD3783E390E0B9010E94915B8EE14C
:1032200095E00F920F92EDB7FEB7319680839183B0
:103230000E94CF5B0F900F902091DC373091DD37EB
:103240008AE090E0B9010E94915B01E021960FAF06
:1032500021973CC2809105209091062087309105EE
:103260000CF431C22091DC373091DD3787E390E0F8
:10327000B9010E94915B87E095E00F920F92EDB744
:10328000FEB73196808391830E94CF5B0F900F90A1
:103290002091DC373091DD378AE090E0B9010E945F
:1032A000915B11C28EAD9FADFC01389680818E3F3F
:1032B000A1F58EAD9FADFC0139968081882F90E0FD
:1032C000807C90708038910541F580910520909127
:1032D0000620873091050CF4F6C12091DC3730913F
:1032E000DD3787E390E0B9010E94915B89EF94E0BC
:1032F0000F920F92EDB7FEB73196808391830E94B3
:10330000CF5B0F900F902091DC373091DD378AE052
:1033100090E0B9010E94915BD6C18EAD9FAD4896F9
:1033200022E430E2B90140E150E00E945C5B00978A
:1033300009F004C18EAD9FAD08962CE937E3B901C1
:1033400040E150E00E945C5B009709F0CFC08091A3
:1033500005209091062087309105FCF02091DC3704
:103360003091DD3787E390E0B9010E94915B8CEDED
:1033700094E00F920F92EDB7FEB731968083918360
:103380000E94CF5B0F900F902091DC373091DD379A
:103390008AE090E0B9010E94915B888D998D8A3016
:1033A000910508F490C18EAD9FADFC01F19680812E
:1033B000882F90E08131910509F085C181E08EABC5
:1033C00084E08FAB18AE8BE489AF8EAD9FADC39612
:1033D0009E012A5C3F4FB90144E050E00E945C5BD3
:1033E000009709F070C18EAD9FADFC01F79680810A
:1033F000882F90E08D839E838D819E81982F8827D2
:103400008D839E838EAD9FADFC01F8968081282F21
:1034100030E08D819E81822B932B8D839E838EAD98
:103420009FADFC01F9968081882F90E08B839C836F
:103430008B819C81982F88278B839C838EAD9FAD39
:10344000FC01FA968081282F30E08B819C81822BB1
:10345000932B8B839C83888D998D89839A83898113
:103460009A81439789839A838091052090910620C1
:103470008730910594F12091DC373091DD3787E377
:1034800090E0B9010E94915B87EA94E02DB73EB7C6
:10349000285030402DBF3EBFEDB7FEB73196808338
:1034A00091838D819E81828393838B819C81848390
:1034B000958389819A81868397830E94CF5B8DB79C
:1034C0009EB708968DBF9EBF2091DC373091DD37C7
:1034D0008AE090E0B9010E94915B8EAD9FADCB96E2
:1034E00029813A81B9010E94053EEDC080910520F5
:1034F00090910620873091050CF4E5C02091DC37CF
:103500003091DD3787E390E0B9010E94915B86E955
:1035100094E00F920F92EDB7FEB7319680839183BE
:103520000E94CF5B0F900F902091DC373091DD37F8
:103530008AE090E0B9010E94915BC5C080910520AE
:103540009091062087309105FCF02091DC37309176
:10355000DD3787E390E0B9010E94915B89E894E050
:103560000F920F92EDB7FEB73196808391830E9440
:10357000CF5B0F900F902091DC373091DD378AE0E0
:1035800090E0B9010E94915B8AAD9BADACADBDAD41
:103590002EAD3FADBC01CD01A9010E944338882367
:1035A00009F491C080910520909106208330910507
:1035B000FCF02091DC373091DD3783E390E0B901F6
:1035C0000E94915B8DE694E00F920F92EDB7FEB7EB
:1035D0003196808391830E94CF5B0F900F90209152
:1035E000DC373091DD378AE090E0B9010E94915BD1
:1035F00091E021969FAF219769C08EAD9FADFC01F0
:10360000369680818A3309F05EC0809105209091C2
:10361000062087309105FCF02091DC373091DD37B2
:1036200087E390E0B9010E94915B80E694E00F92FD
:103630000F92EDB7FEB73196808391830E94CF5BE6
:103640000F900F902091DC373091DD378AE090E0C9
:10365000B9010E94915B8AAD9BADACADBDAD2EAD05
:103660003FADBC01CD01A9010E944338882359F127
:10367000809105209091062083309105FCF02091E7
:10368000DC373091DD3783E390E0B9010E94915B34
:1036900084E494E00F920F92EDB7FEB731968083E9
:1036A00091830E94CF5B0F900F902091DC37309177
:1036B000DD378AE090E0B9010E94915BA1E021969C
:1036C000AFAF219703C021961FAE219721968FADF2
:1036D0002197C05CDF4FCDBFDEBFCF91DF911F913F
:1036E0000F91FF90EF90DF90CF90BF90AF90089533
:1036F0002F923F924F925F926F927F928F929F9202
:10370000AF92BF92CF92DF92EF92FF920F931F93EF
:10371000DF93CF93CDB7DEB72C97CDBFDEBF8983C4
:103720009A836B837C83E981FA818081282F30E042
:10373000E981FA818181482F50E0E981FA81828113
:10374000682F70E0E981FA818381A82FB0E0E981D8
:10375000FA818481082F10E0E981FA818581E82EC1
:10376000FF24E981FA818681C82EDD24E981FA816E
:103770008781A82EBB24E981FA818085882E99242F
:10378000E981FA818185682E7724E981FA81828531
:10379000482E5524E981FA818385282E3324E98136
:1037A000FA818485E82FF0E0EB87FC87E981FA81D4
:1037B0008585E82FF0E0E987FA87E981FA81868537
:1037C000E82FF0E0EF83F887E981FA818785E82F19
:1037D000F0E0ED83FE838DB79EB786978DBF9EBFC9
:1037E000EDB7FEB731968B819C81808391838EE209
:1037F00090E08283938382E990E284839583268399
:1038000037834087518762877387A487B587068788
:103810001787E08AF18AC28AD38AA48AB58A868AFF
:10382000978A608E718E428E538E248E358E8B8554
:103830009C85868F978F89859A8580A391A38F8198
:10384000988582A393A38D819E8184A395A30E94D2
:10385000F25BEDB7FEB7B696EDBFFEBF2C96CDBFBF
:10386000DEBFCF91DF911F910F91FF90EF90DF901E
:10387000CF90BF90AF909F908F907F906F905F9010
:103880004F903F902F900895CF92DF92EF92FF924A
:103890000F931F93DF93CF930F92CDB7DEB7809135
:1038A000A8228170882309F45FC180919C229091A5
:1038B0009D22A0919E22B0919F22803021E092070C
:1038C00021E0A20720E0B20708F44EC18091052054
:1038D00090910620863091052CF12091DC373091B3
:1038E000DD3786E390E0B9010E94915B82EF96E0BC
:1038F00000D00F92EDB7FEB731968083918380E1BF
:1039000090E0828393830E94CF5B0F900F900F9083
:103910000F902091DC373091DD378AE090E0B901DB
:103920000E94915B80910520909106208630910540
:1039300044F12091DC373091DD3786E390E0B90126
:103940000E94915B27ED36E0E0E0F0E48081882F73
:1039500090E000D00F92EDB7FEB73196208331830F
:10396000828393830E94CF5B0F900F900F900F90F4
:103970002091DC373091DD378AE090E0B9010E9478
:10398000915B80910520909106208630910544F14D
:103990002091DC373091DD3786E390E0B9010E9459
:1039A000915B2CEB36E0E0E0F0E48181882F90E041
:1039B00000D00F92EDB7FEB731962083318382831A
:1039C00093830E94CF5B0F900F900F900F902091E8
:1039D000DC373091DD378AE090E0B9010E94915BDD
:1039E0008091052090910620863091054CF1209120
:1039F000DC373091DD3786E390E0B9010E94915BBE
:103A00000FE916E0E0E0F0E4828193810E941C1E41
:103A100000D00F92EDB7FEB73196008311838283F9
:103A200093830E94CF5B0F900F900F900F90209187
:103A3000DC373091DD378AE090E0B9010E94915B7C
:103A400080910520909106208630910594F1209177
:103A5000DC373091DD3786E390E0B9010E94915B5D
:103A600001E816E0E0E0F0E484819581A681B78169
:103A7000BC01CD010E942B1EDC01CB0100D000D087
:103A8000EDB7FEB731960083118382839383A483BD
:103A9000B5830E94CF5B8DB79EB706968DBF9EBF44
:103AA0002091DC373091DD378AE090E0B9010E9447
:103AB000915B8091052090910620863091050CF451
:103AC0004AC02091DC373091DD3786E390E0B901C0
:103AD0000E94915B0F2EFCE5CF2EF6E0DF2EF02D3D
:103AE000E0E0F0E480859185A285B385BC01CD013D
:103AF0000E942B1E7B018C01E0E0F0E4848595851B
:103B0000A685B785BC01CD010E942B1EDC01CB012F
:103B1000EDB7FEB73A97EDBFFEBFEDB7FEB73196F2
:103B2000C082D182E282F3820483158386839783E5
:103B3000A087B1870E94CF5B2DB73EB7265F3F4F6E
:103B40002DBF3EBF2091DC373091DD378AE090E019
:103B5000B9010E94915B86E660E170E040E050E4CC
:103B60000E94230F19825DC080910520909106204C
:103B7000833091050CF453C02091DC373091DD3750
:103B800083E390E0B9010E94915B46E256E08091A8
:103B90009C2290919D22A0919E22B0919F22CD01C6
:103BA000AA27BB27BC016F70707080919C229091F6
:103BB0009D22A0919E22B0919F22892F9A2FAB2FF8
:103BC000BB279C012F70307080919C2290919D2288
:103BD000A0919E22B0919F228F709070EDB7FEB79A
:103BE0003897EDBFFEBFEDB7FEB7319640835183E6
:103BF0006283738324833583868397830E94CF5B9C
:103C00002DB73EB7285F3F4F2DBF3EBF2091DC3719
:103C10003091DD378AE090E0B9010E94915B31E09C
:103C2000398389810F90CF91DF911F910F91FF9080
:103C3000EF90DF90CF900895DF93CF930F920F9284
:103C4000CDB7DEB789839A8399818A810F900F90CF
:103C5000CF91DF910895DF93CF9300D00F92CDB72E
:103C6000DEB769837A838B839C8389819A81AB8158
:103C7000BC81BC01CD010E94471EDC01CB01BC010F
:103C8000CD012496CDBFDEBFCF91DF910895DF93A4
:103C9000CF9300D00F92CDB7DEB769837A838B8341
:103CA0009C8329813A81922F832FCC01A0E0B0E040
:103CB000BC015527442789819A81AB81BC81CD0104
:103CC000AA27BB279C01922F832FCC01A0E0B0E054
:103CD000842B952BA62BB72BBC01CD012496CDBFF1
:103CE000DEBFCF91DF910895DF93CF93CDB7DEB7DD
:103CF000CC55D040CDBFDEBF8091052090910620ED
:103D0000873091052CF12091DC373091DD3787E346
:103D100090E0B9010E94915B85E197E000D00F929D
:103D2000EDB7FEB731968083918384E290E0828381
:103D300093830E94CF5B0F900F900F900F90209174
:103D4000DC373091DD378AE090E0B9010E94915B69
:103D50008BE664E270E040E150E40E94230F80E0D3
:103D6000C45ADF4FCDBFDEBFCF91DF910895DF93FF
:103D7000CF930F92CDB7DEB78091292090912A2062
:103D8000A0912B20B0912C208F3F2FEF92072FEF87
:103D9000A2072FEFB20709F43FC08091292090912C
:103DA0002A20A0912B20B0912C208983809105207E
:103DB000909106208730910534F12091DC373091C5
:103DC000DD3787E390E0B9010E94915B2DED37E08C
:103DD0008981882F90E000D00F92EDB7FEB7319621
:103DE00020833183828393830E94CF5B0F900F9057
:103DF0000F900F902091DC373091DD378AE090E012
:103E0000B9010E94915B81E761E070E09E012F5F44
:103E10003F4FA9010E94230F80E00F90CF91DF91C7
:103E20000895DF93CF93CDB7DEB780919C22909118
:103E30009D22A0919E22B0919F22803021E0920786
:103E400021E0A20720E0B207B0F180910520909117
:103E500006208730910544F12091DC373091DD3721
:103E600087E390E0B9010E94915B2EEF37E0E0E03C
:103E7000F0E485A9882F90E000D00F92EDB7FEB74F
:103E8000319620833183828393830E94CF5B0F908E
:103E90000F900F900F902091DC373091DD378AE042
:103EA00090E0B9010E94915B8EE661E070E045E32D
:103EB00050E40E94230F80E0CF91DF910895DF93BB
:103EC000CF93CDB7DEB780919C2290919D22A09197
:103ED0009E22B0919F22803024E0920721E0A20729
:103EE00020E0B20708F468C0809105209091062078
:103EF0008730910544F12091DC373091DD3787E33D
:103F000090E0B9010E94915B21E538E0E0E0F0E447
:103F100084A9882F90E000D00F92EDB7FEB73196BC
:103F200020833183828393830E94CF5B0F900F9015
:103F30000F900F902091DC373091DD378AE090E0D0
:103F4000B9010E94915B82E761E070E044E350E4D4
:103F50000E94230FE0E0F0E486A9882369F18091B4
:103F600005209091062087309105FCF02091DC37E8
:103F70003091DD3787E390E0B9010E94915B86E2E2
:103F800098E00F920F92EDB7FEB731968083918340
:103F90000E94CF5B0F900F902091DC373091DD377E
:103FA0008AE090E0B9010E94915B83E760E070E0F5
:103FB00040E050E00E94230F80E0CF91DF91089510
:103FC000DF93CF93CDB7DEB780919722882371F529
:103FD000809105209091062087309105FCF020917A
:103FE000DC373091DD3787E390E0B9010E94915BC7
:103FF00087EC98E00F920F92EDB7FEB73196808371
:1040000091830E94CF5B0F900F902091DC3730910D
:10401000DD378AE090E0B9010E94915B87E660E0BD
:1040200070E040E050E00E94230F92C08091972200
:10403000813071F58091052090910620873091059F
:10404000FCF02091DC373091DD3787E390E0B90157
:104050000E94915B8CEA98E00F920F92EDB7FEB749
:104060003196808391830E94CF5B0F900F902091B7
:10407000DC373091DD378AE090E0B9010E94915B36
:104080008FE660E070E040E050E00E94230F60C0E7
:1040900080919722823071F58091052090910620C1
:1040A00087309105FCF02091DC373091DD3787E3D4
:1040B00090E0B9010E94915B8BE898E00F920F921B
:1040C000EDB7FEB73196808391830E94CF5B0F904E
:1040D0000F902091DC373091DD378AE090E0B90114
:1040E0000E94915B80E760E070E040E050E00E9459
:1040F000230F2EC0809105209091062083309105DA
:104100003CF12091DC373091DD3783E390E0B90159
:104110000E94915B23E738E080919722882F90E0FE
:1041200000D00F92EDB7FEB73196208331838283A2
:1041300093830E94CF5B0F900F900F900F90209170
:10414000DC373091DD378AE090E0B9010E94915B65
:1041500080E0CF91DF910895DF93CF93CDB7DEB7A5
:10416000809105209091062087309105FCF02091E8
:10417000DC373091DD3787E390E0B9010E94915B35
:1041800087EE98E00F920F92EDB7FEB731968083DD
:1041900091830E94CF5B0F900F902091DC3730917C
:1041A000DD378AE090E0B9010E94915B88E660E02B
:1041B00070E040E050E00E94230F80E0CF91DF915B
:1041C0000895DF93CF93CDB7DEB78091052090910E
:1041D000062087309105FCF02091DC373091DD37E7
:1041E00087E390E0B9010E94915B8DEF98E00F9218
:1041F0000F92EDB7FEB73196808391830E94CF5B1B
:104200000F900F902091DC373091DD378AE090E0FD
:10421000B9010E94915B8091A8228D7F8093A82292
:1042200089E660E070E040E050E00E94230F80E00B
:10423000CF91DF910895DF93CF9300D000D0CDB719
:10424000DEB769837A838B839C834D835E83298168
:104250003A814D815E8185E6B9010E94230F80E09D
:104260002696CDBFDEBFCF91DF910895DF93CF9328
:10427000CDB7DEB78091052090910620873091055B
:10428000FCF02091DC373091DD3787E390E0B90115
:104290000E94915B89E199E00F920F92EDB7FEB712
:1042A0003196808391830E94CF5B0F900F90209175
:1042B000DC373091DD378AE090E0B9010E94915BF4
:1042C0008DE660E070E040E050E00E94230F80E067
:1042D000CF91DF910895DF93CF93CDB7DEB7809173
:1042E00005209091062087309105FCF02091DC3765
:1042F0003091DD3787E390E0B9010E94915B8EE257
:1043000099E00F920F92EDB7FEB7319680839183BB
:104310000E94CF5B0F900F902091DC373091DD37FA
:104320008AE090E0B9010E94915B80E060E070E07B
:1043300040E050E00E94230F80E0CF91DF9108958C
:10434000DF93CF93CDB7DEB7809105209091062003
:1043500087309105FCF02091DC373091DD3787E321
:1043600090E0B9010E94915B8AE499E00F920F926C
:10437000EDB7FEB73196808391830E94CF5B0F909B
:104380000F902091DC373091DD378AE090E0B90161
:104390000E94915B8AE660E070E040E050E00E949D
:1043A000230F80E0CF91DF910895DF93CF9300D06A
:1043B00000D0CDB7DEB769837A838B839C834D832E
:1043C0005E838091A8228870882309F482C08D8141
:1043D0009E81009741F180910520909106208730C1
:1043E00091050CF476C02091DC373091DD3787E3FE
:1043F00090E0B9010E94915B8AE699E00F920F92DA
:10440000EDB7FEB73196808391830E94CF5B0F900A
:104410000F902091DC373091DD378AE090E0B901D0
:104420000E94915B56C08091842B9091852BA09126
:10443000862BB091872B2091A0223091A122409110
:10444000A2225091A322821B930BA40BB50B8B309D
:104450009105A105B105E8F1809105209091062014
:1044600087309105FCF02091DC373091DD3787E310
:1044700090E0B9010E94915B85E699E00F920F925E
:10448000EDB7FEB73196808391830E94CF5B0F908A
:104490000F902091DC373091DD378AE090E0B90150
:1044A0000E94915B8DE660E070E040E050E00E9489
:1044B000230F8091842B9091852BA091862BB09116
:1044C000872B8093A0229093A122A093A222B09345
:1044D000A32280E02696CDBFDEBFCF91DF91089565
:1044E000EF92FF920F931F93DF93CF9300D00F9221
:1044F000CDB7DEB7898380911337E82EFF24EB8296
:10450000FC820B811C810530110509F450C12B81FF
:104510003C8126303105F4F48B819C8182309105F9
:1045200009F4D2C00B811C810330110534F42B81B6
:104530003C812130310599F18CC28B819C81833083
:10454000910509F401C10B811C810430110509F4A6
:1045500028C17FC22B813C812830310509F49AC1E2
:104560008B819C81893091056CF40B811C81063014
:10457000110509F44FC12B813C812730310509F425
:104580004FC167C28B819C818930910509F43EC27D
:104590000B811C810A30110509F44EC25AC2809168
:1045A000A8228170882309F084C08091A422909170
:1045B000A522A091A622B091A7220097A105B1053E
:1045C00031F1809105209091062087309105FCF013
:1045D0002091DC373091DD3787E390E0B9010E940C
:1045E000915B8DE29AE00F920F92EDB7FEB7319694
:1045F000808391830E94CF5B0F900F902091DC37D6
:104600003091DD378AE090E0B9010E94915B8091A2
:10461000A4229091A522A091A622B091A722019652
:10462000A11DB11D8093A4229093A522A093A62240
:10463000B093A7228091A4229091A522A091A622B6
:10464000B091A72283309105A105B10548F580916D
:1046500005209091062087309105FCF02091DC37F1
:104660003091DD3787E390E0B9010E94915B8AE1E8
:104670009AE00F920F92EDB7FEB731968083918347
:104680000E94CF5B0F900F902091DC373091DD3787
:104690008AE090E0B9010E94915B0E946B21D9C130
:1046A0001092A4221092A5221092A6221092A72264
:1046B000D0C11092A4221092A5221092A62210928C
:1046C000A72282E080931337E0E0F0E480859185B3
:1046D000A285B3850097A105B10551F51092133756
:1046E0008091052090910620823091050CF4B1C193
:1046F0002091DC373091DD3782E390E0B9010E94F0
:10470000915B8FE09AE00F920F92EDB7FEB7319672
:10471000808391830E94CF5B0F900F902091DC37B4
:104720003091DD378AE090E0B9010E94915B91C140
:104730000E94441C882321F483E08093133789C1AD
:1047400081E08093133785C1E0E0F0E4E0A0F1A0C0
:1047500002A113A160E070E080E090E00E94471E9B
:10476000DC01CB01E816F9060A071B0711F00E94CD
:10477000741E80919C2290919D22A0919E22B091C6
:104780009F22803011E0910711E0A10710E0B107EE
:1047900020F084E0809313375CC185E08093133769
:1047A00058C10E94111F85E08093133752C10E94A7
:1047B000E01F80919C2290919D22A0919E22B09119
:1047C0009F22803024E0920721E0A20720E0B20778
:1047D00020F086E0809313373CC180919C22909119
:1047E0009D22A0919E22B0919F22803031E09307BC
:1047F00031E0A30730E0B30720F087E08093133760
:1048000028C18091A8228D7F8093A82288E0809380
:1048100013371FC10E945F1F87E08093133719C1B0
:104820008091A8228470882369F58981882309F4FE
:1048300010C1809105209091062087309105FCF0F1
:104840002091DC373091DD3787E390E0B9010E9499
:10485000915B86EF99E00F920F92EDB7FEB731961C
:10486000808391830E94CF5B0F900F902091DC3763
:104870003091DD378AE090E0B9010E94915B0E949F
:10488000A021E7C088E0809313378091A8228D7F14
:104890008093A8228091A8228270882309F0ABC05F
:1048A0008981882309F4D5C08091A4229091A52202
:1048B000A091A622B091A7220097A105B10531F1E0
:1048C000809105209091062087309105FCF0209181
:1048D000DC373091DD3787E390E0B9010E94915BCE
:1048E0008AED99E00F920F92EDB7FEB73196808373
:1048F00091830E94CF5B0F900F902091DC37309115
:10490000DD378AE090E0B9010E94915B8091A4229A
:104910009091A522A091A622B091A7220196A11D57
:10492000B11D8093A4229093A522A093A622B093B8
:10493000A7228091A4229091A522A091A622B091B5
:10494000A7228A309105A105B10548F5809105207F
:104950009091062087309105FCF02091DC37309152
:10496000DD3787E390E0B9010E94915B80EC99E02C
:104970000F920F92EDB7FEB73196808391830E941C
:10498000CF5B0F900F902091DC373091DD378AE0BC
:1049900090E0B9010E94915B0E94E1205AC0809191
:1049A00005209091062083309105FCF02091DC37A2
:1049B0003091DD3783E390E0B9010E94915B80EA9A
:1049C00099E00F920F92EDB7FEB7319680839183F5
:1049D0000E94CF5B0F900F902091DC373091DD3734
:1049E0008AE090E0B9010E94915B81E080931337E7
:1049F0000E94AC202EC01092A4221092A5221092E8
:104A0000A6221092A72289E08093133780919C22DE
:104A100090919D22A0919E22B0919F22803003E030
:104A2000900701E0A00700E0B00710F00E94B71E59
:104A30008AE0809313370DC060E070E080E090E082
:104A400040E050E00E94D521882319F011E01A833C
:104A500075C08091A8228170882309F46EC080916E
:104A6000A8228870882309F468C02091842B309193
:104A7000852B4091862B5091872B80919822909185
:104A80009922A0919A22B0919B2279018A01E81A79
:104A9000F90A0A0B1B0BD801C7018D339105A1053B
:104AA000B10508F44AC0809105209091062083301A
:104AB00091050CF43FC02091DC373091DD3783E362
:104AC00090E0B9010E94915B6FE679E02091842B20
:104AD0003091852B4091862B5091872B8091982285
:104AE00090919922A0919A22B0919B2279018A01FA
:104AF000E81AF90A0A0B1B0BD801C70100D000D035
:104B0000EDB7FEB731966083718382839383A4836C
:104B1000B5830E94CF5B0DB71EB70A5F1F4F0DBF55
:104B20001EBF2091DC373091DD378AE090E0B9017B
:104B30000E94915B12E01A8301C01A828A81249636
:104B4000CDBFDEBFCF91DF911F910F91FF90EF900E
:104B50000895DF93CF93CDB7DEB780910520909174
:104B6000062087309105FCF02091DC373091DD374D
:104B700087E390E0B9010E94915B89E49AE00F928B
:104B80000F92EDB7FEB73196808391830E94CF5B81
:104B90000F900F902091DC373091DD378AE090E064
:104BA000B9010E94915B0E94AC20E0E0F0E48085B6
:104BB0009185A285B3850097A105B10519F41092DE
:104BC000133703C081E08093133788EA92E260E0F4
:104BD00070E041E050E00E94725B80E00E94702231
:104BE000CF91DF9108950F931F93DF93CF9300D060
:104BF00000D0CDB7DEB769837A838B839C834D83E6
:104C00005E8310929C2210929D2210929E221092FE
:104C10009F22ED81FE818081882F90E0A0E0B0E0AE
:104C2000AC013327222780919C2290919D22A09154
:104C30009E22B0919F22822B932BA42BB52B809385
:104C40009C2290939D22A0939E22B0939F228D81BF
:104C50009E81FC0131968081882F90E0982F8827D3
:104C60009C01442737FD4095542F80919C229091C0
:104C70009D22A0919E22B0919F22822B932BA42B48
:104C8000B52B80939C2290939D22A0939E22B0935B
:104C90009F228D819E81FC0132968081282F30E0F9
:104CA00040E050E080919C2290919D22A0919E2214
:104CB000B0919F22822B932BA42BB52B80939C2207
:104CC00090939D22A0939E22B0939F2204E410E62D
:104CD00080919C2290919D22A0919E22B0919F2232
:104CE000BC01CD010E94471EDC01CB01F80182A36B
:104CF00093A3A4A3B5A380910520909106208630AC
:104D00009105F4F12091DC373091DD3786E390E0B6
:104D1000B9010E94915B49E55AE0ED81FE818081F5
:104D2000682F70E08D819E81FC0131968081282F53
:104D300030E08D819E81FC0132968081882F90E049
:104D4000EDB7FEB73897EDBFFEBFEDB7FEB73196B2
:104D5000408351836283738324833583868397835F
:104D60000E94CF5B8DB79EB708968DBF9EBF2091E6
:104D7000DC373091DD378AE090E0B9010E94915B29
:104D80008091A82281608093A82280919C2290919A
:104D90009D22A0919E22B0919F228030E1E09E074B
:104DA000E1E0AE07E0E0BE0728F08091A82288602D
:104DB0008093A82280E02696CDBFDEBFCF91DF9101
:104DC0001F910F9108952F923F924F925F926F9291
:104DD0007F928F929F92AF92BF92CF92DF92EF928B
:104DE000FF920F931F93DF93CF93CDB7DEB72F972B
:104DF000CDBFDEBF69877A878B879C874D875E87AB
:104E000089859A85AB85BC8583309105A105B1055F
:104E100069F489859A85AB85BC852D853E85BC0165
:104E2000CD01A9010E94F3258F87BDC180919C22ED
:104E300090919D22A0919E22B0919F22803021E0EE
:104E4000920721E0A20720E0B20708F4ABC187ED8A
:104E500096E32D853E85B90140E150E00E94695BF3
:104E6000809105209091062086309105FCF02091DC
:104E7000DC373091DD3786E390E0B9010E94915B29
:104E800084E19BE00F920F92EDB7FEB731968083DD
:104E900091830E94CF5B0F900F902091DC3730916F
:104EA000DD378AE090E0B9010E94915B8091DF36A6
:104EB0009091E036A091E136B091E236BC01CD018F
:104EC0000E94471EDC01CB015C016D01EE24FF2432
:104ED00087012A2D3B2D4C2D5D2D6E2D7F2D802F92
:104EE000912F00E20E94385AA22EB32EC42ED52E46
:104EF000E62EF72E082F192F2A2C3B2C4C2C5D2C3C
:104F00006E2C7F2C802E912E8091E3369091E4368A
:104F1000A091E536B091E636BC01CD010E94471E56
:104F2000DC01CB019C01AD0160E070E080E090E02D
:104F3000E22DE22BE983E32DE32BEA83E42DE42B3E
:104F4000EB83E52DE52BEC83E62DE62BED83E72DBA
:104F5000E72BEE83E82DE82BEF83892D892B8887BB
:104F60008091052090910620863091053CF120919A
:104F7000DC373091DD3786E390E0B9010E94915B28
:104F800029EF3AE08091D736882F90E000D00F9239
:104F9000EDB7FEB7319620833183828393830E94DD
:104FA000CF5B0F900F900F900F902091DC373091D6
:104FB000DD378AE090E0B9010E94915B8091052085
:104FC00090910620863091053CF12091DC3730919C
:104FD000DD3786E390E0B9010E94915B2EED3AE067
:104FE0008091D836882F90E000D00F92EDB7FEB7B1
:104FF000319620833183828393830E94CF5B0F900D
:105000000F900F900F902091DC373091DD378AE0C0
:1050100090E0B9010E94915B80910520909106205B
:10502000863091054CF12091DC373091DD3786E3F5
:1050300090E0B9010E94915B01EC1AE08091D936B1
:105040009091DA360E94EA2800D00F92EDB7FEB7B1
:10505000319600831183828393830E94CF5B0F90EC
:105060000F900F900F902091DC373091DD378AE060
:1050700090E0B9010E94915B8091052090910620FB
:1050800086309105A4F12091DC373091DD3786E33D
:1050900090E0B9010E94915B03EA1AE08091DB364F
:1050A0009091DC36A091DD36B091DE36BC01CD01A9
:1050B0000E942B1EDC01CB0100D000D0EDB7FEB763
:1050C00031960083118382839383A483B5830E94E6
:1050D000CF5B8DB79EB706968DBF9EBF2091DC3704
:1050E0003091DD378AE090E0B9010E94915B8091B8
:1050F000052090910620863091050CF44EC0209139
:10510000DC373091DD3786E390E0B9010E94915B96
:105110000F2EFEE7CF2EFAE0DF2EF02D8091DF3646
:105120009091E036A091E136B091E236BC01CD011C
:105130000E94471E7B018C018091E3369091E436FA
:10514000A091E536B091E636BC01CD010E94471E24
:10515000DC01CB012DB73EB72A5030402DBF3EBFFA
:10516000EDB7FEB73196C082D182E282F38204832A
:10517000158386839783A087B1870E94CF5B8DB705
:105180009EB70A968DBF9EBF2091DC373091DD37E8
:105190008AE090E0B9010E94915B8091A82284602E
:1051A0008093A8221F868F852F96CDBFDEBFCF911B
:1051B000DF911F910F91FF90EF90DF90CF90BF9004
:1051C000AF909F908F907F906F905F904F903F90A7
:1051D0002F900895DF93CF930F920F92CDB7DEB744
:1051E00089839A8389819A810E941C1E0F900F9057
:1051F000CF91DF910895DF93CF93CDB7DEB7289796
:10520000CDBFDEBF6B837C838D839E834F835887A6
:1052100080919C2290919D22A0919E22B0919F22EC
:10522000803021E0920721E0A20720E0B20708F4D5
:1052300043C08F81988589839A8361E070E080E024
:1052400090E00E94471EDC01CB018093F7369093DB
:10525000F836A093F936B093FA3687EE96E32981B3
:105260003A81B90144E250E00E94695B80910520D7
:105270009091062086309105FCF02091DC3730912A
:10528000DD3786E390E0B9010E94915B87E39BE004
:105290000F920F92EDB7FEB73196808391830E94F3
:1052A000CF5B0F900F902091DC373091DD378AE093
:1052B00090E0B9010E94915B80E02896CDBFDEBFEF
:1052C000CF91DF910895DF93CF9300D000D0CDB779
:1052D000DEB769837A838B839C834D835E83809161
:1052E00005209091062086309105FCF02091DC3756
:1052F0003091DD3786E390E0B9010E94915B83E64F
:105300009BE00F920F92EDB7FEB7319680839183A9
:105310000E94CF5B0F900F902091DC373091DD37EA
:105320008AE090E0B9010E94915B82E0809313379C
:1053300080E02696CDBFDEBFCF91DF910895DF9349
:10534000CF93CDB7DEB7E997CDBFDEBF6FA778AB00
:1053500089AB9AAB4BAB5CABCE0101968DAB9EABF0
:10536000AAEDB0E2AFABB8AFBCE1B9AFEFA9F8AD11
:1053700000808FA998AD01968FAB98AFADA9BEA95B
:105380000C92EDA9FEA93196EDABFEABF9ADF15053
:10539000F9AF89AD882351F782E1FE017D96DF01E7
:1053A000982F1D929A95E9F78BA99CA99E012F5FD2
:1053B0003F4FB9010E94781B8CE997E32BA93CA9C8
:1053C000B90140E150E00E94695B80910520909115
:1053D0000620863091052CF12091DC373091DD37A5
:1053E00086E390E0B9010E94915B85E89BE000D0E4
:1053F0000F92EDB7FEB7319680839183CE0101966F
:10540000828393830E94CF5B0F900F900F900F9039
:105410002091DC373091DD378AE090E0B9010E94BD
:10542000915B8091A82282608093A82280E0E99617
:10543000CDBFDEBFCF91DF910895DF93CF93CDB77E
:10544000DEB72797CDBFDEBF6A837B838C839D83C6
:105450004E835F83EE81FF818081898389818830DB
:1054600010F087E089832A813B818E819F81FC0136
:10547000E20FF31F10828981282F30E080910520F0
:10548000909106208217930744F18981882F90E03C
:10549000C0962091DC373091DD37B9010E94915BD5
:1054A00028E93BE08E819F81019600D00F92EDB7F5
:1054B000FEB7319620833183828393830E94CF5B32
:1054C0000F900F900F900F902091DC373091DD37C7
:1054D0008AE090E0B9010E94915B80E02796CDBF01
:1054E000DEBFCF91DF910895DF93CF93CDB7DEB7C5
:1054F0002B97CDBFDEBF8A834B835C836D837E8316
:105500002F83388781E089838A81282F30E02A879A
:105510003B878A859B858936910509F455C02A8584
:105520003B852A3631058CF48A859B858536910525
:1055300021F12A853B852636310561F18A859B85D7
:105540008130910509F467C080C02A853B852B36E0
:10555000310569F18A859B858B3691050CF441C034
:105560002A853B852C36310509F448C08A859B8500
:105570008D36910509F45CC068C08B819C81AD813A
:10558000BE812F813885BC01CD01A9010E94B613CF
:1055900089835DC08B819C81AD81BE812F813885DF
:1055A000BC01CD01A9010E94E326898350C08B81F3
:1055B0009C81AD81BE812F813885BC01CD01A901BF
:1055C0000E94FB28898343C08B819C81AD81BE8171
:1055D0002F813885BC01CD01A9010E949F298983B3
:1055E00036C08B819C81AD81BE812F813885BC0105
:1055F000CD01A9010E946329898329C08B819C81E7
:10560000AD81BE812F813885BC01CD01A9010E94E9
:105610001D2A89831CC08B819C81AD81BE812F8115
:105620003885BC01CD01A9010E94F32589830FC0F3
:105630008B819C81AD81BE812F813885BC01CD01DC
:10564000A9010E94D521898302C0198619C08091C1
:10565000842B9091852BA091862BB091872B8093E2
:10566000982290939922A0939A22B0939B228981A9
:10567000882321F480E00E94702289839981998790
:1056800089852B96CDBFDEBFCF91DF910895DF9343
:10569000CF9300D000D0CDB7DEB789839A834B83F8
:1056A0005C836D837E8380E090E02696CDBFDEBF75
:1056B000CF91DF910895DF93CF930F920F92CDB7E3
:1056C000DEB789839A83F89489819A81809308212F
:1056D00090930921789481E08093B02202C00E94C7
:1056E000B94080910821909109210097C1F710924B
:1056F000B0220F900F90CF91DF910895DF93CF9359
:105700000F920F92CDB7DEB789839A8380910520DF
:105710009091062087309105C4F1809105209091E9
:105720000620873091058CF12091DC373091DD37F0
:1057300087E390E0B9010E94915B83EA9BE000D08F
:105740000F92EDB7FEB731968083918389819A815C
:10575000828393830E94CF5B0F900F900F900F90E6
:105760002091DC373091DD378AE090E0B9010E946A
:10577000915B0BC0E981FA81208189819A81019630
:1057800089839A83822F0E94254EE981FA81808144
:10579000882381F70F900F90CF91DF910895DF93C9
:1057A000CF9300D00F92CDB7DEB789839A836B83F6
:1057B0007C83F89480EA9FE08093082190930921EC
:1057C000789481E08093AF221092B1221092B2229D
:1057D0008B819C818093B82A9093B92A2496CDBF5F
:1057E000DEBFCF91DF9108950F931F93DF93CF9387
:1057F000CDB7DEB780910A21882319F010920A21D3
:105800000EC004E410E6E4E4F0E6808191810E9499
:10581000542C01960E94652CF8018083918380911D
:1058200005209091062087309105FCF02091DC370F
:105830003091DD3787E390E0B9010E94915B8DEAFA
:105840009BE00F920F92EDB7FEB731968083918364
:105850000E94CF5B0F900F902091DC373091DD37A5
:105860008AE090E0B9010E94915B1092B7221092F9
:10587000A9221092AA22E0E4F6E080E2858388EE75
:1058800093E00E945B2BE0E4F6E080E28683F894EC
:1058900080EA9FE080930821909309217894CF912A
:1058A000DF911F910F910895DF93CF930F920F9285
:1058B000CDB7DEB789839A8389819A810E94652C4E
:1058C0000F900F90CF91DF910895DF93CF930F92B8
:1058D0000F92CDB7DEB789839A8399818A810F9021
:1058E0000F90CF91DF9108950F931F93DF93CF9384
:1058F000CDB7DEB72897CDBFDEBF8091A922863015
:1059000018F00E94F42B7BC480910821909109210A
:10591000009709F06DC48091AA228D3049F4F89463
:1059200080EA9FE08093082190930921789467C4CE
:105930001092AF228091B1229091B222009739F457
:105940008091AA228D3018F40E94F42B58C48091C3
:10595000B1229091B222009709F451C48091B122F2
:105960009091B222FC01E654F54D10828091052001
:10597000909106208730910564F1809105209091E7
:105980000620873091052CF12091DC373091DD37EE
:1059900087E390E0B9010E94915B88E39CE000D02E
:1059A0000F92EDB7FEB73196808391838AEB9AE22E
:1059B000828393830E94CF5B0F900F900F900F9084
:1059C0002091DC373091DD378AE090E0B9010E9408
:1059D000915B8091AA22282F30E02F8338878F8116
:1059E00098858530910509F46CC1EF81F885E63022
:1059F000F10524F52F8138852230310509F499C04D
:105A00008F8198858330910564F4EF81F885309714
:105A100009F43FC02F8138852130310509F46EC06B
:105A2000EEC38F8198858330910509F49AC0EF8188
:105A3000F885E430F10509F4F9C0E1C32F81388518
:105A40002830310509F47FC18F819885893091050F
:105A50006CF4EF81F885E630F10509F43EC12F8141
:105A600038852730310509F453C1C9C38F81988522
:105A70008A30910509F487C1EF81F885EA30F10594
:105A80000CF475C12F8138852C30310509F487C19C
:105A9000B6C38091B1229091B2228A30910599F4D7
:105AA0008091B1229091B222AC018AEB9AE22BE074
:105AB00031E2B9010E945C5B009709F0A0C381E06C
:105AC0008093AA229CC38091B1229091B222863009
:105AD000910509F094C38091B1229091B222AC015A
