:100000000C94190C0C943F0C0C943F0C0C943F0C6A
:100010000C943F0C0C943F0C0C943F0C0C943F0C34
:100020000C943F0C0C943F0C0C943F0C0C943F0C24
:100030000C943F0C0C943F0C0C9462590C943F0CA4
:100040000C943F0C0C943F0C0C943F0C0C943F0C04
:100050000C943F0C0C943F0C0C943F0C0C943F0CF4
:100060000C943F0C0C943F0C0C943F0C0C943F0CE4
:100070000C94A8560C9414570C94FC560C943F0CFA
:100080000C943F0C0C943F0C0C943F0C0C943F0CC4
:100090000C943F0C0C943F0C0C943F0C0C943F0CB4
:1000A0000C943F0C0C943F0C0C943F0C0C943F0CA4
:1000B0000C943F0C0C943F0C0C943F0C0C943F0C94
:1000C0000C943F0C0C943F0C0C943F0C0C943F0C84
:1000D0000C943F0C0C943F0C0C943F0C0C943F0C74
:1000E0000C943F0C0C943F0C0C9462580C94CE581A
:1000F0000C94B6580C943F0C0C943F0C0C943F0C91
:100100000C943F0C0C943F0C0C943F0C0C943F0C43
:100110000C943F0C0C943F0C0C943F0C0C943F0C33
:100120000C943F0C0C943F0C0C943F0C0C943F0C23
:100130000C943F0C0C943F0C0C943F0C0C943F0C13
:100140000C943F0C0C943F0C0C943F0C0C943F0C03
:100150000C943F0C0C943F0C0C943F0C0C943F0CF3
:100160000C9489540C94F5540C94DD540C943F0C6D
:100170000C943F0C0C943F0C0C943F0C0C943F0CD3
:100180000C943F0C0C943F0C0C943F0C0C943F0CC3
:100190000C943F0C0C943F0C0C943F0C0C943F0CB3
:1001A0000C943F0C0C943F0C0C943F0C0C94E859AD
:1001B0000C943F0C0C943F0C0C943F0C0C943F0C93
:1001C0000C943F0C0C943F0C0C943F0C0C943F0C83
:1001D0000C943F0C0C943F0C0C943F0C0C94D45E8C
:1001E0000C94435F0C94195F0C943F0C0C943F0CDF
:1001F0000C943F0C0A0D0A0D0020726561642046C4
:10020000726F6D20636C69656E743A20000A0D4C44
:100210006173742053494D2052657365743A200010
:100220000A0D000A0D5772697465207468652041D3
:100230005420636F6D6D616E6420286567204154A2
:10024000202B204349505354415455532920616E6B
:100250006420456E7465723A0A0D000A0D53656E8E
:10026000644F6E6C79436F6D6D616E6420302D321A
:100270003420616E6420456E7465723A000A0D5335
:1002800065742053696D537461746520302D31336A
:1002900020616E6420456E7465723A004C616D7029
:1002A000202520336420253032582530325825301F
:1002B00032582530325825303258253032582530C2
:1002C0003258253032580A000A0D435243207473C5
:1002D000436F6E666967426F7264657252757465CA
:1002E00072203D20256420202020707354696D65A4
:1002F0007273203D2025640A0D000A0D5365742099
:10030000766572626F736974793A000A0D53657489
:10031000204F666632204D696E7574653A000A0D8D
:10032000536574204F66663220486F75723A000A32
:100330000D536574204F6E32204D696E7574653AA9
:10034000000A0D536574204F6E3220486F75723A63
:10035000000A0D536574204F666631204D696E7535
:1003600074653A000A0D536574204F666631204863
:100370006F75723A000A0D536574204F6E31204D2F
:10038000696E7574653A000A0D536574204F6E31BD
:1003900020486F75723A000A0D536574204D696EDE
:1003A0007574653A000A0D53657420486F75723A8A
:1003B000000A0D53657420446174653A000A0D53B8
:1003C0006574204D6F6E74683A000A0D5365742091
:1003D000596561723A000A0D0046726F6D204352F2
:1003E0004432207561727420726563697665643A7F
:1003F00000507265737320616E79206B65792021DE
:100400000A0D00546F20435244322055617274200B
:1004100020202073656E6465743A4645444342412A
:10042000393837363534333231300A0D000A0D0091
:1004300046726F6D2047505253207561727420725E
:100440006563697665643A00507265737320616E06
:1004500079206B657920210A0D00546F2047505296
:100460005320556172742020202073656E6465747A
:100470003A303132333435363738394142434445E6
:10048000460A0D0047505253204A503620524553D9
:100490004554206F6E0A0D0047505253204A503683
:1004A000205245534554206F66660A0D0042414470
:1004B00020636C6561722052414D004241442063CB
:1004C000726320696E2052414D2C20707354696D07
:1004D000657273004241442063726320696E20524A
:1004E000414D2C2070734D6F64756C65536574437A
:1004F0006F6E666967004572726F722077726974F9
:10050000696E67207061636B657420746F206D6F16
:1005100064756C65004572726F72207772697469D8
:100520006E6720746F2074756E20646576696365EC
:100530000053656E64206D65737361676500457275
:10054000726F722077726974696E6720746F20749D
:10055000756E206465766963650053656E64206D11
:1005600065737361676500546F20626F72646572B2
:1005700020616E73776572004A656E4E65744E65D4
:1005800074776F726B426C6F625461626C6520208D
:100590004E4F44452025642056657273696F6E2066
:1005A0002564206C656E67687420256400546F2094
:1005B000626F726465722066726F6D20726F7574FF
:1005C000657220616E73776572004C6F63616C2099
:1005D0006D657373616765004C6F63616C206D7549
:1005E0006C74696361737420616E73776572004522
:1005F00072726F722077726974696E6720746F20EF
:1006000074756E206465766963650053656E642059
:100610006D657373616765004D756C7469636173B3
:100620007420616E73776572004572726F72207705
:10063000726974696E67207061636B657420746F92
:10064000206D6F64756C6500416363736573205240
:10065000656A656374004163637365732041636316
:10066000657074005241444955532041636365737A
:1006700073205265717565737420253032582530AA
:1006800032582530325825303258253032582530EE
:1006900032582530325825303258004241442043E8
:1006A000616C63756C6174656420636865636B730A
:1006B000756D20253034580050726F74636F6C2054
:1006C0002564204C656E6768742025642043686546
:1006D000636B73756D202530345800495076362091
:1006E00066726F6D204A656E6E6963206C656E6719
:1006F000687420256C640043616E6E6F7420636FB4
:100700006E66696775726520626F726465722072C9
:100710006F75746572206E6F64652076657273699B
:100720006F6E205625642E25642E256400436F6E5F
:1007300066696720364C6F5750414E20507265668F
:100740006978203A2030782530386C782530386C3C
:100750007800436F6E666967204A656E4E65742047
:1007600049442020202020203A203078256C780031
:10077000436F6E6669672031352E342050414E201C
:100780004944202020203A203078257800436F6E9D
:100790006669672031352E34204368616E6E656C62
:1007A0002020203A20256400436F6E66696720315F
:1007B000352E3420526567696F6E202020203A2044
:1007C00025640057726974696E6720636F6E66698D
:1007D0006775726174696F6E20746F204D6F6475F8
:1007E0006C652025640057726974696E67204D6FCF
:1007F00064756C653A20536563757269747920433A
:100800006F6E66696720256400417574686F726950
:10081000736174696F6E20536368656D6520204550
:1008200052524F5200417574686F726973617469F6
:100830006F6E20536368656D6520203A20524144F5
:100840004955532073657276657220617420257353
:10085000207573696E672050415000417574686F50
:100860007269736174696F6E20536368656D65208A
:10087000203A204E6F6E65004E6574776F726B2064
:100880004B657920202020202020202020203A2085
:10089000257300456E61626C696E67206E657477C2
:1008A0006F726B2073656375726974793A00577261
:1008B0006974696E67204D6F64756C653A20416399
:1008C000746976697479204C45443A202564005750
:1008D000726974696E67204D6F64756C653A205358
:1008E0006574204A656E4E65742050726F66696C3F
:1008F0006520282564290057726974696E67204D48
:100900006F64756C653A20456E61626C696E672034
:10091000416E74656E6E61204469766572736974A8
:10092000790057726974696E67204D6F64756C65E4
:100930003A205365742046726F6E74656E64202889
:1009400025642900556E6B6E6F776E206D6F647530
:100950006C65206D6F64653A202564005772697478
:10096000696E67204D6F64756C653A2052756E2014
:10097000436F6D6D6973696F6E696E670057726959
:1009800074696E67204D6F64756C653A2052756EA0
:1009900020526F757465720057726974696E6720B2
:1009A0004D6F64756C653A2052756E20436F6F729F
:1009B00064696E61746F720057726974696E672042
:1009C0004D6F64756C653A2052657365740057729B
:1009D0006974696E67204D6F64756C653A20476570
:1009E0007420416464726573730057726974696E30
:1009F00067204D6F64756C653A2050696E670057CB
:100A0000726974696E67204D6F64756C653A204732
:100A100065742056657273696F6E005772697469E8
:100A20006E67204D6F64756C653A2047657420438E
:100A30006F6E6669670050696E6700506F6E670081
:100A40004E6F6465206E6F7420726573706F6E6494
:100A5000696E6720286C61737420636F6D6D7320FD
:100A6000256C64207365636F6E64732061676F2902
:100A70000043616E6E6F742064657465726D696E9B
:100A800065206D6F64756C65206164647265737355
:100A90000052657175657374696E67206D6F64755A
:100AA0006C6520616464726573730054696D656F71
:100AB00075742077616974696E6720666F72206152
:100AC0006464726573730052657175657374696EE1
:100AD0006720636F6E66696775726174696F6E0017
:100AE00042414420636F6E666967005265717565A7
:100AF0007374696E672076657273696F6E005469EE
:100B00006D656F75742077616974696E6720666FB3
:100B1000722076657273696F6E00537461727469C6
:100B20006E67206D6F64756C6500436F6E6E6563F4
:100B300074656420746F20426F7264657220726FF6
:100B400075746572205625642E25642E2564004335
:100B50006F6E66696720364C6F5750414E20507259
:100B600065666978203A2030782530386C782530F1
:100B7000386C7800436F6E666967204A656E4E6513
:100B8000742049442020202020203A203078256CF1
:100B90007800436F6E6669672031352E34205041EE
:100BA0004E204944202020203A20307825780043E8
:100BB0006F6E6669672031352E34204368616E6E32
:100BC000656C2020203A20256400436F6E666967BB
:100BD0002031352E3420526567696F6E2020202029
:100BE0003A20256400526563656976656420636F09
:100BF0006E66696775726174696F6E2066726F6D7B
:100C0000204D6F64756C6500526563656976656437
:100C100020736563757269747920636F6E666967A6
:100C200075726174696F6E2066726F6D204D6F64AE
:100C3000756C6500436F6E66696775726174696F84
:100C40006E20726571756573742066726F6D206DAC
:100C50006F64756C65004D6F64756C6520616464CC
:100C6000726573733A202573004D6F64756C653A35
:100C7000202573004572726F722077726974696EF5
:100C800067207061636B657420746F206D6F64758D
:100C90006C6500424144206C656E67687420667222
:100CA0006F6D20636C69656E743A2564202564005D
:100CB0004572726F7220756E6B6E6F77207465432C
:100CC0006F6D6D616E6473504320256400204F6E1C
:100CD00031202532583A2530325820204F6666316F
:100CE000202532583A25303258202020204F6E32AD
:100CF000202532583A2530325820204F666632205F
:100D00002532583A253032580A0D000A0D54696DC3
:100D10006520000A0D00496E707574733A200071E9
:100D20002043757272656E74456E657267792C200A
:100D30007720546F74616C456E657267792C2065FD
:100D400020417272617943757272656E74456E6589
:100D50007267790A0D006B20537562547265654E97
:100D60006F6465732C206C204E6574776F726B54C2
:100D700061626C650A0D00782074657374204352BB
:100D8000430A0D007620566572626F736974790AA2
:100D90000D007220524144495553207461626C65C4
:100DA0000A0D0073746174757320475052532067A5
:100DB0002D47657453696D53746174652C20732DD0
:100DC00053657453696D53746174652C206A2D5397
:100DD000656E644F6E6C79436F6D6D616E642C202F
:100DE0006D2D4D616E75616C53656E640A0D0074F6
:100DF0006573742020204750525320612D41542C9C
:100E000020622D41542B4349505345525645523F81
:100E10002C20632D41542B43495053544154555376
:100E20002C20642D4C6173744461746554696D6544
:100E30002C20692D49500A0D007420536574204FF1
:100E40006E2F4F66660A0D0070205365742050495E
:100E50004E0A0D0030204A656E6E6963205245537C
:100E600045540A0D0039205365742074696D65205E
:100E70002620646174610A0D003820546573742063
:100E800045787465726E616C2052414D0A0D0036D2
:100E9000205465737420475052532055617274205A
:100EA0004A50362C20202020202020203720546536
:100EB000737420435244322055617274204A503476
:100EC0000A0D00352047505253204A5036205245D3
:100ED0005345540A0D0034204F6E2F4F6666205242
:100EE000656C617920310A0D00312042726F6164B6
:100EF000636173743D312C2020202020202020327B
:100F00002042726F6164636173743D3132372C200B
:100F100020202020202020332042726F61646361F2
:100F200073743D3235350A0D000A0D4A656E6E69DF
:100F30006320484F5354205625642E25642E256483
:100F4000202053697A65204E564D203D202575207E
:100F500062797465732046726565203D20256420A2
:100F600062797465730A0D004F6E54696D65720085
:100F70004F666654696D6572004F6E4C616D70000E
:100F80004F66664C616D7000546573742061742007
:100F90006164647265737320256400446F75626CCC
:100FA00065207265706F7274004F6B004D41432075
:100FB00025303258253032582530325825303258B5
:100FC00025303258253032582530325825303258A5
:100FD00000436F6E6E6563746564202564206F66E0
:100FE0002025640054657374206174206164647208
:100FF000657373202564002532583A253032582015
:1010000047726F7570202564204C696768742025CD
:101010006400546573742061742061646472657344
:1010200073202564004572726F722068616E646C73
:10103000696E672074756E207061636B657400451E
:1010400072726F7220636F6D6D756E696361746922
:101050006E67207769746820626F726465722072AF
:101060006F75746572206D6F64756C65000A0D454F
:10107000787465726E616C2052414D204F4B0A0DA1
:10108000000A0D457865726E616C2052414D204515
:1010900052524F52533A2575206174204164647254
:1010A0006573733A307825580A0D000A0D45786546
:1010B000726E616C2052414D206E6F7420636C65BE
:1010C000617220617420416464726573733A307890
:1010D000255800506F7765725F666163746F72099F
:1010E00025660925660925660925660A0D004170F1
:1010F000706172656E745F706F776572092566093D
:1011000025660925660925660A0D00526561637426
:101110006976655F706F77657209256609256609CE
:1011200025660925660A0D004163746976655F705E
:101130006F776572092566092566092566092566A2
:101140000A0D0043757272656E74090909092566F6
:101150000925660925660A0D00566F6C746167657E
:101160000909090925660925660925660A0D00464B
:1011700072657175656E63790925660A0D000A0D41
:10118000004C61737420436F6E746163742000546B
:101190006F74616C5F72656163746976655F656EBB
:1011A00065726779204C312C4C322C4C3309256602
:1011B0000925660925660A0D00546F74616C5F721B
:1011C000656163746976655F656E657267792C54D5
:1011D000312C54320925660925660925660A0D0059
:1011E000546F74616C5F6163746976655F656E6589
:1011F000726779204C312C4C322C4C33092566090E
:1012000025660925660A0D00546F74616C5F616381
:10121000746976655F656E657267792C54312C54FC
:10122000320925660925660925660A0D000A0D00A2
:101230004C61737420436F6E7461637420000925E0
:101240006609256620202566202025660A0D0025D2
:101250006420005072696E7420417272617920417D
:1012600063746976652043757272656E20456E659C
:10127000726779202E2E2E206B573A0A0D00457288
:10128000726F72207343757272656E74456E65720B
:101290006779536D616C6C2E4E657874496E41723E
:1012A000726179202564203E3D20256400416464FC
:1012B000496E43757272656E74456E6572677941E9
:1012C000727261792025640A0D000A0D0043202501
:1012D00064204950202225642E25642E25642E2565
:1012E00064220A0D000A0D4D792020495020222544
:1012F000642E25642E25642E2564220A0D0A0D0015
:101300005365742050494E203A2025730A0D00532E
:1013100065742050494E203A2025730A0D00436C15
:101320006F636B2069732072657365740045727218
:101330006F72207265616420454E45524759204DB9
:1013400045544552004B6F20646120676F207072D6
:10135000617771203F203C3C25733E3E00436C6F1B
:1013600073652054435020636C69656E7420256456
:10137000004F70656E2054435020636C69656E7435
:1013800020256400436C6F73652054435020636CC8
:1013900069656E74202564004F70656E205443505B
:1013A00020636C69656E74203720746F2050432071
:1013B000736572766572202225732200436C6F7309
:1013C000652054435020636C69656E742037207427
:1013D0006F2050432073657276657200436C6F73A3
:1013E000652054435020636C69656E742025640049
:1013F000436C6F73652054435020636C69656E7451
:10140000202564004F70656E2054435020636C6942
:10141000656E7420256400436C69656E74202564D4
:1014200020746F20726563697665642053494D3A74
:1014300025640046726F6D2053494D204F203C2596
:101440002033643E3A257300546F20544350206388
:101450006C69656E742025642073656E6465642014
:101460002564202A20322062797465730046726FE9
:101470006D2054435020636C69656E742053494D50
:101480003C252033643E3A257300536572766572BD
:1014900020414C5245414459204F50454E00536520
:1014A00072766572206973206F70656E65640045A1
:1014B00072726F72205345542050494E202573009C
:1014C0004572726F722050494E20746573742025E6
:1014D000730046726F6D2053494D2043203C2520F8
:1014E00033643E3A2573000A0D53696D20737461AD
:1014F0007475733A20257320666C5F726561642091
:101500003D20256420745F6D696E5F6E6F5F636F51
:101510006E6E656374203D2025640A0D0A0D00314E
:1015200033204F70656E656400313220544F5F4F39
:1015300070656E003131204241445F50494E0031A8
:101540003020434949435200392043535454003812
:101550002043535100372043474154540036204321
:101560005245470035204349504D555800342050CE
:10157000494E5F73657400332050494E5F74657344
:101580007400322043494653525F746573740031CE
:10159000204154453000302041545F74657374001D
:1015A0004572726F7220756E6B6E6F77206D65730A
:1015B0007361676520746F20504320736572766590
:1015C000722025640041542B4349505354415254D6
:1015D0003D372C22544350222C222573222C2231B9
:1015E000383733220D0A0025642E25642E25642EFB
:1015F00025640046726F6D2053494D20696E20723C
:10160000657365743A2573004F6E2053494D00464B
:10161000726F6D2053494D20696E20726573657439
:101620003A2573004F66662053494D0046726F6D30
:101630002053494D20696E2072657365743A257395
:10164000000A0D0052656A656374206C6173742032
:10165000636C69656E7420696E2054696D653A200B
:10166000000A0D000A0D52657365742053494D2020
:10167000696E2054696D653A20004E6F7420746F56
:101680002073696D2077726974650A0D0041542BCF
:1016900043495053544152543D372C225443502215
:1016A0002C222573222C2231383733220D0A004E8A
:1016B0006F7420746F2073696D2077726974650A86
:1016C0000D000A0D000A0D4572726F72207374616D
:1016D00074650A0D004E6F7420746F2073696D205D
:1016E00077726974650A0D004E6F7420746F2073F1
:1016F000696D2077726974650A0D000A0D000A0D84
:101700004572726F722073746174650A0D00546FB4
:101710002053494D3A2573004F6E2F4F6666205374
:10172000494D006E616E00696E660000407A10F3EC
:101730005A00A0724E18090010A5D4E80000E876FF
:1017400048170000E40B54020000CA9A3B00000056
:10175000E1F505000080969800000040420F00006F
:1017600000A08601000000102700000000E8030030
:101770000000006400000000000A000000000001FA
:1017800000000000002C76D888DC674F0823DFC1FA
:10179000DFAE59E1B1B796E5E3E453C63AE65199B5
:1017A0007696E8E6C28426EB898C9B62ED407C6FDE
:1017B000FCEFBC9C9F40F2BAA56FA5F490055A2A95
:1017C000F75C936B6CF9676DC11BFCE0E40D47FEA1
:1017D000F520E6B500D0ED902E0300943577050096
:1017E00080841E080000204E0A000000C80C33331D
:1017F00033330F986E12831141EF8D2114893BE62C
:101800005516CFFEE6DB18D1844B381BF77C1D90B4
:101810001DA4BBE424203284725E228100C9F1241D
:10182000ECA1E53D276364696E6F70737578585B52
:10183000000011241FBECFEFDFE3DEBFCDBF00E00D
:101840000CBF18BE19BE1ABE1BBE13E2A0E0B0E268
:10185000E0E8F7E001E00BBF02C007900D92A43B67
:10186000B107D9F71BBE19E3A4EBB3E201C01D9287
:10187000A235B107E1F70E94410C0C94BE830C9491
:1018800000008F929F92AF92BF92CF92DF92EF9221
:10189000FF920F931F93DF93CF93CDB7DEB7C05462
:1018A000D040CDBFDEBF0E942C5A0E94895B0E94AF
:1018B000415B198680E090E46FE370E00E945C4633
:1018C000882341F180910520909106208330910575
:1018D000FCF020914E3930914F3983E390E0B9010B
:1018E0000E94DC7E84ED94E00F920F92EDB7FEB77C
:1018F0003196808391830E941A7F0F900F902091E0
:101900004E3930914F398AE090E0B9010E94DC7E77
:1019100081E0898780E490E46EE570E00E945C4697
:10192000882341F180910520909106208330910514
:10193000FCF020914E3930914F3983E390E0B901AA
:101940000E94DC7E8BEB94E00F920F92EDB7FEB716
:101950003196808391830E941A7F0F900F9020917F
:101960004E3930914F398AE090E0B9010E94DC7E17
:1019700081E089878985882341F1809105209091B4
:10198000062083309105FCF020914E3930914F397B
:1019900083E390E0B9010E94DC7E8DEA94E00F922F
:1019A0000F92EDB7FEB73196808391830E941A7F24
:1019B0000F900F9020914E3930914F398AE090E08E
:1019C000B9010E94DC7E0E941B3A07E410E6E7E4BE
:1019D000F0E6828193810E94301401960E944114A6
:1019E000F80182839383E7E4F0E61082118207E432
:1019F00010E660E070E087E090E00E945014DC01A7
:101A0000CB01F801868F978FA0A3B1A3E7E4F0E69E
:101A100012A213A214A215A220EE38E381E590E6EB
:101A2000B90146E050E00E94A97E87E590E66DE5A9
:101A300070E646E050E00E94A97E0E94FE2B809155
:101A4000D6239091D723A091D823B091D923809306
:101A5000E6389093E738A093E838B093E9380E94CD
:101A6000F4410E94A8578823D1F30E94C157888768
:101A70000E94643A80E090E22BED38E3B9010E94C5
:101A8000B97E009709F43FC08091B4239091B523AB
:101A9000843091055CF588858033D8F088858A3359
:101AA000C0F42091B4233091B523F901E050F04EF9
:101AB00088858083C90101968093B4239093B523D0
:101AC0008091B4239091B523FC01E050F04E108238
:101AD000C6CF1092B4231092B5238091B423909175
:101AE000B523FC01E050F04E1082B9CF1092B42320
:101AF0001092B5238091B4239091B523FC01E0505E
:101B0000F04E1082ACCF8885282F30E021962EAF82
:101B10003FAF219721968EAD9FAD219782359105DC
:101B200009F4A4C42196EEADFFAD2197E335F1058C
:101B30000CF0F2C021962EAD3FAD21972234310535
:101B400009F485C521968EAD9FAD2197833491050B
:101B50000CF071C02196EEADFFAD2197E533F10594
:101B600009F4F9C121962EAD3FAD219726333105F9
:101B70008CF521968EAD9FAD21978233910509F4A6
:101B8000CEC12196EEADFFAD2197E333F1058CF484
:101B900021962EAD3FAD21972033310509F44CC37A
:101BA00021968EAD9FAD21978133910509F4AEC189
:101BB00056CF2196EEADFFAD2197E333F10509F441
:101BC000B7C121962EAD3FAD21972433310509F4DD
:101BD000B8C145CF21968EAD9FAD21978833910531
:101BE00009F46EC22196EEADFFAD2197E933F10500
:101BF0008CF421962EAD3FAD21972633310509F4A3
:101C0000D7C121968EAD9FAD21978733910509F4F9
:101C100013C225CF2196EEADFFAD2197E933F10533
:101C200009F451C221962EAD3FAD219721343105E3
:101C300009F409C514CF21968EAD9FAD21978A3442
:101C4000910509F42EC52196EEADFFAD2197EB3439
:101C5000F1058CF521962EAD3FAD21972534310548
:101C600009F4FBC521968EAD9FAD21978634910571
:101C70008CF42196EEADFFAD2197E334F10509F424
:101C8000AFC521962EAD3FAD21972434310509F41F
:101C9000ABC5E5CE21968EAD9FAD219787349105DA
:101CA00009F49BC52196EEADFFAD2197E934F1050E
:101CB00009F4CAC5D4CE21962EAD3FAD21972D345F
:101CC000310509F414C521968EAD9FAD21978E3450
:101CD00091058CF42196EEADFFAD2197EB34F10523
:101CE00009F4B0C221962EAD3FAD21972C343105B9
:101CF00009F4A5C2B4CE21968EAD9FAD2197803553
:101D0000910509F49DC42196EEADFFAD2197E13513
:101D1000F10509F49CC5A3CE21962EAD3FAD2197C8
:101D20002936310509F490C521968EAD9FAD2197D6
:101D30008A3691050CF071C02196EEADFFAD21976A
:101D4000E136F10509F47FC421962EAD3FAD219710
:101D5000223631058CF521968EAD9FAD21978635C3
:101D6000910509F443C32196EEADFFAD2197E73508
:101D7000F1058CF421962EAD3FAD21972335310529
:101D800009F469C421968EAD9FAD219784359105E4
:101D900009F45BC264CE2196EEADFFAD2197E73525
:101DA000F10509F457C521962EAD3FAD2197283591
:101DB000310509F431C353CE21968EAD9FAD2197E5
:101DC0008436910509F410C52196EEADFFAD21973B
:101DD000E536F1058CF421962EAD3FAD21972236E4
:101DE000310509F434C421968EAD9FAD2197833619
:101DF000910509F4F5C433CE2196EEADFFAD2197E0
:101E0000E536F10509F429C521962EAD3FAD2197A0
:101E10002736310509F4E1C422CE21968EAD9FAD5F
:101E200021978137910509F412C52196EEADFFADDA
:101E30002197E237F1058CF521962EAD3FAD219724
:101E40002C36310509F4FBC121968EAD9FAD21974B
:101E50008D3691058CF42196EEADFFAD2197EA36D3
:101E6000F10509F41EC421962EAD3FAD21972B3606
:101E7000310509F4E7C1F3CD21968EAD9FAD2197D1
:101E80008D36910509F433C42196EEADFFAD21974F
:101E9000E037F10509F4D4C3E2CD21962EAD3FAD74
:101EA00021972437310509F4D0C121968EAD9FAD1D
:101EB0002197853791058CF42196EEADFFAD2197E2
:101EC000E237F10509F4D2C221962EAD3FAD21973C
:101ED0002337310509F4BFC3C2CD21968EAD9FAD26
:101EE00021978737910509F4B5C42196EEADFFAD72
:101EF0002197E837F10509F48FC221962EAD3FAD49
:101F000021972637310509F471C2A9CD64E07EEF2F
:101F10008FEF9FEF42E021E00E94C818A0CD64E05F
:101F20007EEF8FEF9FEF42E02FE70E94C81897CD1A
:101F300064E07EEF8FEF9FEF42E02FEF0E94C81822
:101F40008ECD8091DE23882319F00E94A53E87CD97
:101F50000E94763E84CDE0E4F6E08085882F90E014
:101F600080729070009791F088E994E00F920F9240
:101F7000EDB7FEB73196808391830E941A7F0F9050
:101F80000F90E0E4F6E080E2868369CD84E894E097
:101F90000F920F92EDB7FEB73196808391830E9426
:101FA0001A7F0F900F90E0E4F6E080E2858357CD32
:101FB00087E090E20E948A568AE594E00F920F92A1
:101FC000EDB7FEB73196808391830E941A7F0F9000
:101FD0000F9088E494E00F920F92EDB7FEB7319620
:101FE000808391830E941A7F0F900F900E94C157A7
:101FF00080E394E00F920F92EDB7FEB731968083A5
:1020000091830E941A7F0F900F9004C00E94A155E7
:102010000E9411580E9489558823C1F78DE294E0EF
:102020000F920F92EDB7FEB73196808391830E9495
:102030001A7F0F900F9013CD88E190E20E946B54AD
:1020400083E094E00F920F92EDB7FEB73196808354
:1020500091830E941A7F0F900F9081EF93E00F926F
:102060000F92EDB7FEB73196808391830E941A7F5D
:102070000F900F900E94C15789ED93E00F920F923D
:10208000EDB7FEB73196808391830E941A7F0F903F
:102090000F9004C00E94EA530E9411580E949B5363
:1020A0008823C1F786ED93E00F920F92EDB7FEB74C
:1020B0003196808391830E941A7F0F900F90CFCC2E
:1020C0000E944D45CCCC8AEC93E00F920F92EDB775
:1020D000FEB73196808391830E941A7F0F900F90F4
:1020E0000E94413A8F8386E08A878F818B8785E1C2
:1020F00099E39E01265F3F4F6FE6A90122E000E0D1
:102100000E94C85180912C398823E1F78DEB93E030
:102110000F920F92EDB7FEB73196808391830E94A4
:102120001A7F0F900F900E94413A8F8385E08A8733
:102130008F818F718B8785E199E39E01265F3F4FE9
:102140006FE6A90122E000E00E94C85180912C397D
:102150008823E1F781EB93E00F920F92EDB7FEB782
:102160003196808391830E941A7F0F900F900E9476
:10217000413A8F8384E08A878F818F738B8785E1D3
:1021800099E39E01265F3F4F6FE6A90122E000E040
:102190000E94C85180912C398823E1F785EA93E0A9
:1021A0000F920F92EDB7FEB73196808391830E9414
:1021B0001A7F0F900F900E94413A8F8382E08A87A6
:1021C0008F818F738B8788E08C8785E199E39E01EF
:1021D000265F3F4F6FE6A90123E000E00E94C8514F
:1021E00080912C398823E1F787E993E00F920F92D1
:1021F000EDB7FEB73196808391830E941A7F0F90CE
:102200000F900E94413A8F831A8680E88B878F81D6
:102210008F778C8785E199E39E01265F3F4F6FE6BC
:10222000A90123E000E00E94C85180912C39882345
:10223000E1F71092EA3813CC0E94FE2B10CC0E94DA
:10224000AB410DCC0E94EB410ACC87E893E00F92A2
:102250000F92EDB7FEB73196808391830E941A7F6B
:102260000F900F9000E410E40E94413AF801868339
:1022700080E490E46EE570E00E942C4685E793E0F0
:102280000F920F92EDB7FEB73196808391830E9433
:102290001A7F0F900F9000E410E40E94413AF80179
:1022A000878380E490E46EE570E00E942C4684E62B
:1022B00093E00F920F92EDB7FEB731968083918332
:1022C0000E941A7F0F900F9000E410E40E94413AA0
:1022D000F801808780E490E46EE570E00E942C466F
:1022E00081E593E00F920F92EDB7FEB731968083B0
:1022F00091830E941A7F0F900F9000E410E40E94D7
:10230000413AF801818780E490E46EE570E00E9434
:102310002C4681E493E00F920F92EDB7FEB7319611
:10232000808391830E941A7F0F900F9000E410E445
:102330000E94413AF801E65AFF4F808380E490E41E
:102340006EE570E00E942C468FE293E00F920F92B0
:10235000EDB7FEB73196808391830E941A7F0F906C
:102360000F9000E410E40E94413AF801E55AFF4F53
:10237000808380E490E46EE570E00E942C468EE15C
:1023800093E00F920F92EDB7FEB731968083918361
:102390000E941A7F0F900F9000E410E40E94413ACF
:1023A000F801E45AFF4F808380E490E46EE570E02A
:1023B0000E942C468BE093E00F920F92EDB7FEB790
:1023C0003196808391830E941A7F0F900F9000E4D2
:1023D00010E40E94413AF801E35AFF4F808380E401
:1023E00090E46EE570E00E942C4639CB8AEF92E0D3
:1023F0000F920F92EDB7FEB73196808391830E94C2
:102400001A7F0F900F900E94413A882F90E080939E
:1024100005209093062023CB0F2EF8ECEF2EF2E050
:10242000FF2EF02D80E090E46FE370E00E945C46A8
:10243000082F10E080E490E46EE570E00E945C46B6
:10244000882F90E000D000D0EDB7FEB73196E08243
:10245000F18202831383848395830E941A7F2DB7B0
:102460003EB72A5F3F4F2DBF3EBFF9CA1D821E8275
:10247000DCC04CE952E02D813E81C901880F991FD3
:10248000820F931F9C01220F331F220F331F220F35
:10249000331F820F931FFC01ED55FF4B8081682F86
:1024A00070E02D813E81C901880F991F820F931F13
:1024B0009C01220F331F220F331F220F331F820F65
:1024C000931FFC01ED55FF4B8181A82FB0E02D81BA
:1024D0003E81C901880F991F820F931F9C01220F13
:1024E000331F220F331F220F331F820F931FFC0154
:1024F000ED55FF4B8281082F10E02D813E81C901EF
:10250000880F991F820F931F9C01220F331F220FE8
:10251000331F220F331F820F931FFC01ED55FF4B1A
:102520008381E82EFF242D813E81C901880F991FE8
:10253000820F931F9C01220F331F220F331F220F84
:10254000331F820F931FFC01ED55FF4B8481C82E72
:10255000DD242D813E81C901880F991F820F931FB1
:102560009C01220F331F220F331F220F331F820FB4
:10257000931FFC01ED55FF4B8581A82EBB242D81B7
:102580003E81C901880F991F820F931F9C01220F62
:10259000331F220F331F220F331F820F931FFC01A3
:1025A000ED55FF4B8681882E99242D813E81C901EE
:1025B000880F991F820F931F9C01220F331F220F38
:1025C000331F220F331F820F931FFC01ED55FF4B6A
:1025D0008781282F30E08DB79EB744978DBF9EBF6F
:1025E000EDB7FEB73196408351838D819E81828302
:1025F000938364837583A683B78300871187E286FC
:10260000F386C486D586A686B786808A918A228B71
:10261000338B0E941A7FEDB7FEB77496EDBFFEBFF5
:102620008D819E8101968D839E838D819E81EFE9B0
:10263000F0E4208131818217930708F41ACF0FCA82
:102640000E94C35A0CCA81E08093343908CA81E0E1
:102650008093493904CA8DE792E00F920F92EDB74B
:10266000FEB73196808391830E941A7F0F900F905E
:102670000E94413A8C838C8182958F70882F90E0E4
:102680009C01220F331FC901880F991F880F991FC2
:10269000820F931F982F8C818F70890F0E947876FC
:1026A000DEC98BE592E00F920F92EDB7FEB731963F
:1026B000808391830E941A7F0F900F900E94413A6D
:1026C0008B838B8182958F70882F90E09C01220FE5
:1026D000331FC901880F991F880F991F820F931FFD
:1026E000982F8B818F70890F0E948474B8C91A82C9
:1026F00020E030E0CE010D96FC01E20FF31F1082C6
:1027000083E292E00F920F92EDB7FEB7319680838D
:1027100091830E941A7F0F900F900E94C157898366
:1027200089818032D0F08A81282F30E0CE010D9649
:10273000FC01E20FF31F898180838A818F5F8A8386
:102740008A81282F30E0CE010D96FC01E20FF31FA5
:10275000108289810E941158E0CF89818D3009F063
:102760007EC920E232E08981882F90E000D00F926C
:10277000EDB7FEB7319620833183828393830E9425
:102780001A7F0F900F900F900F908A81282F30E0C2
:10279000CE010D96FC01E20FF31F8DE080838A814C
:1027A0008F5F8A838A81282F30E0CE010D96FC014D
:1027B000E20FF31F8AE080838A818F5F8A838A8198
:1027C000282F30E0CE010D96FC01E20FF31F10829E
:1027D000CE010D960E94717442C90E94086E3FC9D5
:1027E00081E080934A393BC98DE092E00F920F92CD
:1027F000EDB7FEB73196808391830E941A7F0F90C8
:102800000F908FE690E60E94934689EF91E00F9239
:102810000F92EDB7FEB73196808391830E941A7FA5
:102820000F900F9085E790E60E94934684EF91E029
:102830000F920F92EDB7FEB73196808391830E947D
:102840001A7F0F900F900BC90E94214C08C90E945B
:102850001D4705C90E94D44802C90E94C549FFC846
:10286000DF93CF930F920F92CDB7DEB789839A8310
:1028700089819A810E9441140F900F90CF91DF912E
:102880000895DF93CF930F920F92CDB7DEB7898370
:102890009A8399818A810F900F90CF91DF9108954B
:1028A000DF93CF9300D00F92CDB7DEB769837A83E1
:1028B0008B839C8329813A81922F832FCC01A0E0C6
:1028C000B0E0BC015527442789819A81AB81BC8146
:1028D000CD01AA27BB279C01922F832FCC01A0E01A
:1028E000B0E0842B952BA62BB72BBC01CD012496F1
:1028F000CDBFDEBFCF91DF910895DF93CF93CDB7EA
:10290000DEB72E97CDBFDEBF8A839B836C837D832A
:102910004E835F8328873987DCC08981282F30E088
:102920002D873E878D859E8582309105A1F02D856E
:102930003E852330310599F08D859E858130910546
:1029400089F51092B7231092B8231092B62381E034
:102950008093BA23BEC081E08093B623BAC0EC81D5
:10296000FD81208131818E819F818217930718F428
:102970001092BA23AEC0EA81FB818081EC81FD8197
:102980002081318148855985B9010E94DA15982F37
:102990008091B923981709F09CC01092BA2391E056
:1029A0009C879FC08091B623882331F0898190E174
:1029B000892789831092B6238091BA23282F30E08B
:1029C0002A873B878A859B858230910561F12A851C
:1029D0003B85233031055CF48A859B85009709F49B
:1029E00078C02A853B852130310599F070C08A85F1
:1029F0009B858430910509F444C02A853B852430A9
:102A0000310504F18A859B858530910509F442C022
:102A10005EC08981EA81FB8180838091BA238F5FC8
:102A20008093BA2356C08981882F90E0982F8827F9
:102A3000EC81FD81808391838091BA238F5F8093A5
:102A4000BA2347C0EC81FD81208131818981882FA3
:102A500090E0820F931FEC81FD8180839183EC8154
:102A6000FD81208131818E819F818217930718F427
:102A70001092BA232EC08091BA238F5F8093BA231D
:102A800028C089818093B9238091BA238F5F809376
:102A9000BA231FC0EC81FD81208131818091B72351
:102AA0009091B82382179307A0F42091B723309117
:102AB000B82388859985FC01E20FF31F8981808303
:102AC000C90101968093B7239093B82302C0109256
:102AD000BA23CE0101960E944116882309F01DCF2A
:102AE0001C868C852E96CDBFDEBFCF91DF910895D9
:102AF000DF93CF93CDB7DEB72797CDBFDEBF8B83F4
:102B00006C837D834E835F8381E061E00E941816B1
:102B100099230CF449C080E06B810E941816992318
:102B20000CF442C08C819D81892F9927982F80E0D9
:102B3000692F0E9418169923BCF19C8180E0692FAF
:102B40000E941816992384F12C813D814E815F816A
:102B50008B81B9010E94DA15982F80E0692F0E94BD
:102B6000181699230CF119821A8213C029813A810F
:102B70008E819F81FC01E20FF31F908180E0692F1D
:102B80000E941816992384F089819A81019689837D
:102B90009A8329813A818C819D812817390730F3E6
:102BA00081E063E00E9418162796CDBFDEBFCF916B
:102BB000DF910895DF93CF93CDB7DEB72897CDBFD0
:102BC000DEBF8C836D837E834F8358871982998102
:102BD0008C81892789838D819E81892F9927982FC0
:102BE0008981892789839D818981892789831A829F
:102BF0001B8210C02A813B818F819885FC01E20FE6
:102C0000F31F90818981892789838A819B8101961D
:102C10008A839B832A813B818D819E812817390776
:102C200048F389812896CDBFDEBFCF91DF9108950B
:102C3000DF93CF9300D00F92CDB7DEB789836A833D
:102C40008981882389F48A81803170F49A8180E1B6
:102C500089278A8382E00E94385499232CF48FEFCD
:102C60009FEF8B839C8305C08A810E9438548B839D
:102C70009C838B819C812496CDBFDEBFCF91DF9159
:102C80000895DF93CF930F920F92CDB7DEB789836C
:102C90009A8389819A810E94B3530F900F90CF91AC
:102CA000DF910895DF93CF9300D0CDB7DEB78A834D
:102CB0009B831982EA81FB8180818A3330F4EA8127
:102CC000FB8180818053898305C0EA81FB818081FB
:102CD0008753898389818295807F89838A819B81BB
:102CE00001968A839B83EA81FB8180818A3348F441
:102CF000EA81FB8180818053982F8981892B898388
:102D000008C0EA81FB8180818753982F8981892BB4
:102D1000898389812396CDBFDEBFCF91DF9108954E
:102D2000DF93CF93CDB7DEB76497CDBFDEBF6F879C
:102D3000788B898B9A8B4B8B5C8B8F859889817074
:102D40009070882399F02F8538898B899C89FC01A4
:102D5000E20FF31F10828F859889A989BA8901969D
:102D6000A11DB11D8F87988BA98BBA8B8B899C89EC
:102D7000FC01BE968081882F90E0382F22278B8916
:102D80009C89FC01BF968081882F90E0822B932B39
:102D9000CC01A0E0B0E08B879C87AD87BE878B8994
:102DA0009C89FC0134968081882F90E0382F22275F
:102DB0008B899C89FC0135968081882F90E0822B3D
:102DC000932BCC01A0E0B0E08F839887A987BA87C6
:102DD0008B899C89FC0136968081882F90E0A0E049
:102DE000B0E08B839C83AD83BE832F81388549857A
:102DF0005A858B819C81AD81BE81820F931FA41F58
:102E0000B51F8B879C87AD87BE878B899C89089669
:102E100089839A834FC0E981FA818081882F90E06D
:102E2000382F222789819A81FC0131968081882F51
:102E300090E0822B932BCC01A0E0B0E08B839C83AD
:102E4000AD83BE832B853C854D855E858B819C81C2
:102E5000AD81BE81820F931FA41FB51F8B879C87F6
:102E6000AD87BE8717C08B859C85AD85BE859C01CF
:102E7000AD01407050708B859C85AD85BE85CD01C0
:102E8000AA27BB27820F931FA41FB51F8B879C8780
:102E9000AD87BE878B859C85AD85BE85CD01AA2774
:102EA000BB270097A105B105F1F689819A810296A9
:102EB00089839A832F8538898B899C89280F391FAC
:102EC00089819A818217930708F4A5CF8B859C8509
:102ED00080959095CC01A0E0B0E08B879C87AD8772
:102EE000BE878B859C856496CDBFDEBFCF91DF9179
:102EF00008950F931F93DF93CF93CDB7DEB7C95DCE
:102F0000D040CDBFDEBFFE01E153FF4F80839183F0
:102F1000FE01EF52FF4F60837183FE01ED52FF4FC0
:102F20002083318342835383FE01E952FF4F0083A4
:102F3000118380E68F83188619861A86FE01ED526A
:102F4000FF4F80819181A281B3810896A11DB11D9F
:102F5000892F9A2FAB2FBB278B87FE01ED52FF4F96
:102F60008081885F8C8781E18D8780E48E87CE01A8
:102F700007960896FE01E153FF4F20813181B90188
:102F800040E150E00E94A97ECE0107964896FE01DE
:102F9000EF52FF4F20813181B90140E150E00E94A2
:102FA000A97E83ED8FA78DEE88AB87E089AB81E5A5
:102FB0008AABFE01ED52FF4F80819181A281B381E6
:102FC0000896A11DB11D892F9A2FAB2FBB278BAB64
:102FD000FE01ED52FF4F8081885F8CAB1DAA1EAAB7
:102FE000FE01ED52FF4F40815181CE010796C09600
:102FF000FE01E952FF4F20813181B9010E94A97E73
:103000009E012D523F4FFE01ED52FF4F8081918175
:10301000A281B381C096A11DB11DF9018083918366
:10302000A283B383FE01ED52FF4F80819181A28183
:10303000B381FE01E952FF4F20813181BC01CD01F6
:10304000A9010E9490168D839E838D819E81892F78
:1030500099278DAB8D818EAB8091052090910620B4
:10306000873091050CF443C019821A821B821C829E
:1030700025C089819A81FE013796E80FF91F80816A
:10308000282F30E000D00F92EDB7FEB731968DE2D9
:1030900090E280839183228333830E94087F0F9084
:1030A0000F900F900F9089819A81AB81BC8101961E
:1030B000A11DB11D89839A83AB83BC83FE01ED52B0
:1030C000FF4F29813A814B815C8180819181A2816E
:1030D000B381281739074A075B0758F220914E3908
:1030E00030914F398AE090E0B9010E94DC7EFE0108
:1030F000ED52FF4F80819181A281B3819E01295FB2
:103100003F4FBC01CD01A9010E947027882369F1BE
:10311000809105209091062083309105FCF020914C
:103120004E3930914F3983E390E0B9010E94DC7E43
:1031300086EF94E00F920F92EDB7FEB73196808341
:1031400091830E941A7F0F900F9020914E393091F9
:103150004F398AE090E0B9010E94DC7EF1E0C7526D
:10316000DF4FF883C95DD04005C0C752DF4F1882DA
:10317000C95DD040C752DF4F8881C95DD040C7527A
:10318000DF4FCDBFDEBFCF91DF911F910F9108952B
:103190000F931F93DF93CF93CDB7DEB76B97CDBF60
:1031A000DEBF6D8B7E8B8F8B988F498F2A8F80919E
:1031B00042308A3019F081E08B8F39C019828DE15D
:1031C0008A830E94847D8F778B838D899E89AF89C6
:1031D000B88D8B2F9927AA27BB278C838D899E8931
:1031E000AF89B88DCD01AA27BB278D838D899E8994
:1031F000AF89B88D892F9A2FAB2FBB278E838D89EE
:103200008F83898D8887198684E08A878A8D8B874A
:1032100082E390E222E530E2B9012BE030E040E0C9
:1032200050E0FE0131968F010E9479178B8F8B8DB4
:103230006B96CDBFDEBFCF91DF911F910F910895A7
:103240000F931F93DF93CF93CDB7DEB76C97CDBFAE
:10325000DEBF8D8B4E8B5F8B688F798F2A8F0B8FA4
:10326000809142308A3019F081E08C8F4FC08D8977
:10327000882F90E0880F991FFC01EE58FF4D808148
:10328000809370208D89882F90E0880F991FFC0112
:10329000ED58FF4D80818093712019828DE18A83E2
:1032A0000E94847D8F778B838E899F89A88DB98DAD
:1032B0008B2F9927AA27BB278C838E899F89A88D5E
:1032C000B98DCD01AA27BB278D838E899F89A88DB3
:1032D000B98D892F9A2FAB2FBB278E838E898F8331
:1032E0008A8D8887198684E08A878B8D8B8782E315
:1032F00090E222E630E2B9012BE030E040E050E01D
:10330000FE0131968F010E9479178C8F8C8D6C96FF
:10331000CDBFDEBFCF91DF911F910F9108950F9325
:103320001F93DF93CF93CDB7DEB76797CDBFDEBFD7
:10333000809142308A3019F081E08F8B20C081E08B
:103340008A8383E089831B8280E18C830E94847D51
:103350008F778D838A818E8389818F8381E08887AF
:1033600082E490E22BEC30E3FE013396B90126E0D3
:1033700030E040E050E08F010E9479178F8B8F89F9
:103380006796CDBFDEBFCF91DF911F910F9108955A
:103390000F931F93DF93CF93CDB7DEB76A97CDBF5F
:1033A000DEBF8F8B988F698F809142308A3019F001
:1033B00081E08A8F27C081E08A8384E089831B8231
:1033C00080E18C830E94847D8F778D838A818E83B8
:1033D00089818F838F89988D892F992788878F89F5
:1033E0008987898D8A8782E490E22BEC30E3FE01A5
:1033F0003396B90128E030E040E050E08F010E94B0
:1034000079178A8F8A8D6A96CDBFDEBFCF91DF9103
:103410001F910F910895AF92BF92CF92DF92EF92DA
:10342000FF920F931F93DF93CF93CDB7DEB7C054B6
:10343000D040CDBFDEBF6AAF7BAF8CAF9DAF4EAF8C
:103440005FAF8EAD9FADFC01BE968081882F90E06E
:10345000382F22278EAD9FADFC01BF968081882F2B
:1034600090E0822B932B8C8F9D8F8EAD9FADFC01B6
:1034700034968081882F90E0382F22278EAD9FAD23
:10348000FC0135968081882F90E0822B932B888FCA
:10349000998F8EAD9FADFC0136968081882F90E08C
:1034A0008E8B9F8B8091052090910620873091050F
:1034B0000CF4ACC0809105209091062087309105D6
:1034C0005CF120914E3930914F3987E390E0B9019A
:1034D0000E94DC7E8BED96E000D000D0EDB7FEB709
:1034E0003196808391838AAD9BADACADBDAD8283B7
:1034F0009383A483B5830E941A7F0DB71EB70A5F1A
:103500001F4F0DBF1EBF20914E3930914F398AE0B9
:1035100090E0B9010E94DC7E809105209091062008
:103520008730910594F120914E3930914F3987E3DE
:1035300090E0B9010E94DC7E88EB96E02DB73EB7A3
:10354000285030402DBF3EBFEDB7FEB73196808387
:1035500091838E899F8982839383888D998D8483BB
:1035600095838C8D9D8D868397830E941A7F8DB75E
:103570009EB708968DBF9EBF20914E3930914F392E
:103580008AE090E0B9010E94DC7E1A8A1B8A1C8ABC
:103590001D8A26C02A893B898EAD9FADFC01E20FB2
:1035A000F31F8081282F30E000D00F92EDB7FEB7D7
:1035B00031968DE290E280839183228333830E944F
:1035C000087F0F900F900F900F908A899B89AC898C
:1035D000BD890196A11DB11D8A8B9B8BAC8BBD8BC8
:1035E0002A893B894C895D898AAD9BADACADBDAD67
:1035F000281739074A075B0768F220914E39309146
:103600004F398AE090E0B9010E94DC7E8AAD9BAD23
:10361000ACADBDAD2EAD3FADBC01CD01A9010E9449
:1036200090168A8F9B8F8A8D9B8D009791F18C8D40
:103630009D8D009771F18091052090910620873033
:1036400091050CF495C620914E3930914F3987E39E
:1036500090E0B9010E94DC7E8BE996E000D00F92E9
:10366000EDB7FEB73196808391838A8D9B8D8283DF
:1036700093830E941A7F0F900F900F900F902091CC
:103680004E3930914F398AE090E0B9010E94DC7EDA
:103690006FC68EAD9FADFC0136968081813109F0F9
:1036A00001C68EAD9FAD489664E270E440E150E003
:1036B0000E949C7E009709F086C38EAD9FAD8A5B09
:1036C0009F4F0E945216809343308EAD9FAD885B12
:1036D0009F4F0E945216809344308EAD9FAD865B03
:1036E0009F4F0E945216809345308EAD9FAD845BF4
:1036F0009F4F0E945216809346308EAD9FAD825BE5
:103700009F4F0E945216809347308EAD9FAD805BD5
:103710009F4F0E945216809348308EAD9FAD8E5AB7
:103720009F4F0E945216809349308EAD9FAD8C5AA8
:103730009F4F0E94521680934A30809105209091AD
:103740000620873091050CF456C020914E393091F7
:103750004F3987E390E0B9010E94DC7E24E636E031
:1037600080914330482F50E080914430682F70E0C2
:1037700080914530A82FB0E080914630082F10E0AE
:1037800080914730E82EFF2480914830C82EDD24F8
:1037900080914930A82EBB2480914A30882F90E038
:1037A000EDB7FEB77297EDBFFEBFEDB7FEB731962E
:1037B000208331834283538364837583A683B783D5
:1037C00000871187E286F386C486D586A686B786EB
:1037D000808B918B0E941A7F0DB71EB70E5E1F4F14
:1037E0000DBF1EBF20914E3930914F398AE090E0D5
:1037F000B9010E94DC7E8EAD9FAD9C01285F3F4FDA
:10380000CE014E96B90140E150E00E94A97E8EADF6
:103810009FADAC01485F5F4F8EAD9FAD9C01285EB0
:103820003F4FCA01B90140E150E00E94A97E8EAD30
:103830009FAD48969E01225E3F4FB90140E150E0A6
:103840000E94A97E8EAD9FAD9C01285D3F4FCE01A9
:103850004E96B90142E050E00E94A97E8EAD9FAD28
:10386000AC01485D5F4F8EAD9FAD9C01265D3F4F23
:10387000CA01B90142E050E00E94A97E8EAD9FAD21
:103880008A969E01225E3F4FB90142E050E00E94BD
:10389000A97E8EAD9FADFC01BE9610828EAD9FAD10
:1038A000FC01BF9610821D861E861F86188A198A03
:1038B00029C02E853F85C901880F991F820F931F4C
:1038C0009C01220F331F220F331F220F331F820F41
:1038D000931F8D559F4B23E430E3B90148E050E03E
:1038E0000E949C7E009719F481E08D871BC08E8515
:1038F0009F85A889B9890196A11DB11D8E879F87D3
:10390000A88BB98BEFE9F0E4808191819C0140E0C4
:1039100050E08E859F85A889B98982179307A407EF
:10392000B50738F28D85882331F4E0E0F0E487A90B
:10393000882309F4B9C08091052090910620873032
:103940009105FCF020914E3930914F3987E390E09A
:10395000B9010E94DC7E86E596E00F920F92EDB7EA
:10396000FEB73196808391830E941A7F0F900F904B
:1039700020914E3930914F398AE090E0B9010E9490
:10398000DC7E8EAD9FADFC01F09682E080838EAD33
:103990009FAD8C010F5C1F4F0E94847DD8018C93DA
:1039A0008EAD9FADFC01EC5BFF4F8AE180838EAD55
:1039B0009FADFC01EB5BFF4F88E180838EAD9FAD37
:1039C000FC01EA5BFF4F10828EAD9FADFC01E95B0D
:1039D000FF4F10828EAD9FADFC01E85BFF4F8DE67F
:1039E00080838EAD9FADFC01E75BFF4F89EE808346
:1039F0008EAD9FADFC01E65BFF4F84E680838EAD0C
:103A00009FADFC01E55BFF4F82E180831E861F8630
:103A1000188A198A3AC08E859F85880F991F9C0144
:103A2000245B3F4F8EAD9FADFC01E20FF31F108270
:103A30008E859F85880F991F9C01235B3F4F8EAD1C
:103A40009FADBC01620F731F27E030E040E050E003
:103A50008E859F85A889B98979018A01E81AF90AB2
:103A60000A0B1B0BD801C701FC01ED5BFF4C8081E9
:103A7000DB018C938E859F85A889B9890196A11D4C
:103A8000B11D8E879F87A88BB98B8E859F85A8894E
:103A9000B98988309105A105B10508F4BCCF8CE245
:103AA00090E08A8F9B8F88C080910520909106209E
:103AB00087309105FCF020914E3930914F3987E3E2
:103AC00090E0B9010E94DC7E88E496E00F920F92AC
:103AD000EDB7FEB73196808391830E941A7F0F90D5
:103AE0000F9020914E3930914F398AE090E0B90122
:103AF0000E94DC7E88E0FE01BE96DF01E82E1D926A
:103B0000EA94E9F71B861C863EC08B859C85880F4E
:103B1000991F880F991F880F991F855B9F4C9E01E5
:103B2000225D3F4FB90148E050E00E949C7E009723
:103B300091F48B859C85880F991F880F991F880F9A
:103B4000991F855B9F4C23E430E3B90148E050E0C6
:103B50000E94A97E1EC08B859C85880F991F880FA7
:103B6000991F880F991F855B9F4C23E430E3B901AF
:103B700048E050E00E949C7E009759F08B859C8520
:103B800001968B879C878B859C85803191050CF4F1
:103B9000BCCF8EAD9FADFC01F09683E080838EADEF
:103BA0009FAD8C010F5C1F4F0E94847DD8018C93C8
:103BB00084E190E08A8F9B8F1E861F86188A198A5F
:103BC00019C08E859F859C012C5C3F4F8EAD9FADAB
:103BD0008C01020F131F0E94847DF80180838E8563
:103BE0009F85A889B9890196A11DB11D8E879F87E0
:103BF000A88BB98B8E859F85A889B989803191055D
:103C0000A105B105F0F28EAD9FADFC01F2968A8D53
:103C10009B8D892F992780838EAD9FADFC01F396F4
:103C20008A8D80838A8D9B8D08968A8F9B8F8EAD1F
:103C30009FADFC0134968A8D9B8D892F99278083B7
:103C40008EAD9FADFC0135968A8D80838EAD9FAD84
:103C5000FC01379680E480838EAD9FADFC01BC965D
:103C60008A8D9B8D892F992780838EAD9FADFC0116
:103C7000BD968A8D80838A8D9B8D8896CC01A0E02D
:103C8000B0E08AAF9BAFACAFBDAF8AAD9BADACAD82
:103C9000BDAD2EAD3FADBC01CD01A9010E94901676
:103CA0008A8F9B8F8EAD9FADFC01BE968A8D9B8DBA
:103CB000892F992780838EAD9FADFC01BF968A8D99
:103CC00080838091052090910620873091050CF427
:103CD00041C01F82188619861A8626C02F81388512
:103CE0008EAD9FADFC01E20FF31F8081282F30E0E5
:103CF00000D00F92EDB7FEB731968DE290E280834F
:103D00009183228333830E94087F0F900F900F903E
:103D10000F908F819885A985BA850196A11DB11D47
:103D20008F839887A987BA872F81388549855A85D7
:103D30008AAD9BADACADBDAD281739074A075B070F
:103D400068F220914E3930914F398AE090E0B90104
:103D50000E94DC7E8AAD9BADACADBDAD2EAD3FAD5E
:103D6000BC01CD01A9010E947027882309F400C37A
:103D7000809105209091062083309105FCF02091E0
:103D80004E3930914F3983E390E0B9010E94DC7ED7
:103D900089E296E00F920F92EDB7FEB731968083DD
:103DA00091830E941A7F0F900F9020914E3930918D
:103DB0004F398AE090E0B9010E94DC7EF1E0219663
:103DC000FFAF2197D8C28EAD9FADFC017896808160
:103DD0008F3F09F0BCC08EAD9FAD9C01285F3F4F67
:103DE00082E390E2B90140E150E00E949C7E00979E
:103DF00009F485C0809105209091062087309105B7
:103E0000FCF020914E3930914F3987E390E0B901B1
:103E10000E94DC7E88E196E00F920F92EDB7FEB72C
:103E20003196808391830E941A7F0F900F9020918A
:103E30004E3930914F398AE090E0B9010E94DC7E22
:103E4000809105209091062087309105FCF020910B
:103E50004E3930914F3987E390E0B9010E94DC7E02
:103E60008BE096E00F920F92EDB7FEB7319680830C
:103E700091830E941A7F0F900F9020914E393091BC
:103E80004F398AE090E0B9010E94DC7E8AAD9BAD9B
:103E9000ACADBDAD2EAD3FADBC01CD01A9010E94C1
:103EA000E439882309F464C28091052090910620AA
:103EB00083309105FCF020914E3930914F3983E3E6
:103EC00090E0B9010E94DC7E8FEE95E00F920F9298
:103ED000EDB7FEB73196808391830E941A7F0F90D1
:103EE0000F9020914E3930914F398AE090E0B9011E
:103EF0000E94DC7E01E021960FAF21973CC28091A9
:103F0000052090910620873091050CF431C2209154
:103F10004E3930914F3987E390E0B9010E94DC7E41
:103F200088ED95E00F920F92EDB7FEB73196808342
:103F300091830E941A7F0F900F9020914E393091FB
:103F40004F398AE090E0B9010E94DC7E11C28EAD4B
:103F50009FADFC01389680818E3FA1F58EAD9FAD5F
:103F6000FC0139968081882F90E0807C90708038A9
:103F7000910541F5809105209091062087309105AB
:103F80000CF4F6C120914E3930914F3987E390E01F
:103F9000B9010E94DC7E8AEC95E00F920F92EDB79A
:103FA000FEB73196808391830E941A7F0F900F9005
:103FB00020914E3930914F398AE090E0B9010E944A
:103FC000DC7ED6C18EAD9FAD489622E430E2B901C9
:103FD00040E150E00E949C7E009709F004C18EAD44
:103FE0009FAD08962BEC30E3B90140E150E00E9410
:103FF0009C7E009709F0CFC080910520909106200B
:1040000087309105FCF020914E3930914F3987E38C
:1040100090E0B9010E94DC7E8DEA95E00F920F924C
:10402000EDB7FEB73196808391830E941A7F0F907F
:104030000F9020914E3930914F398AE090E0B901CC
:104040000E94DC7E888D998D8A30910508F490C19C
:104050008EAD9FADFC01F1968081882F90E081317B
:10406000910509F085C181E08EAB84E08FAB18AE7D
:104070008BE489AF8EAD9FADC3969E012A5C3F4F06
:10408000B90144E050E00E949C7E009709F070C1A5
:104090008EAD9FADFC01F7968081882F90E08D83D7
:1040A0009E838D819E81982F88278D839E838EADE0
:1040B0009FADFC01F8968081282F30E08D819E8194
:1040C000822B932B8D839E838EAD9FADFC01F99641
:1040D0008081882F90E08B839C838B819C81982F9B
:1040E00088278B839C838EAD9FADFC01FA968081DF
:1040F000282F30E08B819C81822B932B8B839C8398
:10410000888D998D89839A8389819A814397898340
:104110009A8380910520909106208730910594F133
:1041200020914E3930914F3987E390E0B9010E94D8
:10413000DC7E88E795E02DB73EB7285030402DBF94
:104140003EBFEDB7FEB73196808391838D819E810E
:10415000828393838B819C818483958389819A81D7
:10416000868397830E941A7F8DB79EB708968DBF6E
:104170009EBF20914E3930914F398AE090E0B901CD
:104180000E94DC7E8EAD9FADCB9629813A81B9012C
:104190000E94403FEDC0809105209091062087301D
:1041A00091050CF4E5C020914E3930914F3987E3E9
:1041B00090E0B9010E94DC7E87E695E00F920F92B5
:1041C000EDB7FEB73196808391830E941A7F0F90DE
:1041D0000F9020914E3930914F398AE090E0B9012B
:1041E0000E94DC7EC5C0809105209091062087301A
:1041F0009105FCF020914E3930914F3987E390E0E2
:10420000B9010E94DC7E8AE595E00F920F92EDB72E
:10421000FEB73196808391830E941A7F0F900F9092
:1042200020914E3930914F398AE090E0B9010E94D7
:10423000DC7E8AAD9BADACADBDAD2EAD3FADBC015E
:10424000CD01A9010E94E439882309F491C080912D
:1042500005209091062083309105FCF020914E3985
:1042600030914F3983E390E0B9010E94DC7E8EE308
:1042700095E00F920F92EDB7FEB731968083918350
:104280000E941A7F0F900F9020914E3930914F3934
:104290008AE090E0B9010E94DC7E91E021969FAF18
:1042A000219769C08EAD9FADFC01369680818A331F
:1042B00009F05EC08091052090910620873091051D
:1042C000FCF020914E3930914F3987E390E0B901ED
:1042D0000E94DC7E81E395E00F920F92EDB7FEB76E
:1042E0003196808391830E941A7F0F900F902091C6
:1042F0004E3930914F398AE090E0B9010E94DC7E5E
:104300008AAD9BADACADBDAD2EAD3FADBC01CD0119
:10431000A9010E94E439882359F1809105209091E8
:10432000062083309105FCF020914E3930914F39B1
:1043300083E390E0B9010E94DC7E85E195E00F9275
:104340000F92EDB7FEB73196808391830E941A7F5A
:104350000F900F9020914E3930914F398AE090E0C4
:10436000B9010E94DC7EA1E02196AFAF219703C086
:1043700021961FAE219721968FAD2197C05CDF4F0C
:10438000CDBFDEBFCF91DF911F910F91FF90EF90D6
:10439000DF90CF90BF90AF9008952F923F924F92B1
:1043A0005F926F927F928F929F92AF92BF92CF92C5
:1043B000DF92EF92FF920F931F93DF93CF93CDB7CE
:1043C000DEB72C97CDBFDEBF89839A836B837C8356
:1043D000E981FA818081282F30E0E981FA818181A9
:1043E000482F50E0E981FA818281682F70E0E981ED
:1043F000FA818381A82FB0E0E981FA818481082FB6
:1044000010E0E981FA818581E82EFF24E981FA81B3
:104410008681C82EDD24E981FA818781A82EBB24FC
:10442000E981FA818085882E9924E981FA81818544
:10443000682E7724E981FA818285482E5524E98106
:10444000FA818385282E3324E981FA818485E82F37
:10445000F0E0EB87FC87E981FA818585E82FF0E0C1
:10446000E987FA87E981FA818685E82FF0E0EF8312
:10447000F887E981FA818785E82FF0E0ED83FE83F4
:104480008DB79EB786978DBF9EBFEDB7FEB73196AD
:104490008B819C81808391838EE290E082839383E1
:1044A00082E990E28483958326833783408751870E
:1044B00062877387A487B58706871787E08AF18AA2
:1044C000C28AD38AA48AB58A868A978A608E718EB8
:1044D000428E538E248E358E8B859C85868F978F4A
:1044E00089859A8580A391A38F81988582A393A3C0
:1044F0008D819E8184A395A30E943D7FEDB7FEB779
:10450000B696EDBFFEBF2C96CDBFDEBFCF91DF913B
:104510001F910F91FF90EF90DF90CF90BF90AF90E1
:104520009F908F907F906F905F904F903F902F90D3
:104530000895CF92DF92EF92FF920F931F93DF9334
:10454000CF930F92CDB7DEB78091CC2381708823B3
:1045500009F45FC18091C0239091C123A091C2232F
:10456000B091C323803021E0920721E0A20720E030
:10457000B20708F44EC18091052090910620863044
:1045800091052CF120914E3930914F3986E390E01E
:10459000B9010E94DC7E83EC97E000D00F92EDB76A
:1045A000FEB731968083918380E190E0828393838C
:1045B0000E941A7F0F900F900F900F9020914E390C
:1045C00030914F398AE090E0B9010E94DC7E809101
:1045D0000520909106208630910544F120914E39B6
:1045E00030914F3986E390E0B9010E94DC7E28EAE1
:1045F00037E0E0E0F0E48081882F90E000D00F9277
:10460000EDB7FEB7319620833183828393830E9476
:104610001A7F0F900F900F900F9020914E3930918C
:104620004F398AE090E0B9010E94DC7E809105203C
:10463000909106208630910544F120914E393091B9
:104640004F3986E390E0B9010E94DC7E2DE837E027
:10465000E0E0F0E48181882F90E000D00F92EDB788
:10466000FEB7319620833183828393830E941A7F21
:104670000F900F900F900F9020914E3930914F393D
:104680008AE090E0B9010E94DC7E80910520909143
:104690000620863091054CF120914E3930914F39EA
:1046A00086E390E0B9010E94DC7E00E717E0E0E0DD
:1046B000F0E4828193810E94712400D00F92EDB7C3
:1046C000FEB7319600831183828393830E941A7F01
:1046D0000F900F900F900F9020914E3930914F39DD
:1046E0008AE090E0B9010E94DC7E809105209091E3
:1046F00006208630910594F120914E3930914F3942
:1047000086E390E0B9010E94DC7E02E517E0E0E07C
:10471000F0E484819581A681B781BC01CD010E941E
:104720008024DC01CB0100D000D0EDB7FEB731967C
:104730000083118382839383A483B5830E941A7FAD
:104740008DB79EB706968DBF9EBF20914E39309192
:104750004F398AE090E0B9010E94DC7E809105200B
:1047600090910620863091050CF44AC020914E3974
:1047700030914F3986E390E0B9010E94DC7E0F2E24
:10478000FDE2CF2EF7E0DF2EF02DE0E0F0E48085B3
:104790009185A285B385BC01CD010E9480247B0157
:1047A0008C01E0E0F0E484859585A685B785BC01A1
:1047B000CD010E948024DC01CB01EDB7FEB73A9712
:1047C000EDBFFEBFEDB7FEB73196C082D182E28267
:1047D000F3820483158386839783A087B1870E9421
:1047E0001A7F2DB73EB7265F3F4F2DBF3EBF2091AA
:1047F0004E3930914F398AE090E0B9010E94DC7E59
:1048000086E660E170E040E050E40E94781519828D
:104810005DC08091052090910620833091050CF4B5
:1048200053C020914E3930914F3983E390E0B90164
:104830000E94DC7E47EF56E08091C0239091C12317
:10484000A091C223B091C323CD01AA27BB27BC01ED
:104850006F7070708091C0239091C123A091C2238A
:10486000B091C323892F9A2FAB2FBB279C012F70A8
:1048700030708091C0239091C123A091C223B09148
:10488000C3238F709070EDB7FEB73897EDBFFEBFB2
:10489000EDB7FEB7319640835183628373832483DF
:1048A0003583868397830E941A7F2DB73EB7285F92
:1048B0003F4F2DBF3EBF20914E3930914F398AE096
:1048C00090E0B9010E94DC7E31E0398389810F904C
:1048D000CF91DF911F910F91FF90EF90DF90CF90DC
:1048E0000895DF93CF930F920F92CDB7DEB78983F0
:1048F0009A8399818A810F900F90CF91DF910895CB
:10490000DF93CF9300D00F92CDB7DEB769837A8360
:104910008B839C8389819A81AB81BC81BC01CD0151
:104920000E949C24DC01CB01BC01CD012496CDBFAB
:10493000DEBFCF91DF910895DF93CF9300D00F9228
:10494000CDB7DEB769837A838B839C8329813A81D3
:10495000922F832FCC01A0E0B0E0BC015527442763
:1049600089819A81AB81BC81CD01AA27BB279C019B
:10497000922F832FCC01A0E0B0E0842B952BA62BA7
:10498000B72BBC01CD012496CDBFDEBFCF91DF9107
:104990000895DF93CF93CDB7DEB7CC55D040CDBFD0
:1049A000DEBF8091052090910620873091052CF183
:1049B00020914E3930914F3987E390E0B9010E9440
:1049C000DC7E86EE97E000D00F92EDB7FEB7319611
:1049D0008083918384E290E0828393830E941A7F94
:1049E0000F900F900F900F9020914E3930914F39CA
:1049F0008AE090E0B9010E94DC7E8BE664E270E020
:104A000040E150E40E94781580E0C45ADF4FCDBFEA
:104A1000DEBFCF91DF910895DF93CF930F92CDB793
:104A2000DEB78091292090912A20A0912B20B0916F
:104A30002C208F3F2FEF92072FEFA2072FEFB20707
:104A400009F43FC08091292090912A20A0912B2029
:104A5000B0912C2089838091052090910620873089
:104A6000910534F120914E3930914F3987E390E030
:104A7000B9010E94DC7E2EEA38E08981882F90E01F
:104A800000D00F92EDB7FEB7319620833183828339
:104A900093830E941A7F0F900F900F900F90209198
:104AA0004E3930914F398AE090E0B9010E94DC7EA6
:104AB00081E761E070E09E012F5F3F4FA9010E94F6
:104AC000781580E00F90CF91DF910895DF93CF9319
:104AD000CDB7DEB78091C0239091C123A091C223AE
:104AE000B091C323803021E0920721E0A20720E0AB
:104AF000B207B0F180910520909106208730910592
:104B000044F120914E3930914F3987E390E0B9015B
:104B10000E94DC7E2FEC38E0E0E0F0E485A9882FED
:104B200090E000D00F92EDB7FEB73196208331832D
:104B3000828393830E941A7F0F900F900F900F90A3
:104B400020914E3930914F398AE090E0B9010E94AE
:104B5000DC7E8EE661E070E045E350E40E9478156B
:104B600080E0CF91DF910895DF93CF93CDB7DEB78B
:104B70008091C0239091C123A091C223B091C323FF
:104B8000803024E0920721E0A20720E0B20708F479
:104B900068C080910520909106208730910544F1EE
:104BA00020914E3930914F3987E390E0B9010E944E
:104BB000DC7E22E239E0E0E0F0E484A9882F90E096
:104BC00000D00F92EDB7FEB73196208331838283F8
:104BD00093830E941A7F0F900F900F900F90209157
:104BE0004E3930914F398AE090E0B9010E94DC7E65
:104BF00082E761E070E044E350E40E947815E0E071
:104C0000F0E486A9882369F180910520909106201F
:104C100087309105FCF020914E3930914F3987E370
:104C200090E0B9010E94DC7E87EF98E00F920F922E
:104C3000EDB7FEB73196808391830E941A7F0F9063
:104C40000F9020914E3930914F398AE090E0B901B0
:104C50000E94DC7E83E760E070E040E050E00E946C
:104C6000781580E0CF91DF910895DF93CF93CDB792
:104C7000DEB78091BB23882371F580910520909148
:104C8000062087309105FCF020914E3930914F3944
:104C900087E390E0B9010E94DC7E88E999E00F92F9
:104CA0000F92EDB7FEB73196808391830E941A7FF1
:104CB0000F900F9020914E3930914F398AE090E05B
:104CC000B9010E94DC7E87E660E070E040E050E0E1
:104CD0000E94781592C08091BB23813071F580913C
:104CE00005209091062087309105FCF020914E39E7
:104CF00030914F3987E390E0B9010E94DC7E8DE767
:104D000099E00F920F92EDB7FEB7319680839183B1
:104D10000E941A7F0F900F9020914E3930914F3999
:104D20008AE090E0B9010E94DC7E8FE660E070E0EE
:104D300040E050E00E94781560C08091BB23823033
:104D400071F5809105209091062087309105FCF047
:104D500020914E3930914F3987E390E0B9010E949C
:104D6000DC7E8CE599E00F920F92EDB7FEB731969D
:104D7000808391830E941A7F0F900F9020914E396B
:104D800030914F398AE090E0B9010E94DC7E80E7E3
:104D900060E070E040E050E00E9478152EC0809105
:104DA000052090910620833091053CF120914E39E9
:104DB00030914F3983E390E0B9010E94DC7E24E416
:104DC00039E08091BB23882F90E000D00F92EDB79F
:104DD000FEB7319620833183828393830E941A7FAA
:104DE0000F900F900F900F9020914E3930914F39C6
:104DF0008AE090E0B9010E94DC7E80E0CF91DF91F3
:104E00000895DF93CF93CDB7DEB7809105209091C1
:104E1000062087309105FCF020914E3930914F39B2
:104E200087E390E0B9010E94DC7E88EB99E00F9265
:104E30000F92EDB7FEB73196808391830E941A7F5F
:104E40000F900F9020914E3930914F398AE090E0C9
:104E5000B9010E94DC7E88E660E070E040E050E04E
:104E60000E94781580E0CF91DF910895DF93CF9372
:104E7000CDB7DEB78091052090910620873091054F
:104E8000FCF020914E3930914F3987E390E0B90121
:104E90000E94DC7E8EEC99E00F920F92EDB7FEB788
:104EA0003196808391830E941A7F0F900F902091FA
:104EB0004E3930914F398AE090E0B9010E94DC7E92
:104EC0008091CC238D7F8093CC2389E660E070E0D5
:104ED00040E050E00E94781580E0CF91DF91089586
:104EE000DF93CF9300D000D0CDB7DEB769837A834C
:104EF0008B839C834D835E8329813A814D815E81C2
:104F000085E6B9010E94781580E02696CDBFDEBF08
:104F1000CF91DF910895DF93CF93CDB7DEB7809126
:104F200005209091062087309105FCF020914E39A4
:104F300030914F3987E390E0B9010E94DC7E8AEE20
:104F400099E00F920F92EDB7FEB73196808391836F
:104F50000E941A7F0F900F9020914E3930914F3957
:104F60008AE090E0B9010E94DC7E8DE660E070E0AE
:104F700040E050E00E94781580E0CF91DF910895E5
:104F8000DF93CF93CDB7DEB78091052090910620B7
:104F900087309105FCF020914E3930914F3987E3ED
:104FA00090E0B9010E94DC7E8FEF99E00F920F92A2
:104FB000EDB7FEB73196808391830E941A7F0F90E0
:104FC0000F9020914E3930914F398AE090E0B9012D
:104FD0000E94DC7E80E060E070E040E050E00E94F3
:104FE000781580E0CF91DF910895DF93CF93CDB70F
:104FF000DEB7809105209091062087309105FCF066
:1050000020914E3930914F3987E390E0B9010E94E9
:10501000DC7E8BE19AE00F920F92EDB7FEB73196EE
:10502000808391830E941A7F0F900F9020914E39B8
:1050300030914F398AE090E0B9010E94DC7E8AE627
:1050400060E070E040E050E00E94781580E0CF9191
:10505000DF910895DF93CF9300D000D0CDB7DEB7B6
:1050600069837A838B839C834D835E838091CC2379
:105070008870882309F482C08D819E81009741F158
:105080008091052090910620873091050CF476C020
:1050900020914E3930914F3987E390E0B9010E9459
:1050A000DC7E8BE39AE00F920F92EDB7FEB731965C
:1050B000808391830E941A7F0F900F9020914E3928
:1050C00030914F398AE090E0B9010E94DC7E56C0F1
:1050D0008091D6239091D723A091D823B091D92342
:1050E0002091C4233091C5234091C6235091C723FA
:1050F000821B930BA40BB50B8B309105A105B10559
:10510000E8F1809105209091062087309105FCF010
:1051100020914E3930914F3987E390E0B9010E94D8
:10512000DC7E86E39AE00F920F92EDB7FEB73196E0
:10513000808391830E941A7F0F900F9020914E39A7
:1051400030914F398AE090E0B9010E94DC7E8DE613
:1051500060E070E040E050E00E9478158091D62336
:105160009091D723A091D823B091D9238093C423C1
:105170009093C523A093C623B093C72380E02696BF
:10518000CDBFDEBFCF91DF910895EF92FF920F93D5
:105190001F93DF93CF9300D00F92CDB7DEB78983F3
:1051A00080914230E82EFF24EB82FC820B811C812F
:1051B0000530110509F450C12B813C8126303105A1
:1051C000F4F48B819C818230910509F4D2C00B816B
:1051D0001C810330110534F42B813C8121303105D1
:1051E00099F18CC28B819C818330910509F401C1B6
:1051F0000B811C810430110509F428C17FC22B8169
:105200003C812830310509F49AC18B819C81893019
:1052100091056CF40B811C810630110509F44FC116
:105220002B813C812730310509F44FC167C28B8146
:105230009C818930910509F43EC20B811C810A30A2
:10524000110509F44EC25AC28091CC238170882383
:1052500009F084C08091C8239091C923A091CA23EA
:10526000B091CB230097A105B10531F180910520C4
:105270009091062087309105FCF020914E393091B5
:105280004F3987E390E0B9010E94DC7E8EEF9AE00F
:105290000F920F92EDB7FEB73196808391830E94F3
:1052A0001A7F0F900F9020914E3930914F398AE03C
:1052B00090E0B9010E94DC7E8091C8239091C923BF
:1052C000A091CA23B091CB230196A11DB11D80935B
:1052D000C8239093C923A093CA23B093CB23809172
:1052E000C8239091C923A091CA23B091CB238330C6
:1052F0009105A105B10548F5809105209091062002
:1053000087309105FCF020914E3930914F3987E379
:1053100090E0B9010E94DC7E8BEE9AE00F920F9232
:10532000EDB7FEB73196808391830E941A7F0F906C
:105330000F9020914E3930914F398AE090E0B901B9
:105340000E94DC7E0E94C027D9C11092C82310920F
:10535000C9231092CA231092CB23D0C11092C82324
:105360001092C9231092CA231092CB2382E080931B
:105370004230E0E0F0E480859185A285B385009716
:10538000A105B10551F51092423080910520909110
:105390000620823091050CF4B1C120914E39309134
:1053A0004F3982E390E0B9010E94DC7E80EE9AE002
:1053B0000F920F92EDB7FEB73196808391830E94D2
:1053C0001A7F0F900F9020914E3930914F398AE01B
:1053D00090E0B9010E94DC7E91C10E94992288234D
:1053E00021F483E08093423089C181E08093423090
:1053F00085C1E0E0F0E4E0A0F1A002A113A160E02B
:1054000070E080E090E00E949C24DC01CB01E81673
:10541000F9060A071B0711F00E94C9248091C023D6
:105420009091C123A091C223B091C323803011E099
:10543000910711E0A10710E0B10720F084E080930C
:1054400042305CC185E08093423058C10E9466259D
:1054500085E08093423052C10E9435268091C0235E
:105460009091C123A091C223B091C323803024E046
:10547000920721E0A20720E0B20720F086E08093A7
:1054800042303CC18091C0239091C123A091C2239E
:10549000B091C323803031E0930731E0A30730E0BF
:1054A000B30720F087E08093423028C18091CC235D
:1054B0008D7F8093CC2388E0809342301FC10E946F
:1054C000B42587E08093423019C18091CC23847049
:1054D000882369F58981882309F410C1809105200A
:1054E0009091062087309105FCF020914E39309143
:1054F0004F3987E390E0B9010E94DC7E87EC9AE0A7
:105500000F920F92EDB7FEB73196808391830E9480
:105510001A7F0F900F9020914E3930914F398AE0C9
:1055200090E0B9010E94DC7E0E94F527E7C088E088
:10553000809342308091CC238D7F8093CC238091C7
:10554000CC238270882309F0ABC08981882309F4B9
:10555000D5C08091C8239091C923A091CA23B0914E
:10556000CB230097A105B10531F1809105209091E1
:10557000062087309105FCF020914E3930914F394B
:1055800087E390E0B9010E94DC7E8BEA9AE00F92FB
:105590000F92EDB7FEB73196808391830E941A7FF8
:1055A0000F900F9020914E3930914F398AE090E062
:1055B000B9010E94DC7E8091C8239091C923A091FB
:1055C000CA23B091CB230196A11DB11D8093C8239E
:1055D0009093C923A093CA23B093CB238091C8236F
:1055E0009091C923A091CA23B091CB238A30910511
:1055F000A105B10548F580910520909106208730DE
:105600009105FCF020914E3930914F3987E390E0BD
:10561000B9010E94DC7E81E99AE00F920F92EDB70A
:10562000FEB73196808391830E941A7F0F900F906E
:1056300020914E3930914F398AE090E0B9010E94B3
:10564000DC7E0E9436275AC080910520909106206A
:1056500083309105FCF020914E3930914F3983E32E
:1056600090E0B9010E94DC7E81E79AE00F920F92F0
:10567000EDB7FEB73196808391830E941A7F0F9019
:105680000F9020914E3930914F398AE090E0B90166
:105690000E94DC7E81E0809342300E9401272EC070
:1056A0001092C8231092C9231092CA231092CB23C0
:1056B00089E0809342308091C0239091C123A091D2
:1056C000C223B091C323803003E0900701E0A0071C
:1056D00000E0B00710F00E940C258AE08093423071
:1056E0000DC060E070E080E090E040E050E00E949B
:1056F0002A28882319F011E01A8375C08091CC23E1
:105700008170882309F46EC08091CC23887088232F
:1057100009F468C02091D6233091D7234091D82333
:105720005091D9238091BC239091BD23A091BE2399
:10573000B091BF2379018A01E81AF90A0A0B1B0B01
:10574000D801C7018D339105A105B10508F44AC000
:105750008091052090910620833091050CF43FC084
:1057600020914E3930914F3983E390E0B9010E9486
:10577000DC7E60E47AE02091D6233091D7234091FB
:10578000D8235091D9238091BC239091BD23A0911F
:10579000BE23B091BF2379018A01E81AF90A0A0BE6
:1057A0001B0BD801C70100D000D0EDB7FEB7319672
:1057B0006083718382839383A483B5830E941A7F5D
:1057C0000DB71EB70A5F1F4F0DBF1EBF20914E3988
:1057D00030914F398AE090E0B9010E94DC7E12E0FE
:1057E0001A8301C01A828A812496CDBFDEBFCF9171
:1057F000DF911F910F91FF90EF900895DF93CF936A
:10580000CDB7DEB7809105209091062087309105B5
:10581000FCF020914E3930914F3987E390E0B90187
:105820000E94DC7E8AE19BE00F920F92EDB7FEB7FB
:105830003196808391830E941A7F0F900F90209160
:105840004E3930914F398AE090E0B9010E94DC7EF8
:105850000E940127E0E0F0E480859185A285B38570
:105860000097A105B10519F41092423003C081E000
:10587000809342308CEC93E260E070E041E050E0D5
:105880000E94B27E80E00E94C528CF91DF910895EA
:105890000F931F93DF93CF9300D000D0CDB7DEB727
:1058A00069837A838B839C834D835E831092C023AC
:1058B0001092C1231092C2231092C323ED81FE8166
:1058C0008081882F90E0A0E0B0E0AC013327222750
:1058D0008091C0239091C123A091C223B091C32392
:1058E000822B932BA42BB52B8093C0239093C123A1
:1058F000A093C223B093C3238D819E81FC01319676
:105900008081882F90E0982F88279C01442737FDBD
:105910004095542F8091C0239091C123A091C22320
:10592000B091C323822B932BA42BB52B8093C02340
:105930009093C123A093C223B093C3238D819E81F2
:10594000FC0132968081282F30E040E050E08091C9
:10595000C0239091C123A091C223B091C323822B75
:10596000932BA42BB52B8093C0239093C123A0939A
:10597000C223B093C32307E410E68091C023909123
:10598000C123A091C223B091C323BC01CD010E94C9
:105990009C24DC01CB01F80182A393A3A4A3B5A3AB
:1059A000809105209091062086309105F4F1209198
:1059B0004E3930914F3986E390E0B9010E94DC7E88
:1059C0004AE25BE0ED81FE818081682F70E08D818D
:1059D0009E81FC0131968081282F30E08D819E814F
:1059E000FC0132968081882F90E0EDB7FEB73897A2
:1059F000EDBFFEBFEDB7FEB73196408351836283A2
:105A0000738324833583868397830E941A7F8DB79F
:105A10009EB708968DBF9EBF20914E3930914F3969
:105A20008AE090E0B9010E94DC7E8091CC23816005
:105A30008093CC238091C0239091C123A091C22355
:105A4000B091C3238030E1E09E07E1E0AE07E0E0E3
:105A5000BE0728F08091CC2388608093CC2380E01F
:105A60002696CDBFDEBFCF91DF911F910F91089594
:105A70002F923F924F925F926F927F928F929F925E
:105A8000AF92BF92CF92DF92EF92FF920F931F934C
:105A9000DF93CF93CDB7DEB72F97CDBFDEBF69873A
:105AA0007A878B879C874D875E8789859A85AB85AA
:105AB000BC8583309105A105B10569F489859A8576
:105AC000AB85BC852D853E85BC01CD01A9010E9419
:105AD000482C8F87BDC18091C0239091C123A09194
