:100000000C94FA000C9420010C9420010C94200113
:100010000C9420010C9420010C9420010C942001DC
:100020000C9420010C9420010C9420010C942001CC
:100030000C9420010C9420010C9420010C942001BC
:100040000C9420010C9420010C9420010C942001AC
:100050000C9420010C9420010C9420010C9420019C
:100060000C9420010C9420010C9420010C9420018C
:100070000C94F6340C9453350C943B350C942001BD
:100080000C9420010C9420010C9420010C9420016C
:100090000C9420010C9420010C9420010C9420015C
:1000A0000C9420010C9420010C9420010C9420014C
:1000B0000C9420010C9420010C9420010C9420013C
:1000C0000C9420010C9420010C9420010C9420012C
:1000D0000C9420010C9420010C9420010C9420011C
:1000E0000C9420010C9420010C9493360C94FF3650
:1000F0000C94E7360C9420010C9420010C94200100
:100100000C9420010C9420010C9420010C942001EB
:100110000C9420010C9420010C9420010C942001DB
:100120000C9420010C9420010C9420010C942001CB
:100130000C9420010C9420010C9420010C942001BB
:100140000C9420010C9420010C9420010C942001AB
:100150000C9420010C9420010C9420010C9420019B
:100160000C9408330C9474330C945C330C9420017D
:100170000C9420010C9420010C9420010C9420017B
:100180000C9420010C9420010C9420010C9420016B
:100190000C9420010C9420010C9420010C9420015B
:1001A0000C9420010C9420010C9420010C94220149
:1001B0000C9420010C9420010C9420010C9420013B
:1001C0000C9420010C9420010C9420010C9420012B
:1001D0000C9420010C9420010C9420010C9420011B
:1001E0000C9420010C9420010C9420010C9420010B
:1001F0000C94200111241FBECFEFDFE3DEBFCDBF83
:1002000000E00CBF18BE19BE1ABE1BBE1BE2A0E068
:10021000B0E2E8E6F8E700E00BBF02C007900D92FD
:10022000A430B107D9F71BBE18E3A4E0BBE201C0BC
:100230001D92A53AB107E1F70E94DC050C94323C0F
:100240000C9400001F920F920FB60F92009038008E
:100250000F92009039000F9200903B000F921124F2
:10026000109238001092390010923B002F933F9368
:100270004F935F936F937F938F939F93AF93BF93AE
:10028000EF93FF93DF93CF93CDB7DEB78FE098E383
:100290000E94CB30CF91DF91FF91EF91BF91AF9151
:1002A0009F918F917F916F915F914F913F912F918E
:1002B0000F9000923B000F90009239000F90009237
:1002C00038000F900FBE0F901F901895DF93CF93BB
:1002D000CDB7DEB7A897CDBFDEBF80E090E20E9429
:1002E00075368EE190E20E9475368EE290E20E94B1
:1002F000753680E490E20E94753682E590E20E94B5
:10030000753685E690E20E94753686E790E20E9497
:1003100075368DE890E20E94753684EA90E20E947C
:1003200075368AEB90E20E9475368EEC90E20E9460
:1003300075368FED90E20E9475368BEE90E20E944A
:1003400075368AEF90E20E947536E0E2F6E080852D
:10035000882F90E080719070009721F080E30E94D8
:10036000423603C081E30E944236E0E2F6E0808537
:10037000882F90E080729070009721F080E30E94B7
:10038000423603C081E30E944236E0E2F6E0808517
:10039000882F90E080749070009721F080E30E9495
:1003A000423603C081E30E944236E0E2F6E08085F7
:1003B000882324F480E30E94423603C081E30E9434
:1003C000423683E091E20E94753686E091E20E9417
:1003D00075368091203882958F70805D0E944236FC
:1003E000809120388F70805D0E9442368DE20E949D
:1003F000423680911F3882958F708170805D0E9497
:10040000423680911F388F70805D0E9442368DE2A7
:100410000E94423680911E3882958F708370805D75
:100420000E94423680911E388F70805D0E94423655
:1004300080E20E94423680911C3882958F708370D2
:10044000805D0E94423680911C388F70805D0E94D2
:1004500042368AE30E94423680911B3882958F7023
:100460008770805D0E94423680911B388F70805D5E
:100470000E9442368AE30E94423680911A38829561
:100480008F708770805D0E94423680911A388F701D
:10049000805D0E944236E0914223F09143238081A7
:1004A000482F50E0E0914223F09143238181682F4F
:1004B00070E0E0914423F09145238081A82FB0E0C3
:1004C000E0914423F09145238181282F30E08DB7BE
:1004D0009EB70C978DBF9EBFEDB7FEB73196CE018C
:1004E0000196808391838EE091E28283938344839B
:1004F000558366837783A087B187228733870E94DD
:1005000037398DB79EB70C968DBF9EBFCE01019631
:100510000E947536A896CDBFDEBFCF91DF910895BA
:10052000DF93CF930F920F92CDB7DEB71A820E945E
:10053000F23589838981803380F089818A3368F438
:100540008A818295807F8A8399818A81890F8053ED
:100550008A8389810E944236EACF8A810F900F9068
:10056000CF91DF910895DF93CF93CDB7DEB7EA97B0
:10057000CDBFDEBF1F82188613C08F819885FC0116
:10058000E050F04C8081882F90E089839A838981A4
:100590009A81009749F48F81988501968F83988777
:1005A0008F81988599234CF78F81988520E880303A
:1005B0009207E1F000D000D0EDB7FEB73196CE0142
:1005C0000996808391838BE291E2828393838F816A
:1005D0009885848395830E9437398DB79EB7069698
:1005E0008DBF9EBFCE0109960E9475361D821E8268
:1005F0001B821C821F8218861EC08F819885817085
:100600009070882339F08F819885892F9927898365
:100610009A8305C08F819885907089839A838F8192
:100620009885FC01E050F04C898180838F8198850A
:1006300001968F8398878F8198859923F4F61F827E
:10064000188642C08F819885FC01E050F04C808173
:10065000882F90E089839A838F819885817090702C
:100660008823B9F08F819885292F332789819A8132
:100670002817390721F18D819E8101968D839E83F4
:100680008B819C810097D9F48F8198858B839C8383
:1006900016C08F8198859C01307089819A812817B6
:1006A000390769F08D819E8101968D839E838B81B0
:1006B0009C81009721F48F8198858B839C838F8107
:1006C000988501968F8398878F81988599230CF060
:1006D000B9CF8D819E81009721F18DB79EB7089784
:1006E0008DBF9EBFEDB7FEB73196CE0109968083D0
:1006F000918383E591E2828393838D819E818483BC
:1007000095838B819C81868397830E9437398DB72F
:100710009EB708968DBF9EBFCE0109960E94753682
:1007200004C08DE791E20E9475361F8218860BC0C7
:100730008F819885FC01E050F04C10828F81988564
:1007400001968F8398878F81988599238CF7EA96F5
:10075000CDBFDEBFCF91DF910895DF93CF9300D05F
:10076000CDB7DEB789836A837B8389818A3031F490
:100770002A813B818DE0B9010E94AD0389810E94ED
:10078000423680E090E02396CDBFDEBFCF91DF916F
:100790000895DF93CF93CDB7DEB78091042B8823E4
:1007A00039F481E08093042BE0E0F6E080E185837A
:1007B000CF91DF910895DF93CF93CDB7DEB78091CE
:1007C000042B813031F41092042BE0E0F6E080E15C
:1007D0008683CF91DF9108950F93DF93CF93CDB7A9
:1007E000DEB72997CDBFDEBFE0E6F6E08085882F33
:1007F00090E082709070009729F0E0E6F6E082E0E9
:10080000868304C0E0E6F6E082E085831B828FE009
:1008100098E39E012D5F3F4F6FE6A90121E000E0C4
:100820000E944730809126388823E1F781E090E0EC
:1008300089839A8305C089819A81019689839A83E5
:1008400089819A810097B9F78FE098E36FE640E0DD
:1008500050E020E007E00E9447308091263888234E
:10086000E1F78091052B282F30E080911A38882FEE
:1008700090E08F77907028173907C1F080911A386F
:100880008F778093052B8091F7319091F831A0916B
:10089000F931B091FA310196A11DB11D8093F73164
:1008A0009093F831A093F931B093FA31809191216E
:1008B000282F30E080911B38882F90E08F77907040
:1008C0002817390709F483C080911B388F778093EC
:1008D00091218091282F8F5F8093282FE0914223D0
:1008E000F091432380818E83E0914223F091432352
:1008F00081818F83E0914423F09145238081888713
:10090000E0914423F091452381818987CE010696A9
:100910009E01285F3F4FB90142E050E00E949538A8
:10092000009709F454C080911C388F738C83809198
:100930001B388F778D83CE0106969E01285F3F4F2F
:10094000B90142E050E00E9495381816190614F5D6
:10095000CE0104969E012A5F3F4FB90142E050E06C
:100960000E94953899231CF00E94C90330C0CE0123
:1009700008969E012C5F3F4FB90142E050E00E9473
:100980009538181619061CF40E94C90320C00E944D
:10099000DB031DC0CE0104969E012A5F3F4FB901C3
:1009A00042E050E00E94953899237CF0CE010496F5
:1009B0009E01285F3F4FB90142E050E00E94953808
:1009C00099231CF40E94C90302C00E94DB032996EC
:1009D000CDBFDEBFCF91DF910F910895DF93CF930D
:1009E000CDB7DEB76B97CDBFDEBF1A821B823BC08F
:1009F00000D000D0EDB7FEB73196CE0108968083C7
:100A0000918380EA91E282839383CE01039684836B
:100A100095830E9437398DB79EB706968DBF9EBFCE
:100A2000CE0108960E9475360E94F235898389812D
:100A30008033C8F089818A33B0F48A81282F30E06E
:100A4000CE010396FC01E20FF31F898180838A8126
:100A50008F5F8A838A81282F30E0CE010396FC01C4
:100A6000E20FF31F10828A81843010F200D000D090
:100A7000EDB7FEB73196CE0108968083918380EA68
:100A800091E282839383CE010396848395830E94AF
:100A900037398DB79EB706968DBF9EBFCE0108969B
:100AA0000E9475368AE998E39E012D5F3F4FB90198
:100AB0000E94B2380E94192DE0E0F0E180919A384E
:100AC0008083E1E0F0E180919B388083E2E0F0E117
:100AD00080919C388083E3E0F0E180919D388083B1
:100AE00080E00E94D82D80E00E94142E0E94192DD3
:100AF0006B96CDBFDEBFCF91DF910895DF93CF938B
:100B00000F92CDB7DEB70E94252DA0ECB1E0E0EC4E
:100B1000F1E0848588601C968C931C97E0E0F0E1FE
:100B2000808180939A38E1E0F0E1808180939B3866
:100B3000E2E0F0E1808180939C38E3E0F0E18081A5
:100B400080939D3810929E38198219C08981882F10
:100B500090E0FC01E656F74C8081803368F0898193
:100B6000882F90E0FC01E656F74C80818A3320F410
:100B700089818F5F898303C00E94EE0403C089814D
:100B8000843020F30F90CF91DF910895DF93CF93BE
:100B9000CDB7DEB7E0E0F6E080E18583CF91DF916D
:100BA0000895DF93CF93CDB7DEB7E0E0F6E080E1C4
:100BB0008683CF91DF910895EF92FF920F931F9359
:100BC000DF93CF93CDB7DEB72997CDBFDEBF0E94AD
:100BD0004A2C86E990E061E00E94CA2B81E090E017
:100BE0008B839C8305C08B819C8101968B839C8326
:100BF0008B819C810097B9F7E0EEF6E083E0858376
:100C0000E0EEF6E087E08183E0E0F7E01282E0E2E8
:100C1000F7E08FEF818382E991E28093A13890938E
:100C2000A23880E460E04CE021E00E946B2E80E579
:100C300094E060E220E030E440E050E000E00E9418
:100C4000CE2EE0ECF7E081E08583E0ECF7E081E098
:100C50008183E0E0F6E080EF8683E0E0F6E080EF7D
:100C60008183E0E2F6E080EF8283E0E6F6E082E076
:100C70008683E0E6F6E082E08183E0E4F6E080E26D
:100C80008683E0E4F6E080E281830E94D6330E940E
:100C9000A7350E9461378FE098E360EB74E040E491
:100CA0002EE80E94B12F7894A0EAB0E0E0EAF0E0EC
:100CB0008281816012968C930E947E05E09146238A
:100CC000F09147238081918101968083918387E011
:100CD00090E08093AF219093B0211092283881E169
:100CE0008093293881E191E10E94BD0980932A38DF
:100CF00090932B3861E171E181E191E10E94CC098F
:100D0000DC01CB0180932C3890932D38A0932E38A2
:100D1000B0932F3863ED7BE084E09DEF0E94CC0917
:100D2000DC01CB018093303890933138A093323876
:100D3000B093333862E070E088EE90E80E94CC090E
:100D4000DC01CB018093343890933538A09336384A
:100D5000B09337388CE498E360E070E040E150E015
:100D60000E94AB388DEF80934C3884E080934D38EF
:100D70008BE080934E3883ED80934F3880E88093EA
:100D8000503888EE8093513881E08093533882E068
:100D900080935B3861E070E080E090E00E94CC09D5
:100DA000DC01CB018093483890934938A0934A38AE
:100DB000B0934B3888E398E360E070E040E150E0A6
:100DC0000E94AB3882E08093473880919A388093B4
:100DD000443880919B388093453880919C3880932B
:100DE000463880919D388093473810925D38109234
:100DF0005E3810925C380E94921C8091F73190917D
:100E0000F831A091F931B091FA318093092F909384
:100E10000A2FA0930B2FB0930C2F0E94EC030E947B
:100E20009B2A86E09BE227E03BE2E9E0FBE2B90196
:100E300040E054E09F010E94F9098823D9F16091B4
:100E4000062B8091072B9091082B9C0140E050E0ED
:100E5000E9E0FBE2862FBA01A9019F010E942C2143
:100E6000882341F18091AF219091B0218330910589
:100E7000FCF02091A1383091A23883E390E0B901D1
:100E80000E94C1380F920F92EDB7FEB7319684EBF6
:100E900091E2808391830E94ED380F900F90209112
:100EA000A1383091A2388AE090E0B9010E94C1389F
:100EB0000E94921C0E94142B882331F18091AF2153
:100EC0009091B02183309105FCF02091A1383091B0
:100ED000A23883E390E0B9010E94C1380F920F92CB
:100EE000EDB7FEB7319682EE91E2808391830E9446
:100EF000ED380F900F902091A1383091A2388AE000
:100F000090E0B9010E94C1382091F7313091F83159
:100F10004091F9315091FA318091092F90910A2F27
:100F2000A0910B2FB0910C2F79018A01E81AF90AD0
:100F30000A0B1B0BD801C70183309105A105B10530
:100F4000E8F18091F7319091F831A091F931B091A9
:100F5000FA318093092F90930A2FA0930B2FB0930F
:100F60000C2F81E00E948919882341F18091AF21E3
:100F70009091B02183309105FCF02091A1383091FF
:100F8000A23883E390E0B9010E94C1380F920F921A
:100F9000EDB7FEB7319684EB91E2808391830E9496
:100FA000ED380F900F902091A1383091A2388AE04F
:100FB00090E0B9010E94C1380E94921C0E94D9356C
:100FC000882309F42ACF0E94F2358A830E946601A1
:100FD0008A81282F30E000D00F92EDB7FEB731960E
:100FE0008CEF91E280839183228333830E94ED38DA
:100FF0000F900F900F900F908A81082F10E00887B4
:101000001987288539852733310509F4CAC08885B1
:101010009985883391055CF5E885F985E333F10519
:1010200009F474C008851985043311059CF42885DA
:1010300039852133310509F457C088859985823374
:1010400091050CF05AC0E885F985E033F10509F403
:1010500055C1E3CE088519850533110509F46EC025
:1010600028853985263331050CF07BC058C088852A
:1010700099858435910509F447C1E885F985E535F9
:10108000F1059CF4088519850933110509F4ACC0F4
:1010900028853985293331050CF4A3C088859985C5
:1010A0008035910509F42DC1B8CEE885F985E23681
:1010B000F10509F45EC108851985033611053CF474
:1010C000288539852136310509F44FC1A6CE88859A
:1010D00099858037910509F414C1E885F985E437CD
:1010E000F10509F411C199CE64E07EEF8FEF9FEF17
:1010F00042E021E00E943E0E90CE64E07EEF8FEF52
:101100009FEF42E02FE70E943E0E87CE64E07EEF25
:101110008FEF9FEF42E02FEF0E943E0E7ECEE0E089
:10112000F6E08085882F90E080719070009719F02C
:101130000E94D10572CE0E94C6056FCEE0E4F6E0B3
:101140008085882F90E080729070009729F0E0E40D
:10115000F6E080E2868361CEE0E4F6E080E285831B
:101160005CCE85E092E20E94D83486E192E20E9451
:10117000753680E492E20E9475360E94F23582E56F
:1011800092E20E94753604C00E941B340E944236CF
:101190000E9408348823C1F783E091E20E947536EB
:1011A0003CCE8AE692E20E94EA328BE792E20E940B
:1011B000753680E492E20E9475360E94F23585EA27
:1011C00092E20E94753604C00E9469320E94423643
:1011D0000E941A328823C1F783E091E20E9475369B
:1011E0001CCE0E94B30219CE8DEB92E20E9475369E
:1011F0000E949002898386E08D8389818E838FE0AF
:1012000098E39E012B5F3F4F6FE6A90122E000E0CB
:101210000E944730809126388823E1F789EC92E2DA
:101220000E9475360E949002898385E08D838981B2
:101230008F718E838FE098E39E012B5F3F4F6FE6A7
:10124000A90122E000E00E944730809126388823DF
:10125000E1F786ED92E20E9475360E949002898342
:1012600084E08D8389818F738E838FE098E39E0164
:101270002B5F3F4F6FE6A90122E000E00E9447305C
:10128000809126388823E1F782EE92E20E9475363B
:101290000E949002898382E08D8389818F738E837F
:1012A00088E08F838FE098E39E012B5F3F4F6FE6CE
:1012B000A90123E000E00E9447308091263888236E
:1012C000E1F78EEE92E20E9475360E9490028983C9
:1012D0001D8280E88E8389818F778F838FE098E3EA
:1012E0009E012B5F3F4F6FE6A90123E000E00E94C3
:1012F0004730809126388823E1F78FCD0E94921CD9
:101300008CCD0E94EE0489CD8CEF92E20E9475365E
:1013100000914223109143230E949002F8018083A0
:101320008BE093E20E947536009142231091432393
:101330000E949002F80181838CE193E20E9475364D
:1013400000914423109145230E949002F80180836C
:101350008CE293E20E94753600914423109145235C
:101360000E949002F801818358CD81E080939638E5
:1013700054CD81E08093993850CDDF93CF930F9275
:101380000F92CDB7DEB789839A8399818A810F90B6
:101390000F90CF91DF910895DF93CF9300D00F92FC
:1013A000CDB7DEB769837A838B839C8329813A81A9
:1013B000922F832FCC01A0E0B0E0BC015527442739
:1013C00089819A81AB81BC81CD01AA27BB279C0171
:1013D000922F832FCC01A0E0B0E0842B952BA62B7D
:1013E000B72BBC01CD012496CDBFDEBFCF91DF91DD
:1013F0000895DF93CF93CDB7DEB72E97CDBFDEBF75
:101400008A839B836C837D834E835F8328873987A0
:10141000DCC08981282F30E02D873E878D859E8511
:1014200082309105A1F02D853E852330310599F05C
:101430008D859E858130910589F510920E2F109231
:101440000F2F10920D2F81E08093112FBEC081E0ED
:1014500080930D2FBAC0EC81FD81208131818E8176
:101460009F818217930718F41092112FAEC0EA8162
:10147000FB818081EC81FD81208131814885598506
:10148000B9010E94560B982F8091102F981709F0E0
:101490009CC01092112F91E09C879FC080910D2FCE
:1014A000882331F0898190E18927898310920D2F5B
:1014B0008091112F282F30E02A873B878A859B85D2
:1014C0008230910561F12A853B85233031055CF43A
:1014D0008A859B85009709F478C02A853B85213051
:1014E000310599F070C08A859B858430910509F497
:1014F00044C02A853B852430310504F18A859B85CB
:101500008530910509F442C05EC08981EA81FB8182
:1015100080838091112F8F5F8093112F56C0898116
:10152000882F90E0982F8827EC81FD81808391831C
:101530008091112F8F5F8093112F47C0EC81FD8127
:10154000208131818981882F90E0820F931FEC8167
:10155000FD8180839183EC81FD81208131818E81A9
:101560009F818217930718F41092112F2EC080913B
:10157000112F8F5F8093112F28C089818093102FA6
:101580008091112F8F5F8093112F1FC0EC81FD81FF
:101590002081318180910E2F90910F2F8217930718
:1015A000A0F420910E2F30910F2F88859985FC0192
:1015B000E20FF31F89818083C901019680930E2F6A
:1015C00090930F2F02C01092112FCE0101960E940E
:1015D000BD0B882309F01DCF1C868C852E96CDBFB0
:1015E000DEBFCF91DF910895DF93CF93CDB7DEB704
:1015F0002797CDBFDEBF8B836C837D834E835F8354
:1016000081E061E00E94940B99230CF449C080E0D2
:101610006B810E94940B99230CF442C08C819D81B4
:10162000892F9927982F80E0692F0E94940B992386
:10163000BCF19C8180E0692F0E94940B992384F176
:101640002C813D814E815F818B81B9010E94560BB7
:10165000982F80E0692F0E94940B99230CF1198236
:101660001A8213C029813A818E819F81FC01E20F89
:10167000F31F908180E0692F0E94940B992384F0DE
:1016800089819A81019689839A8329813A818C8103
:101690009D812817390730F381E063E00E94940BA5
:1016A0002796CDBFDEBFCF91DF910895DF93CF9313
:1016B000CDB7DEB72897CDBFDEBF8C836D837E8329
:1016C0004F835887198299818C81892789838D81DD
:1016D0009E81892F9927982F8981892789839D81C8
:1016E0008981892789831A821B8210C02A813B81C4
:1016F0008F819885FC01E20FF31F908189818927F2
:1017000089838A819B8101968A839B832A813B817D
:101710008D819E812817390748F389812896CDBF8E
:10172000DEBFCF91DF910895DF93CF9300D00F926A
:10173000CDB7DEB789836A838981882389F48A815A
:10174000803170F49A8180E189278A8382E00E9447
:10175000B73299232CF48FEF9FEF8B839C8305C0C6
:101760008A810E94B7328B839C838B819C812496D3
:10177000CDBFDEBFCF91DF910895DF93CF930F925E
:101780000F92CDB7DEB789839A8389819A810E94AF
:1017900032320F900F90CF91DF910895DF93CF9366
:1017A00000D0CDB7DEB78A839B831982EA81FB81A3
:1017B00080818A3330F4EA81FB8180818053898380
:1017C00005C0EA81FB818081875389838981829565
:1017D000807F89838A819B8101968A839B83EA81AA
:1017E000FB8180818A3348F4EA81FB8180818053C8
:1017F000982F8981892B898308C0EA81FB818081A8
:101800008753982F8981892B898389812396CDBF1E
:10181000DEBFCF91DF910895DF93CF93CDB7DEB7D1
:101820006497CDBFDEBF6F87788B898B9A8B4B8B8C
:101830005C8B8F85988981709070882399F02F85B3
:1018400038898B899C89FC01E20FF31F10828F85F8
:101850009889A989BA890196A11DB11D8F87988B96
:10186000A98BBA8B8B899C89FC01BE968081882FBD
:1018700090E0382F22278B899C89FC01BF968081BC
:10188000882F90E0822B932BCC01A0E0B0E08B87D7
:101890009C87AD87BE878B899C89FC0134968081AB
:1018A000882F90E0382F22278B899C89FC01359660
:1018B0008081882F90E0822B932BCC01A0E0B0E0B8
:1018C0008F839887A987BA878B899C89FC01369674
:1018D0008081882F90E0A0E0B0E08B839C83AD8373
:1018E000BE832F81388549855A858B819C81AD8146
:1018F000BE81820F931FA41FB51F8B879C87AD8766
:10190000BE878B899C89089689839A834FC0E98119
:10191000FA818081882F90E0382F222789819A814F
:10192000FC0131968081882F90E0822B932BCC0193
:10193000A0E0B0E08B839C83AD83BE832B853C8588
:101940004D855E858B819C81AD81BE81820F931F09
:10195000A41FB51F8B879C87AD87BE8717C08B855B
:101960009C85AD85BE859C01AD01407050708B8516
:101970009C85AD85BE85CD01AA27BB27820F931F0D
:10198000A41FB51F8B879C87AD87BE878B859C85E1
:10199000AD85BE85CD01AA27BB270097A105B1055E
:1019A000F1F689819A81029689839A832F853889F5
:1019B0008B899C89280F391F89819A818217930707
:1019C00008F4A5CF8B859C8580959095CC01A0E0EF
:1019D000B0E08B879C87AD87BE878B859C8564969E
:1019E000CDBFDEBFCF91DF9108950F931F93DF939B
:1019F000CF93CDB7DEB7C557D040CDBFDEBFFE0118
:101A0000E559FF4F80839183FE01E359FF4F6083C7
:101A10007183FE01E159FF4F208331834283538359
:101A2000FE01ED58FF4F0083118380E68F831886F7
:101A300019861A86FE01E159FF4F80819181A281AA
:101A4000B3810896A11DB11D892F9A2FAB2FBB27FB
:101A50008B87FE01E159FF4F8081885F8C8781E190
:101A60008D8780E48E87CE0107960896FE01E559A2
:101A7000FF4F20813181B90140E150E00E94A2383E
:101A8000CE0107964896FE01E359FF4F2081318130
:101A9000B90140E150E00E94A23883ED8FA78DEE9E
:101AA00088AB87E089AB81E58AABFE01E159FF4F46
:101AB00080819181A281B3810896A11DB11D892FDA
:101AC0009A2FAB2FBB278BABFE01E159FF4F8081D3
:101AD000885F8CAB1DAA1EAAFE01E159FF4F408111
:101AE0005181CE010796C096FE01ED58FF4F20812F
:101AF0003181B9010E94A2389E0121593F4FFE0158
:101B0000E159FF4F80819181A281B381C096A11DCF
:101B1000B11DF90180839183A283B383FE01E15952
:101B2000FF4F80819181A281B381FE01ED58FF4F6B
:101B300020813181BC01CD01A9010E940C0C8D8353
:101B40009E838D819E81892F99278DAB8D818EAB50
:101B50008091AF219091B021873091050CF443C062
:101B600019821A821B821C8225C089819A81FE01FA
:101B70003796E80FF91F8081282F30E000D00F92B0
:101B8000EDB7FEB7319688E493E280839183228398
:101B900033830E94ED380F900F900F900F90898142
:101BA0009A81AB81BC810196A11DB11D89839A8365
:101BB000AB83BC83FE01E159FF4F29813A814B8100
:101BC0005C8180819181A281B381281739074A07FE
:101BD0005B0758F22091A1383091A2388AE090E05A
:101BE000B9010E94C138FE01E159FF4F8081918106
:101BF000A281B3819E01295F3F4FBC01CD01A901A4
:101C00000E943418882359F18091AF219091B0211E
:101C100083309105FCF02091A1383091A23883E304
:101C200090E0B9010E94C1380F920F92EDB7FEB754
:101C300031968DE493E2808391830E94ED380F907A
:101C40000F902091A1383091A2388AE090E0B9013C
:101C50000E94C138F1E0E696FFAFE69703C0E69632
:101C60001FAEE697E6968FADE697CB58DF4FCDBF18
:101C7000DEBFCF91DF911F910F9108950F931F93B6
:101C8000DF93CF93CDB7DEB7E197CDBFDEBF6CA7B3
:101C90007DA78EA79FA748AB29AB8EEF8C8F80E8DE
:101CA0008D8F1E8E1F8E18A219A21AA21BA21CA213
:101CB0001DA21EA21FA218A619A61AA681E08BA714
:101CC0008FEF8C8785E18D871E861F86188A198A7B
:101CD0001A8A1B8A1C8A1D8A1E8A1F8A188E198ED0
:101CE00080EF8A8F8FE08B8F19828DE18A830E942B
:101CF00067388F778B838CA59DA5AEA5BFA58B2F4D
:101D00009927AA27BB278C838CA59DA5AEA5BFA527
:101D1000CD01AA27BB278D838CA59DA5AEA5BFA508
:101D2000892F9A2FAB2FBB278E838CA58F8388A9F1
:101D30008887198684E08A8789A98B87CE014C968B
:101D40009E01245F3F4FB9012BE030E040E050E0BE
:101D5000FE0131968F010E94F50CE196CDBFDEBFEA
:101D6000CF91DF911F910F910895AF92BF92CF92C3
:101D7000DF92EF92FF920F931F93DF93CF93CDB734
:101D8000DEB7E397CDBFDEBF6DA77EA78FA798AB69
:101D900049AB5AAB89A99AA9FC01BE968081882FCC
:101DA00090E0382F222789A99AA9FC01BF9680814B
:101DB000882F90E0822B932B8B8B9C8B89A99AA9DF
:101DC000FC0134968081882F90E0382F222789A942
:101DD0009AA9FC0135968081882F90E0822B932B65
:101DE0008F87988B89A99AA9FC0136968081882FC4
:101DF00090E08D879E878091AF219091B0218730B0
:101E000091050CF4ABC08091AF219091B021873047
:101E100091055CF12091A1383091A23887E390E0E0
:101E2000B9010E94C13800D000D0EDB7FEB731969D
:101E30008CE693E2808391838DA59EA5AFA5B8A97A
:101E400082839383A483B5830E94ED380DB71EB7B8
:101E50000A5F1F4F0DBF1EBF2091A1383091A238DD
:101E60008AE090E0B9010E94C1388091AF21909141
:101E7000B021873091058CF12091A1383091A238A2
:101E800087E390E0B9010E94C1388DB79EB70897EB
:101E90008DBF9EBFEDB7FEB7319688E893E2808391
:101EA00091838D859E85828393838F859889848392
:101EB00095838B899C89868397830E94ED38EDB743
:101EC000FEB73896EDBFFEBF2091A1383091A23801
:101ED0008AE090E0B9010E94C13819861A861B86F3
:101EE0001C8626C029853A8589A99AA9FC01E20F9A
:101EF000F31F8081282F30E000D00F92EDB7FEB79E
:101F0000319688E493E280839183228333830E9415
:101F1000ED380F900F900F900F9089859A85AB85C3
:101F2000BC850196A11DB11D89879A87AB87BC87A7
:101F300029853A854B855C858DA59EA5AFA5B8A959
:101F4000281739074A075B0768F22091A1383091BA
:101F5000A2388AE090E0B9010E94C13889A99AA903
:101F6000FC0136968081813109F0CEC28DA59EA5F7
:101F7000AFA5B8A929A93AA9BC01CD01A9010E9420
:101F80000C0C898B9A8B89899A89009791F18B899E
:101F90009C89009771F18091AF219091B021873099
:101FA00091050CF4B1C22091A1383091A23887E399
:101FB00090E0B9010E94C13800D00F92EDB7FEB792
:101FC00031968BEA93E28083918389899A8982830F
:101FD00093830E94ED380F900F900F900F902091F7
:101FE000A1383091A2388AE090E0B9010E94C1384E
:101FF0008BC289A99AA948962CE438E3B90140E13B
:1020000050E00E949538009709F07EC289A99AA9EC
:102010008A5B9F4F0E94CE0B8D8B89A99AA9885B02
:102020009F4F0E94CE0B8E8B89A99AA9865B9F4FEA
:102030000E94CE0B8F8B89A99AA9845B9F4F0E9427
:10204000CE0B888F89A99AA9825B9F4F0E94CE0BE5
:10205000898F89A99AA9805B9F4F0E94CE0B8A8F96
:1020600089A99AA98E5A9F4F0E94CE0B8B8F89A95E
:102070009AA98C5A9F4F0E94CE0B8C8F8091AF21D2
:102080009091B021873091050CF44DC02091A1387A
:102090003091A23887E390E0B9010E94C1388D8960
:1020A000282F30E08E89482F50E08F89682F70E00C
:1020B000888DA82FB0E0898D082F10E08A8DE82E3A
:1020C000FF248B8DC82EDD248C8DA82EBB248DB7CC
:1020D0009EB742978DBF9EBFEDB7FEB7319688EC95
:1020E00093E2808391832283338344835583668381
:1020F0007783A087B18702871387E486F586C68633
:10210000D786A08AB18A0E94ED38EDB7FEB77296E5
:10211000EDBFFEBF2091A1383091A2388AE090E057
:10212000B9010E94C13889A99AA99C01285F3F4F33
:10213000CE014D96B90140E150E00E94A23889A934
:102140009AA9AC01485F5F4F89A99AA99C01285EB2
:102150003F4FCA01B90140E150E00E94A23889A96D
:102160009AA948969E01235E3F4FB90140E150E095
:102170000E94A23889A99AA99C01285D3F4FCE01EF
:102180004D96B90142E050E00E94A23889A99AA96F
:10219000AC01485D5F4F89A99AA99C01265D3F4F1C
:1021A000CA01B90142E050E00E94A23889A99AA967
:1021B0008A969E01235E3F4FB90142E050E00E94A3
:1021C000A23889A99AA9FC01BE96108289A99AA968
:1021D000FC01BF96108289A99AA9FC01F09682E0C1
:1021E000808389A99AA98C010F5C1F4F0E946738D0
:1021F000F801808389A99AA9FC01EC5BFF4F8AE171
:10220000808389A99AA9FC01EB5BFF4F88E1808359
:1022100089A99AA9FC01EA5BFF4F108289A99AA9B2
:10222000FC01E95BFF4F108289A99AA9FC01E85BD8
:10223000FF4F8DE6808389A99AA9FC01E75BFF4FD8
:1022400089EE808389A99AA9FC01E65BFF4F84E6A9
:10225000808389A99AA9FC01E55BFF4F82E1808315
:102260001D821E821F8218863DC08D819E81880F2F
:10227000991F9C01245B3F4F89A99AA9FC01E20F99
:10228000F31F10828D819E81880F991F9C01235B13
:102290003F4F89A99AA9BC01620F731F27E030E064
:1022A00040E050E08D819E81AF81B88579018A013F
:1022B000E81AF90A0A0B1B0BD801C7019E012B5E15
:1022C0003F4FF901E80FF91F8081FB0180838D8169
:1022D0009E81AF81B8850196A11DB11D8D839E831E
:1022E000AF83B8878D819E81AF81B8858830910595
:1022F000A105B10508F4B9CF8CE290E0898B9A8BE7
:102300001D821E821F82188619C08D819E819C01AC
:102310002C5C3F4F89A99AA98C01020F131F0E94C0
:102320006738F80180838D819E81AF81B8850196E1
:10233000A11DB11D8D839E83AF83B8878D819E8142
:10234000AF81B88580319105A105B105F0F289A969
:102350009AA9FC01F29689899A89892F9927808305
:1023600089A99AA9FC01F3968989808389899A8928
:102370000896898B9A8B89A99AA9FC013496898938
:102380009A89892F9927808389A99AA9FC01359672
:102390008989808389A99AA9FC01379680E4808382
:1023A00089A99AA9FC01BC9689899A89892F9927BC
:1023B000808389A99AA9FC01BD968989808389892E
:1023C0009A898896CC01A0E0B0E08DA79EA7AFA720
:1023D000B8AB8DA59EA5AFA5B8A929A93AA9BC01FE
:1023E000CD01A9010E940C0C898B9A8B89A99AA90D
:1023F000FC01BE9689899A89892F9927808389A9AA
:102400009AA9FC01BF96898980838091AF21909120
:10241000B021873091050CF441C019821A821B82C9
:102420001C8226C029813A8189A99AA9FC01E20F60
:10243000F31F8081282F30E000D00F92EDB7FEB758
:10244000319688E493E280839183228333830E94D0
:10245000ED380F900F900F900F9089819A81AB818A
:10246000BC810196A11DB11D89839A83AB83BC8376
:1024700029813A814B815C818DA59EA5AFA5B8A924
:10248000281739074A075B0768F22091A138309175
:10249000A2388AE090E0B9010E94C1388DA59EA5BE
:1024A000AFA5B8A929A93AA9BC01CD01A9010E94EB
:1024B0003418882349F18091AF219091B021833065
:1024C0009105FCF02091A1383091A23883E390E08F
:1024D000B9010E94C1380F920F92EDB7FEB7319645
:1024E0008DE493E2808391830E94ED380F900F90EA
:1024F0002091A1383091A2388AE090E0B9010E9481
:10250000C138F1E0FBAB01C01BAA8BA9E396CDBF9C
:10251000DEBFCF91DF911F910F91FF90EF90DF9081
:10252000CF90BF90AF9008952F923F924F925F92BD
:102530006F927F928F929F92AF92BF92CF92DF92D3
:10254000EF92FF920F931F93DF93CF93CDB7DEB738
:102550002C97CDBFDEBF89839A836B837C83E9810F
:10256000FA818081282F30E0E981FA818181482F2A
:1025700050E0E981FA818281682F70E0E981FA8177
:102580008381A82FB0E0E981FA818481082F10E0CF
:10259000E981FA818581E82EFF24E981FA8186812B
:1025A000C82EDD24E981FA818781A82EBB24E98128
:1025B000FA818085882E9924E981FA818185682EA7
:1025C0007724E981FA818285482E5524E981FA81B0
:1025D0008385282E3324E981FA818485E82FF0E071
:1025E000EB87FC87E981FA818585E82FF0E0E987B0
:1025F000FA87E981FA818685E82FF0E0EF83F88792
:10260000E981FA818785E82FF0E0ED83FE838DB7BD
:102610009EB786978DBF9EBFEDB7FEB731968B8173
:102620009C81808391838EE290E0828393838FEFFD
:1026300093E284839583268337834087518762871B
:102640007387A487B58706871787E08AF18AC28ACD
:10265000D38AA48AB58A868A978A608E718E428EC2
:10266000538E248E358E8B859C85868F978F89859A
:102670009A8580A391A38F81988582A393A38D814E
:102680009E8184A395A30E94FF38EDB7FEB7B6964E
:10269000EDBFFEBF2C96CDBFDEBFCF91DF911F9166
:1026A0000F91FF90EF90DF90CF90BF90AF909F90F1
:1026B0008F907F906F905F904F903F902F900895F4
:1026C000EF92FF920F931F93DF93CF930F92CDB7AB
:1026D000DEB78091232F8170882309F460C1809137
:1026E000172F9091182FA091192FB0911A2F803089
:1026F00021E0920721E0A20720E0B20708F44FC1D1
:102700008091AF219091B021863091052CF12091DC
:10271000A1383091A23886E390E0B9010E94C13817
:1027200000D00F92EDB7FEB7319687E494E2808334
:10273000918380E190E0828393830E94ED380F9033
:102740000F900F900F902091A1383091A2388AE01D
:1027500090E0B9010E94C1388091AF219091B021E1
:10276000863091053CF12091A1383091A23886E362
:1027700090E0B9010E94C13880912838282F30E0BC
:1027800000D00F92EDB7FEB731968AE694E28083CF
:102790009183228333830E94ED380F900F900F9026
:1027A0000F902091A1383091A2388AE090E0B901D1
:1027B0000E94C1388091AF219091B021863091055F
:1027C0003CF12091A1383091A23886E390E0B90124
:1027D0000E94C13880912938282F30E000D00F9214
:1027E000EDB7FEB7319685E894E28083918322832A
:1027F00033830E94ED380F900F900F900F9020912F
:10280000A1383091A2388AE090E0B9010E94C13825
:102810008091AF219091B0218630910554F12091A3
:10282000A1383091A23886E390E0B9010E94C13806
:1028300080912A3890912B380E9435159C0100D048
:102840000F92EDB7FEB7319680EA94E280839183D0
:10285000228333830E94ED380F900F900F900F90DA
:102860002091A1383091A2388AE090E0B9010E940D
:10287000C1388091AF219091B02186309105A4F1AB
:102880002091A1383091A23886E390E0B9010E94EE
:10289000C13880912C3890912D38A0912E38B0916C
:1028A0002F38BC01CD010E9444159B01AC0100D022
:1028B00000D0EDB7FEB731968DEB94E28083918323
:1028C00022833383448355830E94ED388DB79EB7AE
:1028D00006968DBF9EBF2091A1383091A2388AE024
:1028E00090E0B9010E94C1388091AF219091B02150
:1028F000863091050CF449C02091A1383091A2385E
:1029000086E390E0B9010E94C138809130389091FF
:102910003138A0913238B0913338BC01CD010E94DA
:1029200044157B018C018091343890913538A09109
:102930003638B0913738BC01CD010E9444159B0157
:10294000AC018DB79EB70A978DBF9EBFEDB7FEB79E
:1029500031968BED94E280839183E282F38204834B
:10296000158326833783408751870E94ED388DB7C2
:102970009EB70A968DBF9EBF2091A1383091A23894
:102980008AE090E0B9010E94C13828E238E386E687
:1029900060E170E0A9010E94F40A19825DC0809193
:1029A000AF219091B021833091050CF453C0209158
:1029B000A1383091A23883E390E0B9010E94C13878
:1029C0008091172F9091182FA091192FB0911A2F45
:1029D000CD01AA27BB27BC016F7070708091172FA3
:1029E0009091182FA091192FB0911A2F892F9A2FFB
:1029F000AB2FBB279C012F7030708091172F9091C7
:102A0000182FA091192FB0911A2FAC014F70507050
:102A10008DB79EB708978DBF9EBFEDB7FEB73196B5
:102A200080E095E28083918362837383248335837E
:102A3000468357830E94ED388DB79EB708968DBFA9
:102A40009EBF2091A1383091A2388AE090E0B90170
:102A50000E94C13891E0998389810F90CF91DF91D5
:102A60001F910F91FF90EF900895DF93CF930F92F6
:102A70000F92CDB7DEB789839A8399818A810F90AF
:102A80000F90CF91DF910895DF93CF9300D00F92F5
:102A9000CDB7DEB769837A838B839C8389819A81E2
:102AA000AB81BC81BC01CD010E946015DC01CB0172
:102AB000BC01CD012496CDBFDEBFCF91DF9108953B
:102AC000DF93CF9300D00F92CDB7DEB769837A83BF
:102AD0008B839C8329813A81922F832FCC01A0E0A4
:102AE000B0E0BC015527442789819A81AB81BC8124
:102AF000CD01AA27BB279C01922F832FCC01A0E0F8
:102B0000B0E0842B952BA62BB72BBC01CD012496CE
:102B1000CDBFDEBFCF91DF910895DF93CF93CDB7C7
:102B2000DEB7CC55D040CDBFDEBF8091AF219091B4
:102B3000B021873091052CF12091A1383091A23835
:102B400087E390E0B9010E94C13800D00F92EDB741
:102B5000FEB7319686E395E28083918384E290E02C
:102B6000828393830E94ED380F900F900F900F9007
:102B70002091A1383091A2388AE090E0B9010E94FA
:102B8000C13828E338E38BE664E270E0A9010E94D3
:102B9000F40A80E0C45ADF4FCDBFDEBFCF91DF9192
:102BA0000895DF93CF930F92CDB7DEB780913E2388
:102BB00090913F23A0914023B09141238F3F2FEF6D
:102BC00092072FEFA2072FEFB20709F43FC08091C1
:102BD0003E2390913F23A0914023B09141238983CC
:102BE0008091AF219091B0218730910534F12091EF
:102BF000A1383091A23887E390E0B9010E94C13832
:102C00008981282F30E000D00F92EDB7FEB73196C2
:102C100089E595E280839183228333830E94ED3896
:102C20000F900F900F900F902091A1383091A23803
:102C30008AE090E0B9010E94C13881E761E070E06C
:102C40009E012F5F3F4FA9010E94F40A80E00F9080
:102C5000CF91DF910895DF93CF93CDB7DEB7809109
:102C6000172F9091182FA091192FB0911A2F803003
:102C700021E0920721E0A20720E0B207B0F18091A5
:102C8000AF219091B021873091053CF12091A1387E
:102C90003091A23887E390E0B9010E94C138809159
:102CA0005D38282F30E000D00F92EDB7FEB7319697
:102CB0008AE795E280839183228333830E94ED38F3
:102CC0000F900F900F900F902091A1383091A23863
:102CD0008AE090E0B9010E94C1382DE538E38EE624
:102CE00061E070E0A9010E94F40A80E0CF91DF91D9
:102CF0000895DF93CF93CDB7DEB78091172F9091D2
:102D0000182FA091192FB0911A2F803024E092072C
:102D100021E0A20720E0B20708F467C08091AF214C
:102D20009091B021873091053CF12091A1383091EC
:102D3000A23887E390E0B9010E94C13880915C38E5
:102D4000282F30E000D00F92EDB7FEB7319682EA1F
:102D500095E280839183228333830E94ED380F9024
:102D60000F900F900F902091A1383091A2388AE0F7
:102D700090E0B9010E94C1382CE538E382E761E0B8
:102D800070E0A9010E94F40A80915E38882369F1FD
:102D90008091AF219091B02187309105FCF0209176
:102DA000A1383091A23887E390E0B9010E94C13880
:102DB0000F920F92EDB7FEB7319684EC95E28083C7
:102DC00091830E94ED380F900F902091A13830919F
:102DD000A2388AE090E0B9010E94C13883E760E040
:102DE00070E040E050E00E94F40A80E0CF91DF9173
:102DF0000895DF93CF93CDB7DEB78091122F88234C
:102E000071F58091AF219091B02187309105FCF050
:102E10002091A1383091A23887E390E0B9010E9457
:102E2000C1380F920F92EDB7FEB731968FEE95E253
:102E3000808391830E94ED380F900F902091A138EC
:102E40003091A2388AE090E0B9010E94C13887E64B
:102E500060E070E040E050E00E94F40A92C080918F
:102E6000122F813071F58091AF219091B021873080
:102E70009105FCF02091A1383091A23887E390E0D1
:102E8000B9010E94C1380F920F92EDB7FEB731968B
:102E90008FE096E2808391830E94ED380F900F902F
:102EA0002091A1383091A2388AE090E0B9010E94C7
:102EB000C1388FE660E070E040E050E00E94F40A24
:102EC00060C08091122F823071F58091AF21909176
:102ED000B02187309105FCF02091A1383091A238C3
:102EE00087E390E0B9010E94C1380F920F92EDB7CD
:102EF000FEB731968AE296E2808391830E94ED3894
:102F00000F900F902091A1383091A2388AE090E084
:102F1000B9010E94C13880E760E070E040E050E015
:102F20000E94F40A2EC08091AF219091B02183308D
:102F300091053CF12091A1383091A23883E390E0D3
:102F4000B9010E94C1388091122F282F30E000D0A3
:102F50000F92EDB7FEB731968BE496E280839183B2
:102F6000228333830E94ED380F900F900F900F90C3
:102F70002091A1383091A2388AE090E0B9010E94F6
:102F8000C13880E0CF91DF910895DF93CF93CDB723
:102F9000DEB78091AF219091B02187309105FCF090
:102FA0002091A1383091A23887E390E0B9010E94C6
:102FB000C1380F920F92EDB7FEB7319683E696E2D5
:102FC000808391830E94ED380F900F902091A1385B
:102FD0003091A2388AE090E0B9010E94C13888E6B9
:102FE00060E070E040E050E00E94F40A80E0CF91A1
:102FF000DF910895DF93CF93CDB7DEB78091AF21F6
:103000009091B02187309105FCF02091A13830914A
:10301000A23887E390E0B9010E94C1380F920F9265
:10302000EDB7FEB7319689E796E2808391830E94DF
:10303000ED380F900F902091A1383091A2388AE09E
:1030400090E0B9010E94C1388091232F8D7F809339
:10305000232F89E660E070E040E050E00E94F40A2F
:1030600080E0CF91DF910895DF93CF9300D000D01F
:10307000CDB7DEB769837A838B839C834D835E8370
:1030800029813A814D815E8185E6B9010E94F40A69
:1030900080E02696CDBFDEBFCF91DF910895DF930C
:1030A000CF93CDB7DEB78091AF219091B02187301B
:1030B0009105FCF02091A1383091A23887E390E08F
:1030C000B9010E94C1380F920F92EDB7FEB7319649
:1030D00085E996E2808391830E94ED380F900F90EE
:1030E0002091A1383091A2388AE090E0B9010E9485
:1030F000C1388DE660E070E040E050E00E94F40AE4
:1031000080E0CF91DF910895DF93CF93CDB7DEB705
:103110008091AF219091B02187309105FCF02091F2
:10312000A1383091A23887E390E0B9010E94C138FC
:103130000F920F92EDB7FEB731968AEA96E280833E
:1031400091830E94ED380F900F902091A13830911B
:10315000A2388AE090E0B9010E94C13880E060E0C6
:1031600070E040E050E00E94F40A80E0CF91DF91EF
:103170000895DF93CF93CDB7DEB78091AF219091C3
:10318000B02187309105FCF02091A1383091A23810
:1031900087E390E0B9010E94C1380F920F92EDB71A
:1031A000FEB7319686EC96E2808391830E94ED38DB
:1031B0000F900F902091A1383091A2388AE090E0D2
:1031C000B9010E94C1388AE660E070E040E050E05A
:1031D0000E94F40A80E0CF91DF910895DF93CF93AE
:1031E00000D000D0CDB7DEB769837A838B839C8310
:1031F0004D835E838091232F8870882309F482C0D9
:103200008D819E81009741F18091AF219091B021F5
:10321000873091050CF476C02091A1383091A23806
:1032200087E390E0B9010E94C1380F920F92EDB789
:10323000FEB7319681EE96E2808391830E94ED384D
:103240000F900F902091A1383091A2388AE090E041
:10325000B9010E94C13856C08091F7319091F83180
:10326000A091F931B091FA3120911B2F30911C2F90
:1032700040911D2F50911E2F821B930BA40BB50B59
:103280008B309105A105B105E8F18091AF219091B6
:10329000B02187309105FCF02091A1383091A238FF
:1032A00087E390E0B9010E94C1380F920F92EDB709
:1032B000FEB7319686EE96E2808391830E94ED38C8
:1032C0000F900F902091A1383091A2388AE090E0C1
:1032D000B9010E94C1388DE660E070E040E050E046
:1032E0000E94F40A8091F7319091F831A091F93160
:1032F000B091FA3180931B2F90931C2FA0931D2F18
:10330000B0931E2F80E02696CDBFDEBFCF91DF9118
:103310000895EF92FF920F931F93DF93CF9300D006
:103320000F92CDB7DEB789838091242FE82EFF243A
:10333000EB82FC820B811C810530110509F41EC152
:103340002B813C8126303105F4F48B819C818230C5
:10335000910509F4D2C00B811C810330110534F4AE
:103360002B813C812130310599F15AC28B819C819E
:103370008330910509F4CDC00B811C810430110507
:1033800009F4F6C04DC22B813C812830310509F487
:1033900068C18B819C81893091056CF40B811C8103
:1033A0000630110509F41DC12B813C812730310500
:1033B00009F41DC135C28B819C818930910509F4C6
:1033C0000CC20B811C810A30110509F41CC228C2F1
:1033D0008091232F8170882309F084C080911F2F52
:1033E0009091202FA091212FB091222F0097A1051D
:1033F000B10531F18091AF219091B02187309105D5
:10340000FCF02091A1383091A23887E390E0B90117
:103410000E94C1380F920F92EDB7FEB731968BEE36
:1034200096E2808391830E94ED380F900F90209157
:10343000A1383091A2388AE090E0B9010E94C138E9
:1034400080911F2F9091202FA091212FB091222F9A
:103450000196A11DB11D80931F2F9093202FA09343
:10346000212FB093222F80911F2F9091202FA09178
:10347000212FB091222F83309105A105B10548F588
:103480008091AF219091B02187309105FCF020917F
:10349000A1383091A23887E390E0B9010E94C13889
:1034A0000F920F92EDB7FEB7319687E097E28083D7
:1034B00091830E94ED380F900F902091A1383091A8
:1034C000A2388AE090E0B9010E94C1380E948418B5
:1034D000A7C110921F2F1092202F1092212F10920F
:1034E000222F9EC110921F2F1092202F1092212F59
:1034F0001092222F82E08093242F0E946013882351
:1035000021F483E08093242F8BC181E08093242FCA
:1035100087C1E0904838F090493800914A381091BE
:103520004B3860E070E080E090E00E946015DC01C4
:10353000CB01E816F9060A071B0711F00E948D154A
:103540008091172F9091182FA091192FB0911A2FB9
:10355000803011E0910711E0A10710E0B10720F0E1
:1035600084E08093242F5CC185E08093242F58C190
:103570000E942B1685E08093242F52C10E94F916D9
:103580008091172F9091182FA091192FB0911A2F79
:10359000803024E0920721E0A20720E0B20720F06B
:1035A00086E08093242F3CC18091172F9091182F93
:1035B000A091192FB0911A2F803031E0930731E09C
:1035C000A30730E0B30720F087E08093242F28C1C1
:1035D0008091232F8D7F8093232F88E08093242F49
:1035E0001FC10E94791687E08093242F19C1809112
:1035F000232F8470882369F58981882309F410C1F9
:103600008091AF219091B02187309105FCF02091FD
:10361000A1383091A23887E390E0B9010E94C13807
:103620000F920F92EDB7FEB731968AE197E2808351
:1036300091830E94ED380F900F902091A138309126
:10364000A2388AE090E0B9010E94C1380E94B918FE
:10365000E7C088E08093242F8091232F8D7F809373
:10366000232F8091232F8270882309F0ABC089819A
:10367000882309F4D5C080911F2F9091202FA0910D
:10368000212FB091222F0097A105B10531F1809132
:10369000AF219091B02187309105FCF02091A138A5
:1036A0003091A23887E390E0B9010E94C1380F92AF
:1036B0000F92EDB7FEB7319683E397E28083918353
:1036C0000E94ED380F900F902091A1383091A238D0
:1036D0008AE090E0B9010E94C13880911F2F90913B
:1036E000202FA091212FB091222F0196A11DB11D55
:1036F00080931F2F9093202FA093212FB093222FE0
:1037000080911F2F9091202FA091212FB091222FD7
:103710008A309105A105B10548F58091AF219091BE
:10372000B02187309105FCF02091A1383091A2386A
:1037300087E390E0B9010E94C1380F920F92EDB774
:10374000FEB731968FE497E2808391830E94ED3833
:103750000F900F902091A1383091A2388AE090E02C
:10376000B9010E94C1380E94FA175AC08091AF2156
:103770009091B02183309105FCF02091A1383091D7
:10378000A23883E390E0B9010E94C1380F920F92F2
:10379000EDB7FEB7319689E697E2808391830E9468
:1037A000ED380F900F902091A1383091A2388AE027
:1037B00090E0B9010E94C13881E08093242F0E94DB
:1037C000C5172EC010921F2F1092202F1092212F5C
:1037D0001092222F89E08093242F8091172F9091AF
:1037E000182FA091192FB0911A2F803003E0900765
:1037F00001E0A00700E0B00710F00E94D1158AE0B8
:103800008093242F0DC060E070E080E090E040E005
:1038100050E00E94EE18882319F011E01A8377C057
:103820008091232F8170882309F470C08091232F09
:103830008870882309F46AC02091F7313091F831FB
:103840004091F9315091FA318091132F9091142FBA
:10385000A091152FB091162F79018A01E81AF90A63
:103860000A0B1B0BD801C7018D339105A105B105CA
:1038700008F44CC08091AF219091B0218330910524
:103880000CF441C02091A1383091A23883E390E03C
:10389000B9010E94C1382091F7313091F83140913F
:1038A000F9315091FA318091132F9091142FA091FA
:1038B000152FB091162F79018A01E81AF90A0A0B1F
:1038C0001B0BD801C7019C01AD0100D000D0EDB7A2
:1038D000FEB7319689E897E2808391832283338310
:1038E000448355830E94ED380DB71EB70A5F1F4F02
:1038F0000DBF1EBF2091A1383091A2388AE090E020
:10390000B9010E94C13812E01A8301C01A828A816B
:103910002496CDBFDEBFCF91DF911F910F91FF9015
:10392000EF900895DF93CF93CDB7DEB78091AF21AD
:103930009091B02187309105FCF02091A138309111
:10394000A23887E390E0B9010E94C1380F920F922C
:10395000EDB7FEB731968AEB97E2808391830E94A0
:10396000ED380F900F902091A1383091A2388AE065
:1039700090E0B9010E94C1380E94C51781E0809390
:10398000242F83E29FE260E070E041E050E00E947B
:10399000AB3880E00E948919CF91DF910895DF93C1
:1039A000CF9300D000D0CDB7DEB769837A838B8305
:1039B0009C834D835E831092172F1092182F1092C4
:1039C000192F10921A2FED81FE818081882F90E0AF
:1039D000A0E0B0E0AC01332722278091172F90910F
:1039E000182FA091192FB0911A2F822B932BA42B53
:1039F000B52B8093172F9093182FA093192FB09366
:103A00001A2F8D819E81FC0131968081882F90E054
:103A1000982F88279C01442737FD4095542F80918B
:103A2000172F9091182FA091192FB0911A2F822B38
:103A3000932BA42BB52B8093172F9093182FA09323
:103A4000192FB0931A2F8D819E81FC0132968081AF
:103A5000282F30E040E050E08091172F9091182FF0
:103A6000A091192FB0911A2F822B932BA42BB52B39
:103A70008093172F9093182FA093192FB0931A2F7C
:103A80008091AF219091B02186309105F4F1209181
:103A9000A1383091A23886E390E0B9010E94C13884
:103AA000ED81FE818081682F70E08D819E81FC0117
:103AB00031968081282F30E08D819E81FC013296E5
:103AC0008081482F50E08DB79EB708978DBF9EBF6D
:103AD000EDB7FEB731968AEC97E2808391836283DB
:103AE000738324833583468357830E94ED388DB7D3
:103AF0009EB708968DBF9EBF2091A1383091A23805
:103B00008AE090E0B9010E94C1388091232F816042
:103B10008093232F8091172F9091182FA091192F08
:103B2000B0911A2F803021E0920721E0A20720E017
:103B3000B20728F08091232F88608093232F80E0A4
:103B40002696CDBFDEBFCF91DF9108952F923F9291
:103B50004F925F926F927F928F929F92AF92BF929D
:103B6000CF92DF92EF92FF920F931F93DF93CF9349
:103B7000CDB7DEB72F97CDBFDEBF69877A878B873A
:103B80009C874D875E8789859A85AB85BC85833008
:103B90009105A105B10569F489859A85AB85BC8538
:103BA0002D853E85BC01CD01A9010E94CF1C8F87C8
:103BB000B9C18091172F9091182FA091192FB09112
:103BC0001A2F803021E0920721E0A20720E0B207FF
:103BD00008F4A7C18FE598E32D853E85B90140E142
:103BE00050E00E94A2388091AF219091B0218630A0
:103BF0009105FCF02091A1383091A23886E390E045
:103C0000B9010E94C1380F920F92EDB7FEB73196FD
:103C10008FEE97E2808391830E94ED380F900F9092
:103C20002091A1383091A2388AE090E0B9010E9439
:103C3000C1388091673890916838A0916938B09107
:103C40006A38BC01CD010E946015DC01CB015C012A
:103C50006D01EE24FF2487012A2D3B2D4C2D5D2D77
:103C60006E2D7F2D802F912F00E20E949337A22E80
:103C7000B32EC42ED52EE62EF72E082F192F2A2C60
:103C80003B2C4C2C5D2C6E2C7F2C802E912E809109
:103C90006B3890916C38A0916D38B0916E38BC0142
:103CA000CD010E946015DC01CB019C01AD0160E0FB
:103CB00070E080E090E0E22DE22BE983E32DE32B3E
:103CC000EA83E42DE42BEB83E52DE52BEC83E62D55
:103CD000E62BED83E72DE72BEE83E82DE82BEF8332
:103CE000892D892B88878091AF219091B0218630D2
:103CF00091053CF12091A1383091A23886E390E003
:103D0000B9010E94C13880915F38282F30E000D07F
:103D10000F92EDB7FEB731968AE694E280839183E5
:103D2000228333830E94ED380F900F900F900F90F5
:103D30002091A1383091A2388AE090E0B9010E9428
:103D4000C1388091AF219091B021863091053CF12E
:103D50002091A1383091A23886E390E0B9010E9409
:103D6000C13880916038282F30E000D00F92EDB735
:103D7000FEB7319685E894E2808391832283338372
:103D80000E94ED380F900F900F900F902091A13866
:103D90003091A2388AE090E0B9010E94C138809148
:103DA000AF219091B0218630910554F12091A13836
:103DB0003091A23886E390E0B9010E94C138809129
:103DC0006138909162380E94A91F9C0100D00F9227
:103DD000EDB7FEB7319680EA94E280839183228327
:103DE00033830E94ED380F900F900F900F90209129
:103DF000A1383091A2388AE090E0B9010E94C13820
:103E00008091AF219091B02186309105A4F120914D
:103E1000A1383091A23886E390E0B9010E94C13800
:103E20008091633890916438A0916538B09166387C
:103E3000BC01CD010E9444159B01AC0100D000D013
:103E4000EDB7FEB731968DEB94E2808391832283A8
:103E50003383448355830E94ED388DB79EB7069611
:103E60008DBF9EBF2091A1383091A2388AE090E0AA
:103E7000B9010E94C1388091AF219091B021863064
:103E800091050CF449C02091A1383091A23886E305
:103E900090E0B9010E94C1388091673890916838EC
:103EA000A0916938B0916A38BC01CD010E946015BB
:103EB0007B018C0180916B3890916C38A0916D38AA
:103EC000B0916E38BC01CD010E9460159B01AC0120
:103ED0008DB79EB70A978DBF9EBFEDB7FEB73196DF
:103EE0008BED94E280839183E282F38204831583D5
:103EF00026833783408751870E94ED388DB79EB760
:103F00000A968DBF9EBF2091A1383091A2388AE0D9
:103F100090E0B9010E94C1388091232F8460809382
:103F2000232F1F868F852F96CDBFDEBFCF91DF91C8
:103F30001F910F91FF90EF90DF90CF90BF90AF90C7
:103F40009F908F907F906F905F904F903F902F90B9
:103F50000895DF93CF930F920F92CDB7DEB7898389
:103F60009A8389819A810E9435150F900F90CF9185
:103F7000DF910895DF93CF93CDB7DEB72897CDBFFC
:103F8000DEBF6B837C838D839E834F8358878091B4
:103F9000172F9091182FA091192FB0911A2F8030C0
:103FA00021E0920721E0A20720E0B20708F443C015
:103FB0008F81988589839A8361E070E080E090E04A
:103FC0000E946015DC01CB0180937F38909380388C
:103FD000A0938138B09382388FE698E329813A81A3
:103FE000B90144E250E00E94A2388091AF21909143
:103FF000B02186309105FCF02091A1383091A23893
:1040000086E390E0B9010E94C1380F920F92EDB79C
:10401000FEB7319682E198E2808391830E94ED3869
:104020000F900F902091A1383091A2388AE090E053
:10403000B9010E94C13880E02896CDBFDEBFCF9184
:10404000DF910895DF93CF9300D000D0CDB7DEB7D6
:1040500069837A838B839C834D835E838091AF21B8
:104060009091B02186309105FCF02091A1383091DB
:10407000A23886E390E0B9010E94C1380F920F92F6
:10408000EDB7FEB731968EE398E2808391830E946C
:10409000ED380F900F902091A1383091A2388AE02E
:1040A00090E0B9010E94C13882E08093242F80E023
:1040B0002696CDBFDEBFCF91DF910895DF93CF93DA
:1040C000CDB7DEB7E997CDBFDEBF6FA778AB89ABC1
:1040D0009AAB4BAB5CABCE0101968DAB9EABA3E72D
:1040E000B8E2AFABB8AFBCE1B9AFEFA9F8AD0080B3
:1040F0008FA998AD01968FAB98AFADA9BEA90C92D0
:10410000EDA9FEA93196EDABFEABF9ADF150F9AFDB
:1041100089AD882351F782E1FE017D96DF01982F5A
:104120001D929A95E9F78BA99CA99E012F5F3F4F9D
:10413000B9010E9494128091AF219091B0218630F4
:1041400091052CF12091A1383091A23886E390E0BE
:10415000B9010E94C13800D00F92EDB7FEB7319679
:1041600080E698E280839183CE01019682839383D7
:104170000E94ED380F900F900F900F902091A13872
:104180003091A2388AE090E0B9010E94C138809154
:10419000232F82608093232F80E0E996CDBFDEBF7E
:1041A000CF91DF910895DF93CF93CDB7DEB72797F7
:1041B000CDBFDEBF6A837B838C839D834E835F8309
:1041C000EE81FF81808189838981883010F087E0CA
:1041D00089832A813B818E819F81FC01E20FF31F3D
:1041E00010828981282F30E08091AF219091B021F9
:1041F0008217930754F18981882F90E0C09620910F
:10420000A1383091A238B9010E94C1388E819F81B6
:104210009C012F5F3F4F00D00F92EDB7FEB7319654
:1042200081EA98E280839183228333830E94ED3870
:104230000F900F900F900F902091A1383091A238DD
:104240008AE090E0B9010E94C13880E02796CDBF96
:10425000DEBFCF91DF910895DF93CF93CDB7DEB767
:104260002B97CDBFDEBF8A834B835C836D837E83B8
:104270002F83388781E089838A81282F30E02A873D
:104280003B878A859B858936910509F455C02A8527
:104290003B852A3631058CF48A859B8585369105C8
:1042A00021F12A853B852636310561F18A859B857A
:1042B0008130910509F467C080C02A853B852B3683
:1042C000310569F18A859B858B3691050CF441C0D7
:1042D0002A853B852C36310509F448C08A859B85A3
:1042E0008D36910509F45CC068C08B819C81AD81DD
:1042F000BE812F813885BC01CD01A9010E94B50E78
:1043000089835DC08B819C81AD81BE812F81388581
:10431000BC01CD01A9010E94A61D898350C08B81DB
:104320009C81AD81BE812F813885BC01CD01A90161
:104330000E94BA1F898343C08B819C81AD81BE815D
:104340002F813885BC01CD01A9010E945E2089839F
:1043500036C08B819C81AD81BE812F813885BC01A7
:10436000CD01A9010E942220898329C08B819C81D3
:10437000AD81BE812F813885BC01CD01A9010E948C
:10438000D32089831CC08B819C81AD81BE812F810C
:104390003885BC01CD01A9010E94CF1C89830FC0C3
:1043A0008B819C81AD81BE812F813885BC01CD017F
:1043B000A9010E94EE18898302C0198619C0809154
:1043C000F7319091F831A091F931B091FA318093A1
:1043D000132F9093142FA093152FB093162F89812C
:1043E000882321F480E00E94891989839981998723
:1043F00089852B96CDBFDEBFCF91DF910895DF93E6
:10440000CF9300D000D0CDB7DEB789839A834B839A
:104410005C836D837E8380E090E02696CDBFDEBF17
:10442000CF91DF910895DF93CF930F920F92CDB785
:10443000DEB789839A838091AF219091B021873034
:104440009105C4F18091AF219091B0218730910501
:104450008CF12091A1383091A23887E390E0B90126
:104460000E94C13800D00F92EDB7FEB731968CEAAA
:1044700098E28083918389819A81828393830E94C9
:10448000ED380F900F900F900F902091A138309140
:10449000A2388AE090E0B9010E94C1380BC0E981DE
:1044A000FA81208189819A81019689839A83822F5A
:1044B0000E94AB34E981FA818081882381F70F90D3
:1044C0000F90CF91DF910895DF93CF9300D00F929B
:1044D000CDB7DEB789839A836B837C838091F73174
:1044E0009091F831A091F931B091FA318093972FE2
:1044F0009093982FA093992FB0939A2F81E0809357
:104500002B2F10922C2F10922D2F8B819C8180931A
:104510009B2F90939C2F2496CDBFDEBFCF91DF9130
:104520000895EF92FF920F931F93DF93CF93CDB730
:10453000DEB78091AF219091B02187309105FCF0DA
:104540002091A1383091A23887E390E0B9010E9410
:10455000C1380F920F92EDB7FEB7319686EB98E215
:10456000808391830E94ED380F900F902091A138A5
:104570003091A2388AE090E0B9010E94C1381092CF
:10458000322F1092282FE0E4F6E080E285838091BC
:10459000F7319091F831A091F931B091FA318093CF
:1045A000972F9093982FA093992FB0939A2F02C092
:1045B0000E94EC032091F7313091F8314091F931AC
:1045C0005091FA318091972F9091982FA091992F27
:1045D000B0919A2F79018A01E81AF90A0A0B1B0B8C
:1045E000D801C70182309105A105B10508F380917A
:1045F000F7319091F831A091F931B091FA3180936F
:10460000972F9093982FA093992FB0939A2F8091E2
:10461000972F9091982FA091992FB0919A2F8B302E
:104620009105A105B105A4F08091972F9091982F45
:10463000A091992FB0919A2F0A97A109B10980935F
:10464000972F9093982FA093992FB0939A2F08C0EB
:104650001092972F1092982F1092992F10929A2FB4
:10466000E0E4F6E080E28683CF91DF911F910F9125
:10467000FF90EF900895EF92FF920F931F93DF93B7
:10468000CF93CDB7DEB7C357D040CDBFDEBF80914B
:10469000282F863070F01092252F0E949122809151
:1046A000262F9091272F01968093262F9093272FC6
:1046B000E7C52091F7313091F8314091F9315091AF
:1046C000FA318091972F9091982FA091992FB091C6
:1046D0009A2F79018A01E81AF90A0A0B1B0BD801F3
:1046E000C70184309105A105B10508F4C2C58091C8
:1046F000252F8D3089F48091F7319091F831A09178
:10470000F931B091FA318093972F9093982FA0931D
:10471000992FB0939A2FB4C510922B2F80912C2FE4
:1047200090912D2F009791F48091252F8D3070F46A
:104730001092252F0E9491228091262F9091272F51
:1047400001968093262F9093272F9AC580912C2F26
:1047500090912D2F009709F493C580912C2F909163
:104760002D2FFC01E356F04D10828091AF219091E6
:10477000B0218730910564F18091AF219091B021F3
:10478000873091052CF12091A1383091A23887E330
:1047900090E0B9010E94C13800D00F92EDB7FEB78A
:1047A000319681EC98E2808391838DE99FE2828348
:1047B00093830E94ED380F900F900F900F902091EF
:1047C000A1383091A2388AE090E0B9010E94C13846
:1047D0008091252F082F10E0E4960EAF1FAFE497CD
:1047E000E4962EAD3FADE4972530310509F425C19F
:1047F000E4968EAD9FADE4978630910584F5E496FE
:104800000EAD1FADE4970230110509F4B1C0E49676
:104810002EAD3FADE4972330310584F4E4968EADA0
:104820009FADE497009709F453C0E4960EAD1FAD19
:10483000E4970130110509F480C022C5E4962EAD3D
:104840003FADE4972330310509F4A1C0E4968EAD65
:104850009FADE4978430910509F4D1C011C5E49669
:104860000EAD1FADE4970830110509F428C1E49698
:104870002EAD3FADE497293031058CF4E4968EAD32
:104880009FADE4978630910509F4E3C0E4960EAD40
:104890001FADE4970730110509F4F6C0F1C4E496A2
:1048A0002EAD3FADE4972A30310509F420C1E496DE
:1048B0008EAD9FADE4978A3091050CF40CC1E4965F
:1048C0000EAD1FADE4970C30110509F41CC1D8C41E
:1048D00080912C2F90912D2F8A30910599F4809101
:1048E0002C2F90912D2FAC018DE99FE22DEC38E219
:1048F000B9010E949538009709F0C2C481E0809305
:10490000252FBEC480912C2F90912D2F863091059C
:1049100009F0B6C480912C2F90912D2FAC018DE918
:104920009FE228ED38E2B9010E949538009709F01E
:10493000A7C482E08093252FA3C480912C2F90914F
:104940002D2F8C30910509F09BC480912C2F9091D4
:104950002D2FAC018DE99FE22FED38E2B9010E94C5
:104960009538009709F08CC482E08093252F88C485
:1049700080912C2F90912D2F8B30910524F08CE07D
:104980008093252F7DC483E08093252F79C4809167
:104990002C2F90912D2F8831910599F480912C2FF7
:1049A00090912D2FAC018DE99FE22CEE38E2B901F8
:1049B0000E949538009709F063C484E08093252F06
:1049C0005FC480912C2F90912D2F8631910599F401
:1049D00080912C2F90912D2FAC018DE99FE225E045
:1049E00039E2B9010E949538009709F049C485E081
:1049F0008093252F45C48BE08093252F41C480915F
:104A00002C2F90912D2F8630910599F480912C2F89
:104A100090912D2FAC018DE99FE228ED38E2B9018C
:104A20000E949538009709F02BC483E08093252FCE
:104A300027C48BE08093252F23C480912C2F909145
:104A40002D2F863091050CF41BC486E08093252F12
:104A500017C480912C2F90912D2F8431910509F04E
:104A60000FC480912C2F90912D2FAC018DE99FE2E6
:104A70002CE139E2B9010E949538009709F000C491
:104A800087E08093252FFCC380912C2F90912D2FB0
:104A90008331910509F0F4C380912C2F90912D2F33
:104AA000AC018DE99FE221E339E2B9010E9495381A
:104AB000009709F0E5C388E08093252FE1C380913A
:104AC0002C2F90912D2F8B3091050CF4D9C389E0B8
:104AD0008093252FD5C380912C2F90912D2F863038
:104AE00091050CF4CDC38AE08093252FC9C3809132
:104AF0002C2F90912D2F863091050CF4C1C382E0AC
:104B00008093252FBDC380912C2F90912D2F86301F
:104B100091050CF4B5C38DE08093252F1092282FBA
:104B2000AFC380912C2F90912D2F2985FC01E35646
:104B3000F04D208380912C2F90912D2F0196809302
:104B40002C2F90932D2F8091252F8D3009F091C31C
:104B500080912C2F90912D2F009709F4E3C1809123
:104B60002C2F90912D2F9C0180912E2F90912F2FE3
:104B70002817390709F0D6C180912C2F90912D2F3D
:104B8000FC01E356F04D10828091AF219091B0214D
:104B90008730910564F18091AF219091B0218730E9
:104BA00091052CF12091A1383091A23887E390E053
:104BB000B9010E94C13800D00F92EDB7FEB731960F
:104BC00085E499E2808391838DE99FE282839383D8
:104BD0000E94ED380F900F900F900F902091A13808
:104BE0003091A2388AE090E0B9010E94C1381F825A
:104BF00018865BC08F819885880F991FFC01E3564A
:104C0000F04D8081813458F08F819885880F991FED
:104C1000FC01E356F04D808187538C830AC08F815D
:104C20009885880F991FFC01E356F04D80818053D1
:104C30008C838C818295807F8C838F819885880F6F
:104C4000991F0196FC01E356F04D8081813480F07C
:104C50008F819885880F991F0196FC01E356F04DCE
:104C600080818753982F9F708C81892B8C830FC0F4
:104C70008F819885880F991F0196FC01E356F04DAE
:104C800080818053982F9F708C81892B8C832F81FA
:104C90003885CE010A96FC01E20FF31F8C818083D8
:104CA0008F81988501968F8398878F819885209131
:104CB0002E2F30912F2F369527958217930708F4C2
:104CC00099CF8A85882F90E08D839E838D819E81E8
:104CD000982F88278D839E838B85282F30E08D81A8
:104CE0009E81822B932B8D839E838D819E81039643
:104CF0009C0180912E2F90912F2F969587952817A4
:104D0000390709F0CDC08D85282F30E0E2962EAF0F
:104D10003FAFE297E2968EAD9FADE297833091056B
:104D200009F446C0E2960EAD1FADE29704301105BE
:104D300084F4E2962EAD3FADE2972130310509F4BF
:104D4000E9C0E2968EAD9FADE29782309105C1F049
:104D5000E1C0E2960EAD1FADE2970530110571F18D
:104D6000E2962EAD3FADE2972530310524F1E29673
:104D70008EAD9FADE2978630910509F43EC0CAC062
:104D80008D819E810197FC0143E35FE2CE010A968B
:104D90009C012C5F3F4FCA01B901AF010E94A238AC
:104DA0008D819E8101978093292F90932A2FB2C0E5
:104DB0000E94C605AFC00E94D105ACC040914223FD
:104DC00050914323CE010A969C012C5F3F4FCA01AC
:104DD000B90142E050E00E94A23840914423509132
:104DE0004523CE010A969C012A5F3F4FCA01B901B3
:104DF00042E050E00E94A2388DC01092933185E0CD
:104E0000809394311092953187E080939631809110
:104E1000262F9091272F892F992780939731809162
:104E2000262F9091272F80939831E0914623F0917F
:104E3000472380819181892F992780939931E0912F
:104E40004623F09147238081918180939A3180910C
:104E50009431882F90E003968093302F9093312FD8
:104E6000209191313091923100D000D0EDB7FEB752
:104E70003196CE010A968083918388E599E28283F8
:104E80009383248335830E9437390DB71EB70A5F99
:104E90001F4F0DBF1EBFCE010A960E9413223AC0BB
:104EA0008091AF219091B021873091059CF12091A4
:104EB000A1383091A23887E390E0B9010E94C1384F
:104EC0008D819E81AC014D5F5F4F80912E2F90911F
:104ED0002F2F9C013695279500D000D0EDB7FEB757
:104EE000319688E699E280839183428353832483B9
:104EF00035830E94ED382DB73EB72A5F3F4F2DBF57
:104F00003EBF2091A1383091A2388AE090E0B901EB
:104F10000E94C13810922E2F10922F2F10922C2FFA
:104F200010922D2F8985E82EFF24E096EEAEFFAE7D
:104F3000E097E0960EAD1FADE0970B32110509F436
:104F400099C0E0962EAD3FADE0972E33310549F084
:104F5000E0968EAD9FADE0978A30910509F494C03C
:104F600088C18091302F9091312F009709F481C131
:104F70001A821B8237C08A819B81FC01ED56FE4C50
:104F800080818983898182958F70898389818F70DF
:104F9000898389818A3020F48981805D898303C077
:104FA0008981895C898389810E94AB348A819B8154
:104FB000FC01ED56FE4C8081898389818F70898345
:104FC00089818A3020F48981805D898303C0898149
:104FD000895C898389810E94AB348A819B81019697
:104FE0008A839B832A813B818091302F9091312F3E
:104FF0002817390708F4BFCF8AE10E94AB348091AB
:10500000AF219091B021873091057CF12091A1389A
:105010003091A23887E390E0B9010E94C138209115
:105020009131309192314091302F5091312F00D0F9
:1050300000D0EDB7FEB7319685E899E28083918381
:1050400022833383448355830E94ED380DB71EB706
:105050000A5F1F4F0DBF1EBF2091A1383091A238AB
:105060008AE090E0B9010E94C1381092302F10926E
:10507000312FFFC0898580939D2F81E090E0809340
:105080002C2F90932D2FF5C080912C2F90912D2FA8
:10509000FC01E356F04D10828091AF219091B02138
:1050A0008730910564F18091AF219091B0218730D4
:1050B00091052CF12091A1383091A23887E390E03E
:1050C000B9010E94C13800D00F92EDB7FEB73196FA
:1050D00081EC98E2808391838DE99FE282839383C0
:1050E0000E94ED380F900F900F900F902091A138F3
:1050F0003091A2388AE090E0B9010E94C1388091D5
:105100002C2F90912D2F8D3091050CF458C08DE9E6
:105110009FE226EA39E2B90149E050E00E94953861
:10512000009709F04CC01092282F1092322F88EA75
:105130009FE20E94773880932E2F90932F2F86EA3C
:105140009FE20E94773880939131909392318091C1
:10515000AF219091B021873091050CF486C0209149
:10516000A1383091A23887E390E0B9010E94C1389C
:10517000209191313091923140912E2F50912F2FCB
:1051800000D000D0EDB7FEB7319680EB99E2808376
:10519000918322833383448355830E94ED382DB756
:1051A0003EB72A5F3F4F2DBF3EBF2091A1383091BF
:1051B000A2388AE090E0B9010E94C13856C08091BF
:1051C0002C2F90912D2F8C309105CCF08DE99FE202
:1051D0002DEC39E2B9014BE050E00E949538009780
:1051E00071F41092252F0E9491228091262F909188
:1051F000272F01968093262F9093272F36C08091DA
:105200002C2F90912D2F8E309105CCF08DE99FE2BF
:1052100029ED39E2B9014DE050E00E949538009740
:1052200071F41092252F0E9491228091262F909147
:10523000272F01968093262F9093272F16C08091B9
:105240002C2F90912D2F8E3091057CF08DE99FE2CF
:1052500027EE39E2B9014DE050E00E949538009701
:1052600021F41092282F1092322F10922C2F10928E
:105270002D2FCE0109960E943934009709F051CCA8
:10528000CD58DF4FCDBFDEBFCF91DF911F910F9182
:10529000FF90EF900895DF93CF93CDB7DEB7E697F9
:1052A000CDBFDEBF80912B2F882351F1809196389E
:1052B000882331F01092963885EF99E20E941322EC
:1052C00080919938882331F01092993885E09AE2DC
:1052D0000E9413228091252F8D3079F48091322FF6
:1052E000882359F48091282F853038F081E080930D
:1052F000322F85EF99E20E9413220E943B2315C1B1
:105300008091252F282F30E02DAB3EAB8DA99EA993
:105310008630910509F4C1C02DA93EA92730310579
:1053200024F58DA99EA98230910509F45FC02DA9AD
:105330003EA92330310564F48DA99EA9009709F494
:105340003FC02DA93EA92130310509F444C0EDC06C
:105350008DA99EA98430910509F45EC02DA93EA9AE
:10536000253031050CF08EC04CC08DA99EA9893026
:10537000910509F4B3C02DA93EA92A3031056CF47A
:105380008DA99EA98730910509F492C02DA93EA947
:105390002830310509F497C0C8C08DA99EA98C306A
:1053A000910509F4B1C02DA93EA92D30310509F4AC
:1053B000B6C08DA99EA98A30910509F49AC0B5C0DE
:1053C00084E19AE20E9413228DE99FE264EF71E08A
:1053D0000E946422AAC089E19AE20E9413228DE908
:1053E0009FE264EF71E00E9464229FC080E29AE233
:1053F0000E9413228DE99FE264EF71E00E94642213
:1054000094C08BE29AE20E9413228DE99FE264EF3E
:1054100071E00E94642289C08091AF219091B021F7
:1054200089839A8384E090E08093AF219093B021A8
:1054300000D000D0EDB7FEB73196CE010396808341
:10544000918386E39AE2828393838AE998E3848353
:1054500095830E9437392DB73EB72A5F3F4F2DBF46
:105460003EBFCE0103960E94132289819A818093C8
:10547000AF219093B0218DE99FE264EF71E00E942B
:10548000642253C085E49AE20E9413228DE99FE2D0
:1054900064EF71E00E94642248C083E59AE20E94B2
:1054A00013228DE99FE264EF71E00E9464223DC007
:1054B0008EE59AE20E9413228DE99FE264EF71E08B
:1054C0000E94642232C08AE69AE20E9413228DE989
:1054D0009FE264EF71E00E94642227C083E79AE2B2
:1054E0000E9413228DE99FE264EF71E00E94642222
:1054F0001CC087E89AE20E9413228DE99FE264EFC4
:1055000071E00E94642211C082E99AE20E94132293
:105510008DE99FE264EF71E00E94642206C08DE98C
:105520009FE264EF71E00E946422E696CDBFDEBF89
:10553000CF91DF910895DF93CF93CDB7DEB70E946F
:105540004B29CF91DF910895DF93CF93CDB7DEB78D
:105550002797CDBFDEBF89839A834B835C836D839E
:105560007E8389819A812B813C814D815E81BA0144
:10557000A9010E94FF2199234CF58091AF219091C0
:10558000B02183309105FCF02091A1383091A238F0
:1055900083E390E0B9010E94C1380F920F92EDB7FA
:1055A000FEB7319688EA9AE2808391830E94ED38B3
:1055B0000F900F902091A1383091A2388AE090E0AE
:1055C000B9010E94C13881E08F8327C08091AF214B
:1055D0009091B02187309105FCF02091A138309155
:1055E000A23887E390E0B9010E94C1380F920F9270
:1055F000EDB7FEB7319687EC9AE2808391830E94E3
:10560000ED380F900F902091A1383091A2388AE0A8
:1056100090E0B9010E94C1381F828F812796CDBFCB
:10562000DEBFCF91DF910895DF93CF9300D0CDB748
:10563000DEB719821A828091292F90912A2F18168D
:1056400019060CF042C08091292F90912A2F89834E
:105650009A831092292F10922A2F89819A81AA2742
:1056600097FDA095BA2F23E33FE2BC01CD01A9012C
:105670000E943418882349F18091AF219091B02184
:1056800083309105FCF02091A1383091A23883E35A
:1056900090E0B9010E94C1380F920F92EDB7FEB7AA
:1056A000319680EE9AE2808391830E94ED380F90CC
:1056B0000F902091A1383091A2388AE090E0B90192
:1056C0000E94C13881E08B8301C01B828B812396AD
:1056D000CDBFDEBFCF91DF910895DF93CF93CDB7DC
:1056E000DEB72997CDBFDEBF6B837C838D839E831E
:1056F0004F83588719821A8289819A819C01442795
:1057000037FD4095542F8B819C81AD81BE81281738
:1057100039074A075B0711F4198602C081E08987BF
:1057200089852996CDBFDEBFCF91DF910895DF93A4
:10573000CF930F920F92CDB7DEB789836A838A81A8
:105740008F718A83E0E5F0E099818A81892B8583D6
:105750000F900F90CF91DF910895DF93CF930F9229
:105760000F92CDB7DEB78A83A0E5B0E0E0E5F0E0C8
:105770008081982F8A81809589238C93E0E5F0E0E1
:1057800090818A818923898389810F900F90CF919D
:10579000DF9108950F93DF93CF9300D000D0CDB762
:1057A000DEB78C839D836E83EFE3F0E080818B8393
:1057B000F8948C819D8189839A83EBE3F0E01082D9
:1057C00089819A812E81FC0108ED04BF2083EFE3DB
:1057D000F0E08B8180832696CDBFDEBFCF91DF9135
:1057E0000F910895DF93CF9300D0CDB7DEB78A83B2
:1057F0006B838A819B81892B898381E490E0698115
:105800000E94CA2B2396CDBFDEBFCF91DF910895B2
:10581000DF93CF930F920F92CDB7DEB78A83E0E488
:10582000F0E08081982F987F8A81892B898380E49A
:1058300090E069810E94CA2BE0E4F0E090818A81C7
:105840008923898389810F900F90CF91DF910895EB
:10585000DF93CF9300D000D0CDB7DEB789836A83C2
:105860004B8380E590E08D839E838A81882319F0A5
:1058700090E29C8301C01C8289819C81982B8B8142
:10588000892BED81FE8182832696CDBFDEBFCF912D
:10589000DF910895DF93CF93CDB7DEB780EC60E062
:1058A00043E00E94282CA0E5B0E0E0E5F0E0808134
:1058B00088608C93E0E5F0E08181882F90E088702B
:1058C00090700097B9F380EC62E00E94972BA0E5FE
:1058D000B0E0E0E5F0E0808180618C93E0E5F0E00D
:1058E0008181882F90E0807190700097B9F384E0F7
:1058F0000E94082C81E00E94AD2BCF91DF9108958A
:10590000DF93CF93CDB7DEB72597CDBFDEBF8B83B7
:105910006C834D830E94252DE0ECF1E083E38287C8
:105920008B81882F90E0880F991F82959295907FA8
:105930009827807F98279C018C81882F90E08F7119
:105940009070822B932B89839A83E0ECF1E089811C
:105950008083E0ECF1E089819A81892F99278F710A
:105960008183E0ECF1E01282E0ECF1E08D81848350
:10597000E0ECF1E085E38287EF93FF930F932F93A1
:10598000EBECF1E008ED21E004BF20832F910F91B3
:10599000FF91EF912596CDBFDEBFCF91DF910895A6
:1059A000DF93CF9300D00F92CDB7DEB78B836C839C
:1059B0000E94192D8B81882F90E0880F991F829566
:1059C0009295907F9827807F98279C018C81882FC3
:1059D00090E08F719070822B932B89839A83E0ECF7
:1059E000F1E089818083E0ECF1E089819A81892F5F
:1059F00099278F718183E0ECF1E01282E0ECF1E015
:105A000086E08287EF93FF930F932F93EBECF1E007
:105A100008ED21E004BF20832F910F91FF91EF91BA
:105A2000E0ECF1E084812496CDBFDEBFCF91DF9121
:105A30000895DF93CF93CDB7DEB7E0ECF1E0878533
:105A40008823DCF3CF91DF910895DF93CF93CDB717
:105A5000DEB70E94192DE0ECF1E08785882F90E0F9
:105A600082709070009791F0E0ECF1E086E382871D
:105A7000EF93FF930F932F93EBECF1E008ED21E010
:105A800004BF20832F910F91FF91EF91CF91DF9170
:105A90000895DF93CF930F920F92CDB7DEB789832E
:105AA0006A830E94192DE0ECF1E083E38287E0EC49
:105AB000F1E089818083E0ECF1E01182E0ECF1E03B
:105AC0001282E0ECF1E08A8184830F900F90CF91F5
:105AD000DF910895DF93CF9300D0CDB7DEB78A83EF
